{
	"data": {
		"bytecode": {
			"linkReferences": {},
			"object": "608060405234801562000010575f80fd5b506040516200178a3803806200178a833981810160405281019062000036919062000177565b815f806101000a81548173ffffffffffffffffffffffffffffffffffffffff021916908373ffffffffffffffffffffffffffffffffffffffff1602179055508060015f6101000a81548173ffffffffffffffffffffffffffffffffffffffff021916908373ffffffffffffffffffffffffffffffffffffffff1602179055505050620001bc565b5f80fd5b5f73ffffffffffffffffffffffffffffffffffffffff82169050919050565b5f620000ec82620000c1565b9050919050565b5f620000ff82620000e0565b9050919050565b6200011181620000f3565b81146200011c575f80fd5b50565b5f815190506200012f8162000106565b92915050565b5f6200014182620000e0565b9050919050565b620001538162000135565b81146200015e575f80fd5b50565b5f81519050620001718162000148565b92915050565b5f806040838503121562000190576200018f620000bd565b5b5f6200019f858286016200011f565b9250506020620001b28582860162000161565b9150509250929050565b6115c080620001ca5f395ff3fe608060405260043610610033575f3560e01c80637193bfab14610037578063bf6cb6a114610067578063c1d5725f146100a3575b5f80fd5b610051600480360381019061004c9190610d9e565b6100df565b60405161005e9190610de1565b60405180910390f35b348015610072575f80fd5b5061008d60048036038101906100889190610f36565b6105e6565b60405161009a9190610f95565b60405180910390f35b3480156100ae575f80fd5b506100c960048036038101906100c49190610fd8565b610613565b6040516100d69190610f95565b60405180910390f35b5f805f8054906101000a900473ffffffffffffffffffffffffffffffffffffffff1673ffffffffffffffffffffffffffffffffffffffff168373ffffffffffffffffffffffffffffffffffffffff161490505f60015f9054906101000a900473ffffffffffffffffffffffffffffffffffffffff1673ffffffffffffffffffffffffffffffffffffffff168473ffffffffffffffffffffffffffffffffffffffff161490505f7fffffffffffffffffffffffffffffffffffffffffffffffffffffffffffffffff9050821561039d57345f8054906101000a900473ffffffffffffffffffffffffffffffffffffffff1673ffffffffffffffffffffffffffffffffffffffff166370a08231306040518263ffffffff1660e01b81526004016102079190611037565b602060405180830381865afa158015610222573d5f803e3d5ffd5b505050506040513d601f19601f820116820180604052508101906102469190611064565b1015610287576040517f08c379a000000000000000000000000000000000000000000000000000000000815260040161027e9061110f565b60405180910390fd5b6102d133345f8054906101000a900473ffffffffffffffffffffffffffffffffffffffff1673ffffffffffffffffffffffffffffffffffffffff166109ee9092919063ffffffff16565b3460026040516102e090611181565b90815260200160405180910390205f8282546102fc91906111c2565b925050819055505f8054906101000a900473ffffffffffffffffffffffffffffffffffffffff1673ffffffffffffffffffffffffffffffffffffffff166370a08231336040518263ffffffff1660e01b815260040161035b9190611037565b602060405180830381865afa158015610376573d5f803e3d5ffd5b505050506040513d601f19601f8201168201806040525081019061039a9190611064565b90505b8115610598573460015f9054906101000a900473ffffffffffffffffffffffffffffffffffffffff1673ffffffffffffffffffffffffffffffffffffffff166370a08231306040518263ffffffff1660e01b81526004016103fe9190611037565b602060405180830381865afa158015610419573d5f803e3d5ffd5b505050506040513d601f19601f8201168201806040525081019061043d9190611064565b101561047e576040517f08c379a000000000000000000000000000000000000000000000000000000000815260040161047590611265565b60405180910390fd5b6104ca333460015f9054906101000a900473ffffffffffffffffffffffffffffffffffffffff1673ffffffffffffffffffffffffffffffffffffffff166109ee9092919063ffffffff16565b3460026040516104d9906112cd565b90815260200160405180910390205f8282546104f591906111c2565b9250508190555060015f9054906101000a900473ffffffffffffffffffffffffffffffffffffffff1673ffffffffffffffffffffffffffffffffffffffff166370a08231336040518263ffffffff1660e01b81526004016105569190611037565b602060405180830381865afa158015610571573d5f803e3d5ffd5b505050506040513d601f19601f820116820180604052508101906105959190611064565b90505b5f8112156105db576040517f08c379a00000000000000000000000000000000000000000000000000000000081526004016105d29061132b565b60405180910390fd5b809350505050919050565b6002818051602081018201805184825260208301602085012081835280955050505050505f915090505481565b5f805f8054906101000a900473ffffffffffffffffffffffffffffffffffffffff1673ffffffffffffffffffffffffffffffffffffffff168573ffffffffffffffffffffffffffffffffffffffff161490505f60015f9054906101000a900473ffffffffffffffffffffffffffffffffffffffff1673ffffffffffffffffffffffffffffffffffffffff168573ffffffffffffffffffffffffffffffffffffffff161490505f821561084e5761070d33308760015f9054906101000a900473ffffffffffffffffffffffffffffffffffffffff1673ffffffffffffffffffffffffffffffffffffffff16610a6d909392919063ffffffff16565b84600260405161071c906112cd565b90815260200160405180910390205f8282546107389190611349565b925050819055505f8054906101000a900473ffffffffffffffffffffffffffffffffffffffff1673ffffffffffffffffffffffffffffffffffffffff1663a9059cbb33876040518363ffffffff1660e01b815260040161079992919061137c565b6020604051808303815f875af11580156107b5573d5f803e3d5ffd5b505050506040513d601f19601f820116820180604052508101906107d991906113d8565b610818576040517f08c379a000000000000000000000000000000000000000000000000000000000815260040161080f9061144d565b60405180910390fd5b84600260405161082790611181565b90815260200160405180910390205f82825461084391906111c2565b925050819055508490505b81156109e1576108a03330875f8054906101000a900473ffffffffffffffffffffffffffffffffffffffff1673ffffffffffffffffffffffffffffffffffffffff16610a6d909392919063ffffffff16565b8460026040516108af90611181565b90815260200160405180910390205f8282546108cb9190611349565b925050819055505f8054906101000a900473ffffffffffffffffffffffffffffffffffffffff1673ffffffffffffffffffffffffffffffffffffffff1663a9059cbb33876040518363ffffffff1660e01b815260040161092c92919061137c565b6020604051808303815f875af1158015610948573d5f803e3d5ffd5b505050506040513d601f19601f8201168201806040525081019061096c91906113d8565b6109ab576040517f08c379a00000000000000000000000000000000000000000000000000000000081526004016109a2906114b5565b60405180910390fd5b8460026040516109ba906112cd565b90815260200160405180910390205f8282546109d691906111c2565b925050819055508490505b8093505050509392505050565b610a68838473ffffffffffffffffffffffffffffffffffffffff1663a9059cbb8585604051602401610a2192919061137c565b604051602081830303815290604052915060e01b6020820180517bffffffffffffffffffffffffffffffffffffffffffffffffffffffff8381831617835250505050610aef565b505050565b610ae9848573ffffffffffffffffffffffffffffffffffffffff166323b872dd868686604051602401610aa2939291906114d3565b604051602081830303815290604052915060e01b6020820180517bffffffffffffffffffffffffffffffffffffffffffffffffffffffff8381831617835250505050610aef565b50505050565b5f610b19828473ffffffffffffffffffffffffffffffffffffffff16610b8490919063ffffffff16565b90505f815114158015610b3d575080806020019051810190610b3b91906113d8565b155b15610b7f57826040517f5274afe7000000000000000000000000000000000000000000000000000000008152600401610b769190611037565b60405180910390fd5b505050565b6060610b9183835f610b99565b905092915050565b606081471015610be057306040517fcd786059000000000000000000000000000000000000000000000000000000008152600401610bd79190611037565b60405180910390fd5b5f808573ffffffffffffffffffffffffffffffffffffffff168486604051610c089190611574565b5f6040518083038185875af1925050503d805f8114610c42576040519150601f19603f3d011682016040523d82523d5f602084013e610c47565b606091505b5091509150610c57868383610c62565b925050509392505050565b606082610c7757610c7282610cef565b610ce7565b5f8251148015610c9d57505f8473ffffffffffffffffffffffffffffffffffffffff163b145b15610cdf57836040517f9996b315000000000000000000000000000000000000000000000000000000008152600401610cd69190611037565b60405180910390fd5b819050610ce8565b5b9392505050565b5f81511115610d015780518082602001fd5b6040517f1425ea4200000000000000000000000000000000000000000000000000000000815260040160405180910390fd5b5f604051905090565b5f80fd5b5f80fd5b5f73ffffffffffffffffffffffffffffffffffffffff82169050919050565b5f610d6d82610d44565b9050919050565b610d7d81610d63565b8114610d87575f80fd5b50565b5f81359050610d9881610d74565b92915050565b5f60208284031215610db357610db2610d3c565b5b5f610dc084828501610d8a565b91505092915050565b5f819050919050565b610ddb81610dc9565b82525050565b5f602082019050610df45f830184610dd2565b92915050565b5f80fd5b5f80fd5b5f601f19601f8301169050919050565b7f4e487b71000000000000000000000000000000000000000000000000000000005f52604160045260245ffd5b610e4882610e02565b810181811067ffffffffffffffff82111715610e6757610e66610e12565b5b80604052505050565b5f610e79610d33565b9050610e858282610e3f565b919050565b5f67ffffffffffffffff821115610ea457610ea3610e12565b5b610ead82610e02565b9050602081019050919050565b828183375f83830152505050565b5f610eda610ed584610e8a565b610e70565b905082815260208101848484011115610ef657610ef5610dfe565b5b610f01848285610eba565b509392505050565b5f82601f830112610f1d57610f1c610dfa565b5b8135610f2d848260208601610ec8565b91505092915050565b5f60208284031215610f4b57610f4a610d3c565b5b5f82013567ffffffffffffffff811115610f6857610f67610d40565b5b610f7484828501610f09565b91505092915050565b5f819050919050565b610f8f81610f7d565b82525050565b5f602082019050610fa85f830184610f86565b92915050565b610fb781610f7d565b8114610fc1575f80fd5b50565b5f81359050610fd281610fae565b92915050565b5f805f60608486031215610fef57610fee610d3c565b5b5f610ffc86828701610d8a565b935050602061100d86828701610d8a565b925050604061101e86828701610fc4565b9150509250925092565b61103181610d63565b82525050565b5f60208201905061104a5f830184611028565b92915050565b5f8151905061105e81610fae565b92915050565b5f6020828403121561107957611078610d3c565b5b5f61108684828501611050565b91505092915050565b5f82825260208201905092915050565b7f4e6f7420656e6f7567682054417320746f2073656c6c20666f722065746865725f8201527f732c20726576657274696e670000000000000000000000000000000000000000602082015250565b5f6110f9602c8361108f565b91506111048261109f565b604082019050919050565b5f6020820190508181035f830152611126816110ed565b9050919050565b5f81905092915050565b7f54410000000000000000000000000000000000000000000000000000000000005f82015250565b5f61116b60028361112d565b915061117682611137565b600282019050919050565b5f61118b8261115f565b9150819050919050565b7f4e487b71000000000000000000000000000000000000000000000000000000005f52601160045260245ffd5b5f6111cc82610f7d565b91506111d783610f7d565b92508282039050818111156111ef576111ee611195565b5b92915050565b7f4e6f7420656e6f7567682054427320746f2073656c6c20666f722065746865725f8201527f732c20726576657274696e670000000000000000000000000000000000000000602082015250565b5f61124f602c8361108f565b915061125a826111f5565b604082019050919050565b5f6020820190508181035f83015261127c81611243565b9050919050565b7f54420000000000000000000000000000000000000000000000000000000000005f82015250565b5f6112b760028361112d565b91506112c282611283565b600282019050919050565b5f6112d7826112ab565b9150819050919050565b7f77726f6e6720746f6b656e2c20726576657274696e67000000000000000000005f82015250565b5f61131560168361108f565b9150611320826112e1565b602082019050919050565b5f6020820190508181035f83015261134281611309565b9050919050565b5f61135382610f7d565b915061135e83610f7d565b925082820190508082111561137657611375611195565b5b92915050565b5f60408201905061138f5f830185611028565b61139c6020830184610f86565b9392505050565b5f8115159050919050565b6113b7816113a3565b81146113c1575f80fd5b50565b5f815190506113d2816113ae565b92915050565b5f602082840312156113ed576113ec610d3c565b5b5f6113fa848285016113c4565b91505092915050565b7f63616e6e6f74207472616e736665722054417320746f207468652062757965725f82015250565b5f61143760208361108f565b915061144282611403565b602082019050919050565b5f6020820190508181035f8301526114648161142b565b9050919050565b7f63616e6e6f74207472616e736665722054427320746f207468652062757965725f82015250565b5f61149f60208361108f565b91506114aa8261146b565b602082019050919050565b5f6020820190508181035f8301526114cc81611493565b9050919050565b5f6060820190506114e65f830186611028565b6114f36020830185611028565b6115006040830184610f86565b949350505050565b5f81519050919050565b5f81905092915050565b5f5b8381101561153957808201518184015260208101905061151e565b5f8484015250505050565b5f61154e82611508565b6115588185611512565b935061156881856020860161151c565b80840191505092915050565b5f61157f8284611544565b91508190509291505056fea2646970667358221220609fe240e4937f235fcdb23a36174906ea0535c858a56c7f7a960c493474f26764736f6c63430008160033",
			"opcodes": "PUSH1 0x80 PUSH1 0x40 MSTORE CALLVALUE DUP1 ISZERO PUSH3 0x10 JUMPI PUSH0 DUP1 REVERT JUMPDEST POP PUSH1 0x40 MLOAD PUSH3 0x178A CODESIZE SUB DUP1 PUSH3 0x178A DUP4 CODECOPY DUP2 DUP2 ADD PUSH1 0x40 MSTORE DUP2 ADD SWAP1 PUSH3 0x36 SWAP2 SWAP1 PUSH3 0x177 JUMP JUMPDEST DUP2 PUSH0 DUP1 PUSH2 0x100 EXP DUP2 SLOAD DUP2 PUSH20 0xFFFFFFFFFFFFFFFFFFFFFFFFFFFFFFFFFFFFFFFF MUL NOT AND SWAP1 DUP4 PUSH20 0xFFFFFFFFFFFFFFFFFFFFFFFFFFFFFFFFFFFFFFFF AND MUL OR SWAP1 SSTORE POP DUP1 PUSH1 0x1 PUSH0 PUSH2 0x100 EXP DUP2 SLOAD DUP2 PUSH20 0xFFFFFFFFFFFFFFFFFFFFFFFFFFFFFFFFFFFFFFFF MUL NOT AND SWAP1 DUP4 PUSH20 0xFFFFFFFFFFFFFFFFFFFFFFFFFFFFFFFFFFFFFFFF AND MUL OR SWAP1 SSTORE POP POP POP PUSH3 0x1BC JUMP JUMPDEST PUSH0 DUP1 REVERT JUMPDEST PUSH0 PUSH20 0xFFFFFFFFFFFFFFFFFFFFFFFFFFFFFFFFFFFFFFFF DUP3 AND SWAP1 POP SWAP2 SWAP1 POP JUMP JUMPDEST PUSH0 PUSH3 0xEC DUP3 PUSH3 0xC1 JUMP JUMPDEST SWAP1 POP SWAP2 SWAP1 POP JUMP JUMPDEST PUSH0 PUSH3 0xFF DUP3 PUSH3 0xE0 JUMP JUMPDEST SWAP1 POP SWAP2 SWAP1 POP JUMP JUMPDEST PUSH3 0x111 DUP2 PUSH3 0xF3 JUMP JUMPDEST DUP2 EQ PUSH3 0x11C JUMPI PUSH0 DUP1 REVERT JUMPDEST POP JUMP JUMPDEST PUSH0 DUP2 MLOAD SWAP1 POP PUSH3 0x12F DUP2 PUSH3 0x106 JUMP JUMPDEST SWAP3 SWAP2 POP POP JUMP JUMPDEST PUSH0 PUSH3 0x141 DUP3 PUSH3 0xE0 JUMP JUMPDEST SWAP1 POP SWAP2 SWAP1 POP JUMP JUMPDEST PUSH3 0x153 DUP2 PUSH3 0x135 JUMP JUMPDEST DUP2 EQ PUSH3 0x15E JUMPI PUSH0 DUP1 REVERT JUMPDEST POP JUMP JUMPDEST PUSH0 DUP2 MLOAD SWAP1 POP PUSH3 0x171 DUP2 PUSH3 0x148 JUMP JUMPDEST SWAP3 SWAP2 POP POP JUMP JUMPDEST PUSH0 DUP1 PUSH1 0x40 DUP4 DUP6 SUB SLT ISZERO PUSH3 0x190 JUMPI PUSH3 0x18F PUSH3 0xBD JUMP JUMPDEST JUMPDEST PUSH0 PUSH3 0x19F DUP6 DUP3 DUP7 ADD PUSH3 0x11F JUMP JUMPDEST SWAP3 POP POP PUSH1 0x20 PUSH3 0x1B2 DUP6 DUP3 DUP7 ADD PUSH3 0x161 JUMP JUMPDEST SWAP2 POP POP SWAP3 POP SWAP3 SWAP1 POP JUMP JUMPDEST PUSH2 0x15C0 DUP1 PUSH3 0x1CA PUSH0 CODECOPY PUSH0 RETURN INVALID PUSH1 0x80 PUSH1 0x40 MSTORE PUSH1 0x4 CALLDATASIZE LT PUSH2 0x33 JUMPI PUSH0 CALLDATALOAD PUSH1 0xE0 SHR DUP1 PUSH4 0x7193BFAB EQ PUSH2 0x37 JUMPI DUP1 PUSH4 0xBF6CB6A1 EQ PUSH2 0x67 JUMPI DUP1 PUSH4 0xC1D5725F EQ PUSH2 0xA3 JUMPI JUMPDEST PUSH0 DUP1 REVERT JUMPDEST PUSH2 0x51 PUSH1 0x4 DUP1 CALLDATASIZE SUB DUP2 ADD SWAP1 PUSH2 0x4C SWAP2 SWAP1 PUSH2 0xD9E JUMP JUMPDEST PUSH2 0xDF JUMP JUMPDEST PUSH1 0x40 MLOAD PUSH2 0x5E SWAP2 SWAP1 PUSH2 0xDE1 JUMP JUMPDEST PUSH1 0x40 MLOAD DUP1 SWAP2 SUB SWAP1 RETURN JUMPDEST CALLVALUE DUP1 ISZERO PUSH2 0x72 JUMPI PUSH0 DUP1 REVERT JUMPDEST POP PUSH2 0x8D PUSH1 0x4 DUP1 CALLDATASIZE SUB DUP2 ADD SWAP1 PUSH2 0x88 SWAP2 SWAP1 PUSH2 0xF36 JUMP JUMPDEST PUSH2 0x5E6 JUMP JUMPDEST PUSH1 0x40 MLOAD PUSH2 0x9A SWAP2 SWAP1 PUSH2 0xF95 JUMP JUMPDEST PUSH1 0x40 MLOAD DUP1 SWAP2 SUB SWAP1 RETURN JUMPDEST CALLVALUE DUP1 ISZERO PUSH2 0xAE JUMPI PUSH0 DUP1 REVERT JUMPDEST POP PUSH2 0xC9 PUSH1 0x4 DUP1 CALLDATASIZE SUB DUP2 ADD SWAP1 PUSH2 0xC4 SWAP2 SWAP1 PUSH2 0xFD8 JUMP JUMPDEST PUSH2 0x613 JUMP JUMPDEST PUSH1 0x40 MLOAD PUSH2 0xD6 SWAP2 SWAP1 PUSH2 0xF95 JUMP JUMPDEST PUSH1 0x40 MLOAD DUP1 SWAP2 SUB SWAP1 RETURN JUMPDEST PUSH0 DUP1 PUSH0 DUP1 SLOAD SWAP1 PUSH2 0x100 EXP SWAP1 DIV PUSH20 0xFFFFFFFFFFFFFFFFFFFFFFFFFFFFFFFFFFFFFFFF AND PUSH20 0xFFFFFFFFFFFFFFFFFFFFFFFFFFFFFFFFFFFFFFFF AND DUP4 PUSH20 0xFFFFFFFFFFFFFFFFFFFFFFFFFFFFFFFFFFFFFFFF AND EQ SWAP1 POP PUSH0 PUSH1 0x1 PUSH0 SWAP1 SLOAD SWAP1 PUSH2 0x100 EXP SWAP1 DIV PUSH20 0xFFFFFFFFFFFFFFFFFFFFFFFFFFFFFFFFFFFFFFFF AND PUSH20 0xFFFFFFFFFFFFFFFFFFFFFFFFFFFFFFFFFFFFFFFF AND DUP5 PUSH20 0xFFFFFFFFFFFFFFFFFFFFFFFFFFFFFFFFFFFFFFFF AND EQ SWAP1 POP PUSH0 PUSH32 0xFFFFFFFFFFFFFFFFFFFFFFFFFFFFFFFFFFFFFFFFFFFFFFFFFFFFFFFFFFFFFFFF SWAP1 POP DUP3 ISZERO PUSH2 0x39D JUMPI CALLVALUE PUSH0 DUP1 SLOAD SWAP1 PUSH2 0x100 EXP SWAP1 DIV PUSH20 0xFFFFFFFFFFFFFFFFFFFFFFFFFFFFFFFFFFFFFFFF AND PUSH20 0xFFFFFFFFFFFFFFFFFFFFFFFFFFFFFFFFFFFFFFFF AND PUSH4 0x70A08231 ADDRESS PUSH1 0x40 MLOAD DUP3 PUSH4 0xFFFFFFFF AND PUSH1 0xE0 SHL DUP2 MSTORE PUSH1 0x4 ADD PUSH2 0x207 SWAP2 SWAP1 PUSH2 0x1037 JUMP JUMPDEST PUSH1 0x20 PUSH1 0x40 MLOAD DUP1 DUP4 SUB DUP2 DUP7 GAS STATICCALL ISZERO DUP1 ISZERO PUSH2 0x222 JUMPI RETURNDATASIZE PUSH0 DUP1 RETURNDATACOPY RETURNDATASIZE PUSH0 REVERT JUMPDEST POP POP POP POP PUSH1 0x40 MLOAD RETURNDATASIZE PUSH1 0x1F NOT PUSH1 0x1F DUP3 ADD AND DUP3 ADD DUP1 PUSH1 0x40 MSTORE POP DUP2 ADD SWAP1 PUSH2 0x246 SWAP2 SWAP1 PUSH2 0x1064 JUMP JUMPDEST LT ISZERO PUSH2 0x287 JUMPI PUSH1 0x40 MLOAD PUSH32 0x8C379A000000000000000000000000000000000000000000000000000000000 DUP2 MSTORE PUSH1 0x4 ADD PUSH2 0x27E SWAP1 PUSH2 0x110F JUMP JUMPDEST PUSH1 0x40 MLOAD DUP1 SWAP2 SUB SWAP1 REVERT JUMPDEST PUSH2 0x2D1 CALLER CALLVALUE PUSH0 DUP1 SLOAD SWAP1 PUSH2 0x100 EXP SWAP1 DIV PUSH20 0xFFFFFFFFFFFFFFFFFFFFFFFFFFFFFFFFFFFFFFFF AND PUSH20 0xFFFFFFFFFFFFFFFFFFFFFFFFFFFFFFFFFFFFFFFF AND PUSH2 0x9EE SWAP1 SWAP3 SWAP2 SWAP1 PUSH4 0xFFFFFFFF AND JUMP JUMPDEST CALLVALUE PUSH1 0x2 PUSH1 0x40 MLOAD PUSH2 0x2E0 SWAP1 PUSH2 0x1181 JUMP JUMPDEST SWAP1 DUP2 MSTORE PUSH1 0x20 ADD PUSH1 0x40 MLOAD DUP1 SWAP2 SUB SWAP1 KECCAK256 PUSH0 DUP3 DUP3 SLOAD PUSH2 0x2FC SWAP2 SWAP1 PUSH2 0x11C2 JUMP JUMPDEST SWAP3 POP POP DUP2 SWAP1 SSTORE POP PUSH0 DUP1 SLOAD SWAP1 PUSH2 0x100 EXP SWAP1 DIV PUSH20 0xFFFFFFFFFFFFFFFFFFFFFFFFFFFFFFFFFFFFFFFF AND PUSH20 0xFFFFFFFFFFFFFFFFFFFFFFFFFFFFFFFFFFFFFFFF AND PUSH4 0x70A08231 CALLER PUSH1 0x40 MLOAD DUP3 PUSH4 0xFFFFFFFF AND PUSH1 0xE0 SHL DUP2 MSTORE PUSH1 0x4 ADD PUSH2 0x35B SWAP2 SWAP1 PUSH2 0x1037 JUMP JUMPDEST PUSH1 0x20 PUSH1 0x40 MLOAD DUP1 DUP4 SUB DUP2 DUP7 GAS STATICCALL ISZERO DUP1 ISZERO PUSH2 0x376 JUMPI RETURNDATASIZE PUSH0 DUP1 RETURNDATACOPY RETURNDATASIZE PUSH0 REVERT JUMPDEST POP POP POP POP PUSH1 0x40 MLOAD RETURNDATASIZE PUSH1 0x1F NOT PUSH1 0x1F DUP3 ADD AND DUP3 ADD DUP1 PUSH1 0x40 MSTORE POP DUP2 ADD SWAP1 PUSH2 0x39A SWAP2 SWAP1 PUSH2 0x1064 JUMP JUMPDEST SWAP1 POP JUMPDEST DUP2 ISZERO PUSH2 0x598 JUMPI CALLVALUE PUSH1 0x1 PUSH0 SWAP1 SLOAD SWAP1 PUSH2 0x100 EXP SWAP1 DIV PUSH20 0xFFFFFFFFFFFFFFFFFFFFFFFFFFFFFFFFFFFFFFFF AND PUSH20 0xFFFFFFFFFFFFFFFFFFFFFFFFFFFFFFFFFFFFFFFF AND PUSH4 0x70A08231 ADDRESS PUSH1 0x40 MLOAD DUP3 PUSH4 0xFFFFFFFF AND PUSH1 0xE0 SHL DUP2 MSTORE PUSH1 0x4 ADD PUSH2 0x3FE SWAP2 SWAP1 PUSH2 0x1037 JUMP JUMPDEST PUSH1 0x20 PUSH1 0x40 MLOAD DUP1 DUP4 SUB DUP2 DUP7 GAS STATICCALL ISZERO DUP1 ISZERO PUSH2 0x419 JUMPI RETURNDATASIZE PUSH0 DUP1 RETURNDATACOPY RETURNDATASIZE PUSH0 REVERT JUMPDEST POP POP POP POP PUSH1 0x40 MLOAD RETURNDATASIZE PUSH1 0x1F NOT PUSH1 0x1F DUP3 ADD AND DUP3 ADD DUP1 PUSH1 0x40 MSTORE POP DUP2 ADD SWAP1 PUSH2 0x43D SWAP2 SWAP1 PUSH2 0x1064 JUMP JUMPDEST LT ISZERO PUSH2 0x47E JUMPI PUSH1 0x40 MLOAD PUSH32 0x8C379A000000000000000000000000000000000000000000000000000000000 DUP2 MSTORE PUSH1 0x4 ADD PUSH2 0x475 SWAP1 PUSH2 0x1265 JUMP JUMPDEST PUSH1 0x40 MLOAD DUP1 SWAP2 SUB SWAP1 REVERT JUMPDEST PUSH2 0x4CA CALLER CALLVALUE PUSH1 0x1 PUSH0 SWAP1 SLOAD SWAP1 PUSH2 0x100 EXP SWAP1 DIV PUSH20 0xFFFFFFFFFFFFFFFFFFFFFFFFFFFFFFFFFFFFFFFF AND PUSH20 0xFFFFFFFFFFFFFFFFFFFFFFFFFFFFFFFFFFFFFFFF AND PUSH2 0x9EE SWAP1 SWAP3 SWAP2 SWAP1 PUSH4 0xFFFFFFFF AND JUMP JUMPDEST CALLVALUE PUSH1 0x2 PUSH1 0x40 MLOAD PUSH2 0x4D9 SWAP1 PUSH2 0x12CD JUMP JUMPDEST SWAP1 DUP2 MSTORE PUSH1 0x20 ADD PUSH1 0x40 MLOAD DUP1 SWAP2 SUB SWAP1 KECCAK256 PUSH0 DUP3 DUP3 SLOAD PUSH2 0x4F5 SWAP2 SWAP1 PUSH2 0x11C2 JUMP JUMPDEST SWAP3 POP POP DUP2 SWAP1 SSTORE POP PUSH1 0x1 PUSH0 SWAP1 SLOAD SWAP1 PUSH2 0x100 EXP SWAP1 DIV PUSH20 0xFFFFFFFFFFFFFFFFFFFFFFFFFFFFFFFFFFFFFFFF AND PUSH20 0xFFFFFFFFFFFFFFFFFFFFFFFFFFFFFFFFFFFFFFFF AND PUSH4 0x70A08231 CALLER PUSH1 0x40 MLOAD DUP3 PUSH4 0xFFFFFFFF AND PUSH1 0xE0 SHL DUP2 MSTORE PUSH1 0x4 ADD PUSH2 0x556 SWAP2 SWAP1 PUSH2 0x1037 JUMP JUMPDEST PUSH1 0x20 PUSH1 0x40 MLOAD DUP1 DUP4 SUB DUP2 DUP7 GAS STATICCALL ISZERO DUP1 ISZERO PUSH2 0x571 JUMPI RETURNDATASIZE PUSH0 DUP1 RETURNDATACOPY RETURNDATASIZE PUSH0 REVERT JUMPDEST POP POP POP POP PUSH1 0x40 MLOAD RETURNDATASIZE PUSH1 0x1F NOT PUSH1 0x1F DUP3 ADD AND DUP3 ADD DUP1 PUSH1 0x40 MSTORE POP DUP2 ADD SWAP1 PUSH2 0x595 SWAP2 SWAP1 PUSH2 0x1064 JUMP JUMPDEST SWAP1 POP JUMPDEST PUSH0 DUP2 SLT ISZERO PUSH2 0x5DB JUMPI PUSH1 0x40 MLOAD PUSH32 0x8C379A000000000000000000000000000000000000000000000000000000000 DUP2 MSTORE PUSH1 0x4 ADD PUSH2 0x5D2 SWAP1 PUSH2 0x132B JUMP JUMPDEST PUSH1 0x40 MLOAD DUP1 SWAP2 SUB SWAP1 REVERT JUMPDEST DUP1 SWAP4 POP POP POP POP SWAP2 SWAP1 POP JUMP JUMPDEST PUSH1 0x2 DUP2 DUP1 MLOAD PUSH1 0x20 DUP2 ADD DUP3 ADD DUP1 MLOAD DUP5 DUP3 MSTORE PUSH1 0x20 DUP4 ADD PUSH1 0x20 DUP6 ADD KECCAK256 DUP2 DUP4 MSTORE DUP1 SWAP6 POP POP POP POP POP POP PUSH0 SWAP2 POP SWAP1 POP SLOAD DUP2 JUMP JUMPDEST PUSH0 DUP1 PUSH0 DUP1 SLOAD SWAP1 PUSH2 0x100 EXP SWAP1 DIV PUSH20 0xFFFFFFFFFFFFFFFFFFFFFFFFFFFFFFFFFFFFFFFF AND PUSH20 0xFFFFFFFFFFFFFFFFFFFFFFFFFFFFFFFFFFFFFFFF AND DUP6 PUSH20 0xFFFFFFFFFFFFFFFFFFFFFFFFFFFFFFFFFFFFFFFF AND EQ SWAP1 POP PUSH0 PUSH1 0x1 PUSH0 SWAP1 SLOAD SWAP1 PUSH2 0x100 EXP SWAP1 DIV PUSH20 0xFFFFFFFFFFFFFFFFFFFFFFFFFFFFFFFFFFFFFFFF AND PUSH20 0xFFFFFFFFFFFFFFFFFFFFFFFFFFFFFFFFFFFFFFFF AND DUP6 PUSH20 0xFFFFFFFFFFFFFFFFFFFFFFFFFFFFFFFFFFFFFFFF AND EQ SWAP1 POP PUSH0 DUP3 ISZERO PUSH2 0x84E JUMPI PUSH2 0x70D CALLER ADDRESS DUP8 PUSH1 0x1 PUSH0 SWAP1 SLOAD SWAP1 PUSH2 0x100 EXP SWAP1 DIV PUSH20 0xFFFFFFFFFFFFFFFFFFFFFFFFFFFFFFFFFFFFFFFF AND PUSH20 0xFFFFFFFFFFFFFFFFFFFFFFFFFFFFFFFFFFFFFFFF AND PUSH2 0xA6D SWAP1 SWAP4 SWAP3 SWAP2 SWAP1 PUSH4 0xFFFFFFFF AND JUMP JUMPDEST DUP5 PUSH1 0x2 PUSH1 0x40 MLOAD PUSH2 0x71C SWAP1 PUSH2 0x12CD JUMP JUMPDEST SWAP1 DUP2 MSTORE PUSH1 0x20 ADD PUSH1 0x40 MLOAD DUP1 SWAP2 SUB SWAP1 KECCAK256 PUSH0 DUP3 DUP3 SLOAD PUSH2 0x738 SWAP2 SWAP1 PUSH2 0x1349 JUMP JUMPDEST SWAP3 POP POP DUP2 SWAP1 SSTORE POP PUSH0 DUP1 SLOAD SWAP1 PUSH2 0x100 EXP SWAP1 DIV PUSH20 0xFFFFFFFFFFFFFFFFFFFFFFFFFFFFFFFFFFFFFFFF AND PUSH20 0xFFFFFFFFFFFFFFFFFFFFFFFFFFFFFFFFFFFFFFFF AND PUSH4 0xA9059CBB CALLER DUP8 PUSH1 0x40 MLOAD DUP4 PUSH4 0xFFFFFFFF AND PUSH1 0xE0 SHL DUP2 MSTORE PUSH1 0x4 ADD PUSH2 0x799 SWAP3 SWAP2 SWAP1 PUSH2 0x137C JUMP JUMPDEST PUSH1 0x20 PUSH1 0x40 MLOAD DUP1 DUP4 SUB DUP2 PUSH0 DUP8 GAS CALL ISZERO DUP1 ISZERO PUSH2 0x7B5 JUMPI RETURNDATASIZE PUSH0 DUP1 RETURNDATACOPY RETURNDATASIZE PUSH0 REVERT JUMPDEST POP POP POP POP PUSH1 0x40 MLOAD RETURNDATASIZE PUSH1 0x1F NOT PUSH1 0x1F DUP3 ADD AND DUP3 ADD DUP1 PUSH1 0x40 MSTORE POP DUP2 ADD SWAP1 PUSH2 0x7D9 SWAP2 SWAP1 PUSH2 0x13D8 JUMP JUMPDEST PUSH2 0x818 JUMPI PUSH1 0x40 MLOAD PUSH32 0x8C379A000000000000000000000000000000000000000000000000000000000 DUP2 MSTORE PUSH1 0x4 ADD PUSH2 0x80F SWAP1 PUSH2 0x144D JUMP JUMPDEST PUSH1 0x40 MLOAD DUP1 SWAP2 SUB SWAP1 REVERT JUMPDEST DUP5 PUSH1 0x2 PUSH1 0x40 MLOAD PUSH2 0x827 SWAP1 PUSH2 0x1181 JUMP JUMPDEST SWAP1 DUP2 MSTORE PUSH1 0x20 ADD PUSH1 0x40 MLOAD DUP1 SWAP2 SUB SWAP1 KECCAK256 PUSH0 DUP3 DUP3 SLOAD PUSH2 0x843 SWAP2 SWAP1 PUSH2 0x11C2 JUMP JUMPDEST SWAP3 POP POP DUP2 SWAP1 SSTORE POP DUP5 SWAP1 POP JUMPDEST DUP2 ISZERO PUSH2 0x9E1 JUMPI PUSH2 0x8A0 CALLER ADDRESS DUP8 PUSH0 DUP1 SLOAD SWAP1 PUSH2 0x100 EXP SWAP1 DIV PUSH20 0xFFFFFFFFFFFFFFFFFFFFFFFFFFFFFFFFFFFFFFFF AND PUSH20 0xFFFFFFFFFFFFFFFFFFFFFFFFFFFFFFFFFFFFFFFF AND PUSH2 0xA6D SWAP1 SWAP4 SWAP3 SWAP2 SWAP1 PUSH4 0xFFFFFFFF AND JUMP JUMPDEST DUP5 PUSH1 0x2 PUSH1 0x40 MLOAD PUSH2 0x8AF SWAP1 PUSH2 0x1181 JUMP JUMPDEST SWAP1 DUP2 MSTORE PUSH1 0x20 ADD PUSH1 0x40 MLOAD DUP1 SWAP2 SUB SWAP1 KECCAK256 PUSH0 DUP3 DUP3 SLOAD PUSH2 0x8CB SWAP2 SWAP1 PUSH2 0x1349 JUMP JUMPDEST SWAP3 POP POP DUP2 SWAP1 SSTORE POP PUSH0 DUP1 SLOAD SWAP1 PUSH2 0x100 EXP SWAP1 DIV PUSH20 0xFFFFFFFFFFFFFFFFFFFFFFFFFFFFFFFFFFFFFFFF AND PUSH20 0xFFFFFFFFFFFFFFFFFFFFFFFFFFFFFFFFFFFFFFFF AND PUSH4 0xA9059CBB CALLER DUP8 PUSH1 0x40 MLOAD DUP4 PUSH4 0xFFFFFFFF AND PUSH1 0xE0 SHL DUP2 MSTORE PUSH1 0x4 ADD PUSH2 0x92C SWAP3 SWAP2 SWAP1 PUSH2 0x137C JUMP JUMPDEST PUSH1 0x20 PUSH1 0x40 MLOAD DUP1 DUP4 SUB DUP2 PUSH0 DUP8 GAS CALL ISZERO DUP1 ISZERO PUSH2 0x948 JUMPI RETURNDATASIZE PUSH0 DUP1 RETURNDATACOPY RETURNDATASIZE PUSH0 REVERT JUMPDEST POP POP POP POP PUSH1 0x40 MLOAD RETURNDATASIZE PUSH1 0x1F NOT PUSH1 0x1F DUP3 ADD AND DUP3 ADD DUP1 PUSH1 0x40 MSTORE POP DUP2 ADD SWAP1 PUSH2 0x96C SWAP2 SWAP1 PUSH2 0x13D8 JUMP JUMPDEST PUSH2 0x9AB JUMPI PUSH1 0x40 MLOAD PUSH32 0x8C379A000000000000000000000000000000000000000000000000000000000 DUP2 MSTORE PUSH1 0x4 ADD PUSH2 0x9A2 SWAP1 PUSH2 0x14B5 JUMP JUMPDEST PUSH1 0x40 MLOAD DUP1 SWAP2 SUB SWAP1 REVERT JUMPDEST DUP5 PUSH1 0x2 PUSH1 0x40 MLOAD PUSH2 0x9BA SWAP1 PUSH2 0x12CD JUMP JUMPDEST SWAP1 DUP2 MSTORE PUSH1 0x20 ADD PUSH1 0x40 MLOAD DUP1 SWAP2 SUB SWAP1 KECCAK256 PUSH0 DUP3 DUP3 SLOAD PUSH2 0x9D6 SWAP2 SWAP1 PUSH2 0x11C2 JUMP JUMPDEST SWAP3 POP POP DUP2 SWAP1 SSTORE POP DUP5 SWAP1 POP JUMPDEST DUP1 SWAP4 POP POP POP POP SWAP4 SWAP3 POP POP POP JUMP JUMPDEST PUSH2 0xA68 DUP4 DUP5 PUSH20 0xFFFFFFFFFFFFFFFFFFFFFFFFFFFFFFFFFFFFFFFF AND PUSH4 0xA9059CBB DUP6 DUP6 PUSH1 0x40 MLOAD PUSH1 0x24 ADD PUSH2 0xA21 SWAP3 SWAP2 SWAP1 PUSH2 0x137C JUMP JUMPDEST PUSH1 0x40 MLOAD PUSH1 0x20 DUP2 DUP4 SUB SUB DUP2 MSTORE SWAP1 PUSH1 0x40 MSTORE SWAP2 POP PUSH1 0xE0 SHL PUSH1 0x20 DUP3 ADD DUP1 MLOAD PUSH28 0xFFFFFFFFFFFFFFFFFFFFFFFFFFFFFFFFFFFFFFFFFFFFFFFFFFFFFFFF DUP4 DUP2 DUP4 AND OR DUP4 MSTORE POP POP POP POP PUSH2 0xAEF JUMP JUMPDEST POP POP POP JUMP JUMPDEST PUSH2 0xAE9 DUP5 DUP6 PUSH20 0xFFFFFFFFFFFFFFFFFFFFFFFFFFFFFFFFFFFFFFFF AND PUSH4 0x23B872DD DUP7 DUP7 DUP7 PUSH1 0x40 MLOAD PUSH1 0x24 ADD PUSH2 0xAA2 SWAP4 SWAP3 SWAP2 SWAP1 PUSH2 0x14D3 JUMP JUMPDEST PUSH1 0x40 MLOAD PUSH1 0x20 DUP2 DUP4 SUB SUB DUP2 MSTORE SWAP1 PUSH1 0x40 MSTORE SWAP2 POP PUSH1 0xE0 SHL PUSH1 0x20 DUP3 ADD DUP1 MLOAD PUSH28 0xFFFFFFFFFFFFFFFFFFFFFFFFFFFFFFFFFFFFFFFFFFFFFFFFFFFFFFFF DUP4 DUP2 DUP4 AND OR DUP4 MSTORE POP POP POP POP PUSH2 0xAEF JUMP JUMPDEST POP POP POP POP JUMP JUMPDEST PUSH0 PUSH2 0xB19 DUP3 DUP5 PUSH20 0xFFFFFFFFFFFFFFFFFFFFFFFFFFFFFFFFFFFFFFFF AND PUSH2 0xB84 SWAP1 SWAP2 SWAP1 PUSH4 0xFFFFFFFF AND JUMP JUMPDEST SWAP1 POP PUSH0 DUP2 MLOAD EQ ISZERO DUP1 ISZERO PUSH2 0xB3D JUMPI POP DUP1 DUP1 PUSH1 0x20 ADD SWAP1 MLOAD DUP2 ADD SWAP1 PUSH2 0xB3B SWAP2 SWAP1 PUSH2 0x13D8 JUMP JUMPDEST ISZERO JUMPDEST ISZERO PUSH2 0xB7F JUMPI DUP3 PUSH1 0x40 MLOAD PUSH32 0x5274AFE700000000000000000000000000000000000000000000000000000000 DUP2 MSTORE PUSH1 0x4 ADD PUSH2 0xB76 SWAP2 SWAP1 PUSH2 0x1037 JUMP JUMPDEST PUSH1 0x40 MLOAD DUP1 SWAP2 SUB SWAP1 REVERT JUMPDEST POP POP POP JUMP JUMPDEST PUSH1 0x60 PUSH2 0xB91 DUP4 DUP4 PUSH0 PUSH2 0xB99 JUMP JUMPDEST SWAP1 POP SWAP3 SWAP2 POP POP JUMP JUMPDEST PUSH1 0x60 DUP2 SELFBALANCE LT ISZERO PUSH2 0xBE0 JUMPI ADDRESS PUSH1 0x40 MLOAD PUSH32 0xCD78605900000000000000000000000000000000000000000000000000000000 DUP2 MSTORE PUSH1 0x4 ADD PUSH2 0xBD7 SWAP2 SWAP1 PUSH2 0x1037 JUMP JUMPDEST PUSH1 0x40 MLOAD DUP1 SWAP2 SUB SWAP1 REVERT JUMPDEST PUSH0 DUP1 DUP6 PUSH20 0xFFFFFFFFFFFFFFFFFFFFFFFFFFFFFFFFFFFFFFFF AND DUP5 DUP7 PUSH1 0x40 MLOAD PUSH2 0xC08 SWAP2 SWAP1 PUSH2 0x1574 JUMP JUMPDEST PUSH0 PUSH1 0x40 MLOAD DUP1 DUP4 SUB DUP2 DUP6 DUP8 GAS CALL SWAP3 POP POP POP RETURNDATASIZE DUP1 PUSH0 DUP2 EQ PUSH2 0xC42 JUMPI PUSH1 0x40 MLOAD SWAP2 POP PUSH1 0x1F NOT PUSH1 0x3F RETURNDATASIZE ADD AND DUP3 ADD PUSH1 0x40 MSTORE RETURNDATASIZE DUP3 MSTORE RETURNDATASIZE PUSH0 PUSH1 0x20 DUP5 ADD RETURNDATACOPY PUSH2 0xC47 JUMP JUMPDEST PUSH1 0x60 SWAP2 POP JUMPDEST POP SWAP2 POP SWAP2 POP PUSH2 0xC57 DUP7 DUP4 DUP4 PUSH2 0xC62 JUMP JUMPDEST SWAP3 POP POP POP SWAP4 SWAP3 POP POP POP JUMP JUMPDEST PUSH1 0x60 DUP3 PUSH2 0xC77 JUMPI PUSH2 0xC72 DUP3 PUSH2 0xCEF JUMP JUMPDEST PUSH2 0xCE7 JUMP JUMPDEST PUSH0 DUP3 MLOAD EQ DUP1 ISZERO PUSH2 0xC9D JUMPI POP PUSH0 DUP5 PUSH20 0xFFFFFFFFFFFFFFFFFFFFFFFFFFFFFFFFFFFFFFFF AND EXTCODESIZE EQ JUMPDEST ISZERO PUSH2 0xCDF JUMPI DUP4 PUSH1 0x40 MLOAD PUSH32 0x9996B31500000000000000000000000000000000000000000000000000000000 DUP2 MSTORE PUSH1 0x4 ADD PUSH2 0xCD6 SWAP2 SWAP1 PUSH2 0x1037 JUMP JUMPDEST PUSH1 0x40 MLOAD DUP1 SWAP2 SUB SWAP1 REVERT JUMPDEST DUP2 SWAP1 POP PUSH2 0xCE8 JUMP JUMPDEST JUMPDEST SWAP4 SWAP3 POP POP POP JUMP JUMPDEST PUSH0 DUP2 MLOAD GT ISZERO PUSH2 0xD01 JUMPI DUP1 MLOAD DUP1 DUP3 PUSH1 0x20 ADD REVERT JUMPDEST PUSH1 0x40 MLOAD PUSH32 0x1425EA4200000000000000000000000000000000000000000000000000000000 DUP2 MSTORE PUSH1 0x4 ADD PUSH1 0x40 MLOAD DUP1 SWAP2 SUB SWAP1 REVERT JUMPDEST PUSH0 PUSH1 0x40 MLOAD SWAP1 POP SWAP1 JUMP JUMPDEST PUSH0 DUP1 REVERT JUMPDEST PUSH0 DUP1 REVERT JUMPDEST PUSH0 PUSH20 0xFFFFFFFFFFFFFFFFFFFFFFFFFFFFFFFFFFFFFFFF DUP3 AND SWAP1 POP SWAP2 SWAP1 POP JUMP JUMPDEST PUSH0 PUSH2 0xD6D DUP3 PUSH2 0xD44 JUMP JUMPDEST SWAP1 POP SWAP2 SWAP1 POP JUMP JUMPDEST PUSH2 0xD7D DUP2 PUSH2 0xD63 JUMP JUMPDEST DUP2 EQ PUSH2 0xD87 JUMPI PUSH0 DUP1 REVERT JUMPDEST POP JUMP JUMPDEST PUSH0 DUP2 CALLDATALOAD SWAP1 POP PUSH2 0xD98 DUP2 PUSH2 0xD74 JUMP JUMPDEST SWAP3 SWAP2 POP POP JUMP JUMPDEST PUSH0 PUSH1 0x20 DUP3 DUP5 SUB SLT ISZERO PUSH2 0xDB3 JUMPI PUSH2 0xDB2 PUSH2 0xD3C JUMP JUMPDEST JUMPDEST PUSH0 PUSH2 0xDC0 DUP5 DUP3 DUP6 ADD PUSH2 0xD8A JUMP JUMPDEST SWAP2 POP POP SWAP3 SWAP2 POP POP JUMP JUMPDEST PUSH0 DUP2 SWAP1 POP SWAP2 SWAP1 POP JUMP JUMPDEST PUSH2 0xDDB DUP2 PUSH2 0xDC9 JUMP JUMPDEST DUP3 MSTORE POP POP JUMP JUMPDEST PUSH0 PUSH1 0x20 DUP3 ADD SWAP1 POP PUSH2 0xDF4 PUSH0 DUP4 ADD DUP5 PUSH2 0xDD2 JUMP JUMPDEST SWAP3 SWAP2 POP POP JUMP JUMPDEST PUSH0 DUP1 REVERT JUMPDEST PUSH0 DUP1 REVERT JUMPDEST PUSH0 PUSH1 0x1F NOT PUSH1 0x1F DUP4 ADD AND SWAP1 POP SWAP2 SWAP1 POP JUMP JUMPDEST PUSH32 0x4E487B7100000000000000000000000000000000000000000000000000000000 PUSH0 MSTORE PUSH1 0x41 PUSH1 0x4 MSTORE PUSH1 0x24 PUSH0 REVERT JUMPDEST PUSH2 0xE48 DUP3 PUSH2 0xE02 JUMP JUMPDEST DUP2 ADD DUP2 DUP2 LT PUSH8 0xFFFFFFFFFFFFFFFF DUP3 GT OR ISZERO PUSH2 0xE67 JUMPI PUSH2 0xE66 PUSH2 0xE12 JUMP JUMPDEST JUMPDEST DUP1 PUSH1 0x40 MSTORE POP POP POP JUMP JUMPDEST PUSH0 PUSH2 0xE79 PUSH2 0xD33 JUMP JUMPDEST SWAP1 POP PUSH2 0xE85 DUP3 DUP3 PUSH2 0xE3F JUMP JUMPDEST SWAP2 SWAP1 POP JUMP JUMPDEST PUSH0 PUSH8 0xFFFFFFFFFFFFFFFF DUP3 GT ISZERO PUSH2 0xEA4 JUMPI PUSH2 0xEA3 PUSH2 0xE12 JUMP JUMPDEST JUMPDEST PUSH2 0xEAD DUP3 PUSH2 0xE02 JUMP JUMPDEST SWAP1 POP PUSH1 0x20 DUP2 ADD SWAP1 POP SWAP2 SWAP1 POP JUMP JUMPDEST DUP3 DUP2 DUP4 CALLDATACOPY PUSH0 DUP4 DUP4 ADD MSTORE POP POP POP JUMP JUMPDEST PUSH0 PUSH2 0xEDA PUSH2 0xED5 DUP5 PUSH2 0xE8A JUMP JUMPDEST PUSH2 0xE70 JUMP JUMPDEST SWAP1 POP DUP3 DUP2 MSTORE PUSH1 0x20 DUP2 ADD DUP5 DUP5 DUP5 ADD GT ISZERO PUSH2 0xEF6 JUMPI PUSH2 0xEF5 PUSH2 0xDFE JUMP JUMPDEST JUMPDEST PUSH2 0xF01 DUP5 DUP3 DUP6 PUSH2 0xEBA JUMP JUMPDEST POP SWAP4 SWAP3 POP POP POP JUMP JUMPDEST PUSH0 DUP3 PUSH1 0x1F DUP4 ADD SLT PUSH2 0xF1D JUMPI PUSH2 0xF1C PUSH2 0xDFA JUMP JUMPDEST JUMPDEST DUP2 CALLDATALOAD PUSH2 0xF2D DUP5 DUP3 PUSH1 0x20 DUP7 ADD PUSH2 0xEC8 JUMP JUMPDEST SWAP2 POP POP SWAP3 SWAP2 POP POP JUMP JUMPDEST PUSH0 PUSH1 0x20 DUP3 DUP5 SUB SLT ISZERO PUSH2 0xF4B JUMPI PUSH2 0xF4A PUSH2 0xD3C JUMP JUMPDEST JUMPDEST PUSH0 DUP3 ADD CALLDATALOAD PUSH8 0xFFFFFFFFFFFFFFFF DUP2 GT ISZERO PUSH2 0xF68 JUMPI PUSH2 0xF67 PUSH2 0xD40 JUMP JUMPDEST JUMPDEST PUSH2 0xF74 DUP5 DUP3 DUP6 ADD PUSH2 0xF09 JUMP JUMPDEST SWAP2 POP POP SWAP3 SWAP2 POP POP JUMP JUMPDEST PUSH0 DUP2 SWAP1 POP SWAP2 SWAP1 POP JUMP JUMPDEST PUSH2 0xF8F DUP2 PUSH2 0xF7D JUMP JUMPDEST DUP3 MSTORE POP POP JUMP JUMPDEST PUSH0 PUSH1 0x20 DUP3 ADD SWAP1 POP PUSH2 0xFA8 PUSH0 DUP4 ADD DUP5 PUSH2 0xF86 JUMP JUMPDEST SWAP3 SWAP2 POP POP JUMP JUMPDEST PUSH2 0xFB7 DUP2 PUSH2 0xF7D JUMP JUMPDEST DUP2 EQ PUSH2 0xFC1 JUMPI PUSH0 DUP1 REVERT JUMPDEST POP JUMP JUMPDEST PUSH0 DUP2 CALLDATALOAD SWAP1 POP PUSH2 0xFD2 DUP2 PUSH2 0xFAE JUMP JUMPDEST SWAP3 SWAP2 POP POP JUMP JUMPDEST PUSH0 DUP1 PUSH0 PUSH1 0x60 DUP5 DUP7 SUB SLT ISZERO PUSH2 0xFEF JUMPI PUSH2 0xFEE PUSH2 0xD3C JUMP JUMPDEST JUMPDEST PUSH0 PUSH2 0xFFC DUP7 DUP3 DUP8 ADD PUSH2 0xD8A JUMP JUMPDEST SWAP4 POP POP PUSH1 0x20 PUSH2 0x100D DUP7 DUP3 DUP8 ADD PUSH2 0xD8A JUMP JUMPDEST SWAP3 POP POP PUSH1 0x40 PUSH2 0x101E DUP7 DUP3 DUP8 ADD PUSH2 0xFC4 JUMP JUMPDEST SWAP2 POP POP SWAP3 POP SWAP3 POP SWAP3 JUMP JUMPDEST PUSH2 0x1031 DUP2 PUSH2 0xD63 JUMP JUMPDEST DUP3 MSTORE POP POP JUMP JUMPDEST PUSH0 PUSH1 0x20 DUP3 ADD SWAP1 POP PUSH2 0x104A PUSH0 DUP4 ADD DUP5 PUSH2 0x1028 JUMP JUMPDEST SWAP3 SWAP2 POP POP JUMP JUMPDEST PUSH0 DUP2 MLOAD SWAP1 POP PUSH2 0x105E DUP2 PUSH2 0xFAE JUMP JUMPDEST SWAP3 SWAP2 POP POP JUMP JUMPDEST PUSH0 PUSH1 0x20 DUP3 DUP5 SUB SLT ISZERO PUSH2 0x1079 JUMPI PUSH2 0x1078 PUSH2 0xD3C JUMP JUMPDEST JUMPDEST PUSH0 PUSH2 0x1086 DUP5 DUP3 DUP6 ADD PUSH2 0x1050 JUMP JUMPDEST SWAP2 POP POP SWAP3 SWAP2 POP POP JUMP JUMPDEST PUSH0 DUP3 DUP3 MSTORE PUSH1 0x20 DUP3 ADD SWAP1 POP SWAP3 SWAP2 POP POP JUMP JUMPDEST PUSH32 0x4E6F7420656E6F7567682054417320746F2073656C6C20666F72206574686572 PUSH0 DUP3 ADD MSTORE PUSH32 0x732C20726576657274696E670000000000000000000000000000000000000000 PUSH1 0x20 DUP3 ADD MSTORE POP JUMP JUMPDEST PUSH0 PUSH2 0x10F9 PUSH1 0x2C DUP4 PUSH2 0x108F JUMP JUMPDEST SWAP2 POP PUSH2 0x1104 DUP3 PUSH2 0x109F JUMP JUMPDEST PUSH1 0x40 DUP3 ADD SWAP1 POP SWAP2 SWAP1 POP JUMP JUMPDEST PUSH0 PUSH1 0x20 DUP3 ADD SWAP1 POP DUP2 DUP2 SUB PUSH0 DUP4 ADD MSTORE PUSH2 0x1126 DUP2 PUSH2 0x10ED JUMP JUMPDEST SWAP1 POP SWAP2 SWAP1 POP JUMP JUMPDEST PUSH0 DUP2 SWAP1 POP SWAP3 SWAP2 POP POP JUMP JUMPDEST PUSH32 0x5441000000000000000000000000000000000000000000000000000000000000 PUSH0 DUP3 ADD MSTORE POP JUMP JUMPDEST PUSH0 PUSH2 0x116B PUSH1 0x2 DUP4 PUSH2 0x112D JUMP JUMPDEST SWAP2 POP PUSH2 0x1176 DUP3 PUSH2 0x1137 JUMP JUMPDEST PUSH1 0x2 DUP3 ADD SWAP1 POP SWAP2 SWAP1 POP JUMP JUMPDEST PUSH0 PUSH2 0x118B DUP3 PUSH2 0x115F JUMP JUMPDEST SWAP2 POP DUP2 SWAP1 POP SWAP2 SWAP1 POP JUMP JUMPDEST PUSH32 0x4E487B7100000000000000000000000000000000000000000000000000000000 PUSH0 MSTORE PUSH1 0x11 PUSH1 0x4 MSTORE PUSH1 0x24 PUSH0 REVERT JUMPDEST PUSH0 PUSH2 0x11CC DUP3 PUSH2 0xF7D JUMP JUMPDEST SWAP2 POP PUSH2 0x11D7 DUP4 PUSH2 0xF7D JUMP JUMPDEST SWAP3 POP DUP3 DUP3 SUB SWAP1 POP DUP2 DUP2 GT ISZERO PUSH2 0x11EF JUMPI PUSH2 0x11EE PUSH2 0x1195 JUMP JUMPDEST JUMPDEST SWAP3 SWAP2 POP POP JUMP JUMPDEST PUSH32 0x4E6F7420656E6F7567682054427320746F2073656C6C20666F72206574686572 PUSH0 DUP3 ADD MSTORE PUSH32 0x732C20726576657274696E670000000000000000000000000000000000000000 PUSH1 0x20 DUP3 ADD MSTORE POP JUMP JUMPDEST PUSH0 PUSH2 0x124F PUSH1 0x2C DUP4 PUSH2 0x108F JUMP JUMPDEST SWAP2 POP PUSH2 0x125A DUP3 PUSH2 0x11F5 JUMP JUMPDEST PUSH1 0x40 DUP3 ADD SWAP1 POP SWAP2 SWAP1 POP JUMP JUMPDEST PUSH0 PUSH1 0x20 DUP3 ADD SWAP1 POP DUP2 DUP2 SUB PUSH0 DUP4 ADD MSTORE PUSH2 0x127C DUP2 PUSH2 0x1243 JUMP JUMPDEST SWAP1 POP SWAP2 SWAP1 POP JUMP JUMPDEST PUSH32 0x5442000000000000000000000000000000000000000000000000000000000000 PUSH0 DUP3 ADD MSTORE POP JUMP JUMPDEST PUSH0 PUSH2 0x12B7 PUSH1 0x2 DUP4 PUSH2 0x112D JUMP JUMPDEST SWAP2 POP PUSH2 0x12C2 DUP3 PUSH2 0x1283 JUMP JUMPDEST PUSH1 0x2 DUP3 ADD SWAP1 POP SWAP2 SWAP1 POP JUMP JUMPDEST PUSH0 PUSH2 0x12D7 DUP3 PUSH2 0x12AB JUMP JUMPDEST SWAP2 POP DUP2 SWAP1 POP SWAP2 SWAP1 POP JUMP JUMPDEST PUSH32 0x77726F6E6720746F6B656E2C20726576657274696E6700000000000000000000 PUSH0 DUP3 ADD MSTORE POP JUMP JUMPDEST PUSH0 PUSH2 0x1315 PUSH1 0x16 DUP4 PUSH2 0x108F JUMP JUMPDEST SWAP2 POP PUSH2 0x1320 DUP3 PUSH2 0x12E1 JUMP JUMPDEST PUSH1 0x20 DUP3 ADD SWAP1 POP SWAP2 SWAP1 POP JUMP JUMPDEST PUSH0 PUSH1 0x20 DUP3 ADD SWAP1 POP DUP2 DUP2 SUB PUSH0 DUP4 ADD MSTORE PUSH2 0x1342 DUP2 PUSH2 0x1309 JUMP JUMPDEST SWAP1 POP SWAP2 SWAP1 POP JUMP JUMPDEST PUSH0 PUSH2 0x1353 DUP3 PUSH2 0xF7D JUMP JUMPDEST SWAP2 POP PUSH2 0x135E DUP4 PUSH2 0xF7D JUMP JUMPDEST SWAP3 POP DUP3 DUP3 ADD SWAP1 POP DUP1 DUP3 GT ISZERO PUSH2 0x1376 JUMPI PUSH2 0x1375 PUSH2 0x1195 JUMP JUMPDEST JUMPDEST SWAP3 SWAP2 POP POP JUMP JUMPDEST PUSH0 PUSH1 0x40 DUP3 ADD SWAP1 POP PUSH2 0x138F PUSH0 DUP4 ADD DUP6 PUSH2 0x1028 JUMP JUMPDEST PUSH2 0x139C PUSH1 0x20 DUP4 ADD DUP5 PUSH2 0xF86 JUMP JUMPDEST SWAP4 SWAP3 POP POP POP JUMP JUMPDEST PUSH0 DUP2 ISZERO ISZERO SWAP1 POP SWAP2 SWAP1 POP JUMP JUMPDEST PUSH2 0x13B7 DUP2 PUSH2 0x13A3 JUMP JUMPDEST DUP2 EQ PUSH2 0x13C1 JUMPI PUSH0 DUP1 REVERT JUMPDEST POP JUMP JUMPDEST PUSH0 DUP2 MLOAD SWAP1 POP PUSH2 0x13D2 DUP2 PUSH2 0x13AE JUMP JUMPDEST SWAP3 SWAP2 POP POP JUMP JUMPDEST PUSH0 PUSH1 0x20 DUP3 DUP5 SUB SLT ISZERO PUSH2 0x13ED JUMPI PUSH2 0x13EC PUSH2 0xD3C JUMP JUMPDEST JUMPDEST PUSH0 PUSH2 0x13FA DUP5 DUP3 DUP6 ADD PUSH2 0x13C4 JUMP JUMPDEST SWAP2 POP POP SWAP3 SWAP2 POP POP JUMP JUMPDEST PUSH32 0x63616E6E6F74207472616E736665722054417320746F20746865206275796572 PUSH0 DUP3 ADD MSTORE POP JUMP JUMPDEST PUSH0 PUSH2 0x1437 PUSH1 0x20 DUP4 PUSH2 0x108F JUMP JUMPDEST SWAP2 POP PUSH2 0x1442 DUP3 PUSH2 0x1403 JUMP JUMPDEST PUSH1 0x20 DUP3 ADD SWAP1 POP SWAP2 SWAP1 POP JUMP JUMPDEST PUSH0 PUSH1 0x20 DUP3 ADD SWAP1 POP DUP2 DUP2 SUB PUSH0 DUP4 ADD MSTORE PUSH2 0x1464 DUP2 PUSH2 0x142B JUMP JUMPDEST SWAP1 POP SWAP2 SWAP1 POP JUMP JUMPDEST PUSH32 0x63616E6E6F74207472616E736665722054427320746F20746865206275796572 PUSH0 DUP3 ADD MSTORE POP JUMP JUMPDEST PUSH0 PUSH2 0x149F PUSH1 0x20 DUP4 PUSH2 0x108F JUMP JUMPDEST SWAP2 POP PUSH2 0x14AA DUP3 PUSH2 0x146B JUMP JUMPDEST PUSH1 0x20 DUP3 ADD SWAP1 POP SWAP2 SWAP1 POP JUMP JUMPDEST PUSH0 PUSH1 0x20 DUP3 ADD SWAP1 POP DUP2 DUP2 SUB PUSH0 DUP4 ADD MSTORE PUSH2 0x14CC DUP2 PUSH2 0x1493 JUMP JUMPDEST SWAP1 POP SWAP2 SWAP1 POP JUMP JUMPDEST PUSH0 PUSH1 0x60 DUP3 ADD SWAP1 POP PUSH2 0x14E6 PUSH0 DUP4 ADD DUP7 PUSH2 0x1028 JUMP JUMPDEST PUSH2 0x14F3 PUSH1 0x20 DUP4 ADD DUP6 PUSH2 0x1028 JUMP JUMPDEST PUSH2 0x1500 PUSH1 0x40 DUP4 ADD DUP5 PUSH2 0xF86 JUMP JUMPDEST SWAP5 SWAP4 POP POP POP POP JUMP JUMPDEST PUSH0 DUP2 MLOAD SWAP1 POP SWAP2 SWAP1 POP JUMP JUMPDEST PUSH0 DUP2 SWAP1 POP SWAP3 SWAP2 POP POP JUMP JUMPDEST PUSH0 JUMPDEST DUP4 DUP2 LT ISZERO PUSH2 0x1539 JUMPI DUP1 DUP3 ADD MLOAD DUP2 DUP5 ADD MSTORE PUSH1 0x20 DUP2 ADD SWAP1 POP PUSH2 0x151E JUMP JUMPDEST PUSH0 DUP5 DUP5 ADD MSTORE POP POP POP POP JUMP JUMPDEST PUSH0 PUSH2 0x154E DUP3 PUSH2 0x1508 JUMP JUMPDEST PUSH2 0x1558 DUP2 DUP6 PUSH2 0x1512 JUMP JUMPDEST SWAP4 POP PUSH2 0x1568 DUP2 DUP6 PUSH1 0x20 DUP7 ADD PUSH2 0x151C JUMP JUMPDEST DUP1 DUP5 ADD SWAP2 POP POP SWAP3 SWAP2 POP POP JUMP JUMPDEST PUSH0 PUSH2 0x157F DUP3 DUP5 PUSH2 0x1544 JUMP JUMPDEST SWAP2 POP DUP2 SWAP1 POP SWAP3 SWAP2 POP POP JUMP INVALID LOG2 PUSH5 0x6970667358 0x22 SLT KECCAK256 PUSH1 0x9F 0xE2 BLOCKHASH 0xE4 SWAP4 PUSH32 0x235FCDB23A36174906EA0535C858A56C7F7A960C493474F26764736F6C634300 ADDMOD AND STOP CALLER "
		},
		"gasEstimates": {
			"creation": {
				"codeDepositCost": "1113600",
				"executionCost": "infinite",
				"totalCost": "infinite"
			},
			"external": {
				"TokenBalance(string)": "infinite",
				"buyToken(address,address,uint256)": "infinite",
				"buyTokenForEther(address)": "infinite"
			}
		},
		"methodIdentifiers": {
			"TokenBalance(string)": "bf6cb6a1",
			"buyToken(address,address,uint256)": "c1d5725f",
			"buyTokenForEther(address)": "7193bfab"
		}
	},
	"abi": [
		{
			"inputs": [
				{
					"internalType": "contract TokenA",
					"name": "adr1",
					"type": "address"
				},
				{
					"internalType": "contract TokenB",
					"name": "adr2",
					"type": "address"
				}
			],
			"stateMutability": "nonpayable",
			"type": "constructor"
		},
		{
			"inputs": [
				{
					"internalType": "address",
					"name": "target",
					"type": "address"
				}
			],
			"name": "AddressEmptyCode",
			"type": "error"
		},
		{
			"inputs": [
				{
					"internalType": "address",
					"name": "account",
					"type": "address"
				}
			],
			"name": "AddressInsufficientBalance",
			"type": "error"
		},
		{
			"inputs": [],
			"name": "FailedInnerCall",
			"type": "error"
		},
		{
			"inputs": [
				{
					"internalType": "address",
					"name": "token",
					"type": "address"
				}
			],
			"name": "SafeERC20FailedOperation",
			"type": "error"
		},
		{
			"inputs": [
				{
					"internalType": "string",
					"name": "",
					"type": "string"
				}
			],
			"name": "TokenBalance",
			"outputs": [
				{
					"internalType": "uint256",
					"name": "",
					"type": "uint256"
				}
			],
			"stateMutability": "view",
			"type": "function"
		},
		{
			"inputs": [
				{
					"internalType": "address",
					"name": "_TA",
					"type": "address"
				},
				{
					"internalType": "address",
					"name": "_TB",
					"type": "address"
				},
				{
					"internalType": "uint256",
					"name": "_amount",
					"type": "uint256"
				}
			],
			"name": "buyToken",
			"outputs": [
				{
					"internalType": "uint256",
					"name": "",
					"type": "uint256"
				}
			],
			"stateMutability": "nonpayable",
			"type": "function"
		},
		{
			"inputs": [
				{
					"internalType": "address",
					"name": "_token",
					"type": "address"
				}
			],
			"name": "buyTokenForEther",
			"outputs": [
				{
					"internalType": "int256",
					"name": "",
					"type": "int256"
				}
			],
			"stateMutability": "payable",
			"type": "function"
		}
	]
}