{
	"solidity_course_materials/TokenExchange/show_sender.sol": {
		"B": {
			"abi": [
				{
					"inputs": [],
					"stateMutability": "nonpayable",
					"type": "constructor"
				},
				{
					"inputs": [],
					"name": "owner",
					"outputs": [
						{
							"internalType": "address",
							"name": "",
							"type": "address"
						}
					],
					"stateMutability": "view",
					"type": "function"
				},
				{
					"inputs": [],
					"name": "showOwner",
					"outputs": [
						{
							"internalType": "address",
							"name": "",
							"type": "address"
						}
					],
					"stateMutability": "view",
					"type": "function"
				},
				{
					"inputs": [],
					"name": "showSender",
					"outputs": [
						{
							"internalType": "address",
							"name": "",
							"type": "address"
						}
					],
					"stateMutability": "view",
					"type": "function"
				},
				{
					"inputs": [],
					"name": "token",
					"outputs": [
						{
							"internalType": "contract A",
							"name": "",
							"type": "address"
						}
					],
					"stateMutability": "view",
					"type": "function"
				}
			],
			"devdoc": {
				"kind": "dev",
				"methods": {},
				"version": 1
			},
			"evm": {
				"assembly": "    /* \"solidity_course_materials/TokenExchange/show_sender.sol\":413:765  contract B{... */\n  mstore(0x40, 0x80)\n    /* \"solidity_course_materials/TokenExchange/show_sender.sol\":480:556  constructor(){... */\n  callvalue\n  dup1\n  iszero\n  tag_1\n  jumpi\n  0x00\n  dup1\n  revert\ntag_1:\n  pop\n    /* \"solidity_course_materials/TokenExchange/show_sender.sol\":512:519  new A() */\n  mload(0x40)\n  tag_4\n  swap1\n  tag_5\n  jump\t// in\ntag_4:\n  mload(0x40)\n  dup1\n  swap2\n  sub\n  swap1\n  0x00\n  create\n  dup1\n  iszero\n  dup1\n  iszero\n  tag_6\n  jumpi\n  returndatasize\n  0x00\n  dup1\n  returndatacopy\n  revert(0x00, returndatasize)\ntag_6:\n  pop\n    /* \"solidity_course_materials/TokenExchange/show_sender.sol\":504:509  token */\n  0x00\n  dup1\n    /* \"solidity_course_materials/TokenExchange/show_sender.sol\":504:519  token = new A() */\n  0x0100\n  exp\n  dup2\n  sload\n  dup2\n  0xffffffffffffffffffffffffffffffffffffffff\n  mul\n  not\n  and\n  swap1\n  dup4\n  0xffffffffffffffffffffffffffffffffffffffff\n  and\n  mul\n  or\n  swap1\n  sstore\n  pop\n    /* \"solidity_course_materials/TokenExchange/show_sender.sol\":538:548  msg.sender */\n  caller\n    /* \"solidity_course_materials/TokenExchange/show_sender.sol\":530:535  owner */\n  0x01\n  0x00\n    /* \"solidity_course_materials/TokenExchange/show_sender.sol\":530:548  owner = msg.sender */\n  0x0100\n  exp\n  dup2\n  sload\n  dup2\n  0xffffffffffffffffffffffffffffffffffffffff\n  mul\n  not\n  and\n  swap1\n  dup4\n  0xffffffffffffffffffffffffffffffffffffffff\n  and\n  mul\n  or\n  swap1\n  sstore\n  pop\n    /* \"solidity_course_materials/TokenExchange/show_sender.sol\":413:765  contract B{... */\n  jump(tag_7)\ntag_5:\n  dataSize(sub_1)\n  dup1\n  dataOffset(sub_1)\n  dup4\n  codecopy\n  add\n  swap1\n  jump\t// out\ntag_7:\n  dataSize(sub_0)\n  dup1\n  dataOffset(sub_0)\n  0x00\n  codecopy\n  0x00\n  return\nstop\n\nsub_0: assembly {\n        /* \"solidity_course_materials/TokenExchange/show_sender.sol\":413:765  contract B{... */\n      mstore(0x40, 0x80)\n      callvalue\n      dup1\n      iszero\n      tag_1\n      jumpi\n      0x00\n      dup1\n      revert\n    tag_1:\n      pop\n      jumpi(tag_2, lt(calldatasize, 0x04))\n      shr(0xe0, calldataload(0x00))\n      dup1\n      0x8da5cb5b\n      eq\n      tag_3\n      jumpi\n      dup1\n      0xa4d64ff4\n      eq\n      tag_4\n      jumpi\n      dup1\n      0xded94688\n      eq\n      tag_5\n      jumpi\n      dup1\n      0xfc0c546a\n      eq\n      tag_6\n      jumpi\n    tag_2:\n      0x00\n      dup1\n      revert\n        /* \"solidity_course_materials/TokenExchange/show_sender.sol\":451:471  address public owner */\n    tag_3:\n      tag_7\n      tag_8\n      jump\t// in\n    tag_7:\n      mload(0x40)\n      tag_9\n      swap2\n      swap1\n      tag_10\n      jump\t// in\n    tag_9:\n      mload(0x40)\n      dup1\n      swap2\n      sub\n      swap1\n      return\n        /* \"solidity_course_materials/TokenExchange/show_sender.sol\":564:659  function showSender() public view returns(address){... */\n    tag_4:\n      tag_11\n      tag_12\n      jump\t// in\n    tag_11:\n      mload(0x40)\n      tag_13\n      swap2\n      swap1\n      tag_10\n      jump\t// in\n    tag_13:\n      mload(0x40)\n      dup1\n      swap2\n      sub\n      swap1\n      return\n        /* \"solidity_course_materials/TokenExchange/show_sender.sol\":665:758  function showOwner() public view returns(address){... */\n    tag_5:\n      tag_14\n      tag_15\n      jump\t// in\n    tag_14:\n      mload(0x40)\n      tag_16\n      swap2\n      swap1\n      tag_10\n      jump\t// in\n    tag_16:\n      mload(0x40)\n      dup1\n      swap2\n      sub\n      swap1\n      return\n        /* \"solidity_course_materials/TokenExchange/show_sender.sol\":430:444  A public token */\n    tag_6:\n      tag_17\n      tag_18\n      jump\t// in\n    tag_17:\n      mload(0x40)\n      tag_19\n      swap2\n      swap1\n      tag_20\n      jump\t// in\n    tag_19:\n      mload(0x40)\n      dup1\n      swap2\n      sub\n      swap1\n      return\n        /* \"solidity_course_materials/TokenExchange/show_sender.sol\":451:471  address public owner */\n    tag_8:\n      0x01\n      0x00\n      swap1\n      sload\n      swap1\n      0x0100\n      exp\n      swap1\n      div\n      0xffffffffffffffffffffffffffffffffffffffff\n      and\n      dup2\n      jump\t// out\n        /* \"solidity_course_materials/TokenExchange/show_sender.sol\":564:659  function showSender() public view returns(address){... */\n    tag_12:\n        /* \"solidity_course_materials/TokenExchange/show_sender.sol\":606:613  address */\n      0x00\n        /* \"solidity_course_materials/TokenExchange/show_sender.sol\":632:637  token */\n      dup1\n      0x00\n      swap1\n      sload\n      swap1\n      0x0100\n      exp\n      swap1\n      div\n      0xffffffffffffffffffffffffffffffffffffffff\n      and\n        /* \"solidity_course_materials/TokenExchange/show_sender.sol\":632:648  token.showSender */\n      0xffffffffffffffffffffffffffffffffffffffff\n      and\n      0xa4d64ff4\n        /* \"solidity_course_materials/TokenExchange/show_sender.sol\":632:650  token.showSender() */\n      mload(0x40)\n      dup2\n      0xffffffff\n      and\n      0xe0\n      shl\n      dup2\n      mstore\n      0x04\n      add\n      0x20\n      mload(0x40)\n      dup1\n      dup4\n      sub\n      dup2\n      dup7\n      gas\n      staticcall\n      iszero\n      dup1\n      iszero\n      tag_23\n      jumpi\n      returndatasize\n      0x00\n      dup1\n      returndatacopy\n      revert(0x00, returndatasize)\n    tag_23:\n      pop\n      pop\n      pop\n      pop\n      mload(0x40)\n      returndatasize\n      not(0x1f)\n      0x1f\n      dup3\n      add\n      and\n      dup3\n      add\n      dup1\n      0x40\n      mstore\n      pop\n      dup2\n      add\n      swap1\n      tag_24\n      swap2\n      swap1\n      tag_25\n      jump\t// in\n    tag_24:\n        /* \"solidity_course_materials/TokenExchange/show_sender.sol\":625:651  return(token.showSender()) */\n      swap1\n      pop\n        /* \"solidity_course_materials/TokenExchange/show_sender.sol\":564:659  function showSender() public view returns(address){... */\n      swap1\n      jump\t// out\n        /* \"solidity_course_materials/TokenExchange/show_sender.sol\":665:758  function showOwner() public view returns(address){... */\n    tag_15:\n        /* \"solidity_course_materials/TokenExchange/show_sender.sol\":706:713  address */\n      0x00\n        /* \"solidity_course_materials/TokenExchange/show_sender.sol\":732:737  token */\n      dup1\n      0x00\n      swap1\n      sload\n      swap1\n      0x0100\n      exp\n      swap1\n      div\n      0xffffffffffffffffffffffffffffffffffffffff\n      and\n        /* \"solidity_course_materials/TokenExchange/show_sender.sol\":732:747  token.showOwner */\n      0xffffffffffffffffffffffffffffffffffffffff\n      and\n      0xded94688\n        /* \"solidity_course_materials/TokenExchange/show_sender.sol\":732:749  token.showOwner() */\n      mload(0x40)\n      dup2\n      0xffffffff\n      and\n      0xe0\n      shl\n      dup2\n      mstore\n      0x04\n      add\n      0x20\n      mload(0x40)\n      dup1\n      dup4\n      sub\n      dup2\n      dup7\n      gas\n      staticcall\n      iszero\n      dup1\n      iszero\n      tag_28\n      jumpi\n      returndatasize\n      0x00\n      dup1\n      returndatacopy\n      revert(0x00, returndatasize)\n    tag_28:\n      pop\n      pop\n      pop\n      pop\n      mload(0x40)\n      returndatasize\n      not(0x1f)\n      0x1f\n      dup3\n      add\n      and\n      dup3\n      add\n      dup1\n      0x40\n      mstore\n      pop\n      dup2\n      add\n      swap1\n      tag_29\n      swap2\n      swap1\n      tag_25\n      jump\t// in\n    tag_29:\n        /* \"solidity_course_materials/TokenExchange/show_sender.sol\":725:750  return(token.showOwner()) */\n      swap1\n      pop\n        /* \"solidity_course_materials/TokenExchange/show_sender.sol\":665:758  function showOwner() public view returns(address){... */\n      swap1\n      jump\t// out\n        /* \"solidity_course_materials/TokenExchange/show_sender.sol\":430:444  A public token */\n    tag_18:\n      0x00\n      dup1\n      sload\n      swap1\n      0x0100\n      exp\n      swap1\n      div\n      0xffffffffffffffffffffffffffffffffffffffff\n      and\n      dup2\n      jump\t// out\n        /* \"#utility.yul\":7:133   */\n    tag_30:\n        /* \"#utility.yul\":44:51   */\n      0x00\n        /* \"#utility.yul\":84:126   */\n      0xffffffffffffffffffffffffffffffffffffffff\n        /* \"#utility.yul\":77:82   */\n      dup3\n        /* \"#utility.yul\":73:127   */\n      and\n        /* \"#utility.yul\":62:127   */\n      swap1\n      pop\n        /* \"#utility.yul\":7:133   */\n      swap2\n      swap1\n      pop\n      jump\t// out\n        /* \"#utility.yul\":139:235   */\n    tag_31:\n        /* \"#utility.yul\":176:183   */\n      0x00\n        /* \"#utility.yul\":205:229   */\n      tag_46\n        /* \"#utility.yul\":223:228   */\n      dup3\n        /* \"#utility.yul\":205:229   */\n      tag_30\n      jump\t// in\n    tag_46:\n        /* \"#utility.yul\":194:229   */\n      swap1\n      pop\n        /* \"#utility.yul\":139:235   */\n      swap2\n      swap1\n      pop\n      jump\t// out\n        /* \"#utility.yul\":241:359   */\n    tag_32:\n        /* \"#utility.yul\":328:352   */\n      tag_48\n        /* \"#utility.yul\":346:351   */\n      dup2\n        /* \"#utility.yul\":328:352   */\n      tag_31\n      jump\t// in\n    tag_48:\n        /* \"#utility.yul\":323:326   */\n      dup3\n        /* \"#utility.yul\":316:353   */\n      mstore\n        /* \"#utility.yul\":241:359   */\n      pop\n      pop\n      jump\t// out\n        /* \"#utility.yul\":365:587   */\n    tag_10:\n        /* \"#utility.yul\":458:462   */\n      0x00\n        /* \"#utility.yul\":496:498   */\n      0x20\n        /* \"#utility.yul\":485:494   */\n      dup3\n        /* \"#utility.yul\":481:499   */\n      add\n        /* \"#utility.yul\":473:499   */\n      swap1\n      pop\n        /* \"#utility.yul\":509:580   */\n      tag_50\n        /* \"#utility.yul\":577:578   */\n      0x00\n        /* \"#utility.yul\":566:575   */\n      dup4\n        /* \"#utility.yul\":562:579   */\n      add\n        /* \"#utility.yul\":553:559   */\n      dup5\n        /* \"#utility.yul\":509:580   */\n      tag_32\n      jump\t// in\n    tag_50:\n        /* \"#utility.yul\":365:587   */\n      swap3\n      swap2\n      pop\n      pop\n      jump\t// out\n        /* \"#utility.yul\":593:653   */\n    tag_33:\n        /* \"#utility.yul\":621:624   */\n      0x00\n        /* \"#utility.yul\":642:647   */\n      dup2\n        /* \"#utility.yul\":635:647   */\n      swap1\n      pop\n        /* \"#utility.yul\":593:653   */\n      swap2\n      swap1\n      pop\n      jump\t// out\n        /* \"#utility.yul\":659:801   */\n    tag_34:\n        /* \"#utility.yul\":709:718   */\n      0x00\n        /* \"#utility.yul\":742:795   */\n      tag_53\n        /* \"#utility.yul\":760:794   */\n      tag_54\n        /* \"#utility.yul\":769:793   */\n      tag_55\n        /* \"#utility.yul\":787:792   */\n      dup5\n        /* \"#utility.yul\":769:793   */\n      tag_30\n      jump\t// in\n    tag_55:\n        /* \"#utility.yul\":760:794   */\n      tag_33\n      jump\t// in\n    tag_54:\n        /* \"#utility.yul\":742:795   */\n      tag_30\n      jump\t// in\n    tag_53:\n        /* \"#utility.yul\":729:795   */\n      swap1\n      pop\n        /* \"#utility.yul\":659:801   */\n      swap2\n      swap1\n      pop\n      jump\t// out\n        /* \"#utility.yul\":807:933   */\n    tag_35:\n        /* \"#utility.yul\":857:866   */\n      0x00\n        /* \"#utility.yul\":890:927   */\n      tag_57\n        /* \"#utility.yul\":921:926   */\n      dup3\n        /* \"#utility.yul\":890:927   */\n      tag_34\n      jump\t// in\n    tag_57:\n        /* \"#utility.yul\":877:927   */\n      swap1\n      pop\n        /* \"#utility.yul\":807:933   */\n      swap2\n      swap1\n      pop\n      jump\t// out\n        /* \"#utility.yul\":939:1073   */\n    tag_36:\n        /* \"#utility.yul\":997:1006   */\n      0x00\n        /* \"#utility.yul\":1030:1067   */\n      tag_59\n        /* \"#utility.yul\":1061:1066   */\n      dup3\n        /* \"#utility.yul\":1030:1067   */\n      tag_35\n      jump\t// in\n    tag_59:\n        /* \"#utility.yul\":1017:1067   */\n      swap1\n      pop\n        /* \"#utility.yul\":939:1073   */\n      swap2\n      swap1\n      pop\n      jump\t// out\n        /* \"#utility.yul\":1079:1226   */\n    tag_37:\n        /* \"#utility.yul\":1174:1219   */\n      tag_61\n        /* \"#utility.yul\":1213:1218   */\n      dup2\n        /* \"#utility.yul\":1174:1219   */\n      tag_36\n      jump\t// in\n    tag_61:\n        /* \"#utility.yul\":1169:1172   */\n      dup3\n        /* \"#utility.yul\":1162:1220   */\n      mstore\n        /* \"#utility.yul\":1079:1226   */\n      pop\n      pop\n      jump\t// out\n        /* \"#utility.yul\":1232:1470   */\n    tag_20:\n        /* \"#utility.yul\":1333:1337   */\n      0x00\n        /* \"#utility.yul\":1371:1373   */\n      0x20\n        /* \"#utility.yul\":1360:1369   */\n      dup3\n        /* \"#utility.yul\":1356:1374   */\n      add\n        /* \"#utility.yul\":1348:1374   */\n      swap1\n      pop\n        /* \"#utility.yul\":1384:1463   */\n      tag_63\n        /* \"#utility.yul\":1460:1461   */\n      0x00\n        /* \"#utility.yul\":1449:1458   */\n      dup4\n        /* \"#utility.yul\":1445:1462   */\n      add\n        /* \"#utility.yul\":1436:1442   */\n      dup5\n        /* \"#utility.yul\":1384:1463   */\n      tag_37\n      jump\t// in\n    tag_63:\n        /* \"#utility.yul\":1232:1470   */\n      swap3\n      swap2\n      pop\n      pop\n      jump\t// out\n        /* \"#utility.yul\":1557:1674   */\n    tag_39:\n        /* \"#utility.yul\":1666:1667   */\n      0x00\n        /* \"#utility.yul\":1663:1664   */\n      dup1\n        /* \"#utility.yul\":1656:1668   */\n      revert\n        /* \"#utility.yul\":1803:1925   */\n    tag_41:\n        /* \"#utility.yul\":1876:1900   */\n      tag_68\n        /* \"#utility.yul\":1894:1899   */\n      dup2\n        /* \"#utility.yul\":1876:1900   */\n      tag_31\n      jump\t// in\n    tag_68:\n        /* \"#utility.yul\":1869:1874   */\n      dup2\n        /* \"#utility.yul\":1866:1901   */\n      eq\n        /* \"#utility.yul\":1856:1919   */\n      tag_69\n      jumpi\n        /* \"#utility.yul\":1915:1916   */\n      0x00\n        /* \"#utility.yul\":1912:1913   */\n      dup1\n        /* \"#utility.yul\":1905:1917   */\n      revert\n        /* \"#utility.yul\":1856:1919   */\n    tag_69:\n        /* \"#utility.yul\":1803:1925   */\n      pop\n      jump\t// out\n        /* \"#utility.yul\":1931:2074   */\n    tag_42:\n        /* \"#utility.yul\":1988:1993   */\n      0x00\n        /* \"#utility.yul\":2019:2025   */\n      dup2\n        /* \"#utility.yul\":2013:2026   */\n      mload\n        /* \"#utility.yul\":2004:2026   */\n      swap1\n      pop\n        /* \"#utility.yul\":2035:2068   */\n      tag_71\n        /* \"#utility.yul\":2062:2067   */\n      dup2\n        /* \"#utility.yul\":2035:2068   */\n      tag_41\n      jump\t// in\n    tag_71:\n        /* \"#utility.yul\":1931:2074   */\n      swap3\n      swap2\n      pop\n      pop\n      jump\t// out\n        /* \"#utility.yul\":2080:2431   */\n    tag_25:\n        /* \"#utility.yul\":2150:2156   */\n      0x00\n        /* \"#utility.yul\":2199:2201   */\n      0x20\n        /* \"#utility.yul\":2187:2196   */\n      dup3\n        /* \"#utility.yul\":2178:2185   */\n      dup5\n        /* \"#utility.yul\":2174:2197   */\n      sub\n        /* \"#utility.yul\":2170:2202   */\n      slt\n        /* \"#utility.yul\":2167:2286   */\n      iszero\n      tag_73\n      jumpi\n        /* \"#utility.yul\":2205:2284   */\n      tag_74\n      tag_39\n      jump\t// in\n    tag_74:\n        /* \"#utility.yul\":2167:2286   */\n    tag_73:\n        /* \"#utility.yul\":2325:2326   */\n      0x00\n        /* \"#utility.yul\":2350:2414   */\n      tag_75\n        /* \"#utility.yul\":2406:2413   */\n      dup5\n        /* \"#utility.yul\":2397:2403   */\n      dup3\n        /* \"#utility.yul\":2386:2395   */\n      dup6\n        /* \"#utility.yul\":2382:2404   */\n      add\n        /* \"#utility.yul\":2350:2414   */\n      tag_42\n      jump\t// in\n    tag_75:\n        /* \"#utility.yul\":2340:2414   */\n      swap2\n      pop\n        /* \"#utility.yul\":2296:2424   */\n      pop\n        /* \"#utility.yul\":2080:2431   */\n      swap3\n      swap2\n      pop\n      pop\n      jump\t// out\n\n    auxdata: 0xa26469706673582212202813e2e769c1b07aebcc928dfb14f1700d566579b704c747a46135c5724bea0264736f6c63430008160033\n}\n\nsub_1: assembly {\n        /* \"solidity_course_materials/TokenExchange/show_sender.sol\":111:409  contract A{... */\n      mstore(0x40, 0x80)\n        /* \"solidity_course_materials/TokenExchange/show_sender.sol\":157:210  constructor(){... */\n      callvalue\n      dup1\n      iszero\n      tag_1\n      jumpi\n      0x00\n      dup1\n      revert\n    tag_1:\n      pop\n        /* \"solidity_course_materials/TokenExchange/show_sender.sol\":197:201  this */\n      address\n        /* \"solidity_course_materials/TokenExchange/show_sender.sol\":181:186  owner */\n      0x00\n      dup1\n        /* \"solidity_course_materials/TokenExchange/show_sender.sol\":181:202  owner = address(this) */\n      0x0100\n      exp\n      dup2\n      sload\n      dup2\n      0xffffffffffffffffffffffffffffffffffffffff\n      mul\n      not\n      and\n      swap1\n      dup4\n      0xffffffffffffffffffffffffffffffffffffffff\n      and\n      mul\n      or\n      swap1\n      sstore\n      pop\n        /* \"solidity_course_materials/TokenExchange/show_sender.sol\":111:409  contract A{... */\n      dataSize(sub_0)\n      dup1\n      dataOffset(sub_0)\n      0x00\n      codecopy\n      0x00\n      return\n    stop\n\n    sub_0: assembly {\n            /* \"solidity_course_materials/TokenExchange/show_sender.sol\":111:409  contract A{... */\n          mstore(0x40, 0x80)\n          callvalue\n          dup1\n          iszero\n          tag_1\n          jumpi\n          0x00\n          dup1\n          revert\n        tag_1:\n          pop\n          jumpi(tag_2, lt(calldatasize, 0x04))\n          shr(0xe0, calldataload(0x00))\n          dup1\n          0x8da5cb5b\n          eq\n          tag_3\n          jumpi\n          dup1\n          0xa4d64ff4\n          eq\n          tag_4\n          jumpi\n          dup1\n          0xded94688\n          eq\n          tag_5\n          jumpi\n        tag_2:\n          0x00\n          dup1\n          revert\n            /* \"solidity_course_materials/TokenExchange/show_sender.sol\":128:148  address public owner */\n        tag_3:\n          tag_6\n          tag_7\n          jump\t// in\n        tag_6:\n          mload(0x40)\n          tag_8\n          swap2\n          swap1\n          tag_9\n          jump\t// in\n        tag_8:\n          mload(0x40)\n          dup1\n          swap2\n          sub\n          swap1\n          return\n            /* \"solidity_course_materials/TokenExchange/show_sender.sol\":218:305  function showSender() public view returns(address){... */\n        tag_4:\n          tag_10\n          tag_11\n          jump\t// in\n        tag_10:\n          mload(0x40)\n          tag_12\n          swap2\n          swap1\n          tag_9\n          jump\t// in\n        tag_12:\n          mload(0x40)\n          dup1\n          swap2\n          sub\n          swap1\n          return\n            /* \"solidity_course_materials/TokenExchange/show_sender.sol\":311:400  function showOwner() public view returns(address){... */\n        tag_5:\n          tag_13\n          tag_14\n          jump\t// in\n        tag_13:\n          mload(0x40)\n          tag_15\n          swap2\n          swap1\n          tag_9\n          jump\t// in\n        tag_15:\n          mload(0x40)\n          dup1\n          swap2\n          sub\n          swap1\n          return\n            /* \"solidity_course_materials/TokenExchange/show_sender.sol\":128:148  address public owner */\n        tag_7:\n          0x00\n          dup1\n          sload\n          swap1\n          0x0100\n          exp\n          swap1\n          div\n          0xffffffffffffffffffffffffffffffffffffffff\n          and\n          dup2\n          jump\t// out\n            /* \"solidity_course_materials/TokenExchange/show_sender.sol\":218:305  function showSender() public view returns(address){... */\n        tag_11:\n            /* \"solidity_course_materials/TokenExchange/show_sender.sol\":260:267  address */\n          0x00\n            /* \"solidity_course_materials/TokenExchange/show_sender.sol\":286:296  msg.sender */\n          caller\n            /* \"solidity_course_materials/TokenExchange/show_sender.sol\":279:297  return(msg.sender) */\n          swap1\n          pop\n            /* \"solidity_course_materials/TokenExchange/show_sender.sol\":218:305  function showSender() public view returns(address){... */\n          swap1\n          jump\t// out\n            /* \"solidity_course_materials/TokenExchange/show_sender.sol\":311:400  function showOwner() public view returns(address){... */\n        tag_14:\n            /* \"solidity_course_materials/TokenExchange/show_sender.sol\":352:359  address */\n          0x00\n            /* \"solidity_course_materials/TokenExchange/show_sender.sol\":378:383  owner */\n          dup1\n          0x00\n          swap1\n          sload\n          swap1\n          0x0100\n          exp\n          swap1\n          div\n          0xffffffffffffffffffffffffffffffffffffffff\n          and\n            /* \"solidity_course_materials/TokenExchange/show_sender.sol\":371:384  return(owner) */\n          swap1\n          pop\n            /* \"solidity_course_materials/TokenExchange/show_sender.sol\":311:400  function showOwner() public view returns(address){... */\n          swap1\n          jump\t// out\n            /* \"#utility.yul\":7:133   */\n        tag_18:\n            /* \"#utility.yul\":44:51   */\n          0x00\n            /* \"#utility.yul\":84:126   */\n          0xffffffffffffffffffffffffffffffffffffffff\n            /* \"#utility.yul\":77:82   */\n          dup3\n            /* \"#utility.yul\":73:127   */\n          and\n            /* \"#utility.yul\":62:127   */\n          swap1\n          pop\n            /* \"#utility.yul\":7:133   */\n          swap2\n          swap1\n          pop\n          jump\t// out\n            /* \"#utility.yul\":139:235   */\n        tag_19:\n            /* \"#utility.yul\":176:183   */\n          0x00\n            /* \"#utility.yul\":205:229   */\n          tag_24\n            /* \"#utility.yul\":223:228   */\n          dup3\n            /* \"#utility.yul\":205:229   */\n          tag_18\n          jump\t// in\n        tag_24:\n            /* \"#utility.yul\":194:229   */\n          swap1\n          pop\n            /* \"#utility.yul\":139:235   */\n          swap2\n          swap1\n          pop\n          jump\t// out\n            /* \"#utility.yul\":241:359   */\n        tag_20:\n            /* \"#utility.yul\":328:352   */\n          tag_26\n            /* \"#utility.yul\":346:351   */\n          dup2\n            /* \"#utility.yul\":328:352   */\n          tag_19\n          jump\t// in\n        tag_26:\n            /* \"#utility.yul\":323:326   */\n          dup3\n            /* \"#utility.yul\":316:353   */\n          mstore\n            /* \"#utility.yul\":241:359   */\n          pop\n          pop\n          jump\t// out\n            /* \"#utility.yul\":365:587   */\n        tag_9:\n            /* \"#utility.yul\":458:462   */\n          0x00\n            /* \"#utility.yul\":496:498   */\n          0x20\n            /* \"#utility.yul\":485:494   */\n          dup3\n            /* \"#utility.yul\":481:499   */\n          add\n            /* \"#utility.yul\":473:499   */\n          swap1\n          pop\n            /* \"#utility.yul\":509:580   */\n          tag_28\n            /* \"#utility.yul\":577:578   */\n          0x00\n            /* \"#utility.yul\":566:575   */\n          dup4\n            /* \"#utility.yul\":562:579   */\n          add\n            /* \"#utility.yul\":553:559   */\n          dup5\n            /* \"#utility.yul\":509:580   */\n          tag_20\n          jump\t// in\n        tag_28:\n            /* \"#utility.yul\":365:587   */\n          swap3\n          swap2\n          pop\n          pop\n          jump\t// out\n\n        auxdata: 0xa2646970667358221220d33c2f90563a05e48e5f8d4c1167e651ffc72d504a24e049ae02c16c7d6e355064736f6c63430008160033\n    }\n}\n",
				"bytecode": {
					"linkReferences": {},
					"object": "608060405234801561000f575f80fd5b5060405161001c906100b9565b604051809103905ff080158015610035573d5f803e3d5ffd5b505f806101000a81548173ffffffffffffffffffffffffffffffffffffffff021916908373ffffffffffffffffffffffffffffffffffffffff1602179055503360015f6101000a81548173ffffffffffffffffffffffffffffffffffffffff021916908373ffffffffffffffffffffffffffffffffffffffff1602179055506100c6565b6101d88061046283390190565b61038f806100d35f395ff3fe608060405234801561000f575f80fd5b506004361061004a575f3560e01c80638da5cb5b1461004e578063a4d64ff41461006c578063ded946881461008a578063fc0c546a146100a8575b5f80fd5b6100566100c6565b6040516100639190610273565b60405180910390f35b6100746100eb565b6040516100819190610273565b60405180910390f35b61009261017e565b60405161009f9190610273565b60405180910390f35b6100b0610211565b6040516100bd91906102e7565b60405180910390f35b60015f9054906101000a900473ffffffffffffffffffffffffffffffffffffffff1681565b5f805f9054906101000a900473ffffffffffffffffffffffffffffffffffffffff1673ffffffffffffffffffffffffffffffffffffffff1663a4d64ff46040518163ffffffff1660e01b8152600401602060405180830381865afa158015610155573d5f803e3d5ffd5b505050506040513d601f19601f82011682018060405250810190610179919061032e565b905090565b5f805f9054906101000a900473ffffffffffffffffffffffffffffffffffffffff1673ffffffffffffffffffffffffffffffffffffffff1663ded946886040518163ffffffff1660e01b8152600401602060405180830381865afa1580156101e8573d5f803e3d5ffd5b505050506040513d601f19601f8201168201806040525081019061020c919061032e565b905090565b5f8054906101000a900473ffffffffffffffffffffffffffffffffffffffff1681565b5f73ffffffffffffffffffffffffffffffffffffffff82169050919050565b5f61025d82610234565b9050919050565b61026d81610253565b82525050565b5f6020820190506102865f830184610264565b92915050565b5f819050919050565b5f6102af6102aa6102a584610234565b61028c565b610234565b9050919050565b5f6102c082610295565b9050919050565b5f6102d1826102b6565b9050919050565b6102e1816102c7565b82525050565b5f6020820190506102fa5f8301846102d8565b92915050565b5f80fd5b61030d81610253565b8114610317575f80fd5b50565b5f8151905061032881610304565b92915050565b5f6020828403121561034357610342610300565b5b5f6103508482850161031a565b9150509291505056fea26469706673582212202813e2e769c1b07aebcc928dfb14f1700d566579b704c747a46135c5724bea0264736f6c63430008160033608060405234801561000f575f80fd5b50305f806101000a81548173ffffffffffffffffffffffffffffffffffffffff021916908373ffffffffffffffffffffffffffffffffffffffff16021790555061017c8061005c5f395ff3fe608060405234801561000f575f80fd5b506004361061003f575f3560e01c80638da5cb5b14610043578063a4d64ff414610061578063ded946881461007f575b5f80fd5b61004b61009d565b604051610058919061012d565b60405180910390f35b6100696100c0565b604051610076919061012d565b60405180910390f35b6100876100c7565b604051610094919061012d565b60405180910390f35b5f8054906101000a900473ffffffffffffffffffffffffffffffffffffffff1681565b5f33905090565b5f805f9054906101000a900473ffffffffffffffffffffffffffffffffffffffff16905090565b5f73ffffffffffffffffffffffffffffffffffffffff82169050919050565b5f610117826100ee565b9050919050565b6101278161010d565b82525050565b5f6020820190506101405f83018461011e565b9291505056fea2646970667358221220d33c2f90563a05e48e5f8d4c1167e651ffc72d504a24e049ae02c16c7d6e355064736f6c63430008160033",
					"opcodes": "PUSH1 0x80 PUSH1 0x40 MSTORE CALLVALUE DUP1 ISZERO PUSH2 0xF JUMPI PUSH0 DUP1 REVERT JUMPDEST POP PUSH1 0x40 MLOAD PUSH2 0x1C SWAP1 PUSH2 0xB9 JUMP JUMPDEST PUSH1 0x40 MLOAD DUP1 SWAP2 SUB SWAP1 PUSH0 CREATE DUP1 ISZERO DUP1 ISZERO PUSH2 0x35 JUMPI RETURNDATASIZE PUSH0 DUP1 RETURNDATACOPY RETURNDATASIZE PUSH0 REVERT JUMPDEST POP PUSH0 DUP1 PUSH2 0x100 EXP DUP2 SLOAD DUP2 PUSH20 0xFFFFFFFFFFFFFFFFFFFFFFFFFFFFFFFFFFFFFFFF MUL NOT AND SWAP1 DUP4 PUSH20 0xFFFFFFFFFFFFFFFFFFFFFFFFFFFFFFFFFFFFFFFF AND MUL OR SWAP1 SSTORE POP CALLER PUSH1 0x1 PUSH0 PUSH2 0x100 EXP DUP2 SLOAD DUP2 PUSH20 0xFFFFFFFFFFFFFFFFFFFFFFFFFFFFFFFFFFFFFFFF MUL NOT AND SWAP1 DUP4 PUSH20 0xFFFFFFFFFFFFFFFFFFFFFFFFFFFFFFFFFFFFFFFF AND MUL OR SWAP1 SSTORE POP PUSH2 0xC6 JUMP JUMPDEST PUSH2 0x1D8 DUP1 PUSH2 0x462 DUP4 CODECOPY ADD SWAP1 JUMP JUMPDEST PUSH2 0x38F DUP1 PUSH2 0xD3 PUSH0 CODECOPY PUSH0 RETURN INVALID PUSH1 0x80 PUSH1 0x40 MSTORE CALLVALUE DUP1 ISZERO PUSH2 0xF JUMPI PUSH0 DUP1 REVERT JUMPDEST POP PUSH1 0x4 CALLDATASIZE LT PUSH2 0x4A JUMPI PUSH0 CALLDATALOAD PUSH1 0xE0 SHR DUP1 PUSH4 0x8DA5CB5B EQ PUSH2 0x4E JUMPI DUP1 PUSH4 0xA4D64FF4 EQ PUSH2 0x6C JUMPI DUP1 PUSH4 0xDED94688 EQ PUSH2 0x8A JUMPI DUP1 PUSH4 0xFC0C546A EQ PUSH2 0xA8 JUMPI JUMPDEST PUSH0 DUP1 REVERT JUMPDEST PUSH2 0x56 PUSH2 0xC6 JUMP JUMPDEST PUSH1 0x40 MLOAD PUSH2 0x63 SWAP2 SWAP1 PUSH2 0x273 JUMP JUMPDEST PUSH1 0x40 MLOAD DUP1 SWAP2 SUB SWAP1 RETURN JUMPDEST PUSH2 0x74 PUSH2 0xEB JUMP JUMPDEST PUSH1 0x40 MLOAD PUSH2 0x81 SWAP2 SWAP1 PUSH2 0x273 JUMP JUMPDEST PUSH1 0x40 MLOAD DUP1 SWAP2 SUB SWAP1 RETURN JUMPDEST PUSH2 0x92 PUSH2 0x17E JUMP JUMPDEST PUSH1 0x40 MLOAD PUSH2 0x9F SWAP2 SWAP1 PUSH2 0x273 JUMP JUMPDEST PUSH1 0x40 MLOAD DUP1 SWAP2 SUB SWAP1 RETURN JUMPDEST PUSH2 0xB0 PUSH2 0x211 JUMP JUMPDEST PUSH1 0x40 MLOAD PUSH2 0xBD SWAP2 SWAP1 PUSH2 0x2E7 JUMP JUMPDEST PUSH1 0x40 MLOAD DUP1 SWAP2 SUB SWAP1 RETURN JUMPDEST PUSH1 0x1 PUSH0 SWAP1 SLOAD SWAP1 PUSH2 0x100 EXP SWAP1 DIV PUSH20 0xFFFFFFFFFFFFFFFFFFFFFFFFFFFFFFFFFFFFFFFF AND DUP2 JUMP JUMPDEST PUSH0 DUP1 PUSH0 SWAP1 SLOAD SWAP1 PUSH2 0x100 EXP SWAP1 DIV PUSH20 0xFFFFFFFFFFFFFFFFFFFFFFFFFFFFFFFFFFFFFFFF AND PUSH20 0xFFFFFFFFFFFFFFFFFFFFFFFFFFFFFFFFFFFFFFFF AND PUSH4 0xA4D64FF4 PUSH1 0x40 MLOAD DUP2 PUSH4 0xFFFFFFFF AND PUSH1 0xE0 SHL DUP2 MSTORE PUSH1 0x4 ADD PUSH1 0x20 PUSH1 0x40 MLOAD DUP1 DUP4 SUB DUP2 DUP7 GAS STATICCALL ISZERO DUP1 ISZERO PUSH2 0x155 JUMPI RETURNDATASIZE PUSH0 DUP1 RETURNDATACOPY RETURNDATASIZE PUSH0 REVERT JUMPDEST POP POP POP POP PUSH1 0x40 MLOAD RETURNDATASIZE PUSH1 0x1F NOT PUSH1 0x1F DUP3 ADD AND DUP3 ADD DUP1 PUSH1 0x40 MSTORE POP DUP2 ADD SWAP1 PUSH2 0x179 SWAP2 SWAP1 PUSH2 0x32E JUMP JUMPDEST SWAP1 POP SWAP1 JUMP JUMPDEST PUSH0 DUP1 PUSH0 SWAP1 SLOAD SWAP1 PUSH2 0x100 EXP SWAP1 DIV PUSH20 0xFFFFFFFFFFFFFFFFFFFFFFFFFFFFFFFFFFFFFFFF AND PUSH20 0xFFFFFFFFFFFFFFFFFFFFFFFFFFFFFFFFFFFFFFFF AND PUSH4 0xDED94688 PUSH1 0x40 MLOAD DUP2 PUSH4 0xFFFFFFFF AND PUSH1 0xE0 SHL DUP2 MSTORE PUSH1 0x4 ADD PUSH1 0x20 PUSH1 0x40 MLOAD DUP1 DUP4 SUB DUP2 DUP7 GAS STATICCALL ISZERO DUP1 ISZERO PUSH2 0x1E8 JUMPI RETURNDATASIZE PUSH0 DUP1 RETURNDATACOPY RETURNDATASIZE PUSH0 REVERT JUMPDEST POP POP POP POP PUSH1 0x40 MLOAD RETURNDATASIZE PUSH1 0x1F NOT PUSH1 0x1F DUP3 ADD AND DUP3 ADD DUP1 PUSH1 0x40 MSTORE POP DUP2 ADD SWAP1 PUSH2 0x20C SWAP2 SWAP1 PUSH2 0x32E JUMP JUMPDEST SWAP1 POP SWAP1 JUMP JUMPDEST PUSH0 DUP1 SLOAD SWAP1 PUSH2 0x100 EXP SWAP1 DIV PUSH20 0xFFFFFFFFFFFFFFFFFFFFFFFFFFFFFFFFFFFFFFFF AND DUP2 JUMP JUMPDEST PUSH0 PUSH20 0xFFFFFFFFFFFFFFFFFFFFFFFFFFFFFFFFFFFFFFFF DUP3 AND SWAP1 POP SWAP2 SWAP1 POP JUMP JUMPDEST PUSH0 PUSH2 0x25D DUP3 PUSH2 0x234 JUMP JUMPDEST SWAP1 POP SWAP2 SWAP1 POP JUMP JUMPDEST PUSH2 0x26D DUP2 PUSH2 0x253 JUMP JUMPDEST DUP3 MSTORE POP POP JUMP JUMPDEST PUSH0 PUSH1 0x20 DUP3 ADD SWAP1 POP PUSH2 0x286 PUSH0 DUP4 ADD DUP5 PUSH2 0x264 JUMP JUMPDEST SWAP3 SWAP2 POP POP JUMP JUMPDEST PUSH0 DUP2 SWAP1 POP SWAP2 SWAP1 POP JUMP JUMPDEST PUSH0 PUSH2 0x2AF PUSH2 0x2AA PUSH2 0x2A5 DUP5 PUSH2 0x234 JUMP JUMPDEST PUSH2 0x28C JUMP JUMPDEST PUSH2 0x234 JUMP JUMPDEST SWAP1 POP SWAP2 SWAP1 POP JUMP JUMPDEST PUSH0 PUSH2 0x2C0 DUP3 PUSH2 0x295 JUMP JUMPDEST SWAP1 POP SWAP2 SWAP1 POP JUMP JUMPDEST PUSH0 PUSH2 0x2D1 DUP3 PUSH2 0x2B6 JUMP JUMPDEST SWAP1 POP SWAP2 SWAP1 POP JUMP JUMPDEST PUSH2 0x2E1 DUP2 PUSH2 0x2C7 JUMP JUMPDEST DUP3 MSTORE POP POP JUMP JUMPDEST PUSH0 PUSH1 0x20 DUP3 ADD SWAP1 POP PUSH2 0x2FA PUSH0 DUP4 ADD DUP5 PUSH2 0x2D8 JUMP JUMPDEST SWAP3 SWAP2 POP POP JUMP JUMPDEST PUSH0 DUP1 REVERT JUMPDEST PUSH2 0x30D DUP2 PUSH2 0x253 JUMP JUMPDEST DUP2 EQ PUSH2 0x317 JUMPI PUSH0 DUP1 REVERT JUMPDEST POP JUMP JUMPDEST PUSH0 DUP2 MLOAD SWAP1 POP PUSH2 0x328 DUP2 PUSH2 0x304 JUMP JUMPDEST SWAP3 SWAP2 POP POP JUMP JUMPDEST PUSH0 PUSH1 0x20 DUP3 DUP5 SUB SLT ISZERO PUSH2 0x343 JUMPI PUSH2 0x342 PUSH2 0x300 JUMP JUMPDEST JUMPDEST PUSH0 PUSH2 0x350 DUP5 DUP3 DUP6 ADD PUSH2 0x31A JUMP JUMPDEST SWAP2 POP POP SWAP3 SWAP2 POP POP JUMP INVALID LOG2 PUSH5 0x6970667358 0x22 SLT KECCAK256 0x28 SGT 0xE2 0xE7 PUSH10 0xC1B07AEBCC928DFB14F1 PUSH17 0xD566579B704C747A46135C5724BEA0264 PUSH20 0x6F6C63430008160033608060405234801561000F JUMPI PUSH0 DUP1 REVERT JUMPDEST POP ADDRESS PUSH0 DUP1 PUSH2 0x100 EXP DUP2 SLOAD DUP2 PUSH20 0xFFFFFFFFFFFFFFFFFFFFFFFFFFFFFFFFFFFFFFFF MUL NOT AND SWAP1 DUP4 PUSH20 0xFFFFFFFFFFFFFFFFFFFFFFFFFFFFFFFFFFFFFFFF AND MUL OR SWAP1 SSTORE POP PUSH2 0x17C DUP1 PUSH2 0x5C PUSH0 CODECOPY PUSH0 RETURN INVALID PUSH1 0x80 PUSH1 0x40 MSTORE CALLVALUE DUP1 ISZERO PUSH2 0xF JUMPI PUSH0 DUP1 REVERT JUMPDEST POP PUSH1 0x4 CALLDATASIZE LT PUSH2 0x3F JUMPI PUSH0 CALLDATALOAD PUSH1 0xE0 SHR DUP1 PUSH4 0x8DA5CB5B EQ PUSH2 0x43 JUMPI DUP1 PUSH4 0xA4D64FF4 EQ PUSH2 0x61 JUMPI DUP1 PUSH4 0xDED94688 EQ PUSH2 0x7F JUMPI JUMPDEST PUSH0 DUP1 REVERT JUMPDEST PUSH2 0x4B PUSH2 0x9D JUMP JUMPDEST PUSH1 0x40 MLOAD PUSH2 0x58 SWAP2 SWAP1 PUSH2 0x12D JUMP JUMPDEST PUSH1 0x40 MLOAD DUP1 SWAP2 SUB SWAP1 RETURN JUMPDEST PUSH2 0x69 PUSH2 0xC0 JUMP JUMPDEST PUSH1 0x40 MLOAD PUSH2 0x76 SWAP2 SWAP1 PUSH2 0x12D JUMP JUMPDEST PUSH1 0x40 MLOAD DUP1 SWAP2 SUB SWAP1 RETURN JUMPDEST PUSH2 0x87 PUSH2 0xC7 JUMP JUMPDEST PUSH1 0x40 MLOAD PUSH2 0x94 SWAP2 SWAP1 PUSH2 0x12D JUMP JUMPDEST PUSH1 0x40 MLOAD DUP1 SWAP2 SUB SWAP1 RETURN JUMPDEST PUSH0 DUP1 SLOAD SWAP1 PUSH2 0x100 EXP SWAP1 DIV PUSH20 0xFFFFFFFFFFFFFFFFFFFFFFFFFFFFFFFFFFFFFFFF AND DUP2 JUMP JUMPDEST PUSH0 CALLER SWAP1 POP SWAP1 JUMP JUMPDEST PUSH0 DUP1 PUSH0 SWAP1 SLOAD SWAP1 PUSH2 0x100 EXP SWAP1 DIV PUSH20 0xFFFFFFFFFFFFFFFFFFFFFFFFFFFFFFFFFFFFFFFF AND SWAP1 POP SWAP1 JUMP JUMPDEST PUSH0 PUSH20 0xFFFFFFFFFFFFFFFFFFFFFFFFFFFFFFFFFFFFFFFF DUP3 AND SWAP1 POP SWAP2 SWAP1 POP JUMP JUMPDEST PUSH0 PUSH2 0x117 DUP3 PUSH2 0xEE JUMP JUMPDEST SWAP1 POP SWAP2 SWAP1 POP JUMP JUMPDEST PUSH2 0x127 DUP2 PUSH2 0x10D JUMP JUMPDEST DUP3 MSTORE POP POP JUMP JUMPDEST PUSH0 PUSH1 0x20 DUP3 ADD SWAP1 POP PUSH2 0x140 PUSH0 DUP4 ADD DUP5 PUSH2 0x11E JUMP JUMPDEST SWAP3 SWAP2 POP POP JUMP INVALID LOG2 PUSH5 0x6970667358 0x22 SLT KECCAK256 0xD3 EXTCODECOPY 0x2F SWAP1 JUMP GASPRICE SDIV 0xE4 DUP15 PUSH0 DUP14 0x4C GT PUSH8 0xE651FFC72D504A24 0xE0 0x49 0xAE MUL 0xC1 PUSH13 0x7D6E355064736F6C6343000816 STOP CALLER "
				},
				"gasEstimates": {
					"creation": {
						"codeDepositCost": "182200",
						"executionCost": "infinite",
						"totalCost": "infinite"
					},
					"external": {
						"owner()": "2486",
						"showOwner()": "infinite",
						"showSender()": "infinite",
						"token()": "infinite"
					}
				},
				"methodIdentifiers": {
					"owner()": "8da5cb5b",
					"showOwner()": "ded94688",
					"showSender()": "a4d64ff4",
					"token()": "fc0c546a"
				}
			},
			"storageLayout": {
				"storage": [
					{
						"astId": 37,
						"contract": "solidity_course_materials/TokenExchange/show_sender.sol:B",
						"label": "token",
						"offset": 0,
						"slot": "0",
						"type": "t_contract(A)34"
					},
					{
						"astId": 39,
						"contract": "solidity_course_materials/TokenExchange/show_sender.sol:B",
						"label": "owner",
						"offset": 0,
						"slot": "1",
						"type": "t_address"
					}
				],
				"types": {
					"t_address": {
						"encoding": "inplace",
						"label": "address",
						"numberOfBytes": "20"
					},
					"t_contract(A)34": {
						"encoding": "inplace",
						"label": "contract A",
						"numberOfBytes": "20"
					}
				}
			},
			"userdoc": {
				"kind": "user",
				"methods": {},
				"version": 1
			}
		}
	}
}