{
	"solidity_course_materials/TokenExchange/TokenA.sol": {
		"TokenA": {
			"abi": [
				{
					"inputs": [
						{
							"internalType": "address",
							"name": "tokenEx",
							"type": "address"
						}
					],
					"stateMutability": "nonpayable",
					"type": "constructor"
				},
				{
					"anonymous": false,
					"inputs": [
						{
							"indexed": true,
							"internalType": "address",
							"name": "owner",
							"type": "address"
						},
						{
							"indexed": true,
							"internalType": "address",
							"name": "spender",
							"type": "address"
						},
						{
							"indexed": false,
							"internalType": "uint256",
							"name": "value",
							"type": "uint256"
						}
					],
					"name": "Approval",
					"type": "event"
				},
				{
					"anonymous": false,
					"inputs": [
						{
							"indexed": true,
							"internalType": "address",
							"name": "from",
							"type": "address"
						},
						{
							"indexed": true,
							"internalType": "address",
							"name": "to",
							"type": "address"
						},
						{
							"indexed": false,
							"internalType": "uint256",
							"name": "value",
							"type": "uint256"
						}
					],
					"name": "Transfer",
					"type": "event"
				},
				{
					"inputs": [
						{
							"internalType": "address",
							"name": "owner",
							"type": "address"
						},
						{
							"internalType": "address",
							"name": "spender",
							"type": "address"
						}
					],
					"name": "allowance",
					"outputs": [
						{
							"internalType": "uint256",
							"name": "",
							"type": "uint256"
						}
					],
					"stateMutability": "view",
					"type": "function"
				},
				{
					"inputs": [
						{
							"internalType": "address",
							"name": "spender",
							"type": "address"
						},
						{
							"internalType": "uint256",
							"name": "value",
							"type": "uint256"
						}
					],
					"name": "approve",
					"outputs": [
						{
							"internalType": "bool",
							"name": "",
							"type": "bool"
						}
					],
					"stateMutability": "nonpayable",
					"type": "function"
				},
				{
					"inputs": [
						{
							"internalType": "address",
							"name": "account",
							"type": "address"
						}
					],
					"name": "balanceOf",
					"outputs": [
						{
							"internalType": "uint256",
							"name": "",
							"type": "uint256"
						}
					],
					"stateMutability": "view",
					"type": "function"
				},
				{
					"inputs": [],
					"name": "decimals",
					"outputs": [
						{
							"internalType": "uint8",
							"name": "",
							"type": "uint8"
						}
					],
					"stateMutability": "view",
					"type": "function"
				},
				{
					"inputs": [
						{
							"internalType": "uint256",
							"name": "value",
							"type": "uint256"
						}
					],
					"name": "mint",
					"outputs": [],
					"stateMutability": "nonpayable",
					"type": "function"
				},
				{
					"inputs": [],
					"name": "name",
					"outputs": [
						{
							"internalType": "string",
							"name": "",
							"type": "string"
						}
					],
					"stateMutability": "view",
					"type": "function"
				},
				{
					"inputs": [],
					"name": "owner",
					"outputs": [
						{
							"internalType": "address",
							"name": "",
							"type": "address"
						}
					],
					"stateMutability": "view",
					"type": "function"
				},
				{
					"inputs": [],
					"name": "symbol",
					"outputs": [
						{
							"internalType": "string",
							"name": "",
							"type": "string"
						}
					],
					"stateMutability": "view",
					"type": "function"
				},
				{
					"inputs": [],
					"name": "totalSupply",
					"outputs": [
						{
							"internalType": "uint256",
							"name": "",
							"type": "uint256"
						}
					],
					"stateMutability": "view",
					"type": "function"
				},
				{
					"inputs": [
						{
							"internalType": "address",
							"name": "to",
							"type": "address"
						},
						{
							"internalType": "uint256",
							"name": "value",
							"type": "uint256"
						}
					],
					"name": "transfer",
					"outputs": [
						{
							"internalType": "bool",
							"name": "",
							"type": "bool"
						}
					],
					"stateMutability": "nonpayable",
					"type": "function"
				},
				{
					"inputs": [
						{
							"internalType": "address",
							"name": "from",
							"type": "address"
						},
						{
							"internalType": "address",
							"name": "to",
							"type": "address"
						},
						{
							"internalType": "uint256",
							"name": "value",
							"type": "uint256"
						}
					],
					"name": "transferFrom",
					"outputs": [
						{
							"internalType": "bool",
							"name": "",
							"type": "bool"
						}
					],
					"stateMutability": "nonpayable",
					"type": "function"
				}
			],
			"devdoc": {
				"events": {
					"Approval(address,address,uint256)": {
						"details": "Emitted when the allowance of a `spender` for an `owner` is set by a call to {approve}. `value` is the new allowance."
					},
					"Transfer(address,address,uint256)": {
						"details": "Emitted when `value` tokens are moved from one account (`from`) to another (`to`). Note that `value` may be zero."
					}
				},
				"kind": "dev",
				"methods": {
					"allowance(address,address)": {
						"details": "See {IERC20-allowance}."
					},
					"approve(address,uint256)": {
						"details": "See {IERC20-approve}. NOTE: If `value` is the maximum `uint256`, the allowance is not updated on `transferFrom`. This is semantically equivalent to an infinite approval. Requirements: - `spender` cannot be the zero address."
					},
					"balanceOf(address)": {
						"details": "See {IERC20-balanceOf}."
					},
					"decimals()": {
						"details": "Returns the number of decimals used to get its user representation. For example, if `decimals` equals `2`, a balance of `505` tokens should be displayed to a user as `5.05` (`505 / 10 ** 2`). Tokens usually opt for a value of 18, imitating the relationship between Ether and Wei. This is the default value returned by this function, unless it's overridden. NOTE: This information is only used for _display_ purposes: it in no way affects any of the arithmetic of the contract, including {IERC20-balanceOf} and {IERC20-transfer}."
					},
					"name()": {
						"details": "Returns the name of the token."
					},
					"symbol()": {
						"details": "Returns the symbol of the token, usually a shorter version of the name."
					},
					"totalSupply()": {
						"details": "See {IERC20-totalSupply}."
					},
					"transfer(address,uint256)": {
						"details": "See {IERC20-transfer}. Requirements: - `to` cannot be the zero address. - the caller must have a balance of at least `value`."
					},
					"transferFrom(address,address,uint256)": {
						"details": "See {IERC20-transferFrom}. Emits an {Approval} event indicating the updated allowance. This is not required by the EIP. See the note at the beginning of {ERC20}. NOTE: Does not update the allowance if the current allowance is the maximum `uint256`. Requirements: - `from` and `to` cannot be the zero address. - `from` must have a balance of at least `value`. - the caller must have allowance for ``from``'s tokens of at least `value`."
					}
				},
				"version": 1
			},
			"evm": {
				"assembly": "    /* \"solidity_course_materials/TokenExchange/TokenA.sol\":200:1111  contract TokenA is ERC20 {... */\n  mstore(0x40, 0x80)\n    /* \"solidity_course_materials/TokenExchange/TokenA.sol\":331:597  constructor(address tokenEx)... */\n  callvalue\n  dup1\n  iszero\n  tag_1\n  jumpi\n  0x00\n  dup1\n  revert\ntag_1:\n  pop\n  mload(0x40)\n  sub(codesize, bytecodeSize)\n  dup1\n  bytecodeSize\n  dup4\n  codecopy\n  dup2\n  dup2\n  add\n  0x40\n  mstore\n  dup2\n  add\n  swap1\n  tag_2\n  swap2\n  swap1\n  tag_3\n  jump\t// in\ntag_2:\n    /* \"solidity_course_materials/TokenExchange/ERC20.sol\":1836:1952  constructor(string memory name_, string memory symbol_) {... */\n  mload(0x40)\n  dup1\n  0x40\n  add\n  0x40\n  mstore\n  dup1\n  0x06\n  dup2\n  mstore\n  0x20\n  add\n  0x546f6b656e410000000000000000000000000000000000000000000000000000\n  dup2\n  mstore\n  pop\n  mload(0x40)\n  dup1\n  0x40\n  add\n  0x40\n  mstore\n  dup1\n  0x02\n  dup2\n  mstore\n  0x20\n  add\n  0x5441000000000000000000000000000000000000000000000000000000000000\n  dup2\n  mstore\n  pop\n    /* \"solidity_course_materials/TokenExchange/ERC20.sol\":1911:1916  name_ */\n  dup2\n    /* \"solidity_course_materials/TokenExchange/ERC20.sol\":1903:1908  _name */\n  0x03\n    /* \"solidity_course_materials/TokenExchange/ERC20.sol\":1903:1916  _name = name_ */\n  swap1\n  dup2\n  tag_7\n  swap2\n  swap1\n  tag_8\n  jump\t// in\ntag_7:\n  pop\n    /* \"solidity_course_materials/TokenExchange/ERC20.sol\":1937:1944  symbol_ */\n  dup1\n    /* \"solidity_course_materials/TokenExchange/ERC20.sol\":1927:1934  _symbol */\n  0x04\n    /* \"solidity_course_materials/TokenExchange/ERC20.sol\":1927:1944  _symbol = symbol_ */\n  swap1\n  dup2\n  tag_9\n  swap2\n  swap1\n  tag_8\n  jump\t// in\ntag_9:\n  pop\n    /* \"solidity_course_materials/TokenExchange/ERC20.sol\":1836:1952  constructor(string memory name_, string memory symbol_) {... */\n  pop\n  pop\n    /* \"solidity_course_materials/TokenExchange/TokenA.sol\":418:428  msg.sender */\n  caller\n    /* \"solidity_course_materials/TokenExchange/TokenA.sol\":409:415  _owner */\n  0x05\n  0x00\n    /* \"solidity_course_materials/TokenExchange/TokenA.sol\":409:428  _owner = msg.sender */\n  0x0100\n  exp\n  dup2\n  sload\n  dup2\n  0xffffffffffffffffffffffffffffffffffffffff\n  mul\n  not\n  and\n  swap1\n  dup4\n  0xffffffffffffffffffffffffffffffffffffffff\n  and\n  mul\n  or\n  swap1\n  sstore\n  pop\n    /* \"solidity_course_materials/TokenExchange/TokenA.sol\":483:492  mint(100) */\n  tag_11\n    /* \"solidity_course_materials/TokenExchange/TokenA.sol\":488:491  100 */\n  0x64\n    /* \"solidity_course_materials/TokenExchange/TokenA.sol\":483:487  mint */\n  shl(0x20, tag_12)\n    /* \"solidity_course_materials/TokenExchange/TokenA.sol\":483:492  mint(100) */\n  0x20\n  shr\n  jump\t// in\ntag_11:\n    /* \"solidity_course_materials/TokenExchange/TokenA.sol\":562:587  initExchange(tokenEx, 10) */\n  tag_13\n    /* \"solidity_course_materials/TokenExchange/TokenA.sol\":575:582  tokenEx */\n  dup2\n    /* \"solidity_course_materials/TokenExchange/TokenA.sol\":584:586  10 */\n  0x0a\n    /* \"solidity_course_materials/TokenExchange/TokenA.sol\":562:574  initExchange */\n  shl(0x20, tag_14)\n    /* \"solidity_course_materials/TokenExchange/TokenA.sol\":562:587  initExchange(tokenEx, 10) */\n  0x20\n  shr\n  jump\t// in\ntag_13:\n    /* \"solidity_course_materials/TokenExchange/TokenA.sol\":331:597  constructor(address tokenEx)... */\n  pop\n    /* \"solidity_course_materials/TokenExchange/TokenA.sol\":200:1111  contract TokenA is ERC20 {... */\n  jump(tag_15)\n    /* \"solidity_course_materials/TokenExchange/TokenA.sol\":805:912  function mint(uint256 value) public onlyOwner{... */\ntag_12:\n    /* \"solidity_course_materials/TokenExchange/TokenA.sol\":743:753  msg.sender */\n  caller\n    /* \"solidity_course_materials/TokenExchange/TokenA.sol\":733:753  _owner == msg.sender */\n  0xffffffffffffffffffffffffffffffffffffffff\n  and\n    /* \"solidity_course_materials/TokenExchange/TokenA.sol\":733:739  _owner */\n  0x05\n  0x00\n  swap1\n  sload\n  swap1\n  0x0100\n  exp\n  swap1\n  div\n  0xffffffffffffffffffffffffffffffffffffffff\n  and\n    /* \"solidity_course_materials/TokenExchange/TokenA.sol\":733:753  _owner == msg.sender */\n  0xffffffffffffffffffffffffffffffffffffffff\n  and\n  eq\n    /* \"solidity_course_materials/TokenExchange/TokenA.sol\":725:777  require(_owner == msg.sender, \"UnauthorizedAccount\") */\n  tag_17\n  jumpi\n  mload(0x40)\n  0x08c379a000000000000000000000000000000000000000000000000000000000\n  dup2\n  mstore\n  0x04\n  add\n  tag_18\n  swap1\n  tag_19\n  jump\t// in\ntag_18:\n  mload(0x40)\n  dup1\n  swap2\n  sub\n  swap1\n  revert\ntag_17:\n    /* \"solidity_course_materials/TokenExchange/TokenA.sol\":861:904  _mint(msg.sender, value * 10 ** decimals()) */\n  tag_21\n    /* \"solidity_course_materials/TokenExchange/TokenA.sol\":867:877  msg.sender */\n  caller\n    /* \"solidity_course_materials/TokenExchange/TokenA.sol\":893:903  decimals() */\n  tag_22\n    /* \"solidity_course_materials/TokenExchange/TokenA.sol\":893:901  decimals */\n  shl(0x20, tag_23)\n    /* \"solidity_course_materials/TokenExchange/TokenA.sol\":893:903  decimals() */\n  0x20\n  shr\n  jump\t// in\ntag_22:\n    /* \"solidity_course_materials/TokenExchange/TokenA.sol\":887:889  10 */\n  0x0a\n    /* \"solidity_course_materials/TokenExchange/TokenA.sol\":887:903  10 ** decimals() */\n  tag_24\n  swap2\n  swap1\n  tag_25\n  jump\t// in\ntag_24:\n    /* \"solidity_course_materials/TokenExchange/TokenA.sol\":879:884  value */\n  dup4\n    /* \"solidity_course_materials/TokenExchange/TokenA.sol\":879:903  value * 10 ** decimals() */\n  tag_26\n  swap2\n  swap1\n  tag_27\n  jump\t// in\ntag_26:\n    /* \"solidity_course_materials/TokenExchange/TokenA.sol\":861:866  _mint */\n  shl(0x20, tag_28)\n    /* \"solidity_course_materials/TokenExchange/TokenA.sol\":861:904  _mint(msg.sender, value * 10 ** decimals()) */\n  0x20\n  shr\n  jump\t// in\ntag_21:\n    /* \"solidity_course_materials/TokenExchange/TokenA.sol\":805:912  function mint(uint256 value) public onlyOwner{... */\n  pop\n  jump\t// out\n    /* \"solidity_course_materials/TokenExchange/TokenA.sol\":920:1106  function initExchange(address tokenEx, uint256 initvol) internal onlyOwner{... */\ntag_14:\n    /* \"solidity_course_materials/TokenExchange/TokenA.sol\":743:753  msg.sender */\n  caller\n    /* \"solidity_course_materials/TokenExchange/TokenA.sol\":733:753  _owner == msg.sender */\n  0xffffffffffffffffffffffffffffffffffffffff\n  and\n    /* \"solidity_course_materials/TokenExchange/TokenA.sol\":733:739  _owner */\n  0x05\n  0x00\n  swap1\n  sload\n  swap1\n  0x0100\n  exp\n  swap1\n  div\n  0xffffffffffffffffffffffffffffffffffffffff\n  and\n    /* \"solidity_course_materials/TokenExchange/TokenA.sol\":733:753  _owner == msg.sender */\n  0xffffffffffffffffffffffffffffffffffffffff\n  and\n  eq\n    /* \"solidity_course_materials/TokenExchange/TokenA.sol\":725:777  require(_owner == msg.sender, \"UnauthorizedAccount\") */\n  tag_30\n  jumpi\n  mload(0x40)\n  0x08c379a000000000000000000000000000000000000000000000000000000000\n  dup2\n  mstore\n  0x04\n  add\n  tag_31\n  swap1\n  tag_19\n  jump\t// in\ntag_31:\n  mload(0x40)\n  dup1\n  swap2\n  sub\n  swap1\n  revert\ntag_30:\n    /* \"solidity_course_materials/TokenExchange/TokenA.sol\":1032:1033  0 */\n  0x00\n    /* \"solidity_course_materials/TokenExchange/TokenA.sol\":1013:1034  tokenEx != address(0) */\n  0xffffffffffffffffffffffffffffffffffffffff\n  and\n    /* \"solidity_course_materials/TokenExchange/TokenA.sol\":1013:1020  tokenEx */\n  dup3\n    /* \"solidity_course_materials/TokenExchange/TokenA.sol\":1013:1034  tokenEx != address(0) */\n  0xffffffffffffffffffffffffffffffffffffffff\n  and\n  sub\n    /* \"solidity_course_materials/TokenExchange/TokenA.sol\":1005:1061  require(tokenEx != address(0), \"InvalidExchangeAddress\") */\n  tag_33\n  jumpi\n  mload(0x40)\n  0x08c379a000000000000000000000000000000000000000000000000000000000\n  dup2\n  mstore\n  0x04\n  add\n  tag_34\n  swap1\n  tag_35\n  jump\t// in\ntag_34:\n  mload(0x40)\n  dup1\n  swap2\n  sub\n  swap1\n  revert\ntag_33:\n    /* \"solidity_course_materials/TokenExchange/TokenA.sol\":1072:1098  transfer(tokenEx, initvol) */\n  tag_36\n    /* \"solidity_course_materials/TokenExchange/TokenA.sol\":1081:1088  tokenEx */\n  dup3\n    /* \"solidity_course_materials/TokenExchange/TokenA.sol\":1090:1097  initvol */\n  dup3\n    /* \"solidity_course_materials/TokenExchange/TokenA.sol\":1072:1080  transfer */\n  shl(0x20, tag_37)\n    /* \"solidity_course_materials/TokenExchange/TokenA.sol\":1072:1098  transfer(tokenEx, initvol) */\n  0x20\n  shr\n  jump\t// in\ntag_36:\n  pop\n    /* \"solidity_course_materials/TokenExchange/TokenA.sol\":920:1106  function initExchange(address tokenEx, uint256 initvol) internal onlyOwner{... */\n  pop\n  pop\n  jump\t// out\n    /* \"solidity_course_materials/TokenExchange/ERC20.sol\":2975:3059  function decimals() public view virtual returns (uint8) {... */\ntag_23:\n    /* \"solidity_course_materials/TokenExchange/ERC20.sol\":3024:3029  uint8 */\n  0x00\n    /* \"solidity_course_materials/TokenExchange/ERC20.sol\":3049:3051  18 */\n  0x12\n    /* \"solidity_course_materials/TokenExchange/ERC20.sol\":3042:3051  return 18 */\n  swap1\n  pop\n    /* \"solidity_course_materials/TokenExchange/ERC20.sol\":2975:3059  function decimals() public view virtual returns (uint8) {... */\n  swap1\n  jump\t// out\n    /* \"solidity_course_materials/TokenExchange/ERC20.sol\":7773:7972  function _mint(address account, uint256 value) internal {... */\ntag_28:\n    /* \"solidity_course_materials/TokenExchange/ERC20.sol\":7863:7864  0 */\n  0x00\n    /* \"solidity_course_materials/TokenExchange/ERC20.sol\":7844:7865  account == address(0) */\n  0xffffffffffffffffffffffffffffffffffffffff\n  and\n    /* \"solidity_course_materials/TokenExchange/ERC20.sol\":7844:7851  account */\n  dup3\n    /* \"solidity_course_materials/TokenExchange/ERC20.sol\":7844:7865  account == address(0) */\n  0xffffffffffffffffffffffffffffffffffffffff\n  and\n  sub\n    /* \"solidity_course_materials/TokenExchange/ERC20.sol\":7840:7919  if (account == address(0)) {... */\n  tag_40\n  jumpi\n    /* \"solidity_course_materials/TokenExchange/ERC20.sol\":7882:7907  revert(\"InvalidReceiver\") */\n  mload(0x40)\n  0x08c379a000000000000000000000000000000000000000000000000000000000\n  dup2\n  mstore\n  0x04\n  add\n  tag_41\n  swap1\n  tag_42\n  jump\t// in\ntag_41:\n  mload(0x40)\n  dup1\n  swap2\n  sub\n  swap1\n  revert\n    /* \"solidity_course_materials/TokenExchange/ERC20.sol\":7840:7919  if (account == address(0)) {... */\ntag_40:\n    /* \"solidity_course_materials/TokenExchange/ERC20.sol\":7929:7964  _update(address(0), account, value) */\n  tag_43\n    /* \"solidity_course_materials/TokenExchange/ERC20.sol\":7945:7946  0 */\n  0x00\n    /* \"solidity_course_materials/TokenExchange/ERC20.sol\":7949:7956  account */\n  dup4\n    /* \"solidity_course_materials/TokenExchange/ERC20.sol\":7958:7963  value */\n  dup4\n    /* \"solidity_course_materials/TokenExchange/ERC20.sol\":7929:7936  _update */\n  shl(0x20, tag_44)\n    /* \"solidity_course_materials/TokenExchange/ERC20.sol\":7929:7964  _update(address(0), account, value) */\n  0x20\n  shr\n  jump\t// in\ntag_43:\n    /* \"solidity_course_materials/TokenExchange/ERC20.sol\":7773:7972  function _mint(address account, uint256 value) internal {... */\n  pop\n  pop\n  jump\t// out\n    /* \"solidity_course_materials/TokenExchange/ERC20.sol\":3609:3789  function transfer(address to, uint256 value) public virtual returns (bool) {... */\ntag_37:\n    /* \"solidity_course_materials/TokenExchange/ERC20.sol\":3678:3682  bool */\n  0x00\n    /* \"solidity_course_materials/TokenExchange/ERC20.sol\":3695:3708  address owner */\n  dup1\n    /* \"solidity_course_materials/TokenExchange/ERC20.sol\":3711:3721  msg.sender */\n  caller\n    /* \"solidity_course_materials/TokenExchange/ERC20.sol\":3695:3721  address owner = msg.sender */\n  swap1\n  pop\n    /* \"solidity_course_materials/TokenExchange/ERC20.sol\":3732:3759  _transfer(owner, to, value) */\n  tag_46\n    /* \"solidity_course_materials/TokenExchange/ERC20.sol\":3742:3747  owner */\n  dup2\n    /* \"solidity_course_materials/TokenExchange/ERC20.sol\":3749:3751  to */\n  dup6\n    /* \"solidity_course_materials/TokenExchange/ERC20.sol\":3753:3758  value */\n  dup6\n    /* \"solidity_course_materials/TokenExchange/ERC20.sol\":3732:3741  _transfer */\n  shl(0x20, tag_47)\n    /* \"solidity_course_materials/TokenExchange/ERC20.sol\":3732:3759  _transfer(owner, to, value) */\n  0x20\n  shr\n  jump\t// in\ntag_46:\n    /* \"solidity_course_materials/TokenExchange/ERC20.sol\":3777:3781  true */\n  0x01\n    /* \"solidity_course_materials/TokenExchange/ERC20.sol\":3770:3781  return true */\n  swap2\n  pop\n  pop\n    /* \"solidity_course_materials/TokenExchange/ERC20.sol\":3609:3789  function transfer(address to, uint256 value) public virtual returns (bool) {... */\n  swap3\n  swap2\n  pop\n  pop\n  jump\t// out\n    /* \"solidity_course_materials/TokenExchange/ERC20.sol\":6313:7420  function _update(address from, address to, uint256 value) internal virtual {... */\ntag_44:\n    /* \"solidity_course_materials/TokenExchange/ERC20.sol\":6419:6420  0 */\n  0x00\n    /* \"solidity_course_materials/TokenExchange/ERC20.sol\":6403:6421  from == address(0) */\n  0xffffffffffffffffffffffffffffffffffffffff\n  and\n    /* \"solidity_course_materials/TokenExchange/ERC20.sol\":6403:6407  from */\n  dup4\n    /* \"solidity_course_materials/TokenExchange/ERC20.sol\":6403:6421  from == address(0) */\n  0xffffffffffffffffffffffffffffffffffffffff\n  and\n  sub\n    /* \"solidity_course_materials/TokenExchange/ERC20.sol\":6399:6923  if (from == address(0)) {... */\n  tag_49\n  jumpi\n    /* \"solidity_course_materials/TokenExchange/ERC20.sol\":6557:6562  value */\n  dup1\n    /* \"solidity_course_materials/TokenExchange/ERC20.sol\":6541:6553  _totalSupply */\n  0x02\n  0x00\n    /* \"solidity_course_materials/TokenExchange/ERC20.sol\":6541:6562  _totalSupply += value */\n  dup3\n  dup3\n  sload\n  tag_50\n  swap2\n  swap1\n  tag_51\n  jump\t// in\ntag_50:\n  swap3\n  pop\n  pop\n  dup2\n  swap1\n  sstore\n  pop\n    /* \"solidity_course_materials/TokenExchange/ERC20.sol\":6399:6923  if (from == address(0)) {... */\n  jump(tag_52)\ntag_49:\n    /* \"solidity_course_materials/TokenExchange/ERC20.sol\":6595:6614  uint256 fromBalance */\n  0x00\n    /* \"solidity_course_materials/TokenExchange/ERC20.sol\":6617:6626  _balances */\n  dup1\n    /* \"solidity_course_materials/TokenExchange/ERC20.sol\":6617:6632  _balances[from] */\n  0x00\n    /* \"solidity_course_materials/TokenExchange/ERC20.sol\":6627:6631  from */\n  dup6\n    /* \"solidity_course_materials/TokenExchange/ERC20.sol\":6617:6632  _balances[from] */\n  0xffffffffffffffffffffffffffffffffffffffff\n  and\n  0xffffffffffffffffffffffffffffffffffffffff\n  and\n  dup2\n  mstore\n  0x20\n  add\n  swap1\n  dup2\n  mstore\n  0x20\n  add\n  0x00\n  keccak256\n  sload\n    /* \"solidity_course_materials/TokenExchange/ERC20.sol\":6595:6632  uint256 fromBalance = _balances[from] */\n  swap1\n  pop\n    /* \"solidity_course_materials/TokenExchange/ERC20.sol\":6665:6670  value */\n  dup2\n    /* \"solidity_course_materials/TokenExchange/ERC20.sol\":6651:6662  fromBalance */\n  dup2\n    /* \"solidity_course_materials/TokenExchange/ERC20.sol\":6651:6670  fromBalance < value */\n  lt\n    /* \"solidity_course_materials/TokenExchange/ERC20.sol\":6647:6736  if (fromBalance < value) {... */\n  iszero\n  tag_53\n  jumpi\n    /* \"solidity_course_materials/TokenExchange/ERC20.sol\":6691:6720  revert(\"insuficient balance\") */\n  mload(0x40)\n  0x08c379a000000000000000000000000000000000000000000000000000000000\n  dup2\n  mstore\n  0x04\n  add\n  tag_54\n  swap1\n  tag_55\n  jump\t// in\ntag_54:\n  mload(0x40)\n  dup1\n  swap2\n  sub\n  swap1\n  revert\n    /* \"solidity_course_materials/TokenExchange/ERC20.sol\":6647:6736  if (fromBalance < value) {... */\ntag_53:\n    /* \"solidity_course_materials/TokenExchange/ERC20.sol\":6891:6896  value */\n  dup2\n    /* \"solidity_course_materials/TokenExchange/ERC20.sol\":6877:6888  fromBalance */\n  dup2\n    /* \"solidity_course_materials/TokenExchange/ERC20.sol\":6877:6896  fromBalance - value */\n  sub\n    /* \"solidity_course_materials/TokenExchange/ERC20.sol\":6859:6868  _balances */\n  0x00\n    /* \"solidity_course_materials/TokenExchange/ERC20.sol\":6859:6874  _balances[from] */\n  dup1\n    /* \"solidity_course_materials/TokenExchange/ERC20.sol\":6869:6873  from */\n  dup7\n    /* \"solidity_course_materials/TokenExchange/ERC20.sol\":6859:6874  _balances[from] */\n  0xffffffffffffffffffffffffffffffffffffffff\n  and\n  0xffffffffffffffffffffffffffffffffffffffff\n  and\n  dup2\n  mstore\n  0x20\n  add\n  swap1\n  dup2\n  mstore\n  0x20\n  add\n  0x00\n  keccak256\n    /* \"solidity_course_materials/TokenExchange/ERC20.sol\":6859:6896  _balances[from] = fromBalance - value */\n  dup2\n  swap1\n  sstore\n  pop\n    /* \"solidity_course_materials/TokenExchange/ERC20.sol\":6580:6923  {... */\n  pop\n    /* \"solidity_course_materials/TokenExchange/ERC20.sol\":6399:6923  if (from == address(0)) {... */\ntag_52:\n    /* \"solidity_course_materials/TokenExchange/ERC20.sol\":6953:6954  0 */\n  0x00\n    /* \"solidity_course_materials/TokenExchange/ERC20.sol\":6939:6955  to == address(0) */\n  0xffffffffffffffffffffffffffffffffffffffff\n  and\n    /* \"solidity_course_materials/TokenExchange/ERC20.sol\":6939:6941  to */\n  dup3\n    /* \"solidity_course_materials/TokenExchange/ERC20.sol\":6939:6955  to == address(0) */\n  0xffffffffffffffffffffffffffffffffffffffff\n  and\n  sub\n    /* \"solidity_course_materials/TokenExchange/ERC20.sol\":6935:7370  if (to == address(0)) {... */\n  tag_56\n  jumpi\n    /* \"solidity_course_materials/TokenExchange/ERC20.sol\":7121:7126  value */\n  dup1\n    /* \"solidity_course_materials/TokenExchange/ERC20.sol\":7105:7117  _totalSupply */\n  0x02\n  0x00\n    /* \"solidity_course_materials/TokenExchange/ERC20.sol\":7105:7126  _totalSupply -= value */\n  dup3\n  dup3\n  sload\n  sub\n  swap3\n  pop\n  pop\n  dup2\n  swap1\n  sstore\n  pop\n    /* \"solidity_course_materials/TokenExchange/ERC20.sol\":6935:7370  if (to == address(0)) {... */\n  jump(tag_57)\ntag_56:\n    /* \"solidity_course_materials/TokenExchange/ERC20.sol\":7338:7343  value */\n  dup1\n    /* \"solidity_course_materials/TokenExchange/ERC20.sol\":7321:7330  _balances */\n  0x00\n    /* \"solidity_course_materials/TokenExchange/ERC20.sol\":7321:7334  _balances[to] */\n  dup1\n    /* \"solidity_course_materials/TokenExchange/ERC20.sol\":7331:7333  to */\n  dup5\n    /* \"solidity_course_materials/TokenExchange/ERC20.sol\":7321:7334  _balances[to] */\n  0xffffffffffffffffffffffffffffffffffffffff\n  and\n  0xffffffffffffffffffffffffffffffffffffffff\n  and\n  dup2\n  mstore\n  0x20\n  add\n  swap1\n  dup2\n  mstore\n  0x20\n  add\n  0x00\n  keccak256\n  0x00\n    /* \"solidity_course_materials/TokenExchange/ERC20.sol\":7321:7343  _balances[to] += value */\n  dup3\n  dup3\n  sload\n  add\n  swap3\n  pop\n  pop\n  dup2\n  swap1\n  sstore\n  pop\n    /* \"solidity_course_materials/TokenExchange/ERC20.sol\":6935:7370  if (to == address(0)) {... */\ntag_57:\n    /* \"solidity_course_materials/TokenExchange/ERC20.sol\":7402:7404  to */\n  dup2\n    /* \"solidity_course_materials/TokenExchange/ERC20.sol\":7387:7412  Transfer(from, to, value) */\n  0xffffffffffffffffffffffffffffffffffffffff\n  and\n    /* \"solidity_course_materials/TokenExchange/ERC20.sol\":7396:7400  from */\n  dup4\n    /* \"solidity_course_materials/TokenExchange/ERC20.sol\":7387:7412  Transfer(from, to, value) */\n  0xffffffffffffffffffffffffffffffffffffffff\n  and\n  0xddf252ad1be2c89b69c2b068fc378daa952ba7f163c4a11628f55a4df523b3ef\n    /* \"solidity_course_materials/TokenExchange/ERC20.sol\":7406:7411  value */\n  dup4\n    /* \"solidity_course_materials/TokenExchange/ERC20.sol\":7387:7412  Transfer(from, to, value) */\n  mload(0x40)\n  tag_58\n  swap2\n  swap1\n  tag_59\n  jump\t// in\ntag_58:\n  mload(0x40)\n  dup1\n  swap2\n  sub\n  swap1\n  log3\n    /* \"solidity_course_materials/TokenExchange/ERC20.sol\":6313:7420  function _update(address from, address to, uint256 value) internal virtual {... */\n  pop\n  pop\n  pop\n  jump\t// out\n    /* \"solidity_course_materials/TokenExchange/ERC20.sol\":5711:5989  function _transfer(address from, address to, uint256 value) internal {... */\ntag_47:\n    /* \"solidity_course_materials/TokenExchange/ERC20.sol\":5811:5812  0 */\n  0x00\n    /* \"solidity_course_materials/TokenExchange/ERC20.sol\":5795:5813  from == address(0) */\n  0xffffffffffffffffffffffffffffffffffffffff\n  and\n    /* \"solidity_course_materials/TokenExchange/ERC20.sol\":5795:5799  from */\n  dup4\n    /* \"solidity_course_materials/TokenExchange/ERC20.sol\":5795:5813  from == address(0) */\n  0xffffffffffffffffffffffffffffffffffffffff\n  and\n  sub\n    /* \"solidity_course_materials/TokenExchange/ERC20.sol\":5791:5864  if (from == address(0)) {... */\n  tag_61\n  jumpi\n    /* \"solidity_course_materials/TokenExchange/ERC20.sol\":5830:5852  revert(\"wrong sender\") */\n  mload(0x40)\n  0x08c379a000000000000000000000000000000000000000000000000000000000\n  dup2\n  mstore\n  0x04\n  add\n  tag_62\n  swap1\n  tag_63\n  jump\t// in\ntag_62:\n  mload(0x40)\n  dup1\n  swap2\n  sub\n  swap1\n  revert\n    /* \"solidity_course_materials/TokenExchange/ERC20.sol\":5791:5864  if (from == address(0)) {... */\ntag_61:\n    /* \"solidity_course_materials/TokenExchange/ERC20.sol\":5892:5893  0 */\n  0x00\n    /* \"solidity_course_materials/TokenExchange/ERC20.sol\":5878:5894  to == address(0) */\n  0xffffffffffffffffffffffffffffffffffffffff\n  and\n    /* \"solidity_course_materials/TokenExchange/ERC20.sol\":5878:5880  to */\n  dup3\n    /* \"solidity_course_materials/TokenExchange/ERC20.sol\":5878:5894  to == address(0) */\n  0xffffffffffffffffffffffffffffffffffffffff\n  and\n  sub\n    /* \"solidity_course_materials/TokenExchange/ERC20.sol\":5874:5947  if (to == address(0)) {... */\n  tag_64\n  jumpi\n    /* \"solidity_course_materials/TokenExchange/ERC20.sol\":5911:5935  revert(\"wrong receiver\") */\n  mload(0x40)\n  0x08c379a000000000000000000000000000000000000000000000000000000000\n  dup2\n  mstore\n  0x04\n  add\n  tag_65\n  swap1\n  tag_66\n  jump\t// in\ntag_65:\n  mload(0x40)\n  dup1\n  swap2\n  sub\n  swap1\n  revert\n    /* \"solidity_course_materials/TokenExchange/ERC20.sol\":5874:5947  if (to == address(0)) {... */\ntag_64:\n    /* \"solidity_course_materials/TokenExchange/ERC20.sol\":5957:5981  _update(from, to, value) */\n  tag_67\n    /* \"solidity_course_materials/TokenExchange/ERC20.sol\":5965:5969  from */\n  dup4\n    /* \"solidity_course_materials/TokenExchange/ERC20.sol\":5971:5973  to */\n  dup4\n    /* \"solidity_course_materials/TokenExchange/ERC20.sol\":5975:5980  value */\n  dup4\n    /* \"solidity_course_materials/TokenExchange/ERC20.sol\":5957:5964  _update */\n  shl(0x20, tag_44)\n    /* \"solidity_course_materials/TokenExchange/ERC20.sol\":5957:5981  _update(from, to, value) */\n  0x20\n  shr\n  jump\t// in\ntag_67:\n    /* \"solidity_course_materials/TokenExchange/ERC20.sol\":5711:5989  function _transfer(address from, address to, uint256 value) internal {... */\n  pop\n  pop\n  pop\n  jump\t// out\n    /* \"#utility.yul\":88:205   */\ntag_69:\n    /* \"#utility.yul\":197:198   */\n  0x00\n    /* \"#utility.yul\":194:195   */\n  dup1\n    /* \"#utility.yul\":187:199   */\n  revert\n    /* \"#utility.yul\":334:460   */\ntag_71:\n    /* \"#utility.yul\":371:378   */\n  0x00\n    /* \"#utility.yul\":411:453   */\n  0xffffffffffffffffffffffffffffffffffffffff\n    /* \"#utility.yul\":404:409   */\n  dup3\n    /* \"#utility.yul\":400:454   */\n  and\n    /* \"#utility.yul\":389:454   */\n  swap1\n  pop\n    /* \"#utility.yul\":334:460   */\n  swap2\n  swap1\n  pop\n  jump\t// out\n    /* \"#utility.yul\":466:562   */\ntag_72:\n    /* \"#utility.yul\":503:510   */\n  0x00\n    /* \"#utility.yul\":532:556   */\n  tag_120\n    /* \"#utility.yul\":550:555   */\n  dup3\n    /* \"#utility.yul\":532:556   */\n  tag_71\n  jump\t// in\ntag_120:\n    /* \"#utility.yul\":521:556   */\n  swap1\n  pop\n    /* \"#utility.yul\":466:562   */\n  swap2\n  swap1\n  pop\n  jump\t// out\n    /* \"#utility.yul\":568:690   */\ntag_73:\n    /* \"#utility.yul\":641:665   */\n  tag_122\n    /* \"#utility.yul\":659:664   */\n  dup2\n    /* \"#utility.yul\":641:665   */\n  tag_72\n  jump\t// in\ntag_122:\n    /* \"#utility.yul\":634:639   */\n  dup2\n    /* \"#utility.yul\":631:666   */\n  eq\n    /* \"#utility.yul\":621:684   */\n  tag_123\n  jumpi\n    /* \"#utility.yul\":680:681   */\n  0x00\n    /* \"#utility.yul\":677:678   */\n  dup1\n    /* \"#utility.yul\":670:682   */\n  revert\n    /* \"#utility.yul\":621:684   */\ntag_123:\n    /* \"#utility.yul\":568:690   */\n  pop\n  jump\t// out\n    /* \"#utility.yul\":696:839   */\ntag_74:\n    /* \"#utility.yul\":753:758   */\n  0x00\n    /* \"#utility.yul\":784:790   */\n  dup2\n    /* \"#utility.yul\":778:791   */\n  mload\n    /* \"#utility.yul\":769:791   */\n  swap1\n  pop\n    /* \"#utility.yul\":800:833   */\n  tag_125\n    /* \"#utility.yul\":827:832   */\n  dup2\n    /* \"#utility.yul\":800:833   */\n  tag_73\n  jump\t// in\ntag_125:\n    /* \"#utility.yul\":696:839   */\n  swap3\n  swap2\n  pop\n  pop\n  jump\t// out\n    /* \"#utility.yul\":845:1196   */\ntag_3:\n    /* \"#utility.yul\":915:921   */\n  0x00\n    /* \"#utility.yul\":964:966   */\n  0x20\n    /* \"#utility.yul\":952:961   */\n  dup3\n    /* \"#utility.yul\":943:950   */\n  dup5\n    /* \"#utility.yul\":939:962   */\n  sub\n    /* \"#utility.yul\":935:967   */\n  slt\n    /* \"#utility.yul\":932:1051   */\n  iszero\n  tag_127\n  jumpi\n    /* \"#utility.yul\":970:1049   */\n  tag_128\n  tag_69\n  jump\t// in\ntag_128:\n    /* \"#utility.yul\":932:1051   */\ntag_127:\n    /* \"#utility.yul\":1090:1091   */\n  0x00\n    /* \"#utility.yul\":1115:1179   */\n  tag_129\n    /* \"#utility.yul\":1171:1178   */\n  dup5\n    /* \"#utility.yul\":1162:1168   */\n  dup3\n    /* \"#utility.yul\":1151:1160   */\n  dup6\n    /* \"#utility.yul\":1147:1169   */\n  add\n    /* \"#utility.yul\":1115:1179   */\n  tag_74\n  jump\t// in\ntag_129:\n    /* \"#utility.yul\":1105:1179   */\n  swap2\n  pop\n    /* \"#utility.yul\":1061:1189   */\n  pop\n    /* \"#utility.yul\":845:1196   */\n  swap3\n  swap2\n  pop\n  pop\n  jump\t// out\n    /* \"#utility.yul\":1202:1301   */\ntag_75:\n    /* \"#utility.yul\":1254:1260   */\n  0x00\n    /* \"#utility.yul\":1288:1293   */\n  dup2\n    /* \"#utility.yul\":1282:1294   */\n  mload\n    /* \"#utility.yul\":1272:1294   */\n  swap1\n  pop\n    /* \"#utility.yul\":1202:1301   */\n  swap2\n  swap1\n  pop\n  jump\t// out\n    /* \"#utility.yul\":1307:1487   */\ntag_76:\n    /* \"#utility.yul\":1355:1432   */\n  0x4e487b7100000000000000000000000000000000000000000000000000000000\n    /* \"#utility.yul\":1352:1353   */\n  0x00\n    /* \"#utility.yul\":1345:1433   */\n  mstore\n    /* \"#utility.yul\":1452:1456   */\n  0x41\n    /* \"#utility.yul\":1449:1450   */\n  0x04\n    /* \"#utility.yul\":1442:1457   */\n  mstore\n    /* \"#utility.yul\":1476:1480   */\n  0x24\n    /* \"#utility.yul\":1473:1474   */\n  0x00\n    /* \"#utility.yul\":1466:1481   */\n  revert\n    /* \"#utility.yul\":1493:1673   */\ntag_77:\n    /* \"#utility.yul\":1541:1618   */\n  0x4e487b7100000000000000000000000000000000000000000000000000000000\n    /* \"#utility.yul\":1538:1539   */\n  0x00\n    /* \"#utility.yul\":1531:1619   */\n  mstore\n    /* \"#utility.yul\":1638:1642   */\n  0x22\n    /* \"#utility.yul\":1635:1636   */\n  0x04\n    /* \"#utility.yul\":1628:1643   */\n  mstore\n    /* \"#utility.yul\":1662:1666   */\n  0x24\n    /* \"#utility.yul\":1659:1660   */\n  0x00\n    /* \"#utility.yul\":1652:1667   */\n  revert\n    /* \"#utility.yul\":1679:1999   */\ntag_78:\n    /* \"#utility.yul\":1723:1729   */\n  0x00\n    /* \"#utility.yul\":1760:1761   */\n  0x02\n    /* \"#utility.yul\":1754:1758   */\n  dup3\n    /* \"#utility.yul\":1750:1762   */\n  div\n    /* \"#utility.yul\":1740:1762   */\n  swap1\n  pop\n    /* \"#utility.yul\":1807:1808   */\n  0x01\n    /* \"#utility.yul\":1801:1805   */\n  dup3\n    /* \"#utility.yul\":1797:1809   */\n  and\n    /* \"#utility.yul\":1828:1846   */\n  dup1\n    /* \"#utility.yul\":1818:1899   */\n  tag_134\n  jumpi\n    /* \"#utility.yul\":1884:1888   */\n  0x7f\n    /* \"#utility.yul\":1876:1882   */\n  dup3\n    /* \"#utility.yul\":1872:1889   */\n  and\n    /* \"#utility.yul\":1862:1889   */\n  swap2\n  pop\n    /* \"#utility.yul\":1818:1899   */\ntag_134:\n    /* \"#utility.yul\":1946:1948   */\n  0x20\n    /* \"#utility.yul\":1938:1944   */\n  dup3\n    /* \"#utility.yul\":1935:1949   */\n  lt\n    /* \"#utility.yul\":1915:1933   */\n  dup2\n    /* \"#utility.yul\":1912:1950   */\n  sub\n    /* \"#utility.yul\":1909:1993   */\n  tag_135\n  jumpi\n    /* \"#utility.yul\":1965:1983   */\n  tag_136\n  tag_77\n  jump\t// in\ntag_136:\n    /* \"#utility.yul\":1909:1993   */\ntag_135:\n    /* \"#utility.yul\":1730:1999   */\n  pop\n    /* \"#utility.yul\":1679:1999   */\n  swap2\n  swap1\n  pop\n  jump\t// out\n    /* \"#utility.yul\":2005:2146   */\ntag_79:\n    /* \"#utility.yul\":2054:2058   */\n  0x00\n    /* \"#utility.yul\":2077:2080   */\n  dup2\n    /* \"#utility.yul\":2069:2080   */\n  swap1\n  pop\n    /* \"#utility.yul\":2100:2103   */\n  dup2\n    /* \"#utility.yul\":2097:2098   */\n  0x00\n    /* \"#utility.yul\":2090:2104   */\n  mstore\n    /* \"#utility.yul\":2134:2138   */\n  0x20\n    /* \"#utility.yul\":2131:2132   */\n  0x00\n    /* \"#utility.yul\":2121:2139   */\n  keccak256\n    /* \"#utility.yul\":2113:2139   */\n  swap1\n  pop\n    /* \"#utility.yul\":2005:2146   */\n  swap2\n  swap1\n  pop\n  jump\t// out\n    /* \"#utility.yul\":2152:2245   */\ntag_80:\n    /* \"#utility.yul\":2189:2195   */\n  0x00\n    /* \"#utility.yul\":2236:2238   */\n  0x20\n    /* \"#utility.yul\":2231:2233   */\n  0x1f\n    /* \"#utility.yul\":2224:2229   */\n  dup4\n    /* \"#utility.yul\":2220:2234   */\n  add\n    /* \"#utility.yul\":2216:2239   */\n  div\n    /* \"#utility.yul\":2206:2239   */\n  swap1\n  pop\n    /* \"#utility.yul\":2152:2245   */\n  swap2\n  swap1\n  pop\n  jump\t// out\n    /* \"#utility.yul\":2251:2358   */\ntag_81:\n    /* \"#utility.yul\":2295:2303   */\n  0x00\n    /* \"#utility.yul\":2345:2350   */\n  dup3\n    /* \"#utility.yul\":2339:2343   */\n  dup3\n    /* \"#utility.yul\":2335:2351   */\n  shl\n    /* \"#utility.yul\":2314:2351   */\n  swap1\n  pop\n    /* \"#utility.yul\":2251:2358   */\n  swap3\n  swap2\n  pop\n  pop\n  jump\t// out\n    /* \"#utility.yul\":2364:2757   */\ntag_82:\n    /* \"#utility.yul\":2433:2439   */\n  0x00\n    /* \"#utility.yul\":2483:2484   */\n  0x08\n    /* \"#utility.yul\":2471:2481   */\n  dup4\n    /* \"#utility.yul\":2467:2485   */\n  mul\n    /* \"#utility.yul\":2506:2603   */\n  tag_141\n    /* \"#utility.yul\":2536:2602   */\n  0xffffffffffffffffffffffffffffffffffffffffffffffffffffffffffffffff\n    /* \"#utility.yul\":2525:2534   */\n  dup3\n    /* \"#utility.yul\":2506:2603   */\n  tag_81\n  jump\t// in\ntag_141:\n    /* \"#utility.yul\":2624:2663   */\n  tag_142\n    /* \"#utility.yul\":2654:2662   */\n  dup7\n    /* \"#utility.yul\":2643:2652   */\n  dup4\n    /* \"#utility.yul\":2624:2663   */\n  tag_81\n  jump\t// in\ntag_142:\n    /* \"#utility.yul\":2612:2663   */\n  swap6\n  pop\n    /* \"#utility.yul\":2696:2700   */\n  dup1\n    /* \"#utility.yul\":2692:2701   */\n  not\n    /* \"#utility.yul\":2685:2690   */\n  dup5\n    /* \"#utility.yul\":2681:2702   */\n  and\n    /* \"#utility.yul\":2672:2702   */\n  swap4\n  pop\n    /* \"#utility.yul\":2745:2749   */\n  dup1\n    /* \"#utility.yul\":2735:2743   */\n  dup7\n    /* \"#utility.yul\":2731:2750   */\n  and\n    /* \"#utility.yul\":2724:2729   */\n  dup5\n    /* \"#utility.yul\":2721:2751   */\n  or\n    /* \"#utility.yul\":2711:2751   */\n  swap3\n  pop\n    /* \"#utility.yul\":2440:2757   */\n  pop\n  pop\n    /* \"#utility.yul\":2364:2757   */\n  swap4\n  swap3\n  pop\n  pop\n  pop\n  jump\t// out\n    /* \"#utility.yul\":2763:2840   */\ntag_83:\n    /* \"#utility.yul\":2800:2807   */\n  0x00\n    /* \"#utility.yul\":2829:2834   */\n  dup2\n    /* \"#utility.yul\":2818:2834   */\n  swap1\n  pop\n    /* \"#utility.yul\":2763:2840   */\n  swap2\n  swap1\n  pop\n  jump\t// out\n    /* \"#utility.yul\":2846:2906   */\ntag_84:\n    /* \"#utility.yul\":2874:2877   */\n  0x00\n    /* \"#utility.yul\":2895:2900   */\n  dup2\n    /* \"#utility.yul\":2888:2900   */\n  swap1\n  pop\n    /* \"#utility.yul\":2846:2906   */\n  swap2\n  swap1\n  pop\n  jump\t// out\n    /* \"#utility.yul\":2912:3054   */\ntag_85:\n    /* \"#utility.yul\":2962:2971   */\n  0x00\n    /* \"#utility.yul\":2995:3048   */\n  tag_146\n    /* \"#utility.yul\":3013:3047   */\n  tag_147\n    /* \"#utility.yul\":3022:3046   */\n  tag_148\n    /* \"#utility.yul\":3040:3045   */\n  dup5\n    /* \"#utility.yul\":3022:3046   */\n  tag_83\n  jump\t// in\ntag_148:\n    /* \"#utility.yul\":3013:3047   */\n  tag_84\n  jump\t// in\ntag_147:\n    /* \"#utility.yul\":2995:3048   */\n  tag_83\n  jump\t// in\ntag_146:\n    /* \"#utility.yul\":2982:3048   */\n  swap1\n  pop\n    /* \"#utility.yul\":2912:3054   */\n  swap2\n  swap1\n  pop\n  jump\t// out\n    /* \"#utility.yul\":3060:3135   */\ntag_86:\n    /* \"#utility.yul\":3103:3106   */\n  0x00\n    /* \"#utility.yul\":3124:3129   */\n  dup2\n    /* \"#utility.yul\":3117:3129   */\n  swap1\n  pop\n    /* \"#utility.yul\":3060:3135   */\n  swap2\n  swap1\n  pop\n  jump\t// out\n    /* \"#utility.yul\":3141:3410   */\ntag_87:\n    /* \"#utility.yul\":3251:3290   */\n  tag_151\n    /* \"#utility.yul\":3282:3289   */\n  dup4\n    /* \"#utility.yul\":3251:3290   */\n  tag_85\n  jump\t// in\ntag_151:\n    /* \"#utility.yul\":3312:3403   */\n  tag_152\n    /* \"#utility.yul\":3361:3402   */\n  tag_153\n    /* \"#utility.yul\":3385:3401   */\n  dup3\n    /* \"#utility.yul\":3361:3402   */\n  tag_86\n  jump\t// in\ntag_153:\n    /* \"#utility.yul\":3353:3359   */\n  dup5\n    /* \"#utility.yul\":3346:3350   */\n  dup5\n    /* \"#utility.yul\":3340:3351   */\n  sload\n    /* \"#utility.yul\":3312:3403   */\n  tag_82\n  jump\t// in\ntag_152:\n    /* \"#utility.yul\":3306:3310   */\n  dup3\n    /* \"#utility.yul\":3299:3404   */\n  sstore\n    /* \"#utility.yul\":3217:3410   */\n  pop\n    /* \"#utility.yul\":3141:3410   */\n  pop\n  pop\n  pop\n  jump\t// out\n    /* \"#utility.yul\":3416:3489   */\ntag_88:\n    /* \"#utility.yul\":3461:3464   */\n  0x00\n    /* \"#utility.yul\":3416:3489   */\n  swap1\n  jump\t// out\n    /* \"#utility.yul\":3495:3684   */\ntag_89:\n    /* \"#utility.yul\":3572:3604   */\n  tag_156\n  tag_88\n  jump\t// in\ntag_156:\n    /* \"#utility.yul\":3613:3678   */\n  tag_157\n    /* \"#utility.yul\":3671:3677   */\n  dup2\n    /* \"#utility.yul\":3663:3669   */\n  dup5\n    /* \"#utility.yul\":3657:3661   */\n  dup5\n    /* \"#utility.yul\":3613:3678   */\n  tag_87\n  jump\t// in\ntag_157:\n    /* \"#utility.yul\":3548:3684   */\n  pop\n    /* \"#utility.yul\":3495:3684   */\n  pop\n  pop\n  jump\t// out\n    /* \"#utility.yul\":3690:3876   */\ntag_90:\n    /* \"#utility.yul\":3750:3870   */\ntag_159:\n    /* \"#utility.yul\":3767:3770   */\n  dup2\n    /* \"#utility.yul\":3760:3765   */\n  dup2\n    /* \"#utility.yul\":3757:3771   */\n  lt\n    /* \"#utility.yul\":3750:3870   */\n  iszero\n  tag_161\n  jumpi\n    /* \"#utility.yul\":3821:3860   */\n  tag_162\n    /* \"#utility.yul\":3858:3859   */\n  0x00\n    /* \"#utility.yul\":3851:3856   */\n  dup3\n    /* \"#utility.yul\":3821:3860   */\n  tag_89\n  jump\t// in\ntag_162:\n    /* \"#utility.yul\":3794:3795   */\n  0x01\n    /* \"#utility.yul\":3787:3792   */\n  dup2\n    /* \"#utility.yul\":3783:3796   */\n  add\n    /* \"#utility.yul\":3774:3796   */\n  swap1\n  pop\n    /* \"#utility.yul\":3750:3870   */\n  jump(tag_159)\ntag_161:\n    /* \"#utility.yul\":3690:3876   */\n  pop\n  pop\n  jump\t// out\n    /* \"#utility.yul\":3882:4425   */\ntag_91:\n    /* \"#utility.yul\":3983:3985   */\n  0x1f\n    /* \"#utility.yul\":3978:3981   */\n  dup3\n    /* \"#utility.yul\":3975:3986   */\n  gt\n    /* \"#utility.yul\":3972:4418   */\n  iszero\n  tag_164\n  jumpi\n    /* \"#utility.yul\":4017:4055   */\n  tag_165\n    /* \"#utility.yul\":4049:4054   */\n  dup2\n    /* \"#utility.yul\":4017:4055   */\n  tag_79\n  jump\t// in\ntag_165:\n    /* \"#utility.yul\":4101:4130   */\n  tag_166\n    /* \"#utility.yul\":4119:4129   */\n  dup5\n    /* \"#utility.yul\":4101:4130   */\n  tag_80\n  jump\t// in\ntag_166:\n    /* \"#utility.yul\":4091:4099   */\n  dup2\n    /* \"#utility.yul\":4087:4131   */\n  add\n    /* \"#utility.yul\":4284:4286   */\n  0x20\n    /* \"#utility.yul\":4272:4282   */\n  dup6\n    /* \"#utility.yul\":4269:4287   */\n  lt\n    /* \"#utility.yul\":4266:4315   */\n  iszero\n  tag_167\n  jumpi\n    /* \"#utility.yul\":4305:4313   */\n  dup2\n    /* \"#utility.yul\":4290:4313   */\n  swap1\n  pop\n    /* \"#utility.yul\":4266:4315   */\ntag_167:\n    /* \"#utility.yul\":4328:4408   */\n  tag_168\n    /* \"#utility.yul\":4384:4406   */\n  tag_169\n    /* \"#utility.yul\":4402:4405   */\n  dup6\n    /* \"#utility.yul\":4384:4406   */\n  tag_80\n  jump\t// in\ntag_169:\n    /* \"#utility.yul\":4374:4382   */\n  dup4\n    /* \"#utility.yul\":4370:4407   */\n  add\n    /* \"#utility.yul\":4357:4368   */\n  dup3\n    /* \"#utility.yul\":4328:4408   */\n  tag_90\n  jump\t// in\ntag_168:\n    /* \"#utility.yul\":3987:4418   */\n  pop\n  pop\n    /* \"#utility.yul\":3972:4418   */\ntag_164:\n    /* \"#utility.yul\":3882:4425   */\n  pop\n  pop\n  pop\n  jump\t// out\n    /* \"#utility.yul\":4431:4548   */\ntag_92:\n    /* \"#utility.yul\":4485:4493   */\n  0x00\n    /* \"#utility.yul\":4535:4540   */\n  dup3\n    /* \"#utility.yul\":4529:4533   */\n  dup3\n    /* \"#utility.yul\":4525:4541   */\n  shr\n    /* \"#utility.yul\":4504:4541   */\n  swap1\n  pop\n    /* \"#utility.yul\":4431:4548   */\n  swap3\n  swap2\n  pop\n  pop\n  jump\t// out\n    /* \"#utility.yul\":4554:4723   */\ntag_93:\n    /* \"#utility.yul\":4598:4604   */\n  0x00\n    /* \"#utility.yul\":4631:4682   */\n  tag_172\n    /* \"#utility.yul\":4679:4680   */\n  0x00\n    /* \"#utility.yul\":4675:4681   */\n  not\n    /* \"#utility.yul\":4667:4672   */\n  dup5\n    /* \"#utility.yul\":4664:4665   */\n  0x08\n    /* \"#utility.yul\":4660:4673   */\n  mul\n    /* \"#utility.yul\":4631:4682   */\n  tag_92\n  jump\t// in\ntag_172:\n    /* \"#utility.yul\":4627:4683   */\n  not\n    /* \"#utility.yul\":4712:4716   */\n  dup1\n    /* \"#utility.yul\":4706:4710   */\n  dup4\n    /* \"#utility.yul\":4702:4717   */\n  and\n    /* \"#utility.yul\":4692:4717   */\n  swap2\n  pop\n    /* \"#utility.yul\":4605:4723   */\n  pop\n    /* \"#utility.yul\":4554:4723   */\n  swap3\n  swap2\n  pop\n  pop\n  jump\t// out\n    /* \"#utility.yul\":4728:5023   */\ntag_94:\n    /* \"#utility.yul\":4804:4808   */\n  0x00\n    /* \"#utility.yul\":4950:4979   */\n  tag_174\n    /* \"#utility.yul\":4975:4978   */\n  dup4\n    /* \"#utility.yul\":4969:4973   */\n  dup4\n    /* \"#utility.yul\":4950:4979   */\n  tag_93\n  jump\t// in\ntag_174:\n    /* \"#utility.yul\":4942:4979   */\n  swap2\n  pop\n    /* \"#utility.yul\":5012:5015   */\n  dup3\n    /* \"#utility.yul\":5009:5010   */\n  0x02\n    /* \"#utility.yul\":5005:5016   */\n  mul\n    /* \"#utility.yul\":4999:5003   */\n  dup3\n    /* \"#utility.yul\":4996:5017   */\n  or\n    /* \"#utility.yul\":4988:5017   */\n  swap1\n  pop\n    /* \"#utility.yul\":4728:5023   */\n  swap3\n  swap2\n  pop\n  pop\n  jump\t// out\n    /* \"#utility.yul\":5028:6423   */\ntag_8:\n    /* \"#utility.yul\":5145:5182   */\n  tag_176\n    /* \"#utility.yul\":5178:5181   */\n  dup3\n    /* \"#utility.yul\":5145:5182   */\n  tag_75\n  jump\t// in\ntag_176:\n    /* \"#utility.yul\":5247:5265   */\n  0xffffffffffffffff\n    /* \"#utility.yul\":5239:5245   */\n  dup2\n    /* \"#utility.yul\":5236:5266   */\n  gt\n    /* \"#utility.yul\":5233:5289   */\n  iszero\n  tag_177\n  jumpi\n    /* \"#utility.yul\":5269:5287   */\n  tag_178\n  tag_76\n  jump\t// in\ntag_178:\n    /* \"#utility.yul\":5233:5289   */\ntag_177:\n    /* \"#utility.yul\":5313:5351   */\n  tag_179\n    /* \"#utility.yul\":5345:5349   */\n  dup3\n    /* \"#utility.yul\":5339:5350   */\n  sload\n    /* \"#utility.yul\":5313:5351   */\n  tag_78\n  jump\t// in\ntag_179:\n    /* \"#utility.yul\":5398:5465   */\n  tag_180\n    /* \"#utility.yul\":5458:5464   */\n  dup3\n    /* \"#utility.yul\":5450:5456   */\n  dup3\n    /* \"#utility.yul\":5444:5448   */\n  dup6\n    /* \"#utility.yul\":5398:5465   */\n  tag_91\n  jump\t// in\ntag_180:\n    /* \"#utility.yul\":5492:5493   */\n  0x00\n    /* \"#utility.yul\":5516:5520   */\n  0x20\n    /* \"#utility.yul\":5503:5520   */\n  swap1\n  pop\n    /* \"#utility.yul\":5548:5550   */\n  0x1f\n    /* \"#utility.yul\":5540:5546   */\n  dup4\n    /* \"#utility.yul\":5537:5551   */\n  gt\n    /* \"#utility.yul\":5565:5566   */\n  0x01\n    /* \"#utility.yul\":5560:6178   */\n  dup2\n  eq\n  tag_182\n  jumpi\n    /* \"#utility.yul\":6222:6223   */\n  0x00\n    /* \"#utility.yul\":6239:6245   */\n  dup5\n    /* \"#utility.yul\":6236:6313   */\n  iszero\n  tag_183\n  jumpi\n    /* \"#utility.yul\":6288:6297   */\n  dup3\n    /* \"#utility.yul\":6283:6286   */\n  dup8\n    /* \"#utility.yul\":6279:6298   */\n  add\n    /* \"#utility.yul\":6273:6299   */\n  mload\n    /* \"#utility.yul\":6264:6299   */\n  swap1\n  pop\n    /* \"#utility.yul\":6236:6313   */\ntag_183:\n    /* \"#utility.yul\":6339:6406   */\n  tag_184\n    /* \"#utility.yul\":6399:6405   */\n  dup6\n    /* \"#utility.yul\":6392:6397   */\n  dup3\n    /* \"#utility.yul\":6339:6406   */\n  tag_94\n  jump\t// in\ntag_184:\n    /* \"#utility.yul\":6333:6337   */\n  dup7\n    /* \"#utility.yul\":6326:6407   */\n  sstore\n    /* \"#utility.yul\":6195:6417   */\n  pop\n    /* \"#utility.yul\":5530:6417   */\n  jump(tag_181)\n    /* \"#utility.yul\":5560:6178   */\ntag_182:\n    /* \"#utility.yul\":5612:5616   */\n  0x1f\n    /* \"#utility.yul\":5608:5617   */\n  not\n    /* \"#utility.yul\":5600:5606   */\n  dup5\n    /* \"#utility.yul\":5596:5618   */\n  and\n    /* \"#utility.yul\":5646:5683   */\n  tag_185\n    /* \"#utility.yul\":5678:5682   */\n  dup7\n    /* \"#utility.yul\":5646:5683   */\n  tag_79\n  jump\t// in\ntag_185:\n    /* \"#utility.yul\":5705:5706   */\n  0x00\n    /* \"#utility.yul\":5719:5927   */\ntag_186:\n    /* \"#utility.yul\":5733:5740   */\n  dup3\n    /* \"#utility.yul\":5730:5731   */\n  dup2\n    /* \"#utility.yul\":5727:5741   */\n  lt\n    /* \"#utility.yul\":5719:5927   */\n  iszero\n  tag_188\n  jumpi\n    /* \"#utility.yul\":5812:5821   */\n  dup5\n    /* \"#utility.yul\":5807:5810   */\n  dup10\n    /* \"#utility.yul\":5803:5822   */\n  add\n    /* \"#utility.yul\":5797:5823   */\n  mload\n    /* \"#utility.yul\":5789:5795   */\n  dup3\n    /* \"#utility.yul\":5782:5824   */\n  sstore\n    /* \"#utility.yul\":5863:5864   */\n  0x01\n    /* \"#utility.yul\":5855:5861   */\n  dup3\n    /* \"#utility.yul\":5851:5865   */\n  add\n    /* \"#utility.yul\":5841:5865   */\n  swap2\n  pop\n    /* \"#utility.yul\":5910:5912   */\n  0x20\n    /* \"#utility.yul\":5899:5908   */\n  dup6\n    /* \"#utility.yul\":5895:5913   */\n  add\n    /* \"#utility.yul\":5882:5913   */\n  swap5\n  pop\n    /* \"#utility.yul\":5756:5760   */\n  0x20\n    /* \"#utility.yul\":5753:5754   */\n  dup2\n    /* \"#utility.yul\":5749:5761   */\n  add\n    /* \"#utility.yul\":5744:5761   */\n  swap1\n  pop\n    /* \"#utility.yul\":5719:5927   */\n  jump(tag_186)\ntag_188:\n    /* \"#utility.yul\":5955:5961   */\n  dup7\n    /* \"#utility.yul\":5946:5953   */\n  dup4\n    /* \"#utility.yul\":5943:5962   */\n  lt\n    /* \"#utility.yul\":5940:6119   */\n  iszero\n  tag_189\n  jumpi\n    /* \"#utility.yul\":6013:6022   */\n  dup5\n    /* \"#utility.yul\":6008:6011   */\n  dup10\n    /* \"#utility.yul\":6004:6023   */\n  add\n    /* \"#utility.yul\":5998:6024   */\n  mload\n    /* \"#utility.yul\":6056:6104   */\n  tag_190\n    /* \"#utility.yul\":6098:6102   */\n  0x1f\n    /* \"#utility.yul\":6090:6096   */\n  dup10\n    /* \"#utility.yul\":6086:6103   */\n  and\n    /* \"#utility.yul\":6075:6084   */\n  dup3\n    /* \"#utility.yul\":6056:6104   */\n  tag_93\n  jump\t// in\ntag_190:\n    /* \"#utility.yul\":6048:6054   */\n  dup4\n    /* \"#utility.yul\":6041:6105   */\n  sstore\n    /* \"#utility.yul\":5963:6119   */\n  pop\n    /* \"#utility.yul\":5940:6119   */\ntag_189:\n    /* \"#utility.yul\":6165:6166   */\n  0x01\n    /* \"#utility.yul\":6161:6162   */\n  0x02\n    /* \"#utility.yul\":6153:6159   */\n  dup9\n    /* \"#utility.yul\":6149:6163   */\n  mul\n    /* \"#utility.yul\":6145:6167   */\n  add\n    /* \"#utility.yul\":6139:6143   */\n  dup9\n    /* \"#utility.yul\":6132:6168   */\n  sstore\n    /* \"#utility.yul\":5567:6178   */\n  pop\n  pop\n  pop\n    /* \"#utility.yul\":5530:6417   */\ntag_181:\n  pop\n    /* \"#utility.yul\":5120:6423   */\n  pop\n  pop\n  pop\n    /* \"#utility.yul\":5028:6423   */\n  pop\n  pop\n  jump\t// out\n    /* \"#utility.yul\":6429:6598   */\ntag_95:\n    /* \"#utility.yul\":6513:6524   */\n  0x00\n    /* \"#utility.yul\":6547:6553   */\n  dup3\n    /* \"#utility.yul\":6542:6545   */\n  dup3\n    /* \"#utility.yul\":6535:6554   */\n  mstore\n    /* \"#utility.yul\":6587:6591   */\n  0x20\n    /* \"#utility.yul\":6582:6585   */\n  dup3\n    /* \"#utility.yul\":6578:6592   */\n  add\n    /* \"#utility.yul\":6563:6592   */\n  swap1\n  pop\n    /* \"#utility.yul\":6429:6598   */\n  swap3\n  swap2\n  pop\n  pop\n  jump\t// out\n    /* \"#utility.yul\":6604:6773   */\ntag_96:\n    /* \"#utility.yul\":6744:6765   */\n  0x556e617574686f72697a65644163636f756e7400000000000000000000000000\n    /* \"#utility.yul\":6740:6741   */\n  0x00\n    /* \"#utility.yul\":6732:6738   */\n  dup3\n    /* \"#utility.yul\":6728:6742   */\n  add\n    /* \"#utility.yul\":6721:6766   */\n  mstore\n    /* \"#utility.yul\":6604:6773   */\n  pop\n  jump\t// out\n    /* \"#utility.yul\":6779:7145   */\ntag_97:\n    /* \"#utility.yul\":6921:6924   */\n  0x00\n    /* \"#utility.yul\":6942:7009   */\n  tag_194\n    /* \"#utility.yul\":7006:7008   */\n  0x13\n    /* \"#utility.yul\":7001:7004   */\n  dup4\n    /* \"#utility.yul\":6942:7009   */\n  tag_95\n  jump\t// in\ntag_194:\n    /* \"#utility.yul\":6935:7009   */\n  swap2\n  pop\n    /* \"#utility.yul\":7018:7111   */\n  tag_195\n    /* \"#utility.yul\":7107:7110   */\n  dup3\n    /* \"#utility.yul\":7018:7111   */\n  tag_96\n  jump\t// in\ntag_195:\n    /* \"#utility.yul\":7136:7138   */\n  0x20\n    /* \"#utility.yul\":7131:7134   */\n  dup3\n    /* \"#utility.yul\":7127:7139   */\n  add\n    /* \"#utility.yul\":7120:7139   */\n  swap1\n  pop\n    /* \"#utility.yul\":6779:7145   */\n  swap2\n  swap1\n  pop\n  jump\t// out\n    /* \"#utility.yul\":7151:7570   */\ntag_19:\n    /* \"#utility.yul\":7317:7321   */\n  0x00\n    /* \"#utility.yul\":7355:7357   */\n  0x20\n    /* \"#utility.yul\":7344:7353   */\n  dup3\n    /* \"#utility.yul\":7340:7358   */\n  add\n    /* \"#utility.yul\":7332:7358   */\n  swap1\n  pop\n    /* \"#utility.yul\":7404:7413   */\n  dup2\n    /* \"#utility.yul\":7398:7402   */\n  dup2\n    /* \"#utility.yul\":7394:7414   */\n  sub\n    /* \"#utility.yul\":7390:7391   */\n  0x00\n    /* \"#utility.yul\":7379:7388   */\n  dup4\n    /* \"#utility.yul\":7375:7392   */\n  add\n    /* \"#utility.yul\":7368:7415   */\n  mstore\n    /* \"#utility.yul\":7432:7563   */\n  tag_197\n    /* \"#utility.yul\":7558:7562   */\n  dup2\n    /* \"#utility.yul\":7432:7563   */\n  tag_97\n  jump\t// in\ntag_197:\n    /* \"#utility.yul\":7424:7563   */\n  swap1\n  pop\n    /* \"#utility.yul\":7151:7570   */\n  swap2\n  swap1\n  pop\n  jump\t// out\n    /* \"#utility.yul\":7576:7756   */\ntag_98:\n    /* \"#utility.yul\":7624:7701   */\n  0x4e487b7100000000000000000000000000000000000000000000000000000000\n    /* \"#utility.yul\":7621:7622   */\n  0x00\n    /* \"#utility.yul\":7614:7702   */\n  mstore\n    /* \"#utility.yul\":7721:7725   */\n  0x11\n    /* \"#utility.yul\":7718:7719   */\n  0x04\n    /* \"#utility.yul\":7711:7726   */\n  mstore\n    /* \"#utility.yul\":7745:7749   */\n  0x24\n    /* \"#utility.yul\":7742:7743   */\n  0x00\n    /* \"#utility.yul\":7735:7750   */\n  revert\n    /* \"#utility.yul\":7762:7864   */\ntag_99:\n    /* \"#utility.yul\":7804:7812   */\n  0x00\n    /* \"#utility.yul\":7851:7856   */\n  dup2\n    /* \"#utility.yul\":7848:7849   */\n  0x01\n    /* \"#utility.yul\":7844:7857   */\n  shr\n    /* \"#utility.yul\":7823:7857   */\n  swap1\n  pop\n    /* \"#utility.yul\":7762:7864   */\n  swap2\n  swap1\n  pop\n  jump\t// out\n    /* \"#utility.yul\":7870:8718   */\ntag_100:\n    /* \"#utility.yul\":7931:7936   */\n  0x00\n    /* \"#utility.yul\":7938:7942   */\n  dup1\n    /* \"#utility.yul\":7962:7968   */\n  dup3\n    /* \"#utility.yul\":7953:7968   */\n  swap2\n  pop\n    /* \"#utility.yul\":7986:7991   */\n  dup4\n    /* \"#utility.yul\":7977:7991   */\n  swap1\n  pop\n    /* \"#utility.yul\":8000:8712   */\ntag_201:\n    /* \"#utility.yul\":8021:8022   */\n  0x01\n    /* \"#utility.yul\":8011:8019   */\n  dup6\n    /* \"#utility.yul\":8008:8023   */\n  gt\n    /* \"#utility.yul\":8000:8712   */\n  iszero\n  tag_203\n  jumpi\n    /* \"#utility.yul\":8116:8120   */\n  dup1\n    /* \"#utility.yul\":8111:8114   */\n  dup7\n    /* \"#utility.yul\":8107:8121   */\n  div\n    /* \"#utility.yul\":8101:8105   */\n  dup2\n    /* \"#utility.yul\":8098:8122   */\n  gt\n    /* \"#utility.yul\":8095:8145   */\n  iszero\n  tag_204\n  jumpi\n    /* \"#utility.yul\":8125:8143   */\n  tag_205\n  tag_98\n  jump\t// in\ntag_205:\n    /* \"#utility.yul\":8095:8145   */\ntag_204:\n    /* \"#utility.yul\":8175:8176   */\n  0x01\n    /* \"#utility.yul\":8165:8173   */\n  dup6\n    /* \"#utility.yul\":8161:8177   */\n  and\n    /* \"#utility.yul\":8158:8609   */\n  iszero\n  tag_206\n  jumpi\n    /* \"#utility.yul\":8590:8594   */\n  dup1\n    /* \"#utility.yul\":8583:8588   */\n  dup3\n    /* \"#utility.yul\":8579:8595   */\n  mul\n    /* \"#utility.yul\":8570:8595   */\n  swap2\n  pop\n    /* \"#utility.yul\":8158:8609   */\ntag_206:\n    /* \"#utility.yul\":8640:8644   */\n  dup1\n    /* \"#utility.yul\":8634:8638   */\n  dup2\n    /* \"#utility.yul\":8630:8645   */\n  mul\n    /* \"#utility.yul\":8622:8645   */\n  swap1\n  pop\n    /* \"#utility.yul\":8670:8702   */\n  tag_207\n    /* \"#utility.yul\":8693:8701   */\n  dup6\n    /* \"#utility.yul\":8670:8702   */\n  tag_99\n  jump\t// in\ntag_207:\n    /* \"#utility.yul\":8658:8702   */\n  swap5\n  pop\n    /* \"#utility.yul\":8000:8712   */\n  jump(tag_201)\ntag_203:\n    /* \"#utility.yul\":7870:8718   */\n  swap5\n  pop\n  swap5\n  swap3\n  pop\n  pop\n  pop\n  jump\t// out\n    /* \"#utility.yul\":8724:9797   */\ntag_101:\n    /* \"#utility.yul\":8778:8783   */\n  0x00\n    /* \"#utility.yul\":8969:8977   */\n  dup3\n    /* \"#utility.yul\":8959:8999   */\n  tag_209\n  jumpi\n    /* \"#utility.yul\":8990:8991   */\n  0x01\n    /* \"#utility.yul\":8981:8991   */\n  swap1\n  pop\n    /* \"#utility.yul\":8992:8997   */\n  jump(tag_208)\n    /* \"#utility.yul\":8959:8999   */\ntag_209:\n    /* \"#utility.yul\":9018:9022   */\n  dup2\n    /* \"#utility.yul\":9008:9044   */\n  tag_210\n  jumpi\n    /* \"#utility.yul\":9035:9036   */\n  0x00\n    /* \"#utility.yul\":9026:9036   */\n  swap1\n  pop\n    /* \"#utility.yul\":9037:9042   */\n  jump(tag_208)\n    /* \"#utility.yul\":9008:9044   */\ntag_210:\n    /* \"#utility.yul\":9104:9108   */\n  dup2\n    /* \"#utility.yul\":9152:9153   */\n  0x01\n    /* \"#utility.yul\":9147:9174   */\n  dup2\n  eq\n  tag_212\n  jumpi\n    /* \"#utility.yul\":9188:9189   */\n  0x02\n    /* \"#utility.yul\":9183:9374   */\n  dup2\n  eq\n  tag_213\n  jumpi\n    /* \"#utility.yul\":9097:9374   */\n  jump(tag_211)\n    /* \"#utility.yul\":9147:9174   */\ntag_212:\n    /* \"#utility.yul\":9165:9166   */\n  0x01\n    /* \"#utility.yul\":9156:9166   */\n  swap2\n  pop\n    /* \"#utility.yul\":9167:9172   */\n  pop\n  jump(tag_208)\n    /* \"#utility.yul\":9183:9374   */\ntag_213:\n    /* \"#utility.yul\":9228:9231   */\n  0xff\n    /* \"#utility.yul\":9218:9226   */\n  dup5\n    /* \"#utility.yul\":9215:9232   */\n  gt\n    /* \"#utility.yul\":9212:9255   */\n  iszero\n  tag_214\n  jumpi\n    /* \"#utility.yul\":9235:9253   */\n  tag_215\n  tag_98\n  jump\t// in\ntag_215:\n    /* \"#utility.yul\":9212:9255   */\ntag_214:\n    /* \"#utility.yul\":9284:9292   */\n  dup4\n    /* \"#utility.yul\":9281:9282   */\n  0x02\n    /* \"#utility.yul\":9277:9293   */\n  exp\n    /* \"#utility.yul\":9268:9293   */\n  swap2\n  pop\n    /* \"#utility.yul\":9319:9322   */\n  dup5\n    /* \"#utility.yul\":9312:9317   */\n  dup3\n    /* \"#utility.yul\":9309:9323   */\n  gt\n    /* \"#utility.yul\":9306:9346   */\n  iszero\n  tag_216\n  jumpi\n    /* \"#utility.yul\":9326:9344   */\n  tag_217\n  tag_98\n  jump\t// in\ntag_217:\n    /* \"#utility.yul\":9306:9346   */\ntag_216:\n    /* \"#utility.yul\":9359:9364   */\n  pop\n  jump(tag_208)\n    /* \"#utility.yul\":9097:9374   */\ntag_211:\n  pop\n    /* \"#utility.yul\":9483:9485   */\n  0x20\n    /* \"#utility.yul\":9473:9481   */\n  dup4\n    /* \"#utility.yul\":9470:9486   */\n  lt\n    /* \"#utility.yul\":9464:9467   */\n  0x0133\n    /* \"#utility.yul\":9458:9462   */\n  dup4\n    /* \"#utility.yul\":9455:9468   */\n  lt\n    /* \"#utility.yul\":9451:9487   */\n  and\n    /* \"#utility.yul\":9433:9435   */\n  0x4e\n    /* \"#utility.yul\":9423:9431   */\n  dup5\n    /* \"#utility.yul\":9420:9436   */\n  lt\n    /* \"#utility.yul\":9415:9417   */\n  0x0b\n    /* \"#utility.yul\":9409:9413   */\n  dup5\n    /* \"#utility.yul\":9406:9418   */\n  lt\n    /* \"#utility.yul\":9402:9437   */\n  and\n    /* \"#utility.yul\":9386:9497   */\n  or\n    /* \"#utility.yul\":9383:9629   */\n  iszero\n  tag_218\n  jumpi\n    /* \"#utility.yul\":9539:9547   */\n  dup3\n    /* \"#utility.yul\":9533:9537   */\n  dup3\n    /* \"#utility.yul\":9529:9548   */\n  exp\n    /* \"#utility.yul\":9520:9548   */\n  swap1\n  pop\n    /* \"#utility.yul\":9574:9577   */\n  dup4\n    /* \"#utility.yul\":9567:9572   */\n  dup2\n    /* \"#utility.yul\":9564:9578   */\n  gt\n    /* \"#utility.yul\":9561:9601   */\n  iszero\n  tag_219\n  jumpi\n    /* \"#utility.yul\":9581:9599   */\n  tag_220\n  tag_98\n  jump\t// in\ntag_220:\n    /* \"#utility.yul\":9561:9601   */\ntag_219:\n    /* \"#utility.yul\":9614:9619   */\n  jump(tag_208)\n    /* \"#utility.yul\":9383:9629   */\ntag_218:\n    /* \"#utility.yul\":9654:9696   */\n  tag_221\n    /* \"#utility.yul\":9692:9695   */\n  dup5\n    /* \"#utility.yul\":9682:9690   */\n  dup5\n    /* \"#utility.yul\":9676:9680   */\n  dup5\n    /* \"#utility.yul\":9673:9674   */\n  0x01\n    /* \"#utility.yul\":9654:9696   */\n  tag_100\n  jump\t// in\ntag_221:\n    /* \"#utility.yul\":9639:9696   */\n  swap3\n  pop\n  swap1\n  pop\n    /* \"#utility.yul\":9728:9732   */\n  dup2\n    /* \"#utility.yul\":9723:9726   */\n  dup5\n    /* \"#utility.yul\":9719:9733   */\n  div\n    /* \"#utility.yul\":9712:9717   */\n  dup2\n    /* \"#utility.yul\":9709:9734   */\n  gt\n    /* \"#utility.yul\":9706:9757   */\n  iszero\n  tag_222\n  jumpi\n    /* \"#utility.yul\":9737:9755   */\n  tag_223\n  tag_98\n  jump\t// in\ntag_223:\n    /* \"#utility.yul\":9706:9757   */\ntag_222:\n    /* \"#utility.yul\":9786:9790   */\n  dup2\n    /* \"#utility.yul\":9779:9784   */\n  dup2\n    /* \"#utility.yul\":9775:9791   */\n  mul\n    /* \"#utility.yul\":9766:9791   */\n  swap1\n  pop\n    /* \"#utility.yul\":8724:9797   */\ntag_208:\n  swap4\n  swap3\n  pop\n  pop\n  pop\n  jump\t// out\n    /* \"#utility.yul\":9803:9889   */\ntag_102:\n    /* \"#utility.yul\":9838:9845   */\n  0x00\n    /* \"#utility.yul\":9878:9882   */\n  0xff\n    /* \"#utility.yul\":9871:9876   */\n  dup3\n    /* \"#utility.yul\":9867:9883   */\n  and\n    /* \"#utility.yul\":9856:9883   */\n  swap1\n  pop\n    /* \"#utility.yul\":9803:9889   */\n  swap2\n  swap1\n  pop\n  jump\t// out\n    /* \"#utility.yul\":9895:10176   */\ntag_25:\n    /* \"#utility.yul\":9953:9958   */\n  0x00\n    /* \"#utility.yul\":9977:10000   */\n  tag_226\n    /* \"#utility.yul\":9995:9999   */\n  dup3\n    /* \"#utility.yul\":9977:10000   */\n  tag_83\n  jump\t// in\ntag_226:\n    /* \"#utility.yul\":9969:10000   */\n  swap2\n  pop\n    /* \"#utility.yul\":10021:10046   */\n  tag_227\n    /* \"#utility.yul\":10037:10045   */\n  dup4\n    /* \"#utility.yul\":10021:10046   */\n  tag_102\n  jump\t// in\ntag_227:\n    /* \"#utility.yul\":10009:10046   */\n  swap3\n  pop\n    /* \"#utility.yul\":10065:10169   */\n  tag_228\n    /* \"#utility.yul\":10102:10168   */\n  0xffffffffffffffffffffffffffffffffffffffffffffffffffffffffffffffff\n    /* \"#utility.yul\":10092:10100   */\n  dup5\n    /* \"#utility.yul\":10086:10090   */\n  dup5\n    /* \"#utility.yul\":10065:10169   */\n  tag_101\n  jump\t// in\ntag_228:\n    /* \"#utility.yul\":10056:10169   */\n  swap1\n  pop\n    /* \"#utility.yul\":9895:10176   */\n  swap3\n  swap2\n  pop\n  pop\n  jump\t// out\n    /* \"#utility.yul\":10182:10592   */\ntag_27:\n    /* \"#utility.yul\":10222:10229   */\n  0x00\n    /* \"#utility.yul\":10245:10265   */\n  tag_230\n    /* \"#utility.yul\":10263:10264   */\n  dup3\n    /* \"#utility.yul\":10245:10265   */\n  tag_83\n  jump\t// in\ntag_230:\n    /* \"#utility.yul\":10240:10265   */\n  swap2\n  pop\n    /* \"#utility.yul\":10279:10299   */\n  tag_231\n    /* \"#utility.yul\":10297:10298   */\n  dup4\n    /* \"#utility.yul\":10279:10299   */\n  tag_83\n  jump\t// in\ntag_231:\n    /* \"#utility.yul\":10274:10299   */\n  swap3\n  pop\n    /* \"#utility.yul\":10334:10335   */\n  dup3\n    /* \"#utility.yul\":10331:10332   */\n  dup3\n    /* \"#utility.yul\":10327:10336   */\n  mul\n    /* \"#utility.yul\":10356:10386   */\n  tag_232\n    /* \"#utility.yul\":10374:10385   */\n  dup2\n    /* \"#utility.yul\":10356:10386   */\n  tag_83\n  jump\t// in\ntag_232:\n    /* \"#utility.yul\":10345:10386   */\n  swap2\n  pop\n    /* \"#utility.yul\":10535:10536   */\n  dup3\n    /* \"#utility.yul\":10526:10533   */\n  dup3\n    /* \"#utility.yul\":10522:10537   */\n  div\n    /* \"#utility.yul\":10519:10520   */\n  dup5\n    /* \"#utility.yul\":10516:10538   */\n  eq\n    /* \"#utility.yul\":10496:10497   */\n  dup4\n    /* \"#utility.yul\":10489:10498   */\n  iszero\n    /* \"#utility.yul\":10469:10552   */\n  or\n    /* \"#utility.yul\":10446:10585   */\n  tag_233\n  jumpi\n    /* \"#utility.yul\":10565:10583   */\n  tag_234\n  tag_98\n  jump\t// in\ntag_234:\n    /* \"#utility.yul\":10446:10585   */\ntag_233:\n    /* \"#utility.yul\":10230:10592   */\n  pop\n    /* \"#utility.yul\":10182:10592   */\n  swap3\n  swap2\n  pop\n  pop\n  jump\t// out\n    /* \"#utility.yul\":10598:10770   */\ntag_103:\n    /* \"#utility.yul\":10738:10762   */\n  0x496e76616c696445786368616e67654164647265737300000000000000000000\n    /* \"#utility.yul\":10734:10735   */\n  0x00\n    /* \"#utility.yul\":10726:10732   */\n  dup3\n    /* \"#utility.yul\":10722:10736   */\n  add\n    /* \"#utility.yul\":10715:10763   */\n  mstore\n    /* \"#utility.yul\":10598:10770   */\n  pop\n  jump\t// out\n    /* \"#utility.yul\":10776:11142   */\ntag_104:\n    /* \"#utility.yul\":10918:10921   */\n  0x00\n    /* \"#utility.yul\":10939:11006   */\n  tag_237\n    /* \"#utility.yul\":11003:11005   */\n  0x16\n    /* \"#utility.yul\":10998:11001   */\n  dup4\n    /* \"#utility.yul\":10939:11006   */\n  tag_95\n  jump\t// in\ntag_237:\n    /* \"#utility.yul\":10932:11006   */\n  swap2\n  pop\n    /* \"#utility.yul\":11015:11108   */\n  tag_238\n    /* \"#utility.yul\":11104:11107   */\n  dup3\n    /* \"#utility.yul\":11015:11108   */\n  tag_103\n  jump\t// in\ntag_238:\n    /* \"#utility.yul\":11133:11135   */\n  0x20\n    /* \"#utility.yul\":11128:11131   */\n  dup3\n    /* \"#utility.yul\":11124:11136   */\n  add\n    /* \"#utility.yul\":11117:11136   */\n  swap1\n  pop\n    /* \"#utility.yul\":10776:11142   */\n  swap2\n  swap1\n  pop\n  jump\t// out\n    /* \"#utility.yul\":11148:11567   */\ntag_35:\n    /* \"#utility.yul\":11314:11318   */\n  0x00\n    /* \"#utility.yul\":11352:11354   */\n  0x20\n    /* \"#utility.yul\":11341:11350   */\n  dup3\n    /* \"#utility.yul\":11337:11355   */\n  add\n    /* \"#utility.yul\":11329:11355   */\n  swap1\n  pop\n    /* \"#utility.yul\":11401:11410   */\n  dup2\n    /* \"#utility.yul\":11395:11399   */\n  dup2\n    /* \"#utility.yul\":11391:11411   */\n  sub\n    /* \"#utility.yul\":11387:11388   */\n  0x00\n    /* \"#utility.yul\":11376:11385   */\n  dup4\n    /* \"#utility.yul\":11372:11389   */\n  add\n    /* \"#utility.yul\":11365:11412   */\n  mstore\n    /* \"#utility.yul\":11429:11560   */\n  tag_240\n    /* \"#utility.yul\":11555:11559   */\n  dup2\n    /* \"#utility.yul\":11429:11560   */\n  tag_104\n  jump\t// in\ntag_240:\n    /* \"#utility.yul\":11421:11560   */\n  swap1\n  pop\n    /* \"#utility.yul\":11148:11567   */\n  swap2\n  swap1\n  pop\n  jump\t// out\n    /* \"#utility.yul\":11573:11738   */\ntag_105:\n    /* \"#utility.yul\":11713:11730   */\n  0x496e76616c696452656365697665720000000000000000000000000000000000\n    /* \"#utility.yul\":11709:11710   */\n  0x00\n    /* \"#utility.yul\":11701:11707   */\n  dup3\n    /* \"#utility.yul\":11697:11711   */\n  add\n    /* \"#utility.yul\":11690:11731   */\n  mstore\n    /* \"#utility.yul\":11573:11738   */\n  pop\n  jump\t// out\n    /* \"#utility.yul\":11744:12110   */\ntag_106:\n    /* \"#utility.yul\":11886:11889   */\n  0x00\n    /* \"#utility.yul\":11907:11974   */\n  tag_243\n    /* \"#utility.yul\":11971:11973   */\n  0x0f\n    /* \"#utility.yul\":11966:11969   */\n  dup4\n    /* \"#utility.yul\":11907:11974   */\n  tag_95\n  jump\t// in\ntag_243:\n    /* \"#utility.yul\":11900:11974   */\n  swap2\n  pop\n    /* \"#utility.yul\":11983:12076   */\n  tag_244\n    /* \"#utility.yul\":12072:12075   */\n  dup3\n    /* \"#utility.yul\":11983:12076   */\n  tag_105\n  jump\t// in\ntag_244:\n    /* \"#utility.yul\":12101:12103   */\n  0x20\n    /* \"#utility.yul\":12096:12099   */\n  dup3\n    /* \"#utility.yul\":12092:12104   */\n  add\n    /* \"#utility.yul\":12085:12104   */\n  swap1\n  pop\n    /* \"#utility.yul\":11744:12110   */\n  swap2\n  swap1\n  pop\n  jump\t// out\n    /* \"#utility.yul\":12116:12535   */\ntag_42:\n    /* \"#utility.yul\":12282:12286   */\n  0x00\n    /* \"#utility.yul\":12320:12322   */\n  0x20\n    /* \"#utility.yul\":12309:12318   */\n  dup3\n    /* \"#utility.yul\":12305:12323   */\n  add\n    /* \"#utility.yul\":12297:12323   */\n  swap1\n  pop\n    /* \"#utility.yul\":12369:12378   */\n  dup2\n    /* \"#utility.yul\":12363:12367   */\n  dup2\n    /* \"#utility.yul\":12359:12379   */\n  sub\n    /* \"#utility.yul\":12355:12356   */\n  0x00\n    /* \"#utility.yul\":12344:12353   */\n  dup4\n    /* \"#utility.yul\":12340:12357   */\n  add\n    /* \"#utility.yul\":12333:12380   */\n  mstore\n    /* \"#utility.yul\":12397:12528   */\n  tag_246\n    /* \"#utility.yul\":12523:12527   */\n  dup2\n    /* \"#utility.yul\":12397:12528   */\n  tag_106\n  jump\t// in\ntag_246:\n    /* \"#utility.yul\":12389:12528   */\n  swap1\n  pop\n    /* \"#utility.yul\":12116:12535   */\n  swap2\n  swap1\n  pop\n  jump\t// out\n    /* \"#utility.yul\":12541:12732   */\ntag_51:\n    /* \"#utility.yul\":12581:12584   */\n  0x00\n    /* \"#utility.yul\":12600:12620   */\n  tag_248\n    /* \"#utility.yul\":12618:12619   */\n  dup3\n    /* \"#utility.yul\":12600:12620   */\n  tag_83\n  jump\t// in\ntag_248:\n    /* \"#utility.yul\":12595:12620   */\n  swap2\n  pop\n    /* \"#utility.yul\":12634:12654   */\n  tag_249\n    /* \"#utility.yul\":12652:12653   */\n  dup4\n    /* \"#utility.yul\":12634:12654   */\n  tag_83\n  jump\t// in\ntag_249:\n    /* \"#utility.yul\":12629:12654   */\n  swap3\n  pop\n    /* \"#utility.yul\":12677:12678   */\n  dup3\n    /* \"#utility.yul\":12674:12675   */\n  dup3\n    /* \"#utility.yul\":12670:12679   */\n  add\n    /* \"#utility.yul\":12663:12679   */\n  swap1\n  pop\n    /* \"#utility.yul\":12698:12701   */\n  dup1\n    /* \"#utility.yul\":12695:12696   */\n  dup3\n    /* \"#utility.yul\":12692:12702   */\n  gt\n    /* \"#utility.yul\":12689:12725   */\n  iszero\n  tag_250\n  jumpi\n    /* \"#utility.yul\":12705:12723   */\n  tag_251\n  tag_98\n  jump\t// in\ntag_251:\n    /* \"#utility.yul\":12689:12725   */\ntag_250:\n    /* \"#utility.yul\":12541:12732   */\n  swap3\n  swap2\n  pop\n  pop\n  jump\t// out\n    /* \"#utility.yul\":12738:12907   */\ntag_107:\n    /* \"#utility.yul\":12878:12899   */\n  0x696e737566696369656e742062616c616e636500000000000000000000000000\n    /* \"#utility.yul\":12874:12875   */\n  0x00\n    /* \"#utility.yul\":12866:12872   */\n  dup3\n    /* \"#utility.yul\":12862:12876   */\n  add\n    /* \"#utility.yul\":12855:12900   */\n  mstore\n    /* \"#utility.yul\":12738:12907   */\n  pop\n  jump\t// out\n    /* \"#utility.yul\":12913:13279   */\ntag_108:\n    /* \"#utility.yul\":13055:13058   */\n  0x00\n    /* \"#utility.yul\":13076:13143   */\n  tag_254\n    /* \"#utility.yul\":13140:13142   */\n  0x13\n    /* \"#utility.yul\":13135:13138   */\n  dup4\n    /* \"#utility.yul\":13076:13143   */\n  tag_95\n  jump\t// in\ntag_254:\n    /* \"#utility.yul\":13069:13143   */\n  swap2\n  pop\n    /* \"#utility.yul\":13152:13245   */\n  tag_255\n    /* \"#utility.yul\":13241:13244   */\n  dup3\n    /* \"#utility.yul\":13152:13245   */\n  tag_107\n  jump\t// in\ntag_255:\n    /* \"#utility.yul\":13270:13272   */\n  0x20\n    /* \"#utility.yul\":13265:13268   */\n  dup3\n    /* \"#utility.yul\":13261:13273   */\n  add\n    /* \"#utility.yul\":13254:13273   */\n  swap1\n  pop\n    /* \"#utility.yul\":12913:13279   */\n  swap2\n  swap1\n  pop\n  jump\t// out\n    /* \"#utility.yul\":13285:13704   */\ntag_55:\n    /* \"#utility.yul\":13451:13455   */\n  0x00\n    /* \"#utility.yul\":13489:13491   */\n  0x20\n    /* \"#utility.yul\":13478:13487   */\n  dup3\n    /* \"#utility.yul\":13474:13492   */\n  add\n    /* \"#utility.yul\":13466:13492   */\n  swap1\n  pop\n    /* \"#utility.yul\":13538:13547   */\n  dup2\n    /* \"#utility.yul\":13532:13536   */\n  dup2\n    /* \"#utility.yul\":13528:13548   */\n  sub\n    /* \"#utility.yul\":13524:13525   */\n  0x00\n    /* \"#utility.yul\":13513:13522   */\n  dup4\n    /* \"#utility.yul\":13509:13526   */\n  add\n    /* \"#utility.yul\":13502:13549   */\n  mstore\n    /* \"#utility.yul\":13566:13697   */\n  tag_257\n    /* \"#utility.yul\":13692:13696   */\n  dup2\n    /* \"#utility.yul\":13566:13697   */\n  tag_108\n  jump\t// in\ntag_257:\n    /* \"#utility.yul\":13558:13697   */\n  swap1\n  pop\n    /* \"#utility.yul\":13285:13704   */\n  swap2\n  swap1\n  pop\n  jump\t// out\n    /* \"#utility.yul\":13710:13828   */\ntag_109:\n    /* \"#utility.yul\":13797:13821   */\n  tag_259\n    /* \"#utility.yul\":13815:13820   */\n  dup2\n    /* \"#utility.yul\":13797:13821   */\n  tag_83\n  jump\t// in\ntag_259:\n    /* \"#utility.yul\":13792:13795   */\n  dup3\n    /* \"#utility.yul\":13785:13822   */\n  mstore\n    /* \"#utility.yul\":13710:13828   */\n  pop\n  pop\n  jump\t// out\n    /* \"#utility.yul\":13834:14056   */\ntag_59:\n    /* \"#utility.yul\":13927:13931   */\n  0x00\n    /* \"#utility.yul\":13965:13967   */\n  0x20\n    /* \"#utility.yul\":13954:13963   */\n  dup3\n    /* \"#utility.yul\":13950:13968   */\n  add\n    /* \"#utility.yul\":13942:13968   */\n  swap1\n  pop\n    /* \"#utility.yul\":13978:14049   */\n  tag_261\n    /* \"#utility.yul\":14046:14047   */\n  0x00\n    /* \"#utility.yul\":14035:14044   */\n  dup4\n    /* \"#utility.yul\":14031:14048   */\n  add\n    /* \"#utility.yul\":14022:14028   */\n  dup5\n    /* \"#utility.yul\":13978:14049   */\n  tag_109\n  jump\t// in\ntag_261:\n    /* \"#utility.yul\":13834:14056   */\n  swap3\n  swap2\n  pop\n  pop\n  jump\t// out\n    /* \"#utility.yul\":14062:14224   */\ntag_110:\n    /* \"#utility.yul\":14202:14216   */\n  0x77726f6e672073656e6465720000000000000000000000000000000000000000\n    /* \"#utility.yul\":14198:14199   */\n  0x00\n    /* \"#utility.yul\":14190:14196   */\n  dup3\n    /* \"#utility.yul\":14186:14200   */\n  add\n    /* \"#utility.yul\":14179:14217   */\n  mstore\n    /* \"#utility.yul\":14062:14224   */\n  pop\n  jump\t// out\n    /* \"#utility.yul\":14230:14596   */\ntag_111:\n    /* \"#utility.yul\":14372:14375   */\n  0x00\n    /* \"#utility.yul\":14393:14460   */\n  tag_264\n    /* \"#utility.yul\":14457:14459   */\n  0x0c\n    /* \"#utility.yul\":14452:14455   */\n  dup4\n    /* \"#utility.yul\":14393:14460   */\n  tag_95\n  jump\t// in\ntag_264:\n    /* \"#utility.yul\":14386:14460   */\n  swap2\n  pop\n    /* \"#utility.yul\":14469:14562   */\n  tag_265\n    /* \"#utility.yul\":14558:14561   */\n  dup3\n    /* \"#utility.yul\":14469:14562   */\n  tag_110\n  jump\t// in\ntag_265:\n    /* \"#utility.yul\":14587:14589   */\n  0x20\n    /* \"#utility.yul\":14582:14585   */\n  dup3\n    /* \"#utility.yul\":14578:14590   */\n  add\n    /* \"#utility.yul\":14571:14590   */\n  swap1\n  pop\n    /* \"#utility.yul\":14230:14596   */\n  swap2\n  swap1\n  pop\n  jump\t// out\n    /* \"#utility.yul\":14602:15021   */\ntag_63:\n    /* \"#utility.yul\":14768:14772   */\n  0x00\n    /* \"#utility.yul\":14806:14808   */\n  0x20\n    /* \"#utility.yul\":14795:14804   */\n  dup3\n    /* \"#utility.yul\":14791:14809   */\n  add\n    /* \"#utility.yul\":14783:14809   */\n  swap1\n  pop\n    /* \"#utility.yul\":14855:14864   */\n  dup2\n    /* \"#utility.yul\":14849:14853   */\n  dup2\n    /* \"#utility.yul\":14845:14865   */\n  sub\n    /* \"#utility.yul\":14841:14842   */\n  0x00\n    /* \"#utility.yul\":14830:14839   */\n  dup4\n    /* \"#utility.yul\":14826:14843   */\n  add\n    /* \"#utility.yul\":14819:14866   */\n  mstore\n    /* \"#utility.yul\":14883:15014   */\n  tag_267\n    /* \"#utility.yul\":15009:15013   */\n  dup2\n    /* \"#utility.yul\":14883:15014   */\n  tag_111\n  jump\t// in\ntag_267:\n    /* \"#utility.yul\":14875:15014   */\n  swap1\n  pop\n    /* \"#utility.yul\":14602:15021   */\n  swap2\n  swap1\n  pop\n  jump\t// out\n    /* \"#utility.yul\":15027:15191   */\ntag_112:\n    /* \"#utility.yul\":15167:15183   */\n  0x77726f6e67207265636569766572000000000000000000000000000000000000\n    /* \"#utility.yul\":15163:15164   */\n  0x00\n    /* \"#utility.yul\":15155:15161   */\n  dup3\n    /* \"#utility.yul\":15151:15165   */\n  add\n    /* \"#utility.yul\":15144:15184   */\n  mstore\n    /* \"#utility.yul\":15027:15191   */\n  pop\n  jump\t// out\n    /* \"#utility.yul\":15197:15563   */\ntag_113:\n    /* \"#utility.yul\":15339:15342   */\n  0x00\n    /* \"#utility.yul\":15360:15427   */\n  tag_270\n    /* \"#utility.yul\":15424:15426   */\n  0x0e\n    /* \"#utility.yul\":15419:15422   */\n  dup4\n    /* \"#utility.yul\":15360:15427   */\n  tag_95\n  jump\t// in\ntag_270:\n    /* \"#utility.yul\":15353:15427   */\n  swap2\n  pop\n    /* \"#utility.yul\":15436:15529   */\n  tag_271\n    /* \"#utility.yul\":15525:15528   */\n  dup3\n    /* \"#utility.yul\":15436:15529   */\n  tag_112\n  jump\t// in\ntag_271:\n    /* \"#utility.yul\":15554:15556   */\n  0x20\n    /* \"#utility.yul\":15549:15552   */\n  dup3\n    /* \"#utility.yul\":15545:15557   */\n  add\n    /* \"#utility.yul\":15538:15557   */\n  swap1\n  pop\n    /* \"#utility.yul\":15197:15563   */\n  swap2\n  swap1\n  pop\n  jump\t// out\n    /* \"#utility.yul\":15569:15988   */\ntag_66:\n    /* \"#utility.yul\":15735:15739   */\n  0x00\n    /* \"#utility.yul\":15773:15775   */\n  0x20\n    /* \"#utility.yul\":15762:15771   */\n  dup3\n    /* \"#utility.yul\":15758:15776   */\n  add\n    /* \"#utility.yul\":15750:15776   */\n  swap1\n  pop\n    /* \"#utility.yul\":15822:15831   */\n  dup2\n    /* \"#utility.yul\":15816:15820   */\n  dup2\n    /* \"#utility.yul\":15812:15832   */\n  sub\n    /* \"#utility.yul\":15808:15809   */\n  0x00\n    /* \"#utility.yul\":15797:15806   */\n  dup4\n    /* \"#utility.yul\":15793:15810   */\n  add\n    /* \"#utility.yul\":15786:15833   */\n  mstore\n    /* \"#utility.yul\":15850:15981   */\n  tag_273\n    /* \"#utility.yul\":15976:15980   */\n  dup2\n    /* \"#utility.yul\":15850:15981   */\n  tag_113\n  jump\t// in\ntag_273:\n    /* \"#utility.yul\":15842:15981   */\n  swap1\n  pop\n    /* \"#utility.yul\":15569:15988   */\n  swap2\n  swap1\n  pop\n  jump\t// out\n    /* \"solidity_course_materials/TokenExchange/TokenA.sol\":200:1111  contract TokenA is ERC20 {... */\ntag_15:\n  dataSize(sub_0)\n  dup1\n  dataOffset(sub_0)\n  0x00\n  codecopy\n  0x00\n  return\nstop\n\nsub_0: assembly {\n        /* \"solidity_course_materials/TokenExchange/TokenA.sol\":200:1111  contract TokenA is ERC20 {... */\n      mstore(0x40, 0x80)\n      callvalue\n      dup1\n      iszero\n      tag_1\n      jumpi\n      0x00\n      dup1\n      revert\n    tag_1:\n      pop\n      jumpi(tag_2, lt(calldatasize, 0x04))\n      shr(0xe0, calldataload(0x00))\n      dup1\n      0x70a08231\n      gt\n      tag_14\n      jumpi\n      dup1\n      0x70a08231\n      eq\n      tag_8\n      jumpi\n      dup1\n      0x8da5cb5b\n      eq\n      tag_9\n      jumpi\n      dup1\n      0x95d89b41\n      eq\n      tag_10\n      jumpi\n      dup1\n      0xa0712d68\n      eq\n      tag_11\n      jumpi\n      dup1\n      0xa9059cbb\n      eq\n      tag_12\n      jumpi\n      dup1\n      0xdd62ed3e\n      eq\n      tag_13\n      jumpi\n      jump(tag_2)\n    tag_14:\n      dup1\n      0x06fdde03\n      eq\n      tag_3\n      jumpi\n      dup1\n      0x095ea7b3\n      eq\n      tag_4\n      jumpi\n      dup1\n      0x18160ddd\n      eq\n      tag_5\n      jumpi\n      dup1\n      0x23b872dd\n      eq\n      tag_6\n      jumpi\n      dup1\n      0x313ce567\n      eq\n      tag_7\n      jumpi\n    tag_2:\n      0x00\n      dup1\n      revert\n        /* \"solidity_course_materials/TokenExchange/ERC20.sol\":2022:2113  function name() public view virtual returns (string memory) {... */\n    tag_3:\n      tag_15\n      tag_16\n      jump\t// in\n    tag_15:\n      mload(0x40)\n      tag_17\n      swap2\n      swap1\n      tag_18\n      jump\t// in\n    tag_17:\n      mload(0x40)\n      dup1\n      swap2\n      sub\n      swap1\n      return\n        /* \"solidity_course_materials/TokenExchange/ERC20.sol\":4313:4501  function approve(address spender, uint256 value) public virtual returns (bool) {... */\n    tag_4:\n      tag_19\n      0x04\n      dup1\n      calldatasize\n      sub\n      dup2\n      add\n      swap1\n      tag_20\n      swap2\n      swap1\n      tag_21\n      jump\t// in\n    tag_20:\n      tag_22\n      jump\t// in\n    tag_19:\n      mload(0x40)\n      tag_23\n      swap2\n      swap1\n      tag_24\n      jump\t// in\n    tag_23:\n      mload(0x40)\n      dup1\n      swap2\n      sub\n      swap1\n      return\n        /* \"solidity_course_materials/TokenExchange/ERC20.sol\":3124:3223  function totalSupply() public view virtual returns (uint256) {... */\n    tag_5:\n      tag_25\n      tag_26\n      jump\t// in\n    tag_25:\n      mload(0x40)\n      tag_27\n      swap2\n      swap1\n      tag_28\n      jump\t// in\n    tag_27:\n      mload(0x40)\n      dup1\n      swap2\n      sub\n      swap1\n      return\n        /* \"solidity_course_materials/TokenExchange/ERC20.sol\":5079:5326  function transferFrom(address from, address to, uint256 value) public virtual returns (bool) {... */\n    tag_6:\n      tag_29\n      0x04\n      dup1\n      calldatasize\n      sub\n      dup2\n      add\n      swap1\n      tag_30\n      swap2\n      swap1\n      tag_31\n      jump\t// in\n    tag_30:\n      tag_32\n      jump\t// in\n    tag_29:\n      mload(0x40)\n      tag_33\n      swap2\n      swap1\n      tag_24\n      jump\t// in\n    tag_33:\n      mload(0x40)\n      dup1\n      swap2\n      sub\n      swap1\n      return\n        /* \"solidity_course_materials/TokenExchange/ERC20.sol\":2975:3059  function decimals() public view virtual returns (uint8) {... */\n    tag_7:\n      tag_34\n      tag_35\n      jump\t// in\n    tag_34:\n      mload(0x40)\n      tag_36\n      swap2\n      swap1\n      tag_37\n      jump\t// in\n    tag_36:\n      mload(0x40)\n      dup1\n      swap2\n      sub\n      swap1\n      return\n        /* \"solidity_course_materials/TokenExchange/ERC20.sol\":3286:3404  function balanceOf(address account) public view virtual returns (uint256) {... */\n    tag_8:\n      tag_38\n      0x04\n      dup1\n      calldatasize\n      sub\n      dup2\n      add\n      swap1\n      tag_39\n      swap2\n      swap1\n      tag_40\n      jump\t// in\n    tag_39:\n      tag_41\n      jump\t// in\n    tag_38:\n      mload(0x40)\n      tag_42\n      swap2\n      swap1\n      tag_28\n      jump\t// in\n    tag_42:\n      mload(0x40)\n      dup1\n      swap2\n      sub\n      swap1\n      return\n        /* \"solidity_course_materials/TokenExchange/TokenA.sol\":605:684  function owner() public view returns (address) {... */\n    tag_9:\n      tag_43\n      tag_44\n      jump\t// in\n    tag_43:\n      mload(0x40)\n      tag_45\n      swap2\n      swap1\n      tag_46\n      jump\t// in\n    tag_45:\n      mload(0x40)\n      dup1\n      swap2\n      sub\n      swap1\n      return\n        /* \"solidity_course_materials/TokenExchange/ERC20.sol\":2232:2327  function symbol() public view virtual returns (string memory) {... */\n    tag_10:\n      tag_47\n      tag_48\n      jump\t// in\n    tag_47:\n      mload(0x40)\n      tag_49\n      swap2\n      swap1\n      tag_18\n      jump\t// in\n    tag_49:\n      mload(0x40)\n      dup1\n      swap2\n      sub\n      swap1\n      return\n        /* \"solidity_course_materials/TokenExchange/TokenA.sol\":805:912  function mint(uint256 value) public onlyOwner{... */\n    tag_11:\n      tag_50\n      0x04\n      dup1\n      calldatasize\n      sub\n      dup2\n      add\n      swap1\n      tag_51\n      swap2\n      swap1\n      tag_52\n      jump\t// in\n    tag_51:\n      tag_53\n      jump\t// in\n    tag_50:\n      stop\n        /* \"solidity_course_materials/TokenExchange/ERC20.sol\":3609:3789  function transfer(address to, uint256 value) public virtual returns (bool) {... */\n    tag_12:\n      tag_54\n      0x04\n      dup1\n      calldatasize\n      sub\n      dup2\n      add\n      swap1\n      tag_55\n      swap2\n      swap1\n      tag_21\n      jump\t// in\n    tag_55:\n      tag_56\n      jump\t// in\n    tag_54:\n      mload(0x40)\n      tag_57\n      swap2\n      swap1\n      tag_24\n      jump\t// in\n    tag_57:\n      mload(0x40)\n      dup1\n      swap2\n      sub\n      swap1\n      return\n        /* \"solidity_course_materials/TokenExchange/ERC20.sol\":3852:3994  function allowance(address owner, address spender) public view virtual returns (uint256) {... */\n    tag_13:\n      tag_58\n      0x04\n      dup1\n      calldatasize\n      sub\n      dup2\n      add\n      swap1\n      tag_59\n      swap2\n      swap1\n      tag_60\n      jump\t// in\n    tag_59:\n      tag_61\n      jump\t// in\n    tag_58:\n      mload(0x40)\n      tag_62\n      swap2\n      swap1\n      tag_28\n      jump\t// in\n    tag_62:\n      mload(0x40)\n      dup1\n      swap2\n      sub\n      swap1\n      return\n        /* \"solidity_course_materials/TokenExchange/ERC20.sol\":2022:2113  function name() public view virtual returns (string memory) {... */\n    tag_16:\n        /* \"solidity_course_materials/TokenExchange/ERC20.sol\":2067:2080  string memory */\n      0x60\n        /* \"solidity_course_materials/TokenExchange/ERC20.sol\":2100:2105  _name */\n      0x03\n        /* \"solidity_course_materials/TokenExchange/ERC20.sol\":2093:2105  return _name */\n      dup1\n      sload\n      tag_64\n      swap1\n      tag_65\n      jump\t// in\n    tag_64:\n      dup1\n      0x1f\n      add\n      0x20\n      dup1\n      swap2\n      div\n      mul\n      0x20\n      add\n      mload(0x40)\n      swap1\n      dup2\n      add\n      0x40\n      mstore\n      dup1\n      swap3\n      swap2\n      swap1\n      dup2\n      dup2\n      mstore\n      0x20\n      add\n      dup3\n      dup1\n      sload\n      tag_66\n      swap1\n      tag_65\n      jump\t// in\n    tag_66:\n      dup1\n      iszero\n      tag_67\n      jumpi\n      dup1\n      0x1f\n      lt\n      tag_68\n      jumpi\n      0x0100\n      dup1\n      dup4\n      sload\n      div\n      mul\n      dup4\n      mstore\n      swap2\n      0x20\n      add\n      swap2\n      jump(tag_67)\n    tag_68:\n      dup3\n      add\n      swap2\n      swap1\n      0x00\n      mstore\n      keccak256(0x00, 0x20)\n      swap1\n    tag_69:\n      dup2\n      sload\n      dup2\n      mstore\n      swap1\n      0x01\n      add\n      swap1\n      0x20\n      add\n      dup1\n      dup4\n      gt\n      tag_69\n      jumpi\n      dup3\n      swap1\n      sub\n      0x1f\n      and\n      dup3\n      add\n      swap2\n    tag_67:\n      pop\n      pop\n      pop\n      pop\n      pop\n      swap1\n      pop\n        /* \"solidity_course_materials/TokenExchange/ERC20.sol\":2022:2113  function name() public view virtual returns (string memory) {... */\n      swap1\n      jump\t// out\n        /* \"solidity_course_materials/TokenExchange/ERC20.sol\":4313:4501  function approve(address spender, uint256 value) public virtual returns (bool) {... */\n    tag_22:\n        /* \"solidity_course_materials/TokenExchange/ERC20.sol\":4386:4390  bool */\n      0x00\n        /* \"solidity_course_materials/TokenExchange/ERC20.sol\":4403:4416  address owner */\n      dup1\n        /* \"solidity_course_materials/TokenExchange/ERC20.sol\":4419:4429  msg.sender */\n      caller\n        /* \"solidity_course_materials/TokenExchange/ERC20.sol\":4403:4429  address owner = msg.sender */\n      swap1\n      pop\n        /* \"solidity_course_materials/TokenExchange/ERC20.sol\":4440:4471  _approve(owner, spender, value) */\n      tag_71\n        /* \"solidity_course_materials/TokenExchange/ERC20.sol\":4449:4454  owner */\n      dup2\n        /* \"solidity_course_materials/TokenExchange/ERC20.sol\":4456:4463  spender */\n      dup6\n        /* \"solidity_course_materials/TokenExchange/ERC20.sol\":4465:4470  value */\n      dup6\n        /* \"solidity_course_materials/TokenExchange/ERC20.sol\":4440:4448  _approve */\n      tag_72\n        /* \"solidity_course_materials/TokenExchange/ERC20.sol\":4440:4471  _approve(owner, spender, value) */\n      jump\t// in\n    tag_71:\n        /* \"solidity_course_materials/TokenExchange/ERC20.sol\":4489:4493  true */\n      0x01\n        /* \"solidity_course_materials/TokenExchange/ERC20.sol\":4482:4493  return true */\n      swap2\n      pop\n      pop\n        /* \"solidity_course_materials/TokenExchange/ERC20.sol\":4313:4501  function approve(address spender, uint256 value) public virtual returns (bool) {... */\n      swap3\n      swap2\n      pop\n      pop\n      jump\t// out\n        /* \"solidity_course_materials/TokenExchange/ERC20.sol\":3124:3223  function totalSupply() public view virtual returns (uint256) {... */\n    tag_26:\n        /* \"solidity_course_materials/TokenExchange/ERC20.sol\":3176:3183  uint256 */\n      0x00\n        /* \"solidity_course_materials/TokenExchange/ERC20.sol\":3203:3215  _totalSupply */\n      sload(0x02)\n        /* \"solidity_course_materials/TokenExchange/ERC20.sol\":3196:3215  return _totalSupply */\n      swap1\n      pop\n        /* \"solidity_course_materials/TokenExchange/ERC20.sol\":3124:3223  function totalSupply() public view virtual returns (uint256) {... */\n      swap1\n      jump\t// out\n        /* \"solidity_course_materials/TokenExchange/ERC20.sol\":5079:5326  function transferFrom(address from, address to, uint256 value) public virtual returns (bool) {... */\n    tag_32:\n        /* \"solidity_course_materials/TokenExchange/ERC20.sol\":5166:5170  bool */\n      0x00\n        /* \"solidity_course_materials/TokenExchange/ERC20.sol\":5183:5198  address spender */\n      dup1\n        /* \"solidity_course_materials/TokenExchange/ERC20.sol\":5201:5211  msg.sender */\n      caller\n        /* \"solidity_course_materials/TokenExchange/ERC20.sol\":5183:5211  address spender = msg.sender */\n      swap1\n      pop\n        /* \"solidity_course_materials/TokenExchange/ERC20.sol\":5222:5259  _spendAllowance(from, spender, value) */\n      tag_75\n        /* \"solidity_course_materials/TokenExchange/ERC20.sol\":5238:5242  from */\n      dup6\n        /* \"solidity_course_materials/TokenExchange/ERC20.sol\":5244:5251  spender */\n      dup3\n        /* \"solidity_course_materials/TokenExchange/ERC20.sol\":5253:5258  value */\n      dup6\n        /* \"solidity_course_materials/TokenExchange/ERC20.sol\":5222:5237  _spendAllowance */\n      tag_76\n        /* \"solidity_course_materials/TokenExchange/ERC20.sol\":5222:5259  _spendAllowance(from, spender, value) */\n      jump\t// in\n    tag_75:\n        /* \"solidity_course_materials/TokenExchange/ERC20.sol\":5270:5296  _transfer(from, to, value) */\n      tag_77\n        /* \"solidity_course_materials/TokenExchange/ERC20.sol\":5280:5284  from */\n      dup6\n        /* \"solidity_course_materials/TokenExchange/ERC20.sol\":5286:5288  to */\n      dup6\n        /* \"solidity_course_materials/TokenExchange/ERC20.sol\":5290:5295  value */\n      dup6\n        /* \"solidity_course_materials/TokenExchange/ERC20.sol\":5270:5279  _transfer */\n      tag_78\n        /* \"solidity_course_materials/TokenExchange/ERC20.sol\":5270:5296  _transfer(from, to, value) */\n      jump\t// in\n    tag_77:\n        /* \"solidity_course_materials/TokenExchange/ERC20.sol\":5314:5318  true */\n      0x01\n        /* \"solidity_course_materials/TokenExchange/ERC20.sol\":5307:5318  return true */\n      swap2\n      pop\n      pop\n        /* \"solidity_course_materials/TokenExchange/ERC20.sol\":5079:5326  function transferFrom(address from, address to, uint256 value) public virtual returns (bool) {... */\n      swap4\n      swap3\n      pop\n      pop\n      pop\n      jump\t// out\n        /* \"solidity_course_materials/TokenExchange/ERC20.sol\":2975:3059  function decimals() public view virtual returns (uint8) {... */\n    tag_35:\n        /* \"solidity_course_materials/TokenExchange/ERC20.sol\":3024:3029  uint8 */\n      0x00\n        /* \"solidity_course_materials/TokenExchange/ERC20.sol\":3049:3051  18 */\n      0x12\n        /* \"solidity_course_materials/TokenExchange/ERC20.sol\":3042:3051  return 18 */\n      swap1\n      pop\n        /* \"solidity_course_materials/TokenExchange/ERC20.sol\":2975:3059  function decimals() public view virtual returns (uint8) {... */\n      swap1\n      jump\t// out\n        /* \"solidity_course_materials/TokenExchange/ERC20.sol\":3286:3404  function balanceOf(address account) public view virtual returns (uint256) {... */\n    tag_41:\n        /* \"solidity_course_materials/TokenExchange/ERC20.sol\":3351:3358  uint256 */\n      0x00\n        /* \"solidity_course_materials/TokenExchange/ERC20.sol\":3378:3387  _balances */\n      dup1\n        /* \"solidity_course_materials/TokenExchange/ERC20.sol\":3378:3396  _balances[account] */\n      0x00\n        /* \"solidity_course_materials/TokenExchange/ERC20.sol\":3388:3395  account */\n      dup4\n        /* \"solidity_course_materials/TokenExchange/ERC20.sol\":3378:3396  _balances[account] */\n      0xffffffffffffffffffffffffffffffffffffffff\n      and\n      0xffffffffffffffffffffffffffffffffffffffff\n      and\n      dup2\n      mstore\n      0x20\n      add\n      swap1\n      dup2\n      mstore\n      0x20\n      add\n      0x00\n      keccak256\n      sload\n        /* \"solidity_course_materials/TokenExchange/ERC20.sol\":3371:3396  return _balances[account] */\n      swap1\n      pop\n        /* \"solidity_course_materials/TokenExchange/ERC20.sol\":3286:3404  function balanceOf(address account) public view virtual returns (uint256) {... */\n      swap2\n      swap1\n      pop\n      jump\t// out\n        /* \"solidity_course_materials/TokenExchange/TokenA.sol\":605:684  function owner() public view returns (address) {... */\n    tag_44:\n        /* \"solidity_course_materials/TokenExchange/TokenA.sol\":643:650  address */\n      0x00\n        /* \"solidity_course_materials/TokenExchange/TokenA.sol\":670:676  _owner */\n      0x05\n      0x00\n      swap1\n      sload\n      swap1\n      0x0100\n      exp\n      swap1\n      div\n      0xffffffffffffffffffffffffffffffffffffffff\n      and\n        /* \"solidity_course_materials/TokenExchange/TokenA.sol\":663:676  return _owner */\n      swap1\n      pop\n        /* \"solidity_course_materials/TokenExchange/TokenA.sol\":605:684  function owner() public view returns (address) {... */\n      swap1\n      jump\t// out\n        /* \"solidity_course_materials/TokenExchange/ERC20.sol\":2232:2327  function symbol() public view virtual returns (string memory) {... */\n    tag_48:\n        /* \"solidity_course_materials/TokenExchange/ERC20.sol\":2279:2292  string memory */\n      0x60\n        /* \"solidity_course_materials/TokenExchange/ERC20.sol\":2312:2319  _symbol */\n      0x04\n        /* \"solidity_course_materials/TokenExchange/ERC20.sol\":2305:2319  return _symbol */\n      dup1\n      sload\n      tag_83\n      swap1\n      tag_65\n      jump\t// in\n    tag_83:\n      dup1\n      0x1f\n      add\n      0x20\n      dup1\n      swap2\n      div\n      mul\n      0x20\n      add\n      mload(0x40)\n      swap1\n      dup2\n      add\n      0x40\n      mstore\n      dup1\n      swap3\n      swap2\n      swap1\n      dup2\n      dup2\n      mstore\n      0x20\n      add\n      dup3\n      dup1\n      sload\n      tag_84\n      swap1\n      tag_65\n      jump\t// in\n    tag_84:\n      dup1\n      iszero\n      tag_85\n      jumpi\n      dup1\n      0x1f\n      lt\n      tag_86\n      jumpi\n      0x0100\n      dup1\n      dup4\n      sload\n      div\n      mul\n      dup4\n      mstore\n      swap2\n      0x20\n      add\n      swap2\n      jump(tag_85)\n    tag_86:\n      dup3\n      add\n      swap2\n      swap1\n      0x00\n      mstore\n      keccak256(0x00, 0x20)\n      swap1\n    tag_87:\n      dup2\n      sload\n      dup2\n      mstore\n      swap1\n      0x01\n      add\n      swap1\n      0x20\n      add\n      dup1\n      dup4\n      gt\n      tag_87\n      jumpi\n      dup3\n      swap1\n      sub\n      0x1f\n      and\n      dup3\n      add\n      swap2\n    tag_85:\n      pop\n      pop\n      pop\n      pop\n      pop\n      swap1\n      pop\n        /* \"solidity_course_materials/TokenExchange/ERC20.sol\":2232:2327  function symbol() public view virtual returns (string memory) {... */\n      swap1\n      jump\t// out\n        /* \"solidity_course_materials/TokenExchange/TokenA.sol\":805:912  function mint(uint256 value) public onlyOwner{... */\n    tag_53:\n        /* \"solidity_course_materials/TokenExchange/TokenA.sol\":743:753  msg.sender */\n      caller\n        /* \"solidity_course_materials/TokenExchange/TokenA.sol\":733:753  _owner == msg.sender */\n      0xffffffffffffffffffffffffffffffffffffffff\n      and\n        /* \"solidity_course_materials/TokenExchange/TokenA.sol\":733:739  _owner */\n      0x05\n      0x00\n      swap1\n      sload\n      swap1\n      0x0100\n      exp\n      swap1\n      div\n      0xffffffffffffffffffffffffffffffffffffffff\n      and\n        /* \"solidity_course_materials/TokenExchange/TokenA.sol\":733:753  _owner == msg.sender */\n      0xffffffffffffffffffffffffffffffffffffffff\n      and\n      eq\n        /* \"solidity_course_materials/TokenExchange/TokenA.sol\":725:777  require(_owner == msg.sender, \"UnauthorizedAccount\") */\n      tag_89\n      jumpi\n      mload(0x40)\n      0x08c379a000000000000000000000000000000000000000000000000000000000\n      dup2\n      mstore\n      0x04\n      add\n      tag_90\n      swap1\n      tag_91\n      jump\t// in\n    tag_90:\n      mload(0x40)\n      dup1\n      swap2\n      sub\n      swap1\n      revert\n    tag_89:\n        /* \"solidity_course_materials/TokenExchange/TokenA.sol\":861:904  _mint(msg.sender, value * 10 ** decimals()) */\n      tag_93\n        /* \"solidity_course_materials/TokenExchange/TokenA.sol\":867:877  msg.sender */\n      caller\n        /* \"solidity_course_materials/TokenExchange/TokenA.sol\":893:903  decimals() */\n      tag_94\n        /* \"solidity_course_materials/TokenExchange/TokenA.sol\":893:901  decimals */\n      tag_35\n        /* \"solidity_course_materials/TokenExchange/TokenA.sol\":893:903  decimals() */\n      jump\t// in\n    tag_94:\n        /* \"solidity_course_materials/TokenExchange/TokenA.sol\":887:889  10 */\n      0x0a\n        /* \"solidity_course_materials/TokenExchange/TokenA.sol\":887:903  10 ** decimals() */\n      tag_95\n      swap2\n      swap1\n      tag_96\n      jump\t// in\n    tag_95:\n        /* \"solidity_course_materials/TokenExchange/TokenA.sol\":879:884  value */\n      dup4\n        /* \"solidity_course_materials/TokenExchange/TokenA.sol\":879:903  value * 10 ** decimals() */\n      tag_97\n      swap2\n      swap1\n      tag_98\n      jump\t// in\n    tag_97:\n        /* \"solidity_course_materials/TokenExchange/TokenA.sol\":861:866  _mint */\n      tag_99\n        /* \"solidity_course_materials/TokenExchange/TokenA.sol\":861:904  _mint(msg.sender, value * 10 ** decimals()) */\n      jump\t// in\n    tag_93:\n        /* \"solidity_course_materials/TokenExchange/TokenA.sol\":805:912  function mint(uint256 value) public onlyOwner{... */\n      pop\n      jump\t// out\n        /* \"solidity_course_materials/TokenExchange/ERC20.sol\":3609:3789  function transfer(address to, uint256 value) public virtual returns (bool) {... */\n    tag_56:\n        /* \"solidity_course_materials/TokenExchange/ERC20.sol\":3678:3682  bool */\n      0x00\n        /* \"solidity_course_materials/TokenExchange/ERC20.sol\":3695:3708  address owner */\n      dup1\n        /* \"solidity_course_materials/TokenExchange/ERC20.sol\":3711:3721  msg.sender */\n      caller\n        /* \"solidity_course_materials/TokenExchange/ERC20.sol\":3695:3721  address owner = msg.sender */\n      swap1\n      pop\n        /* \"solidity_course_materials/TokenExchange/ERC20.sol\":3732:3759  _transfer(owner, to, value) */\n      tag_101\n        /* \"solidity_course_materials/TokenExchange/ERC20.sol\":3742:3747  owner */\n      dup2\n        /* \"solidity_course_materials/TokenExchange/ERC20.sol\":3749:3751  to */\n      dup6\n        /* \"solidity_course_materials/TokenExchange/ERC20.sol\":3753:3758  value */\n      dup6\n        /* \"solidity_course_materials/TokenExchange/ERC20.sol\":3732:3741  _transfer */\n      tag_78\n        /* \"solidity_course_materials/TokenExchange/ERC20.sol\":3732:3759  _transfer(owner, to, value) */\n      jump\t// in\n    tag_101:\n        /* \"solidity_course_materials/TokenExchange/ERC20.sol\":3777:3781  true */\n      0x01\n        /* \"solidity_course_materials/TokenExchange/ERC20.sol\":3770:3781  return true */\n      swap2\n      pop\n      pop\n        /* \"solidity_course_materials/TokenExchange/ERC20.sol\":3609:3789  function transfer(address to, uint256 value) public virtual returns (bool) {... */\n      swap3\n      swap2\n      pop\n      pop\n      jump\t// out\n        /* \"solidity_course_materials/TokenExchange/ERC20.sol\":3852:3994  function allowance(address owner, address spender) public view virtual returns (uint256) {... */\n    tag_61:\n        /* \"solidity_course_materials/TokenExchange/ERC20.sol\":3932:3939  uint256 */\n      0x00\n        /* \"solidity_course_materials/TokenExchange/ERC20.sol\":3959:3970  _allowances */\n      0x01\n        /* \"solidity_course_materials/TokenExchange/ERC20.sol\":3959:3977  _allowances[owner] */\n      0x00\n        /* \"solidity_course_materials/TokenExchange/ERC20.sol\":3971:3976  owner */\n      dup5\n        /* \"solidity_course_materials/TokenExchange/ERC20.sol\":3959:3977  _allowances[owner] */\n      0xffffffffffffffffffffffffffffffffffffffff\n      and\n      0xffffffffffffffffffffffffffffffffffffffff\n      and\n      dup2\n      mstore\n      0x20\n      add\n      swap1\n      dup2\n      mstore\n      0x20\n      add\n      0x00\n      keccak256\n        /* \"solidity_course_materials/TokenExchange/ERC20.sol\":3959:3986  _allowances[owner][spender] */\n      0x00\n        /* \"solidity_course_materials/TokenExchange/ERC20.sol\":3978:3985  spender */\n      dup4\n        /* \"solidity_course_materials/TokenExchange/ERC20.sol\":3959:3986  _allowances[owner][spender] */\n      0xffffffffffffffffffffffffffffffffffffffff\n      and\n      0xffffffffffffffffffffffffffffffffffffffff\n      and\n      dup2\n      mstore\n      0x20\n      add\n      swap1\n      dup2\n      mstore\n      0x20\n      add\n      0x00\n      keccak256\n      sload\n        /* \"solidity_course_materials/TokenExchange/ERC20.sol\":3952:3986  return _allowances[owner][spender] */\n      swap1\n      pop\n        /* \"solidity_course_materials/TokenExchange/ERC20.sol\":3852:3994  function allowance(address owner, address spender) public view virtual returns (uint256) {... */\n      swap3\n      swap2\n      pop\n      pop\n      jump\t// out\n        /* \"solidity_course_materials/TokenExchange/ERC20.sol\":9050:9180  function _approve(address owner, address spender, uint256 value) internal {... */\n    tag_72:\n        /* \"solidity_course_materials/TokenExchange/ERC20.sol\":9135:9172  _approve(owner, spender, value, true) */\n      tag_104\n        /* \"solidity_course_materials/TokenExchange/ERC20.sol\":9144:9149  owner */\n      dup4\n        /* \"solidity_course_materials/TokenExchange/ERC20.sol\":9151:9158  spender */\n      dup4\n        /* \"solidity_course_materials/TokenExchange/ERC20.sol\":9160:9165  value */\n      dup4\n        /* \"solidity_course_materials/TokenExchange/ERC20.sol\":9167:9171  true */\n      0x01\n        /* \"solidity_course_materials/TokenExchange/ERC20.sol\":9135:9143  _approve */\n      tag_105\n        /* \"solidity_course_materials/TokenExchange/ERC20.sol\":9135:9172  _approve(owner, spender, value, true) */\n      jump\t// in\n    tag_104:\n        /* \"solidity_course_materials/TokenExchange/ERC20.sol\":9050:9180  function _approve(address owner, address spender, uint256 value) internal {... */\n      pop\n      pop\n      pop\n      jump\t// out\n        /* \"solidity_course_materials/TokenExchange/ERC20.sol\":10738:11189  function _spendAllowance(address owner, address spender, uint256 value) internal virtual {... */\n    tag_76:\n        /* \"solidity_course_materials/TokenExchange/ERC20.sol\":10838:10862  uint256 currentAllowance */\n      0x00\n        /* \"solidity_course_materials/TokenExchange/ERC20.sol\":10865:10890  allowance(owner, spender) */\n      tag_107\n        /* \"solidity_course_materials/TokenExchange/ERC20.sol\":10875:10880  owner */\n      dup5\n        /* \"solidity_course_materials/TokenExchange/ERC20.sol\":10882:10889  spender */\n      dup5\n        /* \"solidity_course_materials/TokenExchange/ERC20.sol\":10865:10874  allowance */\n      tag_61\n        /* \"solidity_course_materials/TokenExchange/ERC20.sol\":10865:10890  allowance(owner, spender) */\n      jump\t// in\n    tag_107:\n        /* \"solidity_course_materials/TokenExchange/ERC20.sol\":10838:10890  uint256 currentAllowance = allowance(owner, spender) */\n      swap1\n      pop\n        /* \"solidity_course_materials/TokenExchange/ERC20.sol\":10925:10942  type(uint256).max */\n      0xffffffffffffffffffffffffffffffffffffffffffffffffffffffffffffffff\n        /* \"solidity_course_materials/TokenExchange/ERC20.sol\":10905:10921  currentAllowance */\n      dup2\n        /* \"solidity_course_materials/TokenExchange/ERC20.sol\":10905:10942  currentAllowance != type(uint256).max */\n      eq\n        /* \"solidity_course_materials/TokenExchange/ERC20.sol\":10901:11182  if (currentAllowance != type(uint256).max) {... */\n      tag_108\n      jumpi\n        /* \"solidity_course_materials/TokenExchange/ERC20.sol\":10982:10987  value */\n      dup2\n        /* \"solidity_course_materials/TokenExchange/ERC20.sol\":10963:10979  currentAllowance */\n      dup2\n        /* \"solidity_course_materials/TokenExchange/ERC20.sol\":10963:10987  currentAllowance < value */\n      lt\n        /* \"solidity_course_materials/TokenExchange/ERC20.sol\":10959:11055  if (currentAllowance < value) {... */\n      iszero\n      tag_109\n      jumpi\n        /* \"solidity_course_materials/TokenExchange/ERC20.sol\":11008:11039  revert(\"InsufficientAllowance\") */\n      mload(0x40)\n      0x08c379a000000000000000000000000000000000000000000000000000000000\n      dup2\n      mstore\n      0x04\n      add\n      tag_110\n      swap1\n      tag_111\n      jump\t// in\n    tag_110:\n      mload(0x40)\n      dup1\n      swap2\n      sub\n      swap1\n      revert\n        /* \"solidity_course_materials/TokenExchange/ERC20.sol\":10959:11055  if (currentAllowance < value) {... */\n    tag_109:\n        /* \"solidity_course_materials/TokenExchange/ERC20.sol\":11098:11155  _approve(owner, spender, currentAllowance - value, false) */\n      tag_112\n        /* \"solidity_course_materials/TokenExchange/ERC20.sol\":11107:11112  owner */\n      dup5\n        /* \"solidity_course_materials/TokenExchange/ERC20.sol\":11114:11121  spender */\n      dup5\n        /* \"solidity_course_materials/TokenExchange/ERC20.sol\":11142:11147  value */\n      dup5\n        /* \"solidity_course_materials/TokenExchange/ERC20.sol\":11123:11139  currentAllowance */\n      dup5\n        /* \"solidity_course_materials/TokenExchange/ERC20.sol\":11123:11147  currentAllowance - value */\n      sub\n        /* \"solidity_course_materials/TokenExchange/ERC20.sol\":11149:11154  false */\n      0x00\n        /* \"solidity_course_materials/TokenExchange/ERC20.sol\":11098:11106  _approve */\n      tag_105\n        /* \"solidity_course_materials/TokenExchange/ERC20.sol\":11098:11155  _approve(owner, spender, currentAllowance - value, false) */\n      jump\t// in\n    tag_112:\n        /* \"solidity_course_materials/TokenExchange/ERC20.sol\":10901:11182  if (currentAllowance != type(uint256).max) {... */\n    tag_108:\n        /* \"solidity_course_materials/TokenExchange/ERC20.sol\":10827:11189  {... */\n      pop\n        /* \"solidity_course_materials/TokenExchange/ERC20.sol\":10738:11189  function _spendAllowance(address owner, address spender, uint256 value) internal virtual {... */\n      pop\n      pop\n      pop\n      jump\t// out\n        /* \"solidity_course_materials/TokenExchange/ERC20.sol\":5711:5989  function _transfer(address from, address to, uint256 value) internal {... */\n    tag_78:\n        /* \"solidity_course_materials/TokenExchange/ERC20.sol\":5811:5812  0 */\n      0x00\n        /* \"solidity_course_materials/TokenExchange/ERC20.sol\":5795:5813  from == address(0) */\n      0xffffffffffffffffffffffffffffffffffffffff\n      and\n        /* \"solidity_course_materials/TokenExchange/ERC20.sol\":5795:5799  from */\n      dup4\n        /* \"solidity_course_materials/TokenExchange/ERC20.sol\":5795:5813  from == address(0) */\n      0xffffffffffffffffffffffffffffffffffffffff\n      and\n      sub\n        /* \"solidity_course_materials/TokenExchange/ERC20.sol\":5791:5864  if (from == address(0)) {... */\n      tag_114\n      jumpi\n        /* \"solidity_course_materials/TokenExchange/ERC20.sol\":5830:5852  revert(\"wrong sender\") */\n      mload(0x40)\n      0x08c379a000000000000000000000000000000000000000000000000000000000\n      dup2\n      mstore\n      0x04\n      add\n      tag_115\n      swap1\n      tag_116\n      jump\t// in\n    tag_115:\n      mload(0x40)\n      dup1\n      swap2\n      sub\n      swap1\n      revert\n        /* \"solidity_course_materials/TokenExchange/ERC20.sol\":5791:5864  if (from == address(0)) {... */\n    tag_114:\n        /* \"solidity_course_materials/TokenExchange/ERC20.sol\":5892:5893  0 */\n      0x00\n        /* \"solidity_course_materials/TokenExchange/ERC20.sol\":5878:5894  to == address(0) */\n      0xffffffffffffffffffffffffffffffffffffffff\n      and\n        /* \"solidity_course_materials/TokenExchange/ERC20.sol\":5878:5880  to */\n      dup3\n        /* \"solidity_course_materials/TokenExchange/ERC20.sol\":5878:5894  to == address(0) */\n      0xffffffffffffffffffffffffffffffffffffffff\n      and\n      sub\n        /* \"solidity_course_materials/TokenExchange/ERC20.sol\":5874:5947  if (to == address(0)) {... */\n      tag_117\n      jumpi\n        /* \"solidity_course_materials/TokenExchange/ERC20.sol\":5911:5935  revert(\"wrong receiver\") */\n      mload(0x40)\n      0x08c379a000000000000000000000000000000000000000000000000000000000\n      dup2\n      mstore\n      0x04\n      add\n      tag_118\n      swap1\n      tag_119\n      jump\t// in\n    tag_118:\n      mload(0x40)\n      dup1\n      swap2\n      sub\n      swap1\n      revert\n        /* \"solidity_course_materials/TokenExchange/ERC20.sol\":5874:5947  if (to == address(0)) {... */\n    tag_117:\n        /* \"solidity_course_materials/TokenExchange/ERC20.sol\":5957:5981  _update(from, to, value) */\n      tag_120\n        /* \"solidity_course_materials/TokenExchange/ERC20.sol\":5965:5969  from */\n      dup4\n        /* \"solidity_course_materials/TokenExchange/ERC20.sol\":5971:5973  to */\n      dup4\n        /* \"solidity_course_materials/TokenExchange/ERC20.sol\":5975:5980  value */\n      dup4\n        /* \"solidity_course_materials/TokenExchange/ERC20.sol\":5957:5964  _update */\n      tag_121\n        /* \"solidity_course_materials/TokenExchange/ERC20.sol\":5957:5981  _update(from, to, value) */\n      jump\t// in\n    tag_120:\n        /* \"solidity_course_materials/TokenExchange/ERC20.sol\":5711:5989  function _transfer(address from, address to, uint256 value) internal {... */\n      pop\n      pop\n      pop\n      jump\t// out\n        /* \"solidity_course_materials/TokenExchange/ERC20.sol\":7773:7972  function _mint(address account, uint256 value) internal {... */\n    tag_99:\n        /* \"solidity_course_materials/TokenExchange/ERC20.sol\":7863:7864  0 */\n      0x00\n        /* \"solidity_course_materials/TokenExchange/ERC20.sol\":7844:7865  account == address(0) */\n      0xffffffffffffffffffffffffffffffffffffffff\n      and\n        /* \"solidity_course_materials/TokenExchange/ERC20.sol\":7844:7851  account */\n      dup3\n        /* \"solidity_course_materials/TokenExchange/ERC20.sol\":7844:7865  account == address(0) */\n      0xffffffffffffffffffffffffffffffffffffffff\n      and\n      sub\n        /* \"solidity_course_materials/TokenExchange/ERC20.sol\":7840:7919  if (account == address(0)) {... */\n      tag_123\n      jumpi\n        /* \"solidity_course_materials/TokenExchange/ERC20.sol\":7882:7907  revert(\"InvalidReceiver\") */\n      mload(0x40)\n      0x08c379a000000000000000000000000000000000000000000000000000000000\n      dup2\n      mstore\n      0x04\n      add\n      tag_124\n      swap1\n      tag_125\n      jump\t// in\n    tag_124:\n      mload(0x40)\n      dup1\n      swap2\n      sub\n      swap1\n      revert\n        /* \"solidity_course_materials/TokenExchange/ERC20.sol\":7840:7919  if (account == address(0)) {... */\n    tag_123:\n        /* \"solidity_course_materials/TokenExchange/ERC20.sol\":7929:7964  _update(address(0), account, value) */\n      tag_126\n        /* \"solidity_course_materials/TokenExchange/ERC20.sol\":7945:7946  0 */\n      0x00\n        /* \"solidity_course_materials/TokenExchange/ERC20.sol\":7949:7956  account */\n      dup4\n        /* \"solidity_course_materials/TokenExchange/ERC20.sol\":7958:7963  value */\n      dup4\n        /* \"solidity_course_materials/TokenExchange/ERC20.sol\":7929:7936  _update */\n      tag_121\n        /* \"solidity_course_materials/TokenExchange/ERC20.sol\":7929:7964  _update(address(0), account, value) */\n      jump\t// in\n    tag_126:\n        /* \"solidity_course_materials/TokenExchange/ERC20.sol\":7773:7972  function _mint(address account, uint256 value) internal {... */\n      pop\n      pop\n      jump\t// out\n        /* \"solidity_course_materials/TokenExchange/ERC20.sol\":10031:10446  function _approve(address owner, address spender, uint256 value, bool emitEvent) internal virtual {... */\n    tag_105:\n        /* \"solidity_course_materials/TokenExchange/ERC20.sol\":10161:10162  0 */\n      0x00\n        /* \"solidity_course_materials/TokenExchange/ERC20.sol\":10144:10163  owner == address(0) */\n      0xffffffffffffffffffffffffffffffffffffffff\n      and\n        /* \"solidity_course_materials/TokenExchange/ERC20.sol\":10144:10149  owner */\n      dup5\n        /* \"solidity_course_materials/TokenExchange/ERC20.sol\":10144:10163  owner == address(0) */\n      0xffffffffffffffffffffffffffffffffffffffff\n      and\n      sub\n        /* \"solidity_course_materials/TokenExchange/ERC20.sol\":10140:10217  if (owner == address(0)) {... */\n      tag_128\n      jumpi\n        /* \"solidity_course_materials/TokenExchange/ERC20.sol\":10180:10205  revert(\"InvalidApprover\") */\n      mload(0x40)\n      0x08c379a000000000000000000000000000000000000000000000000000000000\n      dup2\n      mstore\n      0x04\n      add\n      tag_129\n      swap1\n      tag_130\n      jump\t// in\n    tag_129:\n      mload(0x40)\n      dup1\n      swap2\n      sub\n      swap1\n      revert\n        /* \"solidity_course_materials/TokenExchange/ERC20.sol\":10140:10217  if (owner == address(0)) {... */\n    tag_128:\n        /* \"solidity_course_materials/TokenExchange/ERC20.sol\":10250:10251  0 */\n      0x00\n        /* \"solidity_course_materials/TokenExchange/ERC20.sol\":10231:10252  spender == address(0) */\n      0xffffffffffffffffffffffffffffffffffffffff\n      and\n        /* \"solidity_course_materials/TokenExchange/ERC20.sol\":10231:10238  spender */\n      dup4\n        /* \"solidity_course_materials/TokenExchange/ERC20.sol\":10231:10252  spender == address(0) */\n      0xffffffffffffffffffffffffffffffffffffffff\n      and\n      sub\n        /* \"solidity_course_materials/TokenExchange/ERC20.sol\":10227:10305  if (spender == address(0)) {... */\n      tag_131\n      jumpi\n        /* \"solidity_course_materials/TokenExchange/ERC20.sol\":10269:10293  revert(\"InvalidSpender\") */\n      mload(0x40)\n      0x08c379a000000000000000000000000000000000000000000000000000000000\n      dup2\n      mstore\n      0x04\n      add\n      tag_132\n      swap1\n      tag_133\n      jump\t// in\n    tag_132:\n      mload(0x40)\n      dup1\n      swap2\n      sub\n      swap1\n      revert\n        /* \"solidity_course_materials/TokenExchange/ERC20.sol\":10227:10305  if (spender == address(0)) {... */\n    tag_131:\n        /* \"solidity_course_materials/TokenExchange/ERC20.sol\":10345:10350  value */\n      dup2\n        /* \"solidity_course_materials/TokenExchange/ERC20.sol\":10315:10326  _allowances */\n      0x01\n        /* \"solidity_course_materials/TokenExchange/ERC20.sol\":10315:10333  _allowances[owner] */\n      0x00\n        /* \"solidity_course_materials/TokenExchange/ERC20.sol\":10327:10332  owner */\n      dup7\n        /* \"solidity_course_materials/TokenExchange/ERC20.sol\":10315:10333  _allowances[owner] */\n      0xffffffffffffffffffffffffffffffffffffffff\n      and\n      0xffffffffffffffffffffffffffffffffffffffff\n      and\n      dup2\n      mstore\n      0x20\n      add\n      swap1\n      dup2\n      mstore\n      0x20\n      add\n      0x00\n      keccak256\n        /* \"solidity_course_materials/TokenExchange/ERC20.sol\":10315:10342  _allowances[owner][spender] */\n      0x00\n        /* \"solidity_course_materials/TokenExchange/ERC20.sol\":10334:10341  spender */\n      dup6\n        /* \"solidity_course_materials/TokenExchange/ERC20.sol\":10315:10342  _allowances[owner][spender] */\n      0xffffffffffffffffffffffffffffffffffffffff\n      and\n      0xffffffffffffffffffffffffffffffffffffffff\n      and\n      dup2\n      mstore\n      0x20\n      add\n      swap1\n      dup2\n      mstore\n      0x20\n      add\n      0x00\n      keccak256\n        /* \"solidity_course_materials/TokenExchange/ERC20.sol\":10315:10350  _allowances[owner][spender] = value */\n      dup2\n      swap1\n      sstore\n      pop\n        /* \"solidity_course_materials/TokenExchange/ERC20.sol\":10365:10374  emitEvent */\n      dup1\n        /* \"solidity_course_materials/TokenExchange/ERC20.sol\":10361:10439  if (emitEvent) {... */\n      iszero\n      tag_134\n      jumpi\n        /* \"solidity_course_materials/TokenExchange/ERC20.sol\":10412:10419  spender */\n      dup3\n        /* \"solidity_course_materials/TokenExchange/ERC20.sol\":10396:10427  Approval(owner, spender, value) */\n      0xffffffffffffffffffffffffffffffffffffffff\n      and\n        /* \"solidity_course_materials/TokenExchange/ERC20.sol\":10405:10410  owner */\n      dup5\n        /* \"solidity_course_materials/TokenExchange/ERC20.sol\":10396:10427  Approval(owner, spender, value) */\n      0xffffffffffffffffffffffffffffffffffffffff\n      and\n      0x8c5be1e5ebec7d5bd14f71427d1e84f3dd0314c0f7b2291e5b200ac8c7c3b925\n        /* \"solidity_course_materials/TokenExchange/ERC20.sol\":10421:10426  value */\n      dup5\n        /* \"solidity_course_materials/TokenExchange/ERC20.sol\":10396:10427  Approval(owner, spender, value) */\n      mload(0x40)\n      tag_135\n      swap2\n      swap1\n      tag_28\n      jump\t// in\n    tag_135:\n      mload(0x40)\n      dup1\n      swap2\n      sub\n      swap1\n      log3\n        /* \"solidity_course_materials/TokenExchange/ERC20.sol\":10361:10439  if (emitEvent) {... */\n    tag_134:\n        /* \"solidity_course_materials/TokenExchange/ERC20.sol\":10031:10446  function _approve(address owner, address spender, uint256 value, bool emitEvent) internal virtual {... */\n      pop\n      pop\n      pop\n      pop\n      jump\t// out\n        /* \"solidity_course_materials/TokenExchange/ERC20.sol\":6313:7420  function _update(address from, address to, uint256 value) internal virtual {... */\n    tag_121:\n        /* \"solidity_course_materials/TokenExchange/ERC20.sol\":6419:6420  0 */\n      0x00\n        /* \"solidity_course_materials/TokenExchange/ERC20.sol\":6403:6421  from == address(0) */\n      0xffffffffffffffffffffffffffffffffffffffff\n      and\n        /* \"solidity_course_materials/TokenExchange/ERC20.sol\":6403:6407  from */\n      dup4\n        /* \"solidity_course_materials/TokenExchange/ERC20.sol\":6403:6421  from == address(0) */\n      0xffffffffffffffffffffffffffffffffffffffff\n      and\n      sub\n        /* \"solidity_course_materials/TokenExchange/ERC20.sol\":6399:6923  if (from == address(0)) {... */\n      tag_137\n      jumpi\n        /* \"solidity_course_materials/TokenExchange/ERC20.sol\":6557:6562  value */\n      dup1\n        /* \"solidity_course_materials/TokenExchange/ERC20.sol\":6541:6553  _totalSupply */\n      0x02\n      0x00\n        /* \"solidity_course_materials/TokenExchange/ERC20.sol\":6541:6562  _totalSupply += value */\n      dup3\n      dup3\n      sload\n      tag_138\n      swap2\n      swap1\n      tag_139\n      jump\t// in\n    tag_138:\n      swap3\n      pop\n      pop\n      dup2\n      swap1\n      sstore\n      pop\n        /* \"solidity_course_materials/TokenExchange/ERC20.sol\":6399:6923  if (from == address(0)) {... */\n      jump(tag_140)\n    tag_137:\n        /* \"solidity_course_materials/TokenExchange/ERC20.sol\":6595:6614  uint256 fromBalance */\n      0x00\n        /* \"solidity_course_materials/TokenExchange/ERC20.sol\":6617:6626  _balances */\n      dup1\n        /* \"solidity_course_materials/TokenExchange/ERC20.sol\":6617:6632  _balances[from] */\n      0x00\n        /* \"solidity_course_materials/TokenExchange/ERC20.sol\":6627:6631  from */\n      dup6\n        /* \"solidity_course_materials/TokenExchange/ERC20.sol\":6617:6632  _balances[from] */\n      0xffffffffffffffffffffffffffffffffffffffff\n      and\n      0xffffffffffffffffffffffffffffffffffffffff\n      and\n      dup2\n      mstore\n      0x20\n      add\n      swap1\n      dup2\n      mstore\n      0x20\n      add\n      0x00\n      keccak256\n      sload\n        /* \"solidity_course_materials/TokenExchange/ERC20.sol\":6595:6632  uint256 fromBalance = _balances[from] */\n      swap1\n      pop\n        /* \"solidity_course_materials/TokenExchange/ERC20.sol\":6665:6670  value */\n      dup2\n        /* \"solidity_course_materials/TokenExchange/ERC20.sol\":6651:6662  fromBalance */\n      dup2\n        /* \"solidity_course_materials/TokenExchange/ERC20.sol\":6651:6670  fromBalance < value */\n      lt\n        /* \"solidity_course_materials/TokenExchange/ERC20.sol\":6647:6736  if (fromBalance < value) {... */\n      iszero\n      tag_141\n      jumpi\n        /* \"solidity_course_materials/TokenExchange/ERC20.sol\":6691:6720  revert(\"insuficient balance\") */\n      mload(0x40)\n      0x08c379a000000000000000000000000000000000000000000000000000000000\n      dup2\n      mstore\n      0x04\n      add\n      tag_142\n      swap1\n      tag_143\n      jump\t// in\n    tag_142:\n      mload(0x40)\n      dup1\n      swap2\n      sub\n      swap1\n      revert\n        /* \"solidity_course_materials/TokenExchange/ERC20.sol\":6647:6736  if (fromBalance < value) {... */\n    tag_141:\n        /* \"solidity_course_materials/TokenExchange/ERC20.sol\":6891:6896  value */\n      dup2\n        /* \"solidity_course_materials/TokenExchange/ERC20.sol\":6877:6888  fromBalance */\n      dup2\n        /* \"solidity_course_materials/TokenExchange/ERC20.sol\":6877:6896  fromBalance - value */\n      sub\n        /* \"solidity_course_materials/TokenExchange/ERC20.sol\":6859:6868  _balances */\n      0x00\n        /* \"solidity_course_materials/TokenExchange/ERC20.sol\":6859:6874  _balances[from] */\n      dup1\n        /* \"solidity_course_materials/TokenExchange/ERC20.sol\":6869:6873  from */\n      dup7\n        /* \"solidity_course_materials/TokenExchange/ERC20.sol\":6859:6874  _balances[from] */\n      0xffffffffffffffffffffffffffffffffffffffff\n      and\n      0xffffffffffffffffffffffffffffffffffffffff\n      and\n      dup2\n      mstore\n      0x20\n      add\n      swap1\n      dup2\n      mstore\n      0x20\n      add\n      0x00\n      keccak256\n        /* \"solidity_course_materials/TokenExchange/ERC20.sol\":6859:6896  _balances[from] = fromBalance - value */\n      dup2\n      swap1\n      sstore\n      pop\n        /* \"solidity_course_materials/TokenExchange/ERC20.sol\":6580:6923  {... */\n      pop\n        /* \"solidity_course_materials/TokenExchange/ERC20.sol\":6399:6923  if (from == address(0)) {... */\n    tag_140:\n        /* \"solidity_course_materials/TokenExchange/ERC20.sol\":6953:6954  0 */\n      0x00\n        /* \"solidity_course_materials/TokenExchange/ERC20.sol\":6939:6955  to == address(0) */\n      0xffffffffffffffffffffffffffffffffffffffff\n      and\n        /* \"solidity_course_materials/TokenExchange/ERC20.sol\":6939:6941  to */\n      dup3\n        /* \"solidity_course_materials/TokenExchange/ERC20.sol\":6939:6955  to == address(0) */\n      0xffffffffffffffffffffffffffffffffffffffff\n      and\n      sub\n        /* \"solidity_course_materials/TokenExchange/ERC20.sol\":6935:7370  if (to == address(0)) {... */\n      tag_144\n      jumpi\n        /* \"solidity_course_materials/TokenExchange/ERC20.sol\":7121:7126  value */\n      dup1\n        /* \"solidity_course_materials/TokenExchange/ERC20.sol\":7105:7117  _totalSupply */\n      0x02\n      0x00\n        /* \"solidity_course_materials/TokenExchange/ERC20.sol\":7105:7126  _totalSupply -= value */\n      dup3\n      dup3\n      sload\n      sub\n      swap3\n      pop\n      pop\n      dup2\n      swap1\n      sstore\n      pop\n        /* \"solidity_course_materials/TokenExchange/ERC20.sol\":6935:7370  if (to == address(0)) {... */\n      jump(tag_145)\n    tag_144:\n        /* \"solidity_course_materials/TokenExchange/ERC20.sol\":7338:7343  value */\n      dup1\n        /* \"solidity_course_materials/TokenExchange/ERC20.sol\":7321:7330  _balances */\n      0x00\n        /* \"solidity_course_materials/TokenExchange/ERC20.sol\":7321:7334  _balances[to] */\n      dup1\n        /* \"solidity_course_materials/TokenExchange/ERC20.sol\":7331:7333  to */\n      dup5\n        /* \"solidity_course_materials/TokenExchange/ERC20.sol\":7321:7334  _balances[to] */\n      0xffffffffffffffffffffffffffffffffffffffff\n      and\n      0xffffffffffffffffffffffffffffffffffffffff\n      and\n      dup2\n      mstore\n      0x20\n      add\n      swap1\n      dup2\n      mstore\n      0x20\n      add\n      0x00\n      keccak256\n      0x00\n        /* \"solidity_course_materials/TokenExchange/ERC20.sol\":7321:7343  _balances[to] += value */\n      dup3\n      dup3\n      sload\n      add\n      swap3\n      pop\n      pop\n      dup2\n      swap1\n      sstore\n      pop\n        /* \"solidity_course_materials/TokenExchange/ERC20.sol\":6935:7370  if (to == address(0)) {... */\n    tag_145:\n        /* \"solidity_course_materials/TokenExchange/ERC20.sol\":7402:7404  to */\n      dup2\n        /* \"solidity_course_materials/TokenExchange/ERC20.sol\":7387:7412  Transfer(from, to, value) */\n      0xffffffffffffffffffffffffffffffffffffffff\n      and\n        /* \"solidity_course_materials/TokenExchange/ERC20.sol\":7396:7400  from */\n      dup4\n        /* \"solidity_course_materials/TokenExchange/ERC20.sol\":7387:7412  Transfer(from, to, value) */\n      0xffffffffffffffffffffffffffffffffffffffff\n      and\n      0xddf252ad1be2c89b69c2b068fc378daa952ba7f163c4a11628f55a4df523b3ef\n        /* \"solidity_course_materials/TokenExchange/ERC20.sol\":7406:7411  value */\n      dup4\n        /* \"solidity_course_materials/TokenExchange/ERC20.sol\":7387:7412  Transfer(from, to, value) */\n      mload(0x40)\n      tag_146\n      swap2\n      swap1\n      tag_28\n      jump\t// in\n    tag_146:\n      mload(0x40)\n      dup1\n      swap2\n      sub\n      swap1\n      log3\n        /* \"solidity_course_materials/TokenExchange/ERC20.sol\":6313:7420  function _update(address from, address to, uint256 value) internal virtual {... */\n      pop\n      pop\n      pop\n      jump\t// out\n        /* \"#utility.yul\":7:106   */\n    tag_147:\n        /* \"#utility.yul\":59:65   */\n      0x00\n        /* \"#utility.yul\":93:98   */\n      dup2\n        /* \"#utility.yul\":87:99   */\n      mload\n        /* \"#utility.yul\":77:99   */\n      swap1\n      pop\n        /* \"#utility.yul\":7:106   */\n      swap2\n      swap1\n      pop\n      jump\t// out\n        /* \"#utility.yul\":112:281   */\n    tag_148:\n        /* \"#utility.yul\":196:207   */\n      0x00\n        /* \"#utility.yul\":230:236   */\n      dup3\n        /* \"#utility.yul\":225:228   */\n      dup3\n        /* \"#utility.yul\":218:237   */\n      mstore\n        /* \"#utility.yul\":270:274   */\n      0x20\n        /* \"#utility.yul\":265:268   */\n      dup3\n        /* \"#utility.yul\":261:275   */\n      add\n        /* \"#utility.yul\":246:275   */\n      swap1\n      pop\n        /* \"#utility.yul\":112:281   */\n      swap3\n      swap2\n      pop\n      pop\n      jump\t// out\n        /* \"#utility.yul\":287:533   */\n    tag_149:\n        /* \"#utility.yul\":368:369   */\n      0x00\n        /* \"#utility.yul\":378:491   */\n    tag_193:\n        /* \"#utility.yul\":392:398   */\n      dup4\n        /* \"#utility.yul\":389:390   */\n      dup2\n        /* \"#utility.yul\":386:399   */\n      lt\n        /* \"#utility.yul\":378:491   */\n      iszero\n      tag_195\n      jumpi\n        /* \"#utility.yul\":477:478   */\n      dup1\n        /* \"#utility.yul\":472:475   */\n      dup3\n        /* \"#utility.yul\":468:479   */\n      add\n        /* \"#utility.yul\":462:480   */\n      mload\n        /* \"#utility.yul\":458:459   */\n      dup2\n        /* \"#utility.yul\":453:456   */\n      dup5\n        /* \"#utility.yul\":449:460   */\n      add\n        /* \"#utility.yul\":442:481   */\n      mstore\n        /* \"#utility.yul\":414:416   */\n      0x20\n        /* \"#utility.yul\":411:412   */\n      dup2\n        /* \"#utility.yul\":407:417   */\n      add\n        /* \"#utility.yul\":402:417   */\n      swap1\n      pop\n        /* \"#utility.yul\":378:491   */\n      jump(tag_193)\n    tag_195:\n        /* \"#utility.yul\":525:526   */\n      0x00\n        /* \"#utility.yul\":516:522   */\n      dup5\n        /* \"#utility.yul\":511:514   */\n      dup5\n        /* \"#utility.yul\":507:523   */\n      add\n        /* \"#utility.yul\":500:527   */\n      mstore\n        /* \"#utility.yul\":349:533   */\n      pop\n        /* \"#utility.yul\":287:533   */\n      pop\n      pop\n      pop\n      jump\t// out\n        /* \"#utility.yul\":539:641   */\n    tag_150:\n        /* \"#utility.yul\":580:586   */\n      0x00\n        /* \"#utility.yul\":631:633   */\n      0x1f\n        /* \"#utility.yul\":627:634   */\n      not\n        /* \"#utility.yul\":622:624   */\n      0x1f\n        /* \"#utility.yul\":615:620   */\n      dup4\n        /* \"#utility.yul\":611:625   */\n      add\n        /* \"#utility.yul\":607:635   */\n      and\n        /* \"#utility.yul\":597:635   */\n      swap1\n      pop\n        /* \"#utility.yul\":539:641   */\n      swap2\n      swap1\n      pop\n      jump\t// out\n        /* \"#utility.yul\":647:1024   */\n    tag_151:\n        /* \"#utility.yul\":735:738   */\n      0x00\n        /* \"#utility.yul\":763:802   */\n      tag_198\n        /* \"#utility.yul\":796:801   */\n      dup3\n        /* \"#utility.yul\":763:802   */\n      tag_147\n      jump\t// in\n    tag_198:\n        /* \"#utility.yul\":818:889   */\n      tag_199\n        /* \"#utility.yul\":882:888   */\n      dup2\n        /* \"#utility.yul\":877:880   */\n      dup6\n        /* \"#utility.yul\":818:889   */\n      tag_148\n      jump\t// in\n    tag_199:\n        /* \"#utility.yul\":811:889   */\n      swap4\n      pop\n        /* \"#utility.yul\":898:963   */\n      tag_200\n        /* \"#utility.yul\":956:962   */\n      dup2\n        /* \"#utility.yul\":951:954   */\n      dup6\n        /* \"#utility.yul\":944:948   */\n      0x20\n        /* \"#utility.yul\":937:942   */\n      dup7\n        /* \"#utility.yul\":933:949   */\n      add\n        /* \"#utility.yul\":898:963   */\n      tag_149\n      jump\t// in\n    tag_200:\n        /* \"#utility.yul\":988:1017   */\n      tag_201\n        /* \"#utility.yul\":1010:1016   */\n      dup2\n        /* \"#utility.yul\":988:1017   */\n      tag_150\n      jump\t// in\n    tag_201:\n        /* \"#utility.yul\":983:986   */\n      dup5\n        /* \"#utility.yul\":979:1018   */\n      add\n        /* \"#utility.yul\":972:1018   */\n      swap2\n      pop\n        /* \"#utility.yul\":739:1024   */\n      pop\n        /* \"#utility.yul\":647:1024   */\n      swap3\n      swap2\n      pop\n      pop\n      jump\t// out\n        /* \"#utility.yul\":1030:1343   */\n    tag_18:\n        /* \"#utility.yul\":1143:1147   */\n      0x00\n        /* \"#utility.yul\":1181:1183   */\n      0x20\n        /* \"#utility.yul\":1170:1179   */\n      dup3\n        /* \"#utility.yul\":1166:1184   */\n      add\n        /* \"#utility.yul\":1158:1184   */\n      swap1\n      pop\n        /* \"#utility.yul\":1230:1239   */\n      dup2\n        /* \"#utility.yul\":1224:1228   */\n      dup2\n        /* \"#utility.yul\":1220:1240   */\n      sub\n        /* \"#utility.yul\":1216:1217   */\n      0x00\n        /* \"#utility.yul\":1205:1214   */\n      dup4\n        /* \"#utility.yul\":1201:1218   */\n      add\n        /* \"#utility.yul\":1194:1241   */\n      mstore\n        /* \"#utility.yul\":1258:1336   */\n      tag_203\n        /* \"#utility.yul\":1331:1335   */\n      dup2\n        /* \"#utility.yul\":1322:1328   */\n      dup5\n        /* \"#utility.yul\":1258:1336   */\n      tag_151\n      jump\t// in\n    tag_203:\n        /* \"#utility.yul\":1250:1336   */\n      swap1\n      pop\n        /* \"#utility.yul\":1030:1343   */\n      swap3\n      swap2\n      pop\n      pop\n      jump\t// out\n        /* \"#utility.yul\":1430:1547   */\n    tag_153:\n        /* \"#utility.yul\":1539:1540   */\n      0x00\n        /* \"#utility.yul\":1536:1537   */\n      dup1\n        /* \"#utility.yul\":1529:1541   */\n      revert\n        /* \"#utility.yul\":1676:1802   */\n    tag_155:\n        /* \"#utility.yul\":1713:1720   */\n      0x00\n        /* \"#utility.yul\":1753:1795   */\n      0xffffffffffffffffffffffffffffffffffffffff\n        /* \"#utility.yul\":1746:1751   */\n      dup3\n        /* \"#utility.yul\":1742:1796   */\n      and\n        /* \"#utility.yul\":1731:1796   */\n      swap1\n      pop\n        /* \"#utility.yul\":1676:1802   */\n      swap2\n      swap1\n      pop\n      jump\t// out\n        /* \"#utility.yul\":1808:1904   */\n    tag_156:\n        /* \"#utility.yul\":1845:1852   */\n      0x00\n        /* \"#utility.yul\":1874:1898   */\n      tag_209\n        /* \"#utility.yul\":1892:1897   */\n      dup3\n        /* \"#utility.yul\":1874:1898   */\n      tag_155\n      jump\t// in\n    tag_209:\n        /* \"#utility.yul\":1863:1898   */\n      swap1\n      pop\n        /* \"#utility.yul\":1808:1904   */\n      swap2\n      swap1\n      pop\n      jump\t// out\n        /* \"#utility.yul\":1910:2032   */\n    tag_157:\n        /* \"#utility.yul\":1983:2007   */\n      tag_211\n        /* \"#utility.yul\":2001:2006   */\n      dup2\n        /* \"#utility.yul\":1983:2007   */\n      tag_156\n      jump\t// in\n    tag_211:\n        /* \"#utility.yul\":1976:1981   */\n      dup2\n        /* \"#utility.yul\":1973:2008   */\n      eq\n        /* \"#utility.yul\":1963:2026   */\n      tag_212\n      jumpi\n        /* \"#utility.yul\":2022:2023   */\n      0x00\n        /* \"#utility.yul\":2019:2020   */\n      dup1\n        /* \"#utility.yul\":2012:2024   */\n      revert\n        /* \"#utility.yul\":1963:2026   */\n    tag_212:\n        /* \"#utility.yul\":1910:2032   */\n      pop\n      jump\t// out\n        /* \"#utility.yul\":2038:2177   */\n    tag_158:\n        /* \"#utility.yul\":2084:2089   */\n      0x00\n        /* \"#utility.yul\":2122:2128   */\n      dup2\n        /* \"#utility.yul\":2109:2129   */\n      calldataload\n        /* \"#utility.yul\":2100:2129   */\n      swap1\n      pop\n        /* \"#utility.yul\":2138:2171   */\n      tag_214\n        /* \"#utility.yul\":2165:2170   */\n      dup2\n        /* \"#utility.yul\":2138:2171   */\n      tag_157\n      jump\t// in\n    tag_214:\n        /* \"#utility.yul\":2038:2177   */\n      swap3\n      swap2\n      pop\n      pop\n      jump\t// out\n        /* \"#utility.yul\":2183:2260   */\n    tag_159:\n        /* \"#utility.yul\":2220:2227   */\n      0x00\n        /* \"#utility.yul\":2249:2254   */\n      dup2\n        /* \"#utility.yul\":2238:2254   */\n      swap1\n      pop\n        /* \"#utility.yul\":2183:2260   */\n      swap2\n      swap1\n      pop\n      jump\t// out\n        /* \"#utility.yul\":2266:2388   */\n    tag_160:\n        /* \"#utility.yul\":2339:2363   */\n      tag_217\n        /* \"#utility.yul\":2357:2362   */\n      dup2\n        /* \"#utility.yul\":2339:2363   */\n      tag_159\n      jump\t// in\n    tag_217:\n        /* \"#utility.yul\":2332:2337   */\n      dup2\n        /* \"#utility.yul\":2329:2364   */\n      eq\n        /* \"#utility.yul\":2319:2382   */\n      tag_218\n      jumpi\n        /* \"#utility.yul\":2378:2379   */\n      0x00\n        /* \"#utility.yul\":2375:2376   */\n      dup1\n        /* \"#utility.yul\":2368:2380   */\n      revert\n        /* \"#utility.yul\":2319:2382   */\n    tag_218:\n        /* \"#utility.yul\":2266:2388   */\n      pop\n      jump\t// out\n        /* \"#utility.yul\":2394:2533   */\n    tag_161:\n        /* \"#utility.yul\":2440:2445   */\n      0x00\n        /* \"#utility.yul\":2478:2484   */\n      dup2\n        /* \"#utility.yul\":2465:2485   */\n      calldataload\n        /* \"#utility.yul\":2456:2485   */\n      swap1\n      pop\n        /* \"#utility.yul\":2494:2527   */\n      tag_220\n        /* \"#utility.yul\":2521:2526   */\n      dup2\n        /* \"#utility.yul\":2494:2527   */\n      tag_160\n      jump\t// in\n    tag_220:\n        /* \"#utility.yul\":2394:2533   */\n      swap3\n      swap2\n      pop\n      pop\n      jump\t// out\n        /* \"#utility.yul\":2539:3013   */\n    tag_21:\n        /* \"#utility.yul\":2607:2613   */\n      0x00\n        /* \"#utility.yul\":2615:2621   */\n      dup1\n        /* \"#utility.yul\":2664:2666   */\n      0x40\n        /* \"#utility.yul\":2652:2661   */\n      dup4\n        /* \"#utility.yul\":2643:2650   */\n      dup6\n        /* \"#utility.yul\":2639:2662   */\n      sub\n        /* \"#utility.yul\":2635:2667   */\n      slt\n        /* \"#utility.yul\":2632:2751   */\n      iszero\n      tag_222\n      jumpi\n        /* \"#utility.yul\":2670:2749   */\n      tag_223\n      tag_153\n      jump\t// in\n    tag_223:\n        /* \"#utility.yul\":2632:2751   */\n    tag_222:\n        /* \"#utility.yul\":2790:2791   */\n      0x00\n        /* \"#utility.yul\":2815:2868   */\n      tag_224\n        /* \"#utility.yul\":2860:2867   */\n      dup6\n        /* \"#utility.yul\":2851:2857   */\n      dup3\n        /* \"#utility.yul\":2840:2849   */\n      dup7\n        /* \"#utility.yul\":2836:2858   */\n      add\n        /* \"#utility.yul\":2815:2868   */\n      tag_158\n      jump\t// in\n    tag_224:\n        /* \"#utility.yul\":2805:2868   */\n      swap3\n      pop\n        /* \"#utility.yul\":2761:2878   */\n      pop\n        /* \"#utility.yul\":2917:2919   */\n      0x20\n        /* \"#utility.yul\":2943:2996   */\n      tag_225\n        /* \"#utility.yul\":2988:2995   */\n      dup6\n        /* \"#utility.yul\":2979:2985   */\n      dup3\n        /* \"#utility.yul\":2968:2977   */\n      dup7\n        /* \"#utility.yul\":2964:2986   */\n      add\n        /* \"#utility.yul\":2943:2996   */\n      tag_161\n      jump\t// in\n    tag_225:\n        /* \"#utility.yul\":2933:2996   */\n      swap2\n      pop\n        /* \"#utility.yul\":2888:3006   */\n      pop\n        /* \"#utility.yul\":2539:3013   */\n      swap3\n      pop\n      swap3\n      swap1\n      pop\n      jump\t// out\n        /* \"#utility.yul\":3019:3109   */\n    tag_162:\n        /* \"#utility.yul\":3053:3060   */\n      0x00\n        /* \"#utility.yul\":3096:3101   */\n      dup2\n        /* \"#utility.yul\":3089:3102   */\n      iszero\n        /* \"#utility.yul\":3082:3103   */\n      iszero\n        /* \"#utility.yul\":3071:3103   */\n      swap1\n      pop\n        /* \"#utility.yul\":3019:3109   */\n      swap2\n      swap1\n      pop\n      jump\t// out\n        /* \"#utility.yul\":3115:3224   */\n    tag_163:\n        /* \"#utility.yul\":3196:3217   */\n      tag_228\n        /* \"#utility.yul\":3211:3216   */\n      dup2\n        /* \"#utility.yul\":3196:3217   */\n      tag_162\n      jump\t// in\n    tag_228:\n        /* \"#utility.yul\":3191:3194   */\n      dup3\n        /* \"#utility.yul\":3184:3218   */\n      mstore\n        /* \"#utility.yul\":3115:3224   */\n      pop\n      pop\n      jump\t// out\n        /* \"#utility.yul\":3230:3440   */\n    tag_24:\n        /* \"#utility.yul\":3317:3321   */\n      0x00\n        /* \"#utility.yul\":3355:3357   */\n      0x20\n        /* \"#utility.yul\":3344:3353   */\n      dup3\n        /* \"#utility.yul\":3340:3358   */\n      add\n        /* \"#utility.yul\":3332:3358   */\n      swap1\n      pop\n        /* \"#utility.yul\":3368:3433   */\n      tag_230\n        /* \"#utility.yul\":3430:3431   */\n      0x00\n        /* \"#utility.yul\":3419:3428   */\n      dup4\n        /* \"#utility.yul\":3415:3432   */\n      add\n        /* \"#utility.yul\":3406:3412   */\n      dup5\n        /* \"#utility.yul\":3368:3433   */\n      tag_163\n      jump\t// in\n    tag_230:\n        /* \"#utility.yul\":3230:3440   */\n      swap3\n      swap2\n      pop\n      pop\n      jump\t// out\n        /* \"#utility.yul\":3446:3564   */\n    tag_164:\n        /* \"#utility.yul\":3533:3557   */\n      tag_232\n        /* \"#utility.yul\":3551:3556   */\n      dup2\n        /* \"#utility.yul\":3533:3557   */\n      tag_159\n      jump\t// in\n    tag_232:\n        /* \"#utility.yul\":3528:3531   */\n      dup3\n        /* \"#utility.yul\":3521:3558   */\n      mstore\n        /* \"#utility.yul\":3446:3564   */\n      pop\n      pop\n      jump\t// out\n        /* \"#utility.yul\":3570:3792   */\n    tag_28:\n        /* \"#utility.yul\":3663:3667   */\n      0x00\n        /* \"#utility.yul\":3701:3703   */\n      0x20\n        /* \"#utility.yul\":3690:3699   */\n      dup3\n        /* \"#utility.yul\":3686:3704   */\n      add\n        /* \"#utility.yul\":3678:3704   */\n      swap1\n      pop\n        /* \"#utility.yul\":3714:3785   */\n      tag_234\n        /* \"#utility.yul\":3782:3783   */\n      0x00\n        /* \"#utility.yul\":3771:3780   */\n      dup4\n        /* \"#utility.yul\":3767:3784   */\n      add\n        /* \"#utility.yul\":3758:3764   */\n      dup5\n        /* \"#utility.yul\":3714:3785   */\n      tag_164\n      jump\t// in\n    tag_234:\n        /* \"#utility.yul\":3570:3792   */\n      swap3\n      swap2\n      pop\n      pop\n      jump\t// out\n        /* \"#utility.yul\":3798:4417   */\n    tag_31:\n        /* \"#utility.yul\":3875:3881   */\n      0x00\n        /* \"#utility.yul\":3883:3889   */\n      dup1\n        /* \"#utility.yul\":3891:3897   */\n      0x00\n        /* \"#utility.yul\":3940:3942   */\n      0x60\n        /* \"#utility.yul\":3928:3937   */\n      dup5\n        /* \"#utility.yul\":3919:3926   */\n      dup7\n        /* \"#utility.yul\":3915:3938   */\n      sub\n        /* \"#utility.yul\":3911:3943   */\n      slt\n        /* \"#utility.yul\":3908:4027   */\n      iszero\n      tag_236\n      jumpi\n        /* \"#utility.yul\":3946:4025   */\n      tag_237\n      tag_153\n      jump\t// in\n    tag_237:\n        /* \"#utility.yul\":3908:4027   */\n    tag_236:\n        /* \"#utility.yul\":4066:4067   */\n      0x00\n        /* \"#utility.yul\":4091:4144   */\n      tag_238\n        /* \"#utility.yul\":4136:4143   */\n      dup7\n        /* \"#utility.yul\":4127:4133   */\n      dup3\n        /* \"#utility.yul\":4116:4125   */\n      dup8\n        /* \"#utility.yul\":4112:4134   */\n      add\n        /* \"#utility.yul\":4091:4144   */\n      tag_158\n      jump\t// in\n    tag_238:\n        /* \"#utility.yul\":4081:4144   */\n      swap4\n      pop\n        /* \"#utility.yul\":4037:4154   */\n      pop\n        /* \"#utility.yul\":4193:4195   */\n      0x20\n        /* \"#utility.yul\":4219:4272   */\n      tag_239\n        /* \"#utility.yul\":4264:4271   */\n      dup7\n        /* \"#utility.yul\":4255:4261   */\n      dup3\n        /* \"#utility.yul\":4244:4253   */\n      dup8\n        /* \"#utility.yul\":4240:4262   */\n      add\n        /* \"#utility.yul\":4219:4272   */\n      tag_158\n      jump\t// in\n    tag_239:\n        /* \"#utility.yul\":4209:4272   */\n      swap3\n      pop\n        /* \"#utility.yul\":4164:4282   */\n      pop\n        /* \"#utility.yul\":4321:4323   */\n      0x40\n        /* \"#utility.yul\":4347:4400   */\n      tag_240\n        /* \"#utility.yul\":4392:4399   */\n      dup7\n        /* \"#utility.yul\":4383:4389   */\n      dup3\n        /* \"#utility.yul\":4372:4381   */\n      dup8\n        /* \"#utility.yul\":4368:4390   */\n      add\n        /* \"#utility.yul\":4347:4400   */\n      tag_161\n      jump\t// in\n    tag_240:\n        /* \"#utility.yul\":4337:4400   */\n      swap2\n      pop\n        /* \"#utility.yul\":4292:4410   */\n      pop\n        /* \"#utility.yul\":3798:4417   */\n      swap3\n      pop\n      swap3\n      pop\n      swap3\n      jump\t// out\n        /* \"#utility.yul\":4423:4509   */\n    tag_165:\n        /* \"#utility.yul\":4458:4465   */\n      0x00\n        /* \"#utility.yul\":4498:4502   */\n      0xff\n        /* \"#utility.yul\":4491:4496   */\n      dup3\n        /* \"#utility.yul\":4487:4503   */\n      and\n        /* \"#utility.yul\":4476:4503   */\n      swap1\n      pop\n        /* \"#utility.yul\":4423:4509   */\n      swap2\n      swap1\n      pop\n      jump\t// out\n        /* \"#utility.yul\":4515:4627   */\n    tag_166:\n        /* \"#utility.yul\":4598:4620   */\n      tag_243\n        /* \"#utility.yul\":4614:4619   */\n      dup2\n        /* \"#utility.yul\":4598:4620   */\n      tag_165\n      jump\t// in\n    tag_243:\n        /* \"#utility.yul\":4593:4596   */\n      dup3\n        /* \"#utility.yul\":4586:4621   */\n      mstore\n        /* \"#utility.yul\":4515:4627   */\n      pop\n      pop\n      jump\t// out\n        /* \"#utility.yul\":4633:4847   */\n    tag_37:\n        /* \"#utility.yul\":4722:4726   */\n      0x00\n        /* \"#utility.yul\":4760:4762   */\n      0x20\n        /* \"#utility.yul\":4749:4758   */\n      dup3\n        /* \"#utility.yul\":4745:4763   */\n      add\n        /* \"#utility.yul\":4737:4763   */\n      swap1\n      pop\n        /* \"#utility.yul\":4773:4840   */\n      tag_245\n        /* \"#utility.yul\":4837:4838   */\n      0x00\n        /* \"#utility.yul\":4826:4835   */\n      dup4\n        /* \"#utility.yul\":4822:4839   */\n      add\n        /* \"#utility.yul\":4813:4819   */\n      dup5\n        /* \"#utility.yul\":4773:4840   */\n      tag_166\n      jump\t// in\n    tag_245:\n        /* \"#utility.yul\":4633:4847   */\n      swap3\n      swap2\n      pop\n      pop\n      jump\t// out\n        /* \"#utility.yul\":4853:5182   */\n    tag_40:\n        /* \"#utility.yul\":4912:4918   */\n      0x00\n        /* \"#utility.yul\":4961:4963   */\n      0x20\n        /* \"#utility.yul\":4949:4958   */\n      dup3\n        /* \"#utility.yul\":4940:4947   */\n      dup5\n        /* \"#utility.yul\":4936:4959   */\n      sub\n        /* \"#utility.yul\":4932:4964   */\n      slt\n        /* \"#utility.yul\":4929:5048   */\n      iszero\n      tag_247\n      jumpi\n        /* \"#utility.yul\":4967:5046   */\n      tag_248\n      tag_153\n      jump\t// in\n    tag_248:\n        /* \"#utility.yul\":4929:5048   */\n    tag_247:\n        /* \"#utility.yul\":5087:5088   */\n      0x00\n        /* \"#utility.yul\":5112:5165   */\n      tag_249\n        /* \"#utility.yul\":5157:5164   */\n      dup5\n        /* \"#utility.yul\":5148:5154   */\n      dup3\n        /* \"#utility.yul\":5137:5146   */\n      dup6\n        /* \"#utility.yul\":5133:5155   */\n      add\n        /* \"#utility.yul\":5112:5165   */\n      tag_158\n      jump\t// in\n    tag_249:\n        /* \"#utility.yul\":5102:5165   */\n      swap2\n      pop\n        /* \"#utility.yul\":5058:5175   */\n      pop\n        /* \"#utility.yul\":4853:5182   */\n      swap3\n      swap2\n      pop\n      pop\n      jump\t// out\n        /* \"#utility.yul\":5188:5306   */\n    tag_167:\n        /* \"#utility.yul\":5275:5299   */\n      tag_251\n        /* \"#utility.yul\":5293:5298   */\n      dup2\n        /* \"#utility.yul\":5275:5299   */\n      tag_156\n      jump\t// in\n    tag_251:\n        /* \"#utility.yul\":5270:5273   */\n      dup3\n        /* \"#utility.yul\":5263:5300   */\n      mstore\n        /* \"#utility.yul\":5188:5306   */\n      pop\n      pop\n      jump\t// out\n        /* \"#utility.yul\":5312:5534   */\n    tag_46:\n        /* \"#utility.yul\":5405:5409   */\n      0x00\n        /* \"#utility.yul\":5443:5445   */\n      0x20\n        /* \"#utility.yul\":5432:5441   */\n      dup3\n        /* \"#utility.yul\":5428:5446   */\n      add\n        /* \"#utility.yul\":5420:5446   */\n      swap1\n      pop\n        /* \"#utility.yul\":5456:5527   */\n      tag_253\n        /* \"#utility.yul\":5524:5525   */\n      0x00\n        /* \"#utility.yul\":5513:5522   */\n      dup4\n        /* \"#utility.yul\":5509:5526   */\n      add\n        /* \"#utility.yul\":5500:5506   */\n      dup5\n        /* \"#utility.yul\":5456:5527   */\n      tag_167\n      jump\t// in\n    tag_253:\n        /* \"#utility.yul\":5312:5534   */\n      swap3\n      swap2\n      pop\n      pop\n      jump\t// out\n        /* \"#utility.yul\":5540:5869   */\n    tag_52:\n        /* \"#utility.yul\":5599:5605   */\n      0x00\n        /* \"#utility.yul\":5648:5650   */\n      0x20\n        /* \"#utility.yul\":5636:5645   */\n      dup3\n        /* \"#utility.yul\":5627:5634   */\n      dup5\n        /* \"#utility.yul\":5623:5646   */\n      sub\n        /* \"#utility.yul\":5619:5651   */\n      slt\n        /* \"#utility.yul\":5616:5735   */\n      iszero\n      tag_255\n      jumpi\n        /* \"#utility.yul\":5654:5733   */\n      tag_256\n      tag_153\n      jump\t// in\n    tag_256:\n        /* \"#utility.yul\":5616:5735   */\n    tag_255:\n        /* \"#utility.yul\":5774:5775   */\n      0x00\n        /* \"#utility.yul\":5799:5852   */\n      tag_257\n        /* \"#utility.yul\":5844:5851   */\n      dup5\n        /* \"#utility.yul\":5835:5841   */\n      dup3\n        /* \"#utility.yul\":5824:5833   */\n      dup6\n        /* \"#utility.yul\":5820:5842   */\n      add\n        /* \"#utility.yul\":5799:5852   */\n      tag_161\n      jump\t// in\n    tag_257:\n        /* \"#utility.yul\":5789:5852   */\n      swap2\n      pop\n        /* \"#utility.yul\":5745:5862   */\n      pop\n        /* \"#utility.yul\":5540:5869   */\n      swap3\n      swap2\n      pop\n      pop\n      jump\t// out\n        /* \"#utility.yul\":5875:6349   */\n    tag_60:\n        /* \"#utility.yul\":5943:5949   */\n      0x00\n        /* \"#utility.yul\":5951:5957   */\n      dup1\n        /* \"#utility.yul\":6000:6002   */\n      0x40\n        /* \"#utility.yul\":5988:5997   */\n      dup4\n        /* \"#utility.yul\":5979:5986   */\n      dup6\n        /* \"#utility.yul\":5975:5998   */\n      sub\n        /* \"#utility.yul\":5971:6003   */\n      slt\n        /* \"#utility.yul\":5968:6087   */\n      iszero\n      tag_259\n      jumpi\n        /* \"#utility.yul\":6006:6085   */\n      tag_260\n      tag_153\n      jump\t// in\n    tag_260:\n        /* \"#utility.yul\":5968:6087   */\n    tag_259:\n        /* \"#utility.yul\":6126:6127   */\n      0x00\n        /* \"#utility.yul\":6151:6204   */\n      tag_261\n        /* \"#utility.yul\":6196:6203   */\n      dup6\n        /* \"#utility.yul\":6187:6193   */\n      dup3\n        /* \"#utility.yul\":6176:6185   */\n      dup7\n        /* \"#utility.yul\":6172:6194   */\n      add\n        /* \"#utility.yul\":6151:6204   */\n      tag_158\n      jump\t// in\n    tag_261:\n        /* \"#utility.yul\":6141:6204   */\n      swap3\n      pop\n        /* \"#utility.yul\":6097:6214   */\n      pop\n        /* \"#utility.yul\":6253:6255   */\n      0x20\n        /* \"#utility.yul\":6279:6332   */\n      tag_262\n        /* \"#utility.yul\":6324:6331   */\n      dup6\n        /* \"#utility.yul\":6315:6321   */\n      dup3\n        /* \"#utility.yul\":6304:6313   */\n      dup7\n        /* \"#utility.yul\":6300:6322   */\n      add\n        /* \"#utility.yul\":6279:6332   */\n      tag_158\n      jump\t// in\n    tag_262:\n        /* \"#utility.yul\":6269:6332   */\n      swap2\n      pop\n        /* \"#utility.yul\":6224:6342   */\n      pop\n        /* \"#utility.yul\":5875:6349   */\n      swap3\n      pop\n      swap3\n      swap1\n      pop\n      jump\t// out\n        /* \"#utility.yul\":6355:6535   */\n    tag_168:\n        /* \"#utility.yul\":6403:6480   */\n      0x4e487b7100000000000000000000000000000000000000000000000000000000\n        /* \"#utility.yul\":6400:6401   */\n      0x00\n        /* \"#utility.yul\":6393:6481   */\n      mstore\n        /* \"#utility.yul\":6500:6504   */\n      0x22\n        /* \"#utility.yul\":6497:6498   */\n      0x04\n        /* \"#utility.yul\":6490:6505   */\n      mstore\n        /* \"#utility.yul\":6524:6528   */\n      0x24\n        /* \"#utility.yul\":6521:6522   */\n      0x00\n        /* \"#utility.yul\":6514:6529   */\n      revert\n        /* \"#utility.yul\":6541:6861   */\n    tag_65:\n        /* \"#utility.yul\":6585:6591   */\n      0x00\n        /* \"#utility.yul\":6622:6623   */\n      0x02\n        /* \"#utility.yul\":6616:6620   */\n      dup3\n        /* \"#utility.yul\":6612:6624   */\n      div\n        /* \"#utility.yul\":6602:6624   */\n      swap1\n      pop\n        /* \"#utility.yul\":6669:6670   */\n      0x01\n        /* \"#utility.yul\":6663:6667   */\n      dup3\n        /* \"#utility.yul\":6659:6671   */\n      and\n        /* \"#utility.yul\":6690:6708   */\n      dup1\n        /* \"#utility.yul\":6680:6761   */\n      tag_265\n      jumpi\n        /* \"#utility.yul\":6746:6750   */\n      0x7f\n        /* \"#utility.yul\":6738:6744   */\n      dup3\n        /* \"#utility.yul\":6734:6751   */\n      and\n        /* \"#utility.yul\":6724:6751   */\n      swap2\n      pop\n        /* \"#utility.yul\":6680:6761   */\n    tag_265:\n        /* \"#utility.yul\":6808:6810   */\n      0x20\n        /* \"#utility.yul\":6800:6806   */\n      dup3\n        /* \"#utility.yul\":6797:6811   */\n      lt\n        /* \"#utility.yul\":6777:6795   */\n      dup2\n        /* \"#utility.yul\":6774:6812   */\n      sub\n        /* \"#utility.yul\":6771:6855   */\n      tag_266\n      jumpi\n        /* \"#utility.yul\":6827:6845   */\n      tag_267\n      tag_168\n      jump\t// in\n    tag_267:\n        /* \"#utility.yul\":6771:6855   */\n    tag_266:\n        /* \"#utility.yul\":6592:6861   */\n      pop\n        /* \"#utility.yul\":6541:6861   */\n      swap2\n      swap1\n      pop\n      jump\t// out\n        /* \"#utility.yul\":6867:7036   */\n    tag_169:\n        /* \"#utility.yul\":7007:7028   */\n      0x556e617574686f72697a65644163636f756e7400000000000000000000000000\n        /* \"#utility.yul\":7003:7004   */\n      0x00\n        /* \"#utility.yul\":6995:7001   */\n      dup3\n        /* \"#utility.yul\":6991:7005   */\n      add\n        /* \"#utility.yul\":6984:7029   */\n      mstore\n        /* \"#utility.yul\":6867:7036   */\n      pop\n      jump\t// out\n        /* \"#utility.yul\":7042:7408   */\n    tag_170:\n        /* \"#utility.yul\":7184:7187   */\n      0x00\n        /* \"#utility.yul\":7205:7272   */\n      tag_270\n        /* \"#utility.yul\":7269:7271   */\n      0x13\n        /* \"#utility.yul\":7264:7267   */\n      dup4\n        /* \"#utility.yul\":7205:7272   */\n      tag_148\n      jump\t// in\n    tag_270:\n        /* \"#utility.yul\":7198:7272   */\n      swap2\n      pop\n        /* \"#utility.yul\":7281:7374   */\n      tag_271\n        /* \"#utility.yul\":7370:7373   */\n      dup3\n        /* \"#utility.yul\":7281:7374   */\n      tag_169\n      jump\t// in\n    tag_271:\n        /* \"#utility.yul\":7399:7401   */\n      0x20\n        /* \"#utility.yul\":7394:7397   */\n      dup3\n        /* \"#utility.yul\":7390:7402   */\n      add\n        /* \"#utility.yul\":7383:7402   */\n      swap1\n      pop\n        /* \"#utility.yul\":7042:7408   */\n      swap2\n      swap1\n      pop\n      jump\t// out\n        /* \"#utility.yul\":7414:7833   */\n    tag_91:\n        /* \"#utility.yul\":7580:7584   */\n      0x00\n        /* \"#utility.yul\":7618:7620   */\n      0x20\n        /* \"#utility.yul\":7607:7616   */\n      dup3\n        /* \"#utility.yul\":7603:7621   */\n      add\n        /* \"#utility.yul\":7595:7621   */\n      swap1\n      pop\n        /* \"#utility.yul\":7667:7676   */\n      dup2\n        /* \"#utility.yul\":7661:7665   */\n      dup2\n        /* \"#utility.yul\":7657:7677   */\n      sub\n        /* \"#utility.yul\":7653:7654   */\n      0x00\n        /* \"#utility.yul\":7642:7651   */\n      dup4\n        /* \"#utility.yul\":7638:7655   */\n      add\n        /* \"#utility.yul\":7631:7678   */\n      mstore\n        /* \"#utility.yul\":7695:7826   */\n      tag_273\n        /* \"#utility.yul\":7821:7825   */\n      dup2\n        /* \"#utility.yul\":7695:7826   */\n      tag_170\n      jump\t// in\n    tag_273:\n        /* \"#utility.yul\":7687:7826   */\n      swap1\n      pop\n        /* \"#utility.yul\":7414:7833   */\n      swap2\n      swap1\n      pop\n      jump\t// out\n        /* \"#utility.yul\":7839:8019   */\n    tag_171:\n        /* \"#utility.yul\":7887:7964   */\n      0x4e487b7100000000000000000000000000000000000000000000000000000000\n        /* \"#utility.yul\":7884:7885   */\n      0x00\n        /* \"#utility.yul\":7877:7965   */\n      mstore\n        /* \"#utility.yul\":7984:7988   */\n      0x11\n        /* \"#utility.yul\":7981:7982   */\n      0x04\n        /* \"#utility.yul\":7974:7989   */\n      mstore\n        /* \"#utility.yul\":8008:8012   */\n      0x24\n        /* \"#utility.yul\":8005:8006   */\n      0x00\n        /* \"#utility.yul\":7998:8013   */\n      revert\n        /* \"#utility.yul\":8025:8127   */\n    tag_172:\n        /* \"#utility.yul\":8067:8075   */\n      0x00\n        /* \"#utility.yul\":8114:8119   */\n      dup2\n        /* \"#utility.yul\":8111:8112   */\n      0x01\n        /* \"#utility.yul\":8107:8120   */\n      shr\n        /* \"#utility.yul\":8086:8120   */\n      swap1\n      pop\n        /* \"#utility.yul\":8025:8127   */\n      swap2\n      swap1\n      pop\n      jump\t// out\n        /* \"#utility.yul\":8133:8981   */\n    tag_173:\n        /* \"#utility.yul\":8194:8199   */\n      0x00\n        /* \"#utility.yul\":8201:8205   */\n      dup1\n        /* \"#utility.yul\":8225:8231   */\n      dup3\n        /* \"#utility.yul\":8216:8231   */\n      swap2\n      pop\n        /* \"#utility.yul\":8249:8254   */\n      dup4\n        /* \"#utility.yul\":8240:8254   */\n      swap1\n      pop\n        /* \"#utility.yul\":8263:8975   */\n    tag_277:\n        /* \"#utility.yul\":8284:8285   */\n      0x01\n        /* \"#utility.yul\":8274:8282   */\n      dup6\n        /* \"#utility.yul\":8271:8286   */\n      gt\n        /* \"#utility.yul\":8263:8975   */\n      iszero\n      tag_279\n      jumpi\n        /* \"#utility.yul\":8379:8383   */\n      dup1\n        /* \"#utility.yul\":8374:8377   */\n      dup7\n        /* \"#utility.yul\":8370:8384   */\n      div\n        /* \"#utility.yul\":8364:8368   */\n      dup2\n        /* \"#utility.yul\":8361:8385   */\n      gt\n        /* \"#utility.yul\":8358:8408   */\n      iszero\n      tag_280\n      jumpi\n        /* \"#utility.yul\":8388:8406   */\n      tag_281\n      tag_171\n      jump\t// in\n    tag_281:\n        /* \"#utility.yul\":8358:8408   */\n    tag_280:\n        /* \"#utility.yul\":8438:8439   */\n      0x01\n        /* \"#utility.yul\":8428:8436   */\n      dup6\n        /* \"#utility.yul\":8424:8440   */\n      and\n        /* \"#utility.yul\":8421:8872   */\n      iszero\n      tag_282\n      jumpi\n        /* \"#utility.yul\":8853:8857   */\n      dup1\n        /* \"#utility.yul\":8846:8851   */\n      dup3\n        /* \"#utility.yul\":8842:8858   */\n      mul\n        /* \"#utility.yul\":8833:8858   */\n      swap2\n      pop\n        /* \"#utility.yul\":8421:8872   */\n    tag_282:\n        /* \"#utility.yul\":8903:8907   */\n      dup1\n        /* \"#utility.yul\":8897:8901   */\n      dup2\n        /* \"#utility.yul\":8893:8908   */\n      mul\n        /* \"#utility.yul\":8885:8908   */\n      swap1\n      pop\n        /* \"#utility.yul\":8933:8965   */\n      tag_283\n        /* \"#utility.yul\":8956:8964   */\n      dup6\n        /* \"#utility.yul\":8933:8965   */\n      tag_172\n      jump\t// in\n    tag_283:\n        /* \"#utility.yul\":8921:8965   */\n      swap5\n      pop\n        /* \"#utility.yul\":8263:8975   */\n      jump(tag_277)\n    tag_279:\n        /* \"#utility.yul\":8133:8981   */\n      swap5\n      pop\n      swap5\n      swap3\n      pop\n      pop\n      pop\n      jump\t// out\n        /* \"#utility.yul\":8987:10060   */\n    tag_174:\n        /* \"#utility.yul\":9041:9046   */\n      0x00\n        /* \"#utility.yul\":9232:9240   */\n      dup3\n        /* \"#utility.yul\":9222:9262   */\n      tag_285\n      jumpi\n        /* \"#utility.yul\":9253:9254   */\n      0x01\n        /* \"#utility.yul\":9244:9254   */\n      swap1\n      pop\n        /* \"#utility.yul\":9255:9260   */\n      jump(tag_284)\n        /* \"#utility.yul\":9222:9262   */\n    tag_285:\n        /* \"#utility.yul\":9281:9285   */\n      dup2\n        /* \"#utility.yul\":9271:9307   */\n      tag_286\n      jumpi\n        /* \"#utility.yul\":9298:9299   */\n      0x00\n        /* \"#utility.yul\":9289:9299   */\n      swap1\n      pop\n        /* \"#utility.yul\":9300:9305   */\n      jump(tag_284)\n        /* \"#utility.yul\":9271:9307   */\n    tag_286:\n        /* \"#utility.yul\":9367:9371   */\n      dup2\n        /* \"#utility.yul\":9415:9416   */\n      0x01\n        /* \"#utility.yul\":9410:9437   */\n      dup2\n      eq\n      tag_288\n      jumpi\n        /* \"#utility.yul\":9451:9452   */\n      0x02\n        /* \"#utility.yul\":9446:9637   */\n      dup2\n      eq\n      tag_289\n      jumpi\n        /* \"#utility.yul\":9360:9637   */\n      jump(tag_287)\n        /* \"#utility.yul\":9410:9437   */\n    tag_288:\n        /* \"#utility.yul\":9428:9429   */\n      0x01\n        /* \"#utility.yul\":9419:9429   */\n      swap2\n      pop\n        /* \"#utility.yul\":9430:9435   */\n      pop\n      jump(tag_284)\n        /* \"#utility.yul\":9446:9637   */\n    tag_289:\n        /* \"#utility.yul\":9491:9494   */\n      0xff\n        /* \"#utility.yul\":9481:9489   */\n      dup5\n        /* \"#utility.yul\":9478:9495   */\n      gt\n        /* \"#utility.yul\":9475:9518   */\n      iszero\n      tag_290\n      jumpi\n        /* \"#utility.yul\":9498:9516   */\n      tag_291\n      tag_171\n      jump\t// in\n    tag_291:\n        /* \"#utility.yul\":9475:9518   */\n    tag_290:\n        /* \"#utility.yul\":9547:9555   */\n      dup4\n        /* \"#utility.yul\":9544:9545   */\n      0x02\n        /* \"#utility.yul\":9540:9556   */\n      exp\n        /* \"#utility.yul\":9531:9556   */\n      swap2\n      pop\n        /* \"#utility.yul\":9582:9585   */\n      dup5\n        /* \"#utility.yul\":9575:9580   */\n      dup3\n        /* \"#utility.yul\":9572:9586   */\n      gt\n        /* \"#utility.yul\":9569:9609   */\n      iszero\n      tag_292\n      jumpi\n        /* \"#utility.yul\":9589:9607   */\n      tag_293\n      tag_171\n      jump\t// in\n    tag_293:\n        /* \"#utility.yul\":9569:9609   */\n    tag_292:\n        /* \"#utility.yul\":9622:9627   */\n      pop\n      jump(tag_284)\n        /* \"#utility.yul\":9360:9637   */\n    tag_287:\n      pop\n        /* \"#utility.yul\":9746:9748   */\n      0x20\n        /* \"#utility.yul\":9736:9744   */\n      dup4\n        /* \"#utility.yul\":9733:9749   */\n      lt\n        /* \"#utility.yul\":9727:9730   */\n      0x0133\n        /* \"#utility.yul\":9721:9725   */\n      dup4\n        /* \"#utility.yul\":9718:9731   */\n      lt\n        /* \"#utility.yul\":9714:9750   */\n      and\n        /* \"#utility.yul\":9696:9698   */\n      0x4e\n        /* \"#utility.yul\":9686:9694   */\n      dup5\n        /* \"#utility.yul\":9683:9699   */\n      lt\n        /* \"#utility.yul\":9678:9680   */\n      0x0b\n        /* \"#utility.yul\":9672:9676   */\n      dup5\n        /* \"#utility.yul\":9669:9681   */\n      lt\n        /* \"#utility.yul\":9665:9700   */\n      and\n        /* \"#utility.yul\":9649:9760   */\n      or\n        /* \"#utility.yul\":9646:9892   */\n      iszero\n      tag_294\n      jumpi\n        /* \"#utility.yul\":9802:9810   */\n      dup3\n        /* \"#utility.yul\":9796:9800   */\n      dup3\n        /* \"#utility.yul\":9792:9811   */\n      exp\n        /* \"#utility.yul\":9783:9811   */\n      swap1\n      pop\n        /* \"#utility.yul\":9837:9840   */\n      dup4\n        /* \"#utility.yul\":9830:9835   */\n      dup2\n        /* \"#utility.yul\":9827:9841   */\n      gt\n        /* \"#utility.yul\":9824:9864   */\n      iszero\n      tag_295\n      jumpi\n        /* \"#utility.yul\":9844:9862   */\n      tag_296\n      tag_171\n      jump\t// in\n    tag_296:\n        /* \"#utility.yul\":9824:9864   */\n    tag_295:\n        /* \"#utility.yul\":9877:9882   */\n      jump(tag_284)\n        /* \"#utility.yul\":9646:9892   */\n    tag_294:\n        /* \"#utility.yul\":9917:9959   */\n      tag_297\n        /* \"#utility.yul\":9955:9958   */\n      dup5\n        /* \"#utility.yul\":9945:9953   */\n      dup5\n        /* \"#utility.yul\":9939:9943   */\n      dup5\n        /* \"#utility.yul\":9936:9937   */\n      0x01\n        /* \"#utility.yul\":9917:9959   */\n      tag_173\n      jump\t// in\n    tag_297:\n        /* \"#utility.yul\":9902:9959   */\n      swap3\n      pop\n      swap1\n      pop\n        /* \"#utility.yul\":9991:9995   */\n      dup2\n        /* \"#utility.yul\":9986:9989   */\n      dup5\n        /* \"#utility.yul\":9982:9996   */\n      div\n        /* \"#utility.yul\":9975:9980   */\n      dup2\n        /* \"#utility.yul\":9972:9997   */\n      gt\n        /* \"#utility.yul\":9969:10020   */\n      iszero\n      tag_298\n      jumpi\n        /* \"#utility.yul\":10000:10018   */\n      tag_299\n      tag_171\n      jump\t// in\n    tag_299:\n        /* \"#utility.yul\":9969:10020   */\n    tag_298:\n        /* \"#utility.yul\":10049:10053   */\n      dup2\n        /* \"#utility.yul\":10042:10047   */\n      dup2\n        /* \"#utility.yul\":10038:10054   */\n      mul\n        /* \"#utility.yul\":10029:10054   */\n      swap1\n      pop\n        /* \"#utility.yul\":8987:10060   */\n    tag_284:\n      swap4\n      swap3\n      pop\n      pop\n      pop\n      jump\t// out\n        /* \"#utility.yul\":10066:10347   */\n    tag_96:\n        /* \"#utility.yul\":10124:10129   */\n      0x00\n        /* \"#utility.yul\":10148:10171   */\n      tag_301\n        /* \"#utility.yul\":10166:10170   */\n      dup3\n        /* \"#utility.yul\":10148:10171   */\n      tag_159\n      jump\t// in\n    tag_301:\n        /* \"#utility.yul\":10140:10171   */\n      swap2\n      pop\n        /* \"#utility.yul\":10192:10217   */\n      tag_302\n        /* \"#utility.yul\":10208:10216   */\n      dup4\n        /* \"#utility.yul\":10192:10217   */\n      tag_165\n      jump\t// in\n    tag_302:\n        /* \"#utility.yul\":10180:10217   */\n      swap3\n      pop\n        /* \"#utility.yul\":10236:10340   */\n      tag_303\n        /* \"#utility.yul\":10273:10339   */\n      0xffffffffffffffffffffffffffffffffffffffffffffffffffffffffffffffff\n        /* \"#utility.yul\":10263:10271   */\n      dup5\n        /* \"#utility.yul\":10257:10261   */\n      dup5\n        /* \"#utility.yul\":10236:10340   */\n      tag_174\n      jump\t// in\n    tag_303:\n        /* \"#utility.yul\":10227:10340   */\n      swap1\n      pop\n        /* \"#utility.yul\":10066:10347   */\n      swap3\n      swap2\n      pop\n      pop\n      jump\t// out\n        /* \"#utility.yul\":10353:10763   */\n    tag_98:\n        /* \"#utility.yul\":10393:10400   */\n      0x00\n        /* \"#utility.yul\":10416:10436   */\n      tag_305\n        /* \"#utility.yul\":10434:10435   */\n      dup3\n        /* \"#utility.yul\":10416:10436   */\n      tag_159\n      jump\t// in\n    tag_305:\n        /* \"#utility.yul\":10411:10436   */\n      swap2\n      pop\n        /* \"#utility.yul\":10450:10470   */\n      tag_306\n        /* \"#utility.yul\":10468:10469   */\n      dup4\n        /* \"#utility.yul\":10450:10470   */\n      tag_159\n      jump\t// in\n    tag_306:\n        /* \"#utility.yul\":10445:10470   */\n      swap3\n      pop\n        /* \"#utility.yul\":10505:10506   */\n      dup3\n        /* \"#utility.yul\":10502:10503   */\n      dup3\n        /* \"#utility.yul\":10498:10507   */\n      mul\n        /* \"#utility.yul\":10527:10557   */\n      tag_307\n        /* \"#utility.yul\":10545:10556   */\n      dup2\n        /* \"#utility.yul\":10527:10557   */\n      tag_159\n      jump\t// in\n    tag_307:\n        /* \"#utility.yul\":10516:10557   */\n      swap2\n      pop\n        /* \"#utility.yul\":10706:10707   */\n      dup3\n        /* \"#utility.yul\":10697:10704   */\n      dup3\n        /* \"#utility.yul\":10693:10708   */\n      div\n        /* \"#utility.yul\":10690:10691   */\n      dup5\n        /* \"#utility.yul\":10687:10709   */\n      eq\n        /* \"#utility.yul\":10667:10668   */\n      dup4\n        /* \"#utility.yul\":10660:10669   */\n      iszero\n        /* \"#utility.yul\":10640:10723   */\n      or\n        /* \"#utility.yul\":10617:10756   */\n      tag_308\n      jumpi\n        /* \"#utility.yul\":10736:10754   */\n      tag_309\n      tag_171\n      jump\t// in\n    tag_309:\n        /* \"#utility.yul\":10617:10756   */\n    tag_308:\n        /* \"#utility.yul\":10401:10763   */\n      pop\n        /* \"#utility.yul\":10353:10763   */\n      swap3\n      swap2\n      pop\n      pop\n      jump\t// out\n        /* \"#utility.yul\":10769:10940   */\n    tag_175:\n        /* \"#utility.yul\":10909:10932   */\n      0x496e73756666696369656e74416c6c6f77616e63650000000000000000000000\n        /* \"#utility.yul\":10905:10906   */\n      0x00\n        /* \"#utility.yul\":10897:10903   */\n      dup3\n        /* \"#utility.yul\":10893:10907   */\n      add\n        /* \"#utility.yul\":10886:10933   */\n      mstore\n        /* \"#utility.yul\":10769:10940   */\n      pop\n      jump\t// out\n        /* \"#utility.yul\":10946:11312   */\n    tag_176:\n        /* \"#utility.yul\":11088:11091   */\n      0x00\n        /* \"#utility.yul\":11109:11176   */\n      tag_312\n        /* \"#utility.yul\":11173:11175   */\n      0x15\n        /* \"#utility.yul\":11168:11171   */\n      dup4\n        /* \"#utility.yul\":11109:11176   */\n      tag_148\n      jump\t// in\n    tag_312:\n        /* \"#utility.yul\":11102:11176   */\n      swap2\n      pop\n        /* \"#utility.yul\":11185:11278   */\n      tag_313\n        /* \"#utility.yul\":11274:11277   */\n      dup3\n        /* \"#utility.yul\":11185:11278   */\n      tag_175\n      jump\t// in\n    tag_313:\n        /* \"#utility.yul\":11303:11305   */\n      0x20\n        /* \"#utility.yul\":11298:11301   */\n      dup3\n        /* \"#utility.yul\":11294:11306   */\n      add\n        /* \"#utility.yul\":11287:11306   */\n      swap1\n      pop\n        /* \"#utility.yul\":10946:11312   */\n      swap2\n      swap1\n      pop\n      jump\t// out\n        /* \"#utility.yul\":11318:11737   */\n    tag_111:\n        /* \"#utility.yul\":11484:11488   */\n      0x00\n        /* \"#utility.yul\":11522:11524   */\n      0x20\n        /* \"#utility.yul\":11511:11520   */\n      dup3\n        /* \"#utility.yul\":11507:11525   */\n      add\n        /* \"#utility.yul\":11499:11525   */\n      swap1\n      pop\n        /* \"#utility.yul\":11571:11580   */\n      dup2\n        /* \"#utility.yul\":11565:11569   */\n      dup2\n        /* \"#utility.yul\":11561:11581   */\n      sub\n        /* \"#utility.yul\":11557:11558   */\n      0x00\n        /* \"#utility.yul\":11546:11555   */\n      dup4\n        /* \"#utility.yul\":11542:11559   */\n      add\n        /* \"#utility.yul\":11535:11582   */\n      mstore\n        /* \"#utility.yul\":11599:11730   */\n      tag_315\n        /* \"#utility.yul\":11725:11729   */\n      dup2\n        /* \"#utility.yul\":11599:11730   */\n      tag_176\n      jump\t// in\n    tag_315:\n        /* \"#utility.yul\":11591:11730   */\n      swap1\n      pop\n        /* \"#utility.yul\":11318:11737   */\n      swap2\n      swap1\n      pop\n      jump\t// out\n        /* \"#utility.yul\":11743:11905   */\n    tag_177:\n        /* \"#utility.yul\":11883:11897   */\n      0x77726f6e672073656e6465720000000000000000000000000000000000000000\n        /* \"#utility.yul\":11879:11880   */\n      0x00\n        /* \"#utility.yul\":11871:11877   */\n      dup3\n        /* \"#utility.yul\":11867:11881   */\n      add\n        /* \"#utility.yul\":11860:11898   */\n      mstore\n        /* \"#utility.yul\":11743:11905   */\n      pop\n      jump\t// out\n        /* \"#utility.yul\":11911:12277   */\n    tag_178:\n        /* \"#utility.yul\":12053:12056   */\n      0x00\n        /* \"#utility.yul\":12074:12141   */\n      tag_318\n        /* \"#utility.yul\":12138:12140   */\n      0x0c\n        /* \"#utility.yul\":12133:12136   */\n      dup4\n        /* \"#utility.yul\":12074:12141   */\n      tag_148\n      jump\t// in\n    tag_318:\n        /* \"#utility.yul\":12067:12141   */\n      swap2\n      pop\n        /* \"#utility.yul\":12150:12243   */\n      tag_319\n        /* \"#utility.yul\":12239:12242   */\n      dup3\n        /* \"#utility.yul\":12150:12243   */\n      tag_177\n      jump\t// in\n    tag_319:\n        /* \"#utility.yul\":12268:12270   */\n      0x20\n        /* \"#utility.yul\":12263:12266   */\n      dup3\n        /* \"#utility.yul\":12259:12271   */\n      add\n        /* \"#utility.yul\":12252:12271   */\n      swap1\n      pop\n        /* \"#utility.yul\":11911:12277   */\n      swap2\n      swap1\n      pop\n      jump\t// out\n        /* \"#utility.yul\":12283:12702   */\n    tag_116:\n        /* \"#utility.yul\":12449:12453   */\n      0x00\n        /* \"#utility.yul\":12487:12489   */\n      0x20\n        /* \"#utility.yul\":12476:12485   */\n      dup3\n        /* \"#utility.yul\":12472:12490   */\n      add\n        /* \"#utility.yul\":12464:12490   */\n      swap1\n      pop\n        /* \"#utility.yul\":12536:12545   */\n      dup2\n        /* \"#utility.yul\":12530:12534   */\n      dup2\n        /* \"#utility.yul\":12526:12546   */\n      sub\n        /* \"#utility.yul\":12522:12523   */\n      0x00\n        /* \"#utility.yul\":12511:12520   */\n      dup4\n        /* \"#utility.yul\":12507:12524   */\n      add\n        /* \"#utility.yul\":12500:12547   */\n      mstore\n        /* \"#utility.yul\":12564:12695   */\n      tag_321\n        /* \"#utility.yul\":12690:12694   */\n      dup2\n        /* \"#utility.yul\":12564:12695   */\n      tag_178\n      jump\t// in\n    tag_321:\n        /* \"#utility.yul\":12556:12695   */\n      swap1\n      pop\n        /* \"#utility.yul\":12283:12702   */\n      swap2\n      swap1\n      pop\n      jump\t// out\n        /* \"#utility.yul\":12708:12872   */\n    tag_179:\n        /* \"#utility.yul\":12848:12864   */\n      0x77726f6e67207265636569766572000000000000000000000000000000000000\n        /* \"#utility.yul\":12844:12845   */\n      0x00\n        /* \"#utility.yul\":12836:12842   */\n      dup3\n        /* \"#utility.yul\":12832:12846   */\n      add\n        /* \"#utility.yul\":12825:12865   */\n      mstore\n        /* \"#utility.yul\":12708:12872   */\n      pop\n      jump\t// out\n        /* \"#utility.yul\":12878:13244   */\n    tag_180:\n        /* \"#utility.yul\":13020:13023   */\n      0x00\n        /* \"#utility.yul\":13041:13108   */\n      tag_324\n        /* \"#utility.yul\":13105:13107   */\n      0x0e\n        /* \"#utility.yul\":13100:13103   */\n      dup4\n        /* \"#utility.yul\":13041:13108   */\n      tag_148\n      jump\t// in\n    tag_324:\n        /* \"#utility.yul\":13034:13108   */\n      swap2\n      pop\n        /* \"#utility.yul\":13117:13210   */\n      tag_325\n        /* \"#utility.yul\":13206:13209   */\n      dup3\n        /* \"#utility.yul\":13117:13210   */\n      tag_179\n      jump\t// in\n    tag_325:\n        /* \"#utility.yul\":13235:13237   */\n      0x20\n        /* \"#utility.yul\":13230:13233   */\n      dup3\n        /* \"#utility.yul\":13226:13238   */\n      add\n        /* \"#utility.yul\":13219:13238   */\n      swap1\n      pop\n        /* \"#utility.yul\":12878:13244   */\n      swap2\n      swap1\n      pop\n      jump\t// out\n        /* \"#utility.yul\":13250:13669   */\n    tag_119:\n        /* \"#utility.yul\":13416:13420   */\n      0x00\n        /* \"#utility.yul\":13454:13456   */\n      0x20\n        /* \"#utility.yul\":13443:13452   */\n      dup3\n        /* \"#utility.yul\":13439:13457   */\n      add\n        /* \"#utility.yul\":13431:13457   */\n      swap1\n      pop\n        /* \"#utility.yul\":13503:13512   */\n      dup2\n        /* \"#utility.yul\":13497:13501   */\n      dup2\n        /* \"#utility.yul\":13493:13513   */\n      sub\n        /* \"#utility.yul\":13489:13490   */\n      0x00\n        /* \"#utility.yul\":13478:13487   */\n      dup4\n        /* \"#utility.yul\":13474:13491   */\n      add\n        /* \"#utility.yul\":13467:13514   */\n      mstore\n        /* \"#utility.yul\":13531:13662   */\n      tag_327\n        /* \"#utility.yul\":13657:13661   */\n      dup2\n        /* \"#utility.yul\":13531:13662   */\n      tag_180\n      jump\t// in\n    tag_327:\n        /* \"#utility.yul\":13523:13662   */\n      swap1\n      pop\n        /* \"#utility.yul\":13250:13669   */\n      swap2\n      swap1\n      pop\n      jump\t// out\n        /* \"#utility.yul\":13675:13840   */\n    tag_181:\n        /* \"#utility.yul\":13815:13832   */\n      0x496e76616c696452656365697665720000000000000000000000000000000000\n        /* \"#utility.yul\":13811:13812   */\n      0x00\n        /* \"#utility.yul\":13803:13809   */\n      dup3\n        /* \"#utility.yul\":13799:13813   */\n      add\n        /* \"#utility.yul\":13792:13833   */\n      mstore\n        /* \"#utility.yul\":13675:13840   */\n      pop\n      jump\t// out\n        /* \"#utility.yul\":13846:14212   */\n    tag_182:\n        /* \"#utility.yul\":13988:13991   */\n      0x00\n        /* \"#utility.yul\":14009:14076   */\n      tag_330\n        /* \"#utility.yul\":14073:14075   */\n      0x0f\n        /* \"#utility.yul\":14068:14071   */\n      dup4\n        /* \"#utility.yul\":14009:14076   */\n      tag_148\n      jump\t// in\n    tag_330:\n        /* \"#utility.yul\":14002:14076   */\n      swap2\n      pop\n        /* \"#utility.yul\":14085:14178   */\n      tag_331\n        /* \"#utility.yul\":14174:14177   */\n      dup3\n        /* \"#utility.yul\":14085:14178   */\n      tag_181\n      jump\t// in\n    tag_331:\n        /* \"#utility.yul\":14203:14205   */\n      0x20\n        /* \"#utility.yul\":14198:14201   */\n      dup3\n        /* \"#utility.yul\":14194:14206   */\n      add\n        /* \"#utility.yul\":14187:14206   */\n      swap1\n      pop\n        /* \"#utility.yul\":13846:14212   */\n      swap2\n      swap1\n      pop\n      jump\t// out\n        /* \"#utility.yul\":14218:14637   */\n    tag_125:\n        /* \"#utility.yul\":14384:14388   */\n      0x00\n        /* \"#utility.yul\":14422:14424   */\n      0x20\n        /* \"#utility.yul\":14411:14420   */\n      dup3\n        /* \"#utility.yul\":14407:14425   */\n      add\n        /* \"#utility.yul\":14399:14425   */\n      swap1\n      pop\n        /* \"#utility.yul\":14471:14480   */\n      dup2\n        /* \"#utility.yul\":14465:14469   */\n      dup2\n        /* \"#utility.yul\":14461:14481   */\n      sub\n        /* \"#utility.yul\":14457:14458   */\n      0x00\n        /* \"#utility.yul\":14446:14455   */\n      dup4\n        /* \"#utility.yul\":14442:14459   */\n      add\n        /* \"#utility.yul\":14435:14482   */\n      mstore\n        /* \"#utility.yul\":14499:14630   */\n      tag_333\n        /* \"#utility.yul\":14625:14629   */\n      dup2\n        /* \"#utility.yul\":14499:14630   */\n      tag_182\n      jump\t// in\n    tag_333:\n        /* \"#utility.yul\":14491:14630   */\n      swap1\n      pop\n        /* \"#utility.yul\":14218:14637   */\n      swap2\n      swap1\n      pop\n      jump\t// out\n        /* \"#utility.yul\":14643:14808   */\n    tag_183:\n        /* \"#utility.yul\":14783:14800   */\n      0x496e76616c6964417070726f7665720000000000000000000000000000000000\n        /* \"#utility.yul\":14779:14780   */\n      0x00\n        /* \"#utility.yul\":14771:14777   */\n      dup3\n        /* \"#utility.yul\":14767:14781   */\n      add\n        /* \"#utility.yul\":14760:14801   */\n      mstore\n        /* \"#utility.yul\":14643:14808   */\n      pop\n      jump\t// out\n        /* \"#utility.yul\":14814:15180   */\n    tag_184:\n        /* \"#utility.yul\":14956:14959   */\n      0x00\n        /* \"#utility.yul\":14977:15044   */\n      tag_336\n        /* \"#utility.yul\":15041:15043   */\n      0x0f\n        /* \"#utility.yul\":15036:15039   */\n      dup4\n        /* \"#utility.yul\":14977:15044   */\n      tag_148\n      jump\t// in\n    tag_336:\n        /* \"#utility.yul\":14970:15044   */\n      swap2\n      pop\n        /* \"#utility.yul\":15053:15146   */\n      tag_337\n        /* \"#utility.yul\":15142:15145   */\n      dup3\n        /* \"#utility.yul\":15053:15146   */\n      tag_183\n      jump\t// in\n    tag_337:\n        /* \"#utility.yul\":15171:15173   */\n      0x20\n        /* \"#utility.yul\":15166:15169   */\n      dup3\n        /* \"#utility.yul\":15162:15174   */\n      add\n        /* \"#utility.yul\":15155:15174   */\n      swap1\n      pop\n        /* \"#utility.yul\":14814:15180   */\n      swap2\n      swap1\n      pop\n      jump\t// out\n        /* \"#utility.yul\":15186:15605   */\n    tag_130:\n        /* \"#utility.yul\":15352:15356   */\n      0x00\n        /* \"#utility.yul\":15390:15392   */\n      0x20\n        /* \"#utility.yul\":15379:15388   */\n      dup3\n        /* \"#utility.yul\":15375:15393   */\n      add\n        /* \"#utility.yul\":15367:15393   */\n      swap1\n      pop\n        /* \"#utility.yul\":15439:15448   */\n      dup2\n        /* \"#utility.yul\":15433:15437   */\n      dup2\n        /* \"#utility.yul\":15429:15449   */\n      sub\n        /* \"#utility.yul\":15425:15426   */\n      0x00\n        /* \"#utility.yul\":15414:15423   */\n      dup4\n        /* \"#utility.yul\":15410:15427   */\n      add\n        /* \"#utility.yul\":15403:15450   */\n      mstore\n        /* \"#utility.yul\":15467:15598   */\n      tag_339\n        /* \"#utility.yul\":15593:15597   */\n      dup2\n        /* \"#utility.yul\":15467:15598   */\n      tag_184\n      jump\t// in\n    tag_339:\n        /* \"#utility.yul\":15459:15598   */\n      swap1\n      pop\n        /* \"#utility.yul\":15186:15605   */\n      swap2\n      swap1\n      pop\n      jump\t// out\n        /* \"#utility.yul\":15611:15775   */\n    tag_185:\n        /* \"#utility.yul\":15751:15767   */\n      0x496e76616c69645370656e646572000000000000000000000000000000000000\n        /* \"#utility.yul\":15747:15748   */\n      0x00\n        /* \"#utility.yul\":15739:15745   */\n      dup3\n        /* \"#utility.yul\":15735:15749   */\n      add\n        /* \"#utility.yul\":15728:15768   */\n      mstore\n        /* \"#utility.yul\":15611:15775   */\n      pop\n      jump\t// out\n        /* \"#utility.yul\":15781:16147   */\n    tag_186:\n        /* \"#utility.yul\":15923:15926   */\n      0x00\n        /* \"#utility.yul\":15944:16011   */\n      tag_342\n        /* \"#utility.yul\":16008:16010   */\n      0x0e\n        /* \"#utility.yul\":16003:16006   */\n      dup4\n        /* \"#utility.yul\":15944:16011   */\n      tag_148\n      jump\t// in\n    tag_342:\n        /* \"#utility.yul\":15937:16011   */\n      swap2\n      pop\n        /* \"#utility.yul\":16020:16113   */\n      tag_343\n        /* \"#utility.yul\":16109:16112   */\n      dup3\n        /* \"#utility.yul\":16020:16113   */\n      tag_185\n      jump\t// in\n    tag_343:\n        /* \"#utility.yul\":16138:16140   */\n      0x20\n        /* \"#utility.yul\":16133:16136   */\n      dup3\n        /* \"#utility.yul\":16129:16141   */\n      add\n        /* \"#utility.yul\":16122:16141   */\n      swap1\n      pop\n        /* \"#utility.yul\":15781:16147   */\n      swap2\n      swap1\n      pop\n      jump\t// out\n        /* \"#utility.yul\":16153:16572   */\n    tag_133:\n        /* \"#utility.yul\":16319:16323   */\n      0x00\n        /* \"#utility.yul\":16357:16359   */\n      0x20\n        /* \"#utility.yul\":16346:16355   */\n      dup3\n        /* \"#utility.yul\":16342:16360   */\n      add\n        /* \"#utility.yul\":16334:16360   */\n      swap1\n      pop\n        /* \"#utility.yul\":16406:16415   */\n      dup2\n        /* \"#utility.yul\":16400:16404   */\n      dup2\n        /* \"#utility.yul\":16396:16416   */\n      sub\n        /* \"#utility.yul\":16392:16393   */\n      0x00\n        /* \"#utility.yul\":16381:16390   */\n      dup4\n        /* \"#utility.yul\":16377:16394   */\n      add\n        /* \"#utility.yul\":16370:16417   */\n      mstore\n        /* \"#utility.yul\":16434:16565   */\n      tag_345\n        /* \"#utility.yul\":16560:16564   */\n      dup2\n        /* \"#utility.yul\":16434:16565   */\n      tag_186\n      jump\t// in\n    tag_345:\n        /* \"#utility.yul\":16426:16565   */\n      swap1\n      pop\n        /* \"#utility.yul\":16153:16572   */\n      swap2\n      swap1\n      pop\n      jump\t// out\n        /* \"#utility.yul\":16578:16769   */\n    tag_139:\n        /* \"#utility.yul\":16618:16621   */\n      0x00\n        /* \"#utility.yul\":16637:16657   */\n      tag_347\n        /* \"#utility.yul\":16655:16656   */\n      dup3\n        /* \"#utility.yul\":16637:16657   */\n      tag_159\n      jump\t// in\n    tag_347:\n        /* \"#utility.yul\":16632:16657   */\n      swap2\n      pop\n        /* \"#utility.yul\":16671:16691   */\n      tag_348\n        /* \"#utility.yul\":16689:16690   */\n      dup4\n        /* \"#utility.yul\":16671:16691   */\n      tag_159\n      jump\t// in\n    tag_348:\n        /* \"#utility.yul\":16666:16691   */\n      swap3\n      pop\n        /* \"#utility.yul\":16714:16715   */\n      dup3\n        /* \"#utility.yul\":16711:16712   */\n      dup3\n        /* \"#utility.yul\":16707:16716   */\n      add\n        /* \"#utility.yul\":16700:16716   */\n      swap1\n      pop\n        /* \"#utility.yul\":16735:16738   */\n      dup1\n        /* \"#utility.yul\":16732:16733   */\n      dup3\n        /* \"#utility.yul\":16729:16739   */\n      gt\n        /* \"#utility.yul\":16726:16762   */\n      iszero\n      tag_349\n      jumpi\n        /* \"#utility.yul\":16742:16760   */\n      tag_350\n      tag_171\n      jump\t// in\n    tag_350:\n        /* \"#utility.yul\":16726:16762   */\n    tag_349:\n        /* \"#utility.yul\":16578:16769   */\n      swap3\n      swap2\n      pop\n      pop\n      jump\t// out\n        /* \"#utility.yul\":16775:16944   */\n    tag_187:\n        /* \"#utility.yul\":16915:16936   */\n      0x696e737566696369656e742062616c616e636500000000000000000000000000\n        /* \"#utility.yul\":16911:16912   */\n      0x00\n        /* \"#utility.yul\":16903:16909   */\n      dup3\n        /* \"#utility.yul\":16899:16913   */\n      add\n        /* \"#utility.yul\":16892:16937   */\n      mstore\n        /* \"#utility.yul\":16775:16944   */\n      pop\n      jump\t// out\n        /* \"#utility.yul\":16950:17316   */\n    tag_188:\n        /* \"#utility.yul\":17092:17095   */\n      0x00\n        /* \"#utility.yul\":17113:17180   */\n      tag_353\n        /* \"#utility.yul\":17177:17179   */\n      0x13\n        /* \"#utility.yul\":17172:17175   */\n      dup4\n        /* \"#utility.yul\":17113:17180   */\n      tag_148\n      jump\t// in\n    tag_353:\n        /* \"#utility.yul\":17106:17180   */\n      swap2\n      pop\n        /* \"#utility.yul\":17189:17282   */\n      tag_354\n        /* \"#utility.yul\":17278:17281   */\n      dup3\n        /* \"#utility.yul\":17189:17282   */\n      tag_187\n      jump\t// in\n    tag_354:\n        /* \"#utility.yul\":17307:17309   */\n      0x20\n        /* \"#utility.yul\":17302:17305   */\n      dup3\n        /* \"#utility.yul\":17298:17310   */\n      add\n        /* \"#utility.yul\":17291:17310   */\n      swap1\n      pop\n        /* \"#utility.yul\":16950:17316   */\n      swap2\n      swap1\n      pop\n      jump\t// out\n        /* \"#utility.yul\":17322:17741   */\n    tag_143:\n        /* \"#utility.yul\":17488:17492   */\n      0x00\n        /* \"#utility.yul\":17526:17528   */\n      0x20\n        /* \"#utility.yul\":17515:17524   */\n      dup3\n        /* \"#utility.yul\":17511:17529   */\n      add\n        /* \"#utility.yul\":17503:17529   */\n      swap1\n      pop\n        /* \"#utility.yul\":17575:17584   */\n      dup2\n        /* \"#utility.yul\":17569:17573   */\n      dup2\n        /* \"#utility.yul\":17565:17585   */\n      sub\n        /* \"#utility.yul\":17561:17562   */\n      0x00\n        /* \"#utility.yul\":17550:17559   */\n      dup4\n        /* \"#utility.yul\":17546:17563   */\n      add\n        /* \"#utility.yul\":17539:17586   */\n      mstore\n        /* \"#utility.yul\":17603:17734   */\n      tag_356\n        /* \"#utility.yul\":17729:17733   */\n      dup2\n        /* \"#utility.yul\":17603:17734   */\n      tag_188\n      jump\t// in\n    tag_356:\n        /* \"#utility.yul\":17595:17734   */\n      swap1\n      pop\n        /* \"#utility.yul\":17322:17741   */\n      swap2\n      swap1\n      pop\n      jump\t// out\n\n    auxdata: 0xa2646970667358221220705361ded6c5229688f1269fa1104876b77e2fe0802a807b07a19c363d811d7d64736f6c63430008160033\n}\n",
				"bytecode": {
					"linkReferences": {},
					"object": "608060405234801562000010575f80fd5b506040516200246c3803806200246c83398181016040528101906200003691906200074f565b6040518060400160405280600681526020017f546f6b656e4100000000000000000000000000000000000000000000000000008152506040518060400160405280600281526020017f54410000000000000000000000000000000000000000000000000000000000008152508160039081620000b39190620009e3565b508060049081620000c59190620009e3565b5050503360055f6101000a81548173ffffffffffffffffffffffffffffffffffffffff021916908373ffffffffffffffffffffffffffffffffffffffff1602179055506200011a60646200013460201b60201c565b6200012d81600a6200020560201b60201c565b5062000ff4565b3373ffffffffffffffffffffffffffffffffffffffff1660055f9054906101000a900473ffffffffffffffffffffffffffffffffffffffff1673ffffffffffffffffffffffffffffffffffffffff1614620001c6576040517f08c379a0000000000000000000000000000000000000000000000000000000008152600401620001bd9062000b25565b60405180910390fd5b6200020233620001db6200031f60201b60201c565b600a620001e9919062000cce565b83620001f6919062000d1e565b6200032760201b60201c565b50565b3373ffffffffffffffffffffffffffffffffffffffff1660055f9054906101000a900473ffffffffffffffffffffffffffffffffffffffff1673ffffffffffffffffffffffffffffffffffffffff161462000297576040517f08c379a00000000000000000000000000000000000000000000000000000000081526004016200028e9062000b25565b60405180910390fd5b5f73ffffffffffffffffffffffffffffffffffffffff168273ffffffffffffffffffffffffffffffffffffffff160362000308576040517f08c379a0000000000000000000000000000000000000000000000000000000008152600401620002ff9062000db6565b60405180910390fd5b6200031a8282620003af60201b60201c565b505050565b5f6012905090565b5f73ffffffffffffffffffffffffffffffffffffffff168273ffffffffffffffffffffffffffffffffffffffff160362000398576040517f08c379a00000000000000000000000000000000000000000000000000000000081526004016200038f9062000e24565b60405180910390fd5b620003ab5f8383620003d260201b60201c565b5050565b5f80339050620003c7818585620005f060201b60201c565b600191505092915050565b5f73ffffffffffffffffffffffffffffffffffffffff168373ffffffffffffffffffffffffffffffffffffffff160362000426578060025f82825462000419919062000e44565b92505081905550620004f1565b5f805f8573ffffffffffffffffffffffffffffffffffffffff1673ffffffffffffffffffffffffffffffffffffffff1681526020019081526020015f2054905081811015620004ac576040517f08c379a0000000000000000000000000000000000000000000000000000000008152600401620004a39062000ecc565b60405180910390fd5b8181035f808673ffffffffffffffffffffffffffffffffffffffff1673ffffffffffffffffffffffffffffffffffffffff1681526020019081526020015f2081905550505b5f73ffffffffffffffffffffffffffffffffffffffff168273ffffffffffffffffffffffffffffffffffffffff16036200053a578060025f828254039250508190555062000584565b805f808473ffffffffffffffffffffffffffffffffffffffff1673ffffffffffffffffffffffffffffffffffffffff1681526020019081526020015f205f82825401925050819055505b8173ffffffffffffffffffffffffffffffffffffffff168373ffffffffffffffffffffffffffffffffffffffff167fddf252ad1be2c89b69c2b068fc378daa952ba7f163c4a11628f55a4df523b3ef83604051620005e3919062000efd565b60405180910390a3505050565b5f73ffffffffffffffffffffffffffffffffffffffff168373ffffffffffffffffffffffffffffffffffffffff160362000661576040517f08c379a0000000000000000000000000000000000000000000000000000000008152600401620006589062000f66565b60405180910390fd5b5f73ffffffffffffffffffffffffffffffffffffffff168273ffffffffffffffffffffffffffffffffffffffff1603620006d2576040517f08c379a0000000000000000000000000000000000000000000000000000000008152600401620006c99062000fd4565b60405180910390fd5b620006e5838383620003d260201b60201c565b505050565b5f80fd5b5f73ffffffffffffffffffffffffffffffffffffffff82169050919050565b5f6200071982620006ee565b9050919050565b6200072b816200070d565b811462000736575f80fd5b50565b5f81519050620007498162000720565b92915050565b5f60208284031215620007675762000766620006ea565b5b5f620007768482850162000739565b91505092915050565b5f81519050919050565b7f4e487b71000000000000000000000000000000000000000000000000000000005f52604160045260245ffd5b7f4e487b71000000000000000000000000000000000000000000000000000000005f52602260045260245ffd5b5f6002820490506001821680620007fb57607f821691505b602082108103620008115762000810620007b6565b5b50919050565b5f819050815f5260205f209050919050565b5f6020601f8301049050919050565b5f82821b905092915050565b5f60088302620008757fffffffffffffffffffffffffffffffffffffffffffffffffffffffffffffffff8262000838565b62000881868362000838565b95508019841693508086168417925050509392505050565b5f819050919050565b5f819050919050565b5f620008cb620008c5620008bf8462000899565b620008a2565b62000899565b9050919050565b5f819050919050565b620008e683620008ab565b620008fe620008f582620008d2565b84845462000844565b825550505050565b5f90565b6200091462000906565b62000921818484620008db565b505050565b5b8181101562000948576200093c5f826200090a565b60018101905062000927565b5050565b601f8211156200099757620009618162000817565b6200096c8462000829565b810160208510156200097c578190505b620009946200098b8562000829565b83018262000926565b50505b505050565b5f82821c905092915050565b5f620009b95f19846008026200099c565b1980831691505092915050565b5f620009d38383620009a8565b9150826002028217905092915050565b620009ee826200077f565b67ffffffffffffffff81111562000a0a5762000a0962000789565b5b62000a168254620007e3565b62000a238282856200094c565b5f60209050601f83116001811462000a59575f841562000a44578287015190505b62000a508582620009c6565b86555062000abf565b601f19841662000a698662000817565b5f5b8281101562000a925784890151825560018201915060208501945060208101905062000a6b565b8683101562000ab2578489015162000aae601f891682620009a8565b8355505b6001600288020188555050505b505050505050565b5f82825260208201905092915050565b7f556e617574686f72697a65644163636f756e74000000000000000000000000005f82015250565b5f62000b0d60138362000ac7565b915062000b1a8262000ad7565b602082019050919050565b5f6020820190508181035f83015262000b3e8162000aff565b9050919050565b7f4e487b71000000000000000000000000000000000000000000000000000000005f52601160045260245ffd5b5f8160011c9050919050565b5f808291508390505b600185111562000bcf5780860481111562000ba75762000ba662000b45565b5b600185161562000bb75780820291505b808102905062000bc78562000b72565b945062000b87565b94509492505050565b5f8262000be9576001905062000cbb565b8162000bf8575f905062000cbb565b816001811462000c11576002811462000c1c5762000c52565b600191505062000cbb565b60ff84111562000c315762000c3062000b45565b5b8360020a91508482111562000c4b5762000c4a62000b45565b5b5062000cbb565b5060208310610133831016604e8410600b841016171562000c8c5782820a90508381111562000c865762000c8562000b45565b5b62000cbb565b62000c9b848484600162000b7e565b9250905081840481111562000cb55762000cb462000b45565b5b81810290505b9392505050565b5f60ff82169050919050565b5f62000cda8262000899565b915062000ce78362000cc2565b925062000d167fffffffffffffffffffffffffffffffffffffffffffffffffffffffffffffffff848462000bd8565b905092915050565b5f62000d2a8262000899565b915062000d378362000899565b925082820262000d478162000899565b9150828204841483151762000d615762000d6062000b45565b5b5092915050565b7f496e76616c696445786368616e676541646472657373000000000000000000005f82015250565b5f62000d9e60168362000ac7565b915062000dab8262000d68565b602082019050919050565b5f6020820190508181035f83015262000dcf8162000d90565b9050919050565b7f496e76616c6964526563656976657200000000000000000000000000000000005f82015250565b5f62000e0c600f8362000ac7565b915062000e198262000dd6565b602082019050919050565b5f6020820190508181035f83015262000e3d8162000dfe565b9050919050565b5f62000e508262000899565b915062000e5d8362000899565b925082820190508082111562000e785762000e7762000b45565b5b92915050565b7f696e737566696369656e742062616c616e6365000000000000000000000000005f82015250565b5f62000eb460138362000ac7565b915062000ec18262000e7e565b602082019050919050565b5f6020820190508181035f83015262000ee58162000ea6565b9050919050565b62000ef78162000899565b82525050565b5f60208201905062000f125f83018462000eec565b92915050565b7f77726f6e672073656e64657200000000000000000000000000000000000000005f82015250565b5f62000f4e600c8362000ac7565b915062000f5b8262000f18565b602082019050919050565b5f6020820190508181035f83015262000f7f8162000f40565b9050919050565b7f77726f6e672072656365697665720000000000000000000000000000000000005f82015250565b5f62000fbc600e8362000ac7565b915062000fc98262000f86565b602082019050919050565b5f6020820190508181035f83015262000fed8162000fae565b9050919050565b61146a80620010025f395ff3fe608060405234801561000f575f80fd5b50600436106100a7575f3560e01c806370a082311161006f57806370a08231146101655780638da5cb5b1461019557806395d89b41146101b3578063a0712d68146101d1578063a9059cbb146101ed578063dd62ed3e1461021d576100a7565b806306fdde03146100ab578063095ea7b3146100c957806318160ddd146100f957806323b872dd14610117578063313ce56714610147575b5f80fd5b6100b361024d565b6040516100c09190610bf3565b60405180910390f35b6100e360048036038101906100de9190610ca4565b6102dd565b6040516100f09190610cfc565b60405180910390f35b6101016102f8565b60405161010e9190610d24565b60405180910390f35b610131600480360381019061012c9190610d3d565b610301565b60405161013e9190610cfc565b60405180910390f35b61014f610328565b60405161015c9190610da8565b60405180910390f35b61017f600480360381019061017a9190610dc1565b610330565b60405161018c9190610d24565b60405180910390f35b61019d610375565b6040516101aa9190610dfb565b60405180910390f35b6101bb61039d565b6040516101c89190610bf3565b60405180910390f35b6101eb60048036038101906101e69190610e14565b61042d565b005b61020760048036038101906102029190610ca4565b6104e7565b6040516102149190610cfc565b60405180910390f35b61023760048036038101906102329190610e3f565b610502565b6040516102449190610d24565b60405180910390f35b60606003805461025c90610eaa565b80601f016020809104026020016040519081016040528092919081815260200182805461028890610eaa565b80156102d35780601f106102aa576101008083540402835291602001916102d3565b820191905f5260205f20905b8154815290600101906020018083116102b657829003601f168201915b5050505050905090565b5f803390506102ed818585610584565b600191505092915050565b5f600254905090565b5f80339050610311858285610596565b61031c858585610622565b60019150509392505050565b5f6012905090565b5f805f8373ffffffffffffffffffffffffffffffffffffffff1673ffffffffffffffffffffffffffffffffffffffff1681526020019081526020015f20549050919050565b5f60055f9054906101000a900473ffffffffffffffffffffffffffffffffffffffff16905090565b6060600480546103ac90610eaa565b80601f01602080910402602001604051908101604052809291908181526020018280546103d890610eaa565b80156104235780601f106103fa57610100808354040283529160200191610423565b820191905f5260205f20905b81548152906001019060200180831161040657829003601f168201915b5050505050905090565b3373ffffffffffffffffffffffffffffffffffffffff1660055f9054906101000a900473ffffffffffffffffffffffffffffffffffffffff1673ffffffffffffffffffffffffffffffffffffffff16146104bc576040517f08c379a00000000000000000000000000000000000000000000000000000000081526004016104b390610f24565b60405180910390fd5b6104e4336104c8610328565b600a6104d4919061109e565b836104df91906110e8565b61070e565b50565b5f803390506104f7818585610622565b600191505092915050565b5f60015f8473ffffffffffffffffffffffffffffffffffffffff1673ffffffffffffffffffffffffffffffffffffffff1681526020019081526020015f205f8373ffffffffffffffffffffffffffffffffffffffff1673ffffffffffffffffffffffffffffffffffffffff1681526020019081526020015f2054905092915050565b610591838383600161078b565b505050565b5f6105a18484610502565b90507fffffffffffffffffffffffffffffffffffffffffffffffffffffffffffffffff811461061c578181101561060d576040517f08c379a000000000000000000000000000000000000000000000000000000000815260040161060490611173565b60405180910390fd5b61061b84848484035f61078b565b5b50505050565b5f73ffffffffffffffffffffffffffffffffffffffff168373ffffffffffffffffffffffffffffffffffffffff1603610690576040517f08c379a0000000000000000000000000000000000000000000000000000000008152600401610687906111db565b60405180910390fd5b5f73ffffffffffffffffffffffffffffffffffffffff168273ffffffffffffffffffffffffffffffffffffffff16036106fe576040517f08c379a00000000000000000000000000000000000000000000000000000000081526004016106f590611243565b60405180910390fd5b610709838383610956565b505050565b5f73ffffffffffffffffffffffffffffffffffffffff168273ffffffffffffffffffffffffffffffffffffffff160361077c576040517f08c379a0000000000000000000000000000000000000000000000000000000008152600401610773906112ab565b60405180910390fd5b6107875f8383610956565b5050565b5f73ffffffffffffffffffffffffffffffffffffffff168473ffffffffffffffffffffffffffffffffffffffff16036107f9576040517f08c379a00000000000000000000000000000000000000000000000000000000081526004016107f090611313565b60405180910390fd5b5f73ffffffffffffffffffffffffffffffffffffffff168373ffffffffffffffffffffffffffffffffffffffff1603610867576040517f08c379a000000000000000000000000000000000000000000000000000000000815260040161085e9061137b565b60405180910390fd5b8160015f8673ffffffffffffffffffffffffffffffffffffffff1673ffffffffffffffffffffffffffffffffffffffff1681526020019081526020015f205f8573ffffffffffffffffffffffffffffffffffffffff1673ffffffffffffffffffffffffffffffffffffffff1681526020019081526020015f20819055508015610950578273ffffffffffffffffffffffffffffffffffffffff168473ffffffffffffffffffffffffffffffffffffffff167f8c5be1e5ebec7d5bd14f71427d1e84f3dd0314c0f7b2291e5b200ac8c7c3b925846040516109479190610d24565b60405180910390a35b50505050565b5f73ffffffffffffffffffffffffffffffffffffffff168373ffffffffffffffffffffffffffffffffffffffff16036109a6578060025f82825461099a9190611399565b92505081905550610a6e565b5f805f8573ffffffffffffffffffffffffffffffffffffffff1673ffffffffffffffffffffffffffffffffffffffff1681526020019081526020015f2054905081811015610a29576040517f08c379a0000000000000000000000000000000000000000000000000000000008152600401610a2090611416565b60405180910390fd5b8181035f808673ffffffffffffffffffffffffffffffffffffffff1673ffffffffffffffffffffffffffffffffffffffff1681526020019081526020015f2081905550505b5f73ffffffffffffffffffffffffffffffffffffffff168273ffffffffffffffffffffffffffffffffffffffff1603610ab5578060025f8282540392505081905550610aff565b805f808473ffffffffffffffffffffffffffffffffffffffff1673ffffffffffffffffffffffffffffffffffffffff1681526020019081526020015f205f82825401925050819055505b8173ffffffffffffffffffffffffffffffffffffffff168373ffffffffffffffffffffffffffffffffffffffff167fddf252ad1be2c89b69c2b068fc378daa952ba7f163c4a11628f55a4df523b3ef83604051610b5c9190610d24565b60405180910390a3505050565b5f81519050919050565b5f82825260208201905092915050565b5f5b83811015610ba0578082015181840152602081019050610b85565b5f8484015250505050565b5f601f19601f8301169050919050565b5f610bc582610b69565b610bcf8185610b73565b9350610bdf818560208601610b83565b610be881610bab565b840191505092915050565b5f6020820190508181035f830152610c0b8184610bbb565b905092915050565b5f80fd5b5f73ffffffffffffffffffffffffffffffffffffffff82169050919050565b5f610c4082610c17565b9050919050565b610c5081610c36565b8114610c5a575f80fd5b50565b5f81359050610c6b81610c47565b92915050565b5f819050919050565b610c8381610c71565b8114610c8d575f80fd5b50565b5f81359050610c9e81610c7a565b92915050565b5f8060408385031215610cba57610cb9610c13565b5b5f610cc785828601610c5d565b9250506020610cd885828601610c90565b9150509250929050565b5f8115159050919050565b610cf681610ce2565b82525050565b5f602082019050610d0f5f830184610ced565b92915050565b610d1e81610c71565b82525050565b5f602082019050610d375f830184610d15565b92915050565b5f805f60608486031215610d5457610d53610c13565b5b5f610d6186828701610c5d565b9350506020610d7286828701610c5d565b9250506040610d8386828701610c90565b9150509250925092565b5f60ff82169050919050565b610da281610d8d565b82525050565b5f602082019050610dbb5f830184610d99565b92915050565b5f60208284031215610dd657610dd5610c13565b5b5f610de384828501610c5d565b91505092915050565b610df581610c36565b82525050565b5f602082019050610e0e5f830184610dec565b92915050565b5f60208284031215610e2957610e28610c13565b5b5f610e3684828501610c90565b91505092915050565b5f8060408385031215610e5557610e54610c13565b5b5f610e6285828601610c5d565b9250506020610e7385828601610c5d565b9150509250929050565b7f4e487b71000000000000000000000000000000000000000000000000000000005f52602260045260245ffd5b5f6002820490506001821680610ec157607f821691505b602082108103610ed457610ed3610e7d565b5b50919050565b7f556e617574686f72697a65644163636f756e74000000000000000000000000005f82015250565b5f610f0e601383610b73565b9150610f1982610eda565b602082019050919050565b5f6020820190508181035f830152610f3b81610f02565b9050919050565b7f4e487b71000000000000000000000000000000000000000000000000000000005f52601160045260245ffd5b5f8160011c9050919050565b5f808291508390505b6001851115610fc457808604811115610fa057610f9f610f42565b5b6001851615610faf5780820291505b8081029050610fbd85610f6f565b9450610f84565b94509492505050565b5f82610fdc5760019050611097565b81610fe9575f9050611097565b8160018114610fff576002811461100957611038565b6001915050611097565b60ff84111561101b5761101a610f42565b5b8360020a91508482111561103257611031610f42565b5b50611097565b5060208310610133831016604e8410600b841016171561106d5782820a90508381111561106857611067610f42565b5b611097565b61107a8484846001610f7b565b9250905081840481111561109157611090610f42565b5b81810290505b9392505050565b5f6110a882610c71565b91506110b383610d8d565b92506110e07fffffffffffffffffffffffffffffffffffffffffffffffffffffffffffffffff8484610fcd565b905092915050565b5f6110f282610c71565b91506110fd83610c71565b925082820261110b81610c71565b9150828204841483151761112257611121610f42565b5b5092915050565b7f496e73756666696369656e74416c6c6f77616e636500000000000000000000005f82015250565b5f61115d601583610b73565b915061116882611129565b602082019050919050565b5f6020820190508181035f83015261118a81611151565b9050919050565b7f77726f6e672073656e64657200000000000000000000000000000000000000005f82015250565b5f6111c5600c83610b73565b91506111d082611191565b602082019050919050565b5f6020820190508181035f8301526111f2816111b9565b9050919050565b7f77726f6e672072656365697665720000000000000000000000000000000000005f82015250565b5f61122d600e83610b73565b9150611238826111f9565b602082019050919050565b5f6020820190508181035f83015261125a81611221565b9050919050565b7f496e76616c6964526563656976657200000000000000000000000000000000005f82015250565b5f611295600f83610b73565b91506112a082611261565b602082019050919050565b5f6020820190508181035f8301526112c281611289565b9050919050565b7f496e76616c6964417070726f76657200000000000000000000000000000000005f82015250565b5f6112fd600f83610b73565b9150611308826112c9565b602082019050919050565b5f6020820190508181035f83015261132a816112f1565b9050919050565b7f496e76616c69645370656e6465720000000000000000000000000000000000005f82015250565b5f611365600e83610b73565b915061137082611331565b602082019050919050565b5f6020820190508181035f83015261139281611359565b9050919050565b5f6113a382610c71565b91506113ae83610c71565b92508282019050808211156113c6576113c5610f42565b5b92915050565b7f696e737566696369656e742062616c616e6365000000000000000000000000005f82015250565b5f611400601383610b73565b915061140b826113cc565b602082019050919050565b5f6020820190508181035f83015261142d816113f4565b905091905056fea2646970667358221220705361ded6c5229688f1269fa1104876b77e2fe0802a807b07a19c363d811d7d64736f6c63430008160033",
					"opcodes": "PUSH1 0x80 PUSH1 0x40 MSTORE CALLVALUE DUP1 ISZERO PUSH3 0x10 JUMPI PUSH0 DUP1 REVERT JUMPDEST POP PUSH1 0x40 MLOAD PUSH3 0x246C CODESIZE SUB DUP1 PUSH3 0x246C DUP4 CODECOPY DUP2 DUP2 ADD PUSH1 0x40 MSTORE DUP2 ADD SWAP1 PUSH3 0x36 SWAP2 SWAP1 PUSH3 0x74F JUMP JUMPDEST PUSH1 0x40 MLOAD DUP1 PUSH1 0x40 ADD PUSH1 0x40 MSTORE DUP1 PUSH1 0x6 DUP2 MSTORE PUSH1 0x20 ADD PUSH32 0x546F6B656E410000000000000000000000000000000000000000000000000000 DUP2 MSTORE POP PUSH1 0x40 MLOAD DUP1 PUSH1 0x40 ADD PUSH1 0x40 MSTORE DUP1 PUSH1 0x2 DUP2 MSTORE PUSH1 0x20 ADD PUSH32 0x5441000000000000000000000000000000000000000000000000000000000000 DUP2 MSTORE POP DUP2 PUSH1 0x3 SWAP1 DUP2 PUSH3 0xB3 SWAP2 SWAP1 PUSH3 0x9E3 JUMP JUMPDEST POP DUP1 PUSH1 0x4 SWAP1 DUP2 PUSH3 0xC5 SWAP2 SWAP1 PUSH3 0x9E3 JUMP JUMPDEST POP POP POP CALLER PUSH1 0x5 PUSH0 PUSH2 0x100 EXP DUP2 SLOAD DUP2 PUSH20 0xFFFFFFFFFFFFFFFFFFFFFFFFFFFFFFFFFFFFFFFF MUL NOT AND SWAP1 DUP4 PUSH20 0xFFFFFFFFFFFFFFFFFFFFFFFFFFFFFFFFFFFFFFFF AND MUL OR SWAP1 SSTORE POP PUSH3 0x11A PUSH1 0x64 PUSH3 0x134 PUSH1 0x20 SHL PUSH1 0x20 SHR JUMP JUMPDEST PUSH3 0x12D DUP2 PUSH1 0xA PUSH3 0x205 PUSH1 0x20 SHL PUSH1 0x20 SHR JUMP JUMPDEST POP PUSH3 0xFF4 JUMP JUMPDEST CALLER PUSH20 0xFFFFFFFFFFFFFFFFFFFFFFFFFFFFFFFFFFFFFFFF AND PUSH1 0x5 PUSH0 SWAP1 SLOAD SWAP1 PUSH2 0x100 EXP SWAP1 DIV PUSH20 0xFFFFFFFFFFFFFFFFFFFFFFFFFFFFFFFFFFFFFFFF AND PUSH20 0xFFFFFFFFFFFFFFFFFFFFFFFFFFFFFFFFFFFFFFFF AND EQ PUSH3 0x1C6 JUMPI PUSH1 0x40 MLOAD PUSH32 0x8C379A000000000000000000000000000000000000000000000000000000000 DUP2 MSTORE PUSH1 0x4 ADD PUSH3 0x1BD SWAP1 PUSH3 0xB25 JUMP JUMPDEST PUSH1 0x40 MLOAD DUP1 SWAP2 SUB SWAP1 REVERT JUMPDEST PUSH3 0x202 CALLER PUSH3 0x1DB PUSH3 0x31F PUSH1 0x20 SHL PUSH1 0x20 SHR JUMP JUMPDEST PUSH1 0xA PUSH3 0x1E9 SWAP2 SWAP1 PUSH3 0xCCE JUMP JUMPDEST DUP4 PUSH3 0x1F6 SWAP2 SWAP1 PUSH3 0xD1E JUMP JUMPDEST PUSH3 0x327 PUSH1 0x20 SHL PUSH1 0x20 SHR JUMP JUMPDEST POP JUMP JUMPDEST CALLER PUSH20 0xFFFFFFFFFFFFFFFFFFFFFFFFFFFFFFFFFFFFFFFF AND PUSH1 0x5 PUSH0 SWAP1 SLOAD SWAP1 PUSH2 0x100 EXP SWAP1 DIV PUSH20 0xFFFFFFFFFFFFFFFFFFFFFFFFFFFFFFFFFFFFFFFF AND PUSH20 0xFFFFFFFFFFFFFFFFFFFFFFFFFFFFFFFFFFFFFFFF AND EQ PUSH3 0x297 JUMPI PUSH1 0x40 MLOAD PUSH32 0x8C379A000000000000000000000000000000000000000000000000000000000 DUP2 MSTORE PUSH1 0x4 ADD PUSH3 0x28E SWAP1 PUSH3 0xB25 JUMP JUMPDEST PUSH1 0x40 MLOAD DUP1 SWAP2 SUB SWAP1 REVERT JUMPDEST PUSH0 PUSH20 0xFFFFFFFFFFFFFFFFFFFFFFFFFFFFFFFFFFFFFFFF AND DUP3 PUSH20 0xFFFFFFFFFFFFFFFFFFFFFFFFFFFFFFFFFFFFFFFF AND SUB PUSH3 0x308 JUMPI PUSH1 0x40 MLOAD PUSH32 0x8C379A000000000000000000000000000000000000000000000000000000000 DUP2 MSTORE PUSH1 0x4 ADD PUSH3 0x2FF SWAP1 PUSH3 0xDB6 JUMP JUMPDEST PUSH1 0x40 MLOAD DUP1 SWAP2 SUB SWAP1 REVERT JUMPDEST PUSH3 0x31A DUP3 DUP3 PUSH3 0x3AF PUSH1 0x20 SHL PUSH1 0x20 SHR JUMP JUMPDEST POP POP POP JUMP JUMPDEST PUSH0 PUSH1 0x12 SWAP1 POP SWAP1 JUMP JUMPDEST PUSH0 PUSH20 0xFFFFFFFFFFFFFFFFFFFFFFFFFFFFFFFFFFFFFFFF AND DUP3 PUSH20 0xFFFFFFFFFFFFFFFFFFFFFFFFFFFFFFFFFFFFFFFF AND SUB PUSH3 0x398 JUMPI PUSH1 0x40 MLOAD PUSH32 0x8C379A000000000000000000000000000000000000000000000000000000000 DUP2 MSTORE PUSH1 0x4 ADD PUSH3 0x38F SWAP1 PUSH3 0xE24 JUMP JUMPDEST PUSH1 0x40 MLOAD DUP1 SWAP2 SUB SWAP1 REVERT JUMPDEST PUSH3 0x3AB PUSH0 DUP4 DUP4 PUSH3 0x3D2 PUSH1 0x20 SHL PUSH1 0x20 SHR JUMP JUMPDEST POP POP JUMP JUMPDEST PUSH0 DUP1 CALLER SWAP1 POP PUSH3 0x3C7 DUP2 DUP6 DUP6 PUSH3 0x5F0 PUSH1 0x20 SHL PUSH1 0x20 SHR JUMP JUMPDEST PUSH1 0x1 SWAP2 POP POP SWAP3 SWAP2 POP POP JUMP JUMPDEST PUSH0 PUSH20 0xFFFFFFFFFFFFFFFFFFFFFFFFFFFFFFFFFFFFFFFF AND DUP4 PUSH20 0xFFFFFFFFFFFFFFFFFFFFFFFFFFFFFFFFFFFFFFFF AND SUB PUSH3 0x426 JUMPI DUP1 PUSH1 0x2 PUSH0 DUP3 DUP3 SLOAD PUSH3 0x419 SWAP2 SWAP1 PUSH3 0xE44 JUMP JUMPDEST SWAP3 POP POP DUP2 SWAP1 SSTORE POP PUSH3 0x4F1 JUMP JUMPDEST PUSH0 DUP1 PUSH0 DUP6 PUSH20 0xFFFFFFFFFFFFFFFFFFFFFFFFFFFFFFFFFFFFFFFF AND PUSH20 0xFFFFFFFFFFFFFFFFFFFFFFFFFFFFFFFFFFFFFFFF AND DUP2 MSTORE PUSH1 0x20 ADD SWAP1 DUP2 MSTORE PUSH1 0x20 ADD PUSH0 KECCAK256 SLOAD SWAP1 POP DUP2 DUP2 LT ISZERO PUSH3 0x4AC JUMPI PUSH1 0x40 MLOAD PUSH32 0x8C379A000000000000000000000000000000000000000000000000000000000 DUP2 MSTORE PUSH1 0x4 ADD PUSH3 0x4A3 SWAP1 PUSH3 0xECC JUMP JUMPDEST PUSH1 0x40 MLOAD DUP1 SWAP2 SUB SWAP1 REVERT JUMPDEST DUP2 DUP2 SUB PUSH0 DUP1 DUP7 PUSH20 0xFFFFFFFFFFFFFFFFFFFFFFFFFFFFFFFFFFFFFFFF AND PUSH20 0xFFFFFFFFFFFFFFFFFFFFFFFFFFFFFFFFFFFFFFFF AND DUP2 MSTORE PUSH1 0x20 ADD SWAP1 DUP2 MSTORE PUSH1 0x20 ADD PUSH0 KECCAK256 DUP2 SWAP1 SSTORE POP POP JUMPDEST PUSH0 PUSH20 0xFFFFFFFFFFFFFFFFFFFFFFFFFFFFFFFFFFFFFFFF AND DUP3 PUSH20 0xFFFFFFFFFFFFFFFFFFFFFFFFFFFFFFFFFFFFFFFF AND SUB PUSH3 0x53A JUMPI DUP1 PUSH1 0x2 PUSH0 DUP3 DUP3 SLOAD SUB SWAP3 POP POP DUP2 SWAP1 SSTORE POP PUSH3 0x584 JUMP JUMPDEST DUP1 PUSH0 DUP1 DUP5 PUSH20 0xFFFFFFFFFFFFFFFFFFFFFFFFFFFFFFFFFFFFFFFF AND PUSH20 0xFFFFFFFFFFFFFFFFFFFFFFFFFFFFFFFFFFFFFFFF AND DUP2 MSTORE PUSH1 0x20 ADD SWAP1 DUP2 MSTORE PUSH1 0x20 ADD PUSH0 KECCAK256 PUSH0 DUP3 DUP3 SLOAD ADD SWAP3 POP POP DUP2 SWAP1 SSTORE POP JUMPDEST DUP2 PUSH20 0xFFFFFFFFFFFFFFFFFFFFFFFFFFFFFFFFFFFFFFFF AND DUP4 PUSH20 0xFFFFFFFFFFFFFFFFFFFFFFFFFFFFFFFFFFFFFFFF AND PUSH32 0xDDF252AD1BE2C89B69C2B068FC378DAA952BA7F163C4A11628F55A4DF523B3EF DUP4 PUSH1 0x40 MLOAD PUSH3 0x5E3 SWAP2 SWAP1 PUSH3 0xEFD JUMP JUMPDEST PUSH1 0x40 MLOAD DUP1 SWAP2 SUB SWAP1 LOG3 POP POP POP JUMP JUMPDEST PUSH0 PUSH20 0xFFFFFFFFFFFFFFFFFFFFFFFFFFFFFFFFFFFFFFFF AND DUP4 PUSH20 0xFFFFFFFFFFFFFFFFFFFFFFFFFFFFFFFFFFFFFFFF AND SUB PUSH3 0x661 JUMPI PUSH1 0x40 MLOAD PUSH32 0x8C379A000000000000000000000000000000000000000000000000000000000 DUP2 MSTORE PUSH1 0x4 ADD PUSH3 0x658 SWAP1 PUSH3 0xF66 JUMP JUMPDEST PUSH1 0x40 MLOAD DUP1 SWAP2 SUB SWAP1 REVERT JUMPDEST PUSH0 PUSH20 0xFFFFFFFFFFFFFFFFFFFFFFFFFFFFFFFFFFFFFFFF AND DUP3 PUSH20 0xFFFFFFFFFFFFFFFFFFFFFFFFFFFFFFFFFFFFFFFF AND SUB PUSH3 0x6D2 JUMPI PUSH1 0x40 MLOAD PUSH32 0x8C379A000000000000000000000000000000000000000000000000000000000 DUP2 MSTORE PUSH1 0x4 ADD PUSH3 0x6C9 SWAP1 PUSH3 0xFD4 JUMP JUMPDEST PUSH1 0x40 MLOAD DUP1 SWAP2 SUB SWAP1 REVERT JUMPDEST PUSH3 0x6E5 DUP4 DUP4 DUP4 PUSH3 0x3D2 PUSH1 0x20 SHL PUSH1 0x20 SHR JUMP JUMPDEST POP POP POP JUMP JUMPDEST PUSH0 DUP1 REVERT JUMPDEST PUSH0 PUSH20 0xFFFFFFFFFFFFFFFFFFFFFFFFFFFFFFFFFFFFFFFF DUP3 AND SWAP1 POP SWAP2 SWAP1 POP JUMP JUMPDEST PUSH0 PUSH3 0x719 DUP3 PUSH3 0x6EE JUMP JUMPDEST SWAP1 POP SWAP2 SWAP1 POP JUMP JUMPDEST PUSH3 0x72B DUP2 PUSH3 0x70D JUMP JUMPDEST DUP2 EQ PUSH3 0x736 JUMPI PUSH0 DUP1 REVERT JUMPDEST POP JUMP JUMPDEST PUSH0 DUP2 MLOAD SWAP1 POP PUSH3 0x749 DUP2 PUSH3 0x720 JUMP JUMPDEST SWAP3 SWAP2 POP POP JUMP JUMPDEST PUSH0 PUSH1 0x20 DUP3 DUP5 SUB SLT ISZERO PUSH3 0x767 JUMPI PUSH3 0x766 PUSH3 0x6EA JUMP JUMPDEST JUMPDEST PUSH0 PUSH3 0x776 DUP5 DUP3 DUP6 ADD PUSH3 0x739 JUMP JUMPDEST SWAP2 POP POP SWAP3 SWAP2 POP POP JUMP JUMPDEST PUSH0 DUP2 MLOAD SWAP1 POP SWAP2 SWAP1 POP JUMP JUMPDEST PUSH32 0x4E487B7100000000000000000000000000000000000000000000000000000000 PUSH0 MSTORE PUSH1 0x41 PUSH1 0x4 MSTORE PUSH1 0x24 PUSH0 REVERT JUMPDEST PUSH32 0x4E487B7100000000000000000000000000000000000000000000000000000000 PUSH0 MSTORE PUSH1 0x22 PUSH1 0x4 MSTORE PUSH1 0x24 PUSH0 REVERT JUMPDEST PUSH0 PUSH1 0x2 DUP3 DIV SWAP1 POP PUSH1 0x1 DUP3 AND DUP1 PUSH3 0x7FB JUMPI PUSH1 0x7F DUP3 AND SWAP2 POP JUMPDEST PUSH1 0x20 DUP3 LT DUP2 SUB PUSH3 0x811 JUMPI PUSH3 0x810 PUSH3 0x7B6 JUMP JUMPDEST JUMPDEST POP SWAP2 SWAP1 POP JUMP JUMPDEST PUSH0 DUP2 SWAP1 POP DUP2 PUSH0 MSTORE PUSH1 0x20 PUSH0 KECCAK256 SWAP1 POP SWAP2 SWAP1 POP JUMP JUMPDEST PUSH0 PUSH1 0x20 PUSH1 0x1F DUP4 ADD DIV SWAP1 POP SWAP2 SWAP1 POP JUMP JUMPDEST PUSH0 DUP3 DUP3 SHL SWAP1 POP SWAP3 SWAP2 POP POP JUMP JUMPDEST PUSH0 PUSH1 0x8 DUP4 MUL PUSH3 0x875 PUSH32 0xFFFFFFFFFFFFFFFFFFFFFFFFFFFFFFFFFFFFFFFFFFFFFFFFFFFFFFFFFFFFFFFF DUP3 PUSH3 0x838 JUMP JUMPDEST PUSH3 0x881 DUP7 DUP4 PUSH3 0x838 JUMP JUMPDEST SWAP6 POP DUP1 NOT DUP5 AND SWAP4 POP DUP1 DUP7 AND DUP5 OR SWAP3 POP POP POP SWAP4 SWAP3 POP POP POP JUMP JUMPDEST PUSH0 DUP2 SWAP1 POP SWAP2 SWAP1 POP JUMP JUMPDEST PUSH0 DUP2 SWAP1 POP SWAP2 SWAP1 POP JUMP JUMPDEST PUSH0 PUSH3 0x8CB PUSH3 0x8C5 PUSH3 0x8BF DUP5 PUSH3 0x899 JUMP JUMPDEST PUSH3 0x8A2 JUMP JUMPDEST PUSH3 0x899 JUMP JUMPDEST SWAP1 POP SWAP2 SWAP1 POP JUMP JUMPDEST PUSH0 DUP2 SWAP1 POP SWAP2 SWAP1 POP JUMP JUMPDEST PUSH3 0x8E6 DUP4 PUSH3 0x8AB JUMP JUMPDEST PUSH3 0x8FE PUSH3 0x8F5 DUP3 PUSH3 0x8D2 JUMP JUMPDEST DUP5 DUP5 SLOAD PUSH3 0x844 JUMP JUMPDEST DUP3 SSTORE POP POP POP POP JUMP JUMPDEST PUSH0 SWAP1 JUMP JUMPDEST PUSH3 0x914 PUSH3 0x906 JUMP JUMPDEST PUSH3 0x921 DUP2 DUP5 DUP5 PUSH3 0x8DB JUMP JUMPDEST POP POP POP JUMP JUMPDEST JUMPDEST DUP2 DUP2 LT ISZERO PUSH3 0x948 JUMPI PUSH3 0x93C PUSH0 DUP3 PUSH3 0x90A JUMP JUMPDEST PUSH1 0x1 DUP2 ADD SWAP1 POP PUSH3 0x927 JUMP JUMPDEST POP POP JUMP JUMPDEST PUSH1 0x1F DUP3 GT ISZERO PUSH3 0x997 JUMPI PUSH3 0x961 DUP2 PUSH3 0x817 JUMP JUMPDEST PUSH3 0x96C DUP5 PUSH3 0x829 JUMP JUMPDEST DUP2 ADD PUSH1 0x20 DUP6 LT ISZERO PUSH3 0x97C JUMPI DUP2 SWAP1 POP JUMPDEST PUSH3 0x994 PUSH3 0x98B DUP6 PUSH3 0x829 JUMP JUMPDEST DUP4 ADD DUP3 PUSH3 0x926 JUMP JUMPDEST POP POP JUMPDEST POP POP POP JUMP JUMPDEST PUSH0 DUP3 DUP3 SHR SWAP1 POP SWAP3 SWAP2 POP POP JUMP JUMPDEST PUSH0 PUSH3 0x9B9 PUSH0 NOT DUP5 PUSH1 0x8 MUL PUSH3 0x99C JUMP JUMPDEST NOT DUP1 DUP4 AND SWAP2 POP POP SWAP3 SWAP2 POP POP JUMP JUMPDEST PUSH0 PUSH3 0x9D3 DUP4 DUP4 PUSH3 0x9A8 JUMP JUMPDEST SWAP2 POP DUP3 PUSH1 0x2 MUL DUP3 OR SWAP1 POP SWAP3 SWAP2 POP POP JUMP JUMPDEST PUSH3 0x9EE DUP3 PUSH3 0x77F JUMP JUMPDEST PUSH8 0xFFFFFFFFFFFFFFFF DUP2 GT ISZERO PUSH3 0xA0A JUMPI PUSH3 0xA09 PUSH3 0x789 JUMP JUMPDEST JUMPDEST PUSH3 0xA16 DUP3 SLOAD PUSH3 0x7E3 JUMP JUMPDEST PUSH3 0xA23 DUP3 DUP3 DUP6 PUSH3 0x94C JUMP JUMPDEST PUSH0 PUSH1 0x20 SWAP1 POP PUSH1 0x1F DUP4 GT PUSH1 0x1 DUP2 EQ PUSH3 0xA59 JUMPI PUSH0 DUP5 ISZERO PUSH3 0xA44 JUMPI DUP3 DUP8 ADD MLOAD SWAP1 POP JUMPDEST PUSH3 0xA50 DUP6 DUP3 PUSH3 0x9C6 JUMP JUMPDEST DUP7 SSTORE POP PUSH3 0xABF JUMP JUMPDEST PUSH1 0x1F NOT DUP5 AND PUSH3 0xA69 DUP7 PUSH3 0x817 JUMP JUMPDEST PUSH0 JUMPDEST DUP3 DUP2 LT ISZERO PUSH3 0xA92 JUMPI DUP5 DUP10 ADD MLOAD DUP3 SSTORE PUSH1 0x1 DUP3 ADD SWAP2 POP PUSH1 0x20 DUP6 ADD SWAP5 POP PUSH1 0x20 DUP2 ADD SWAP1 POP PUSH3 0xA6B JUMP JUMPDEST DUP7 DUP4 LT ISZERO PUSH3 0xAB2 JUMPI DUP5 DUP10 ADD MLOAD PUSH3 0xAAE PUSH1 0x1F DUP10 AND DUP3 PUSH3 0x9A8 JUMP JUMPDEST DUP4 SSTORE POP JUMPDEST PUSH1 0x1 PUSH1 0x2 DUP9 MUL ADD DUP9 SSTORE POP POP POP JUMPDEST POP POP POP POP POP POP JUMP JUMPDEST PUSH0 DUP3 DUP3 MSTORE PUSH1 0x20 DUP3 ADD SWAP1 POP SWAP3 SWAP2 POP POP JUMP JUMPDEST PUSH32 0x556E617574686F72697A65644163636F756E7400000000000000000000000000 PUSH0 DUP3 ADD MSTORE POP JUMP JUMPDEST PUSH0 PUSH3 0xB0D PUSH1 0x13 DUP4 PUSH3 0xAC7 JUMP JUMPDEST SWAP2 POP PUSH3 0xB1A DUP3 PUSH3 0xAD7 JUMP JUMPDEST PUSH1 0x20 DUP3 ADD SWAP1 POP SWAP2 SWAP1 POP JUMP JUMPDEST PUSH0 PUSH1 0x20 DUP3 ADD SWAP1 POP DUP2 DUP2 SUB PUSH0 DUP4 ADD MSTORE PUSH3 0xB3E DUP2 PUSH3 0xAFF JUMP JUMPDEST SWAP1 POP SWAP2 SWAP1 POP JUMP JUMPDEST PUSH32 0x4E487B7100000000000000000000000000000000000000000000000000000000 PUSH0 MSTORE PUSH1 0x11 PUSH1 0x4 MSTORE PUSH1 0x24 PUSH0 REVERT JUMPDEST PUSH0 DUP2 PUSH1 0x1 SHR SWAP1 POP SWAP2 SWAP1 POP JUMP JUMPDEST PUSH0 DUP1 DUP3 SWAP2 POP DUP4 SWAP1 POP JUMPDEST PUSH1 0x1 DUP6 GT ISZERO PUSH3 0xBCF JUMPI DUP1 DUP7 DIV DUP2 GT ISZERO PUSH3 0xBA7 JUMPI PUSH3 0xBA6 PUSH3 0xB45 JUMP JUMPDEST JUMPDEST PUSH1 0x1 DUP6 AND ISZERO PUSH3 0xBB7 JUMPI DUP1 DUP3 MUL SWAP2 POP JUMPDEST DUP1 DUP2 MUL SWAP1 POP PUSH3 0xBC7 DUP6 PUSH3 0xB72 JUMP JUMPDEST SWAP5 POP PUSH3 0xB87 JUMP JUMPDEST SWAP5 POP SWAP5 SWAP3 POP POP POP JUMP JUMPDEST PUSH0 DUP3 PUSH3 0xBE9 JUMPI PUSH1 0x1 SWAP1 POP PUSH3 0xCBB JUMP JUMPDEST DUP2 PUSH3 0xBF8 JUMPI PUSH0 SWAP1 POP PUSH3 0xCBB JUMP JUMPDEST DUP2 PUSH1 0x1 DUP2 EQ PUSH3 0xC11 JUMPI PUSH1 0x2 DUP2 EQ PUSH3 0xC1C JUMPI PUSH3 0xC52 JUMP JUMPDEST PUSH1 0x1 SWAP2 POP POP PUSH3 0xCBB JUMP JUMPDEST PUSH1 0xFF DUP5 GT ISZERO PUSH3 0xC31 JUMPI PUSH3 0xC30 PUSH3 0xB45 JUMP JUMPDEST JUMPDEST DUP4 PUSH1 0x2 EXP SWAP2 POP DUP5 DUP3 GT ISZERO PUSH3 0xC4B JUMPI PUSH3 0xC4A PUSH3 0xB45 JUMP JUMPDEST JUMPDEST POP PUSH3 0xCBB JUMP JUMPDEST POP PUSH1 0x20 DUP4 LT PUSH2 0x133 DUP4 LT AND PUSH1 0x4E DUP5 LT PUSH1 0xB DUP5 LT AND OR ISZERO PUSH3 0xC8C JUMPI DUP3 DUP3 EXP SWAP1 POP DUP4 DUP2 GT ISZERO PUSH3 0xC86 JUMPI PUSH3 0xC85 PUSH3 0xB45 JUMP JUMPDEST JUMPDEST PUSH3 0xCBB JUMP JUMPDEST PUSH3 0xC9B DUP5 DUP5 DUP5 PUSH1 0x1 PUSH3 0xB7E JUMP JUMPDEST SWAP3 POP SWAP1 POP DUP2 DUP5 DIV DUP2 GT ISZERO PUSH3 0xCB5 JUMPI PUSH3 0xCB4 PUSH3 0xB45 JUMP JUMPDEST JUMPDEST DUP2 DUP2 MUL SWAP1 POP JUMPDEST SWAP4 SWAP3 POP POP POP JUMP JUMPDEST PUSH0 PUSH1 0xFF DUP3 AND SWAP1 POP SWAP2 SWAP1 POP JUMP JUMPDEST PUSH0 PUSH3 0xCDA DUP3 PUSH3 0x899 JUMP JUMPDEST SWAP2 POP PUSH3 0xCE7 DUP4 PUSH3 0xCC2 JUMP JUMPDEST SWAP3 POP PUSH3 0xD16 PUSH32 0xFFFFFFFFFFFFFFFFFFFFFFFFFFFFFFFFFFFFFFFFFFFFFFFFFFFFFFFFFFFFFFFF DUP5 DUP5 PUSH3 0xBD8 JUMP JUMPDEST SWAP1 POP SWAP3 SWAP2 POP POP JUMP JUMPDEST PUSH0 PUSH3 0xD2A DUP3 PUSH3 0x899 JUMP JUMPDEST SWAP2 POP PUSH3 0xD37 DUP4 PUSH3 0x899 JUMP JUMPDEST SWAP3 POP DUP3 DUP3 MUL PUSH3 0xD47 DUP2 PUSH3 0x899 JUMP JUMPDEST SWAP2 POP DUP3 DUP3 DIV DUP5 EQ DUP4 ISZERO OR PUSH3 0xD61 JUMPI PUSH3 0xD60 PUSH3 0xB45 JUMP JUMPDEST JUMPDEST POP SWAP3 SWAP2 POP POP JUMP JUMPDEST PUSH32 0x496E76616C696445786368616E67654164647265737300000000000000000000 PUSH0 DUP3 ADD MSTORE POP JUMP JUMPDEST PUSH0 PUSH3 0xD9E PUSH1 0x16 DUP4 PUSH3 0xAC7 JUMP JUMPDEST SWAP2 POP PUSH3 0xDAB DUP3 PUSH3 0xD68 JUMP JUMPDEST PUSH1 0x20 DUP3 ADD SWAP1 POP SWAP2 SWAP1 POP JUMP JUMPDEST PUSH0 PUSH1 0x20 DUP3 ADD SWAP1 POP DUP2 DUP2 SUB PUSH0 DUP4 ADD MSTORE PUSH3 0xDCF DUP2 PUSH3 0xD90 JUMP JUMPDEST SWAP1 POP SWAP2 SWAP1 POP JUMP JUMPDEST PUSH32 0x496E76616C696452656365697665720000000000000000000000000000000000 PUSH0 DUP3 ADD MSTORE POP JUMP JUMPDEST PUSH0 PUSH3 0xE0C PUSH1 0xF DUP4 PUSH3 0xAC7 JUMP JUMPDEST SWAP2 POP PUSH3 0xE19 DUP3 PUSH3 0xDD6 JUMP JUMPDEST PUSH1 0x20 DUP3 ADD SWAP1 POP SWAP2 SWAP1 POP JUMP JUMPDEST PUSH0 PUSH1 0x20 DUP3 ADD SWAP1 POP DUP2 DUP2 SUB PUSH0 DUP4 ADD MSTORE PUSH3 0xE3D DUP2 PUSH3 0xDFE JUMP JUMPDEST SWAP1 POP SWAP2 SWAP1 POP JUMP JUMPDEST PUSH0 PUSH3 0xE50 DUP3 PUSH3 0x899 JUMP JUMPDEST SWAP2 POP PUSH3 0xE5D DUP4 PUSH3 0x899 JUMP JUMPDEST SWAP3 POP DUP3 DUP3 ADD SWAP1 POP DUP1 DUP3 GT ISZERO PUSH3 0xE78 JUMPI PUSH3 0xE77 PUSH3 0xB45 JUMP JUMPDEST JUMPDEST SWAP3 SWAP2 POP POP JUMP JUMPDEST PUSH32 0x696E737566696369656E742062616C616E636500000000000000000000000000 PUSH0 DUP3 ADD MSTORE POP JUMP JUMPDEST PUSH0 PUSH3 0xEB4 PUSH1 0x13 DUP4 PUSH3 0xAC7 JUMP JUMPDEST SWAP2 POP PUSH3 0xEC1 DUP3 PUSH3 0xE7E JUMP JUMPDEST PUSH1 0x20 DUP3 ADD SWAP1 POP SWAP2 SWAP1 POP JUMP JUMPDEST PUSH0 PUSH1 0x20 DUP3 ADD SWAP1 POP DUP2 DUP2 SUB PUSH0 DUP4 ADD MSTORE PUSH3 0xEE5 DUP2 PUSH3 0xEA6 JUMP JUMPDEST SWAP1 POP SWAP2 SWAP1 POP JUMP JUMPDEST PUSH3 0xEF7 DUP2 PUSH3 0x899 JUMP JUMPDEST DUP3 MSTORE POP POP JUMP JUMPDEST PUSH0 PUSH1 0x20 DUP3 ADD SWAP1 POP PUSH3 0xF12 PUSH0 DUP4 ADD DUP5 PUSH3 0xEEC JUMP JUMPDEST SWAP3 SWAP2 POP POP JUMP JUMPDEST PUSH32 0x77726F6E672073656E6465720000000000000000000000000000000000000000 PUSH0 DUP3 ADD MSTORE POP JUMP JUMPDEST PUSH0 PUSH3 0xF4E PUSH1 0xC DUP4 PUSH3 0xAC7 JUMP JUMPDEST SWAP2 POP PUSH3 0xF5B DUP3 PUSH3 0xF18 JUMP JUMPDEST PUSH1 0x20 DUP3 ADD SWAP1 POP SWAP2 SWAP1 POP JUMP JUMPDEST PUSH0 PUSH1 0x20 DUP3 ADD SWAP1 POP DUP2 DUP2 SUB PUSH0 DUP4 ADD MSTORE PUSH3 0xF7F DUP2 PUSH3 0xF40 JUMP JUMPDEST SWAP1 POP SWAP2 SWAP1 POP JUMP JUMPDEST PUSH32 0x77726F6E67207265636569766572000000000000000000000000000000000000 PUSH0 DUP3 ADD MSTORE POP JUMP JUMPDEST PUSH0 PUSH3 0xFBC PUSH1 0xE DUP4 PUSH3 0xAC7 JUMP JUMPDEST SWAP2 POP PUSH3 0xFC9 DUP3 PUSH3 0xF86 JUMP JUMPDEST PUSH1 0x20 DUP3 ADD SWAP1 POP SWAP2 SWAP1 POP JUMP JUMPDEST PUSH0 PUSH1 0x20 DUP3 ADD SWAP1 POP DUP2 DUP2 SUB PUSH0 DUP4 ADD MSTORE PUSH3 0xFED DUP2 PUSH3 0xFAE JUMP JUMPDEST SWAP1 POP SWAP2 SWAP1 POP JUMP JUMPDEST PUSH2 0x146A DUP1 PUSH3 0x1002 PUSH0 CODECOPY PUSH0 RETURN INVALID PUSH1 0x80 PUSH1 0x40 MSTORE CALLVALUE DUP1 ISZERO PUSH2 0xF JUMPI PUSH0 DUP1 REVERT JUMPDEST POP PUSH1 0x4 CALLDATASIZE LT PUSH2 0xA7 JUMPI PUSH0 CALLDATALOAD PUSH1 0xE0 SHR DUP1 PUSH4 0x70A08231 GT PUSH2 0x6F JUMPI DUP1 PUSH4 0x70A08231 EQ PUSH2 0x165 JUMPI DUP1 PUSH4 0x8DA5CB5B EQ PUSH2 0x195 JUMPI DUP1 PUSH4 0x95D89B41 EQ PUSH2 0x1B3 JUMPI DUP1 PUSH4 0xA0712D68 EQ PUSH2 0x1D1 JUMPI DUP1 PUSH4 0xA9059CBB EQ PUSH2 0x1ED JUMPI DUP1 PUSH4 0xDD62ED3E EQ PUSH2 0x21D JUMPI PUSH2 0xA7 JUMP JUMPDEST DUP1 PUSH4 0x6FDDE03 EQ PUSH2 0xAB JUMPI DUP1 PUSH4 0x95EA7B3 EQ PUSH2 0xC9 JUMPI DUP1 PUSH4 0x18160DDD EQ PUSH2 0xF9 JUMPI DUP1 PUSH4 0x23B872DD EQ PUSH2 0x117 JUMPI DUP1 PUSH4 0x313CE567 EQ PUSH2 0x147 JUMPI JUMPDEST PUSH0 DUP1 REVERT JUMPDEST PUSH2 0xB3 PUSH2 0x24D JUMP JUMPDEST PUSH1 0x40 MLOAD PUSH2 0xC0 SWAP2 SWAP1 PUSH2 0xBF3 JUMP JUMPDEST PUSH1 0x40 MLOAD DUP1 SWAP2 SUB SWAP1 RETURN JUMPDEST PUSH2 0xE3 PUSH1 0x4 DUP1 CALLDATASIZE SUB DUP2 ADD SWAP1 PUSH2 0xDE SWAP2 SWAP1 PUSH2 0xCA4 JUMP JUMPDEST PUSH2 0x2DD JUMP JUMPDEST PUSH1 0x40 MLOAD PUSH2 0xF0 SWAP2 SWAP1 PUSH2 0xCFC JUMP JUMPDEST PUSH1 0x40 MLOAD DUP1 SWAP2 SUB SWAP1 RETURN JUMPDEST PUSH2 0x101 PUSH2 0x2F8 JUMP JUMPDEST PUSH1 0x40 MLOAD PUSH2 0x10E SWAP2 SWAP1 PUSH2 0xD24 JUMP JUMPDEST PUSH1 0x40 MLOAD DUP1 SWAP2 SUB SWAP1 RETURN JUMPDEST PUSH2 0x131 PUSH1 0x4 DUP1 CALLDATASIZE SUB DUP2 ADD SWAP1 PUSH2 0x12C SWAP2 SWAP1 PUSH2 0xD3D JUMP JUMPDEST PUSH2 0x301 JUMP JUMPDEST PUSH1 0x40 MLOAD PUSH2 0x13E SWAP2 SWAP1 PUSH2 0xCFC JUMP JUMPDEST PUSH1 0x40 MLOAD DUP1 SWAP2 SUB SWAP1 RETURN JUMPDEST PUSH2 0x14F PUSH2 0x328 JUMP JUMPDEST PUSH1 0x40 MLOAD PUSH2 0x15C SWAP2 SWAP1 PUSH2 0xDA8 JUMP JUMPDEST PUSH1 0x40 MLOAD DUP1 SWAP2 SUB SWAP1 RETURN JUMPDEST PUSH2 0x17F PUSH1 0x4 DUP1 CALLDATASIZE SUB DUP2 ADD SWAP1 PUSH2 0x17A SWAP2 SWAP1 PUSH2 0xDC1 JUMP JUMPDEST PUSH2 0x330 JUMP JUMPDEST PUSH1 0x40 MLOAD PUSH2 0x18C SWAP2 SWAP1 PUSH2 0xD24 JUMP JUMPDEST PUSH1 0x40 MLOAD DUP1 SWAP2 SUB SWAP1 RETURN JUMPDEST PUSH2 0x19D PUSH2 0x375 JUMP JUMPDEST PUSH1 0x40 MLOAD PUSH2 0x1AA SWAP2 SWAP1 PUSH2 0xDFB JUMP JUMPDEST PUSH1 0x40 MLOAD DUP1 SWAP2 SUB SWAP1 RETURN JUMPDEST PUSH2 0x1BB PUSH2 0x39D JUMP JUMPDEST PUSH1 0x40 MLOAD PUSH2 0x1C8 SWAP2 SWAP1 PUSH2 0xBF3 JUMP JUMPDEST PUSH1 0x40 MLOAD DUP1 SWAP2 SUB SWAP1 RETURN JUMPDEST PUSH2 0x1EB PUSH1 0x4 DUP1 CALLDATASIZE SUB DUP2 ADD SWAP1 PUSH2 0x1E6 SWAP2 SWAP1 PUSH2 0xE14 JUMP JUMPDEST PUSH2 0x42D JUMP JUMPDEST STOP JUMPDEST PUSH2 0x207 PUSH1 0x4 DUP1 CALLDATASIZE SUB DUP2 ADD SWAP1 PUSH2 0x202 SWAP2 SWAP1 PUSH2 0xCA4 JUMP JUMPDEST PUSH2 0x4E7 JUMP JUMPDEST PUSH1 0x40 MLOAD PUSH2 0x214 SWAP2 SWAP1 PUSH2 0xCFC JUMP JUMPDEST PUSH1 0x40 MLOAD DUP1 SWAP2 SUB SWAP1 RETURN JUMPDEST PUSH2 0x237 PUSH1 0x4 DUP1 CALLDATASIZE SUB DUP2 ADD SWAP1 PUSH2 0x232 SWAP2 SWAP1 PUSH2 0xE3F JUMP JUMPDEST PUSH2 0x502 JUMP JUMPDEST PUSH1 0x40 MLOAD PUSH2 0x244 SWAP2 SWAP1 PUSH2 0xD24 JUMP JUMPDEST PUSH1 0x40 MLOAD DUP1 SWAP2 SUB SWAP1 RETURN JUMPDEST PUSH1 0x60 PUSH1 0x3 DUP1 SLOAD PUSH2 0x25C SWAP1 PUSH2 0xEAA JUMP JUMPDEST DUP1 PUSH1 0x1F ADD PUSH1 0x20 DUP1 SWAP2 DIV MUL PUSH1 0x20 ADD PUSH1 0x40 MLOAD SWAP1 DUP2 ADD PUSH1 0x40 MSTORE DUP1 SWAP3 SWAP2 SWAP1 DUP2 DUP2 MSTORE PUSH1 0x20 ADD DUP3 DUP1 SLOAD PUSH2 0x288 SWAP1 PUSH2 0xEAA JUMP JUMPDEST DUP1 ISZERO PUSH2 0x2D3 JUMPI DUP1 PUSH1 0x1F LT PUSH2 0x2AA JUMPI PUSH2 0x100 DUP1 DUP4 SLOAD DIV MUL DUP4 MSTORE SWAP2 PUSH1 0x20 ADD SWAP2 PUSH2 0x2D3 JUMP JUMPDEST DUP3 ADD SWAP2 SWAP1 PUSH0 MSTORE PUSH1 0x20 PUSH0 KECCAK256 SWAP1 JUMPDEST DUP2 SLOAD DUP2 MSTORE SWAP1 PUSH1 0x1 ADD SWAP1 PUSH1 0x20 ADD DUP1 DUP4 GT PUSH2 0x2B6 JUMPI DUP3 SWAP1 SUB PUSH1 0x1F AND DUP3 ADD SWAP2 JUMPDEST POP POP POP POP POP SWAP1 POP SWAP1 JUMP JUMPDEST PUSH0 DUP1 CALLER SWAP1 POP PUSH2 0x2ED DUP2 DUP6 DUP6 PUSH2 0x584 JUMP JUMPDEST PUSH1 0x1 SWAP2 POP POP SWAP3 SWAP2 POP POP JUMP JUMPDEST PUSH0 PUSH1 0x2 SLOAD SWAP1 POP SWAP1 JUMP JUMPDEST PUSH0 DUP1 CALLER SWAP1 POP PUSH2 0x311 DUP6 DUP3 DUP6 PUSH2 0x596 JUMP JUMPDEST PUSH2 0x31C DUP6 DUP6 DUP6 PUSH2 0x622 JUMP JUMPDEST PUSH1 0x1 SWAP2 POP POP SWAP4 SWAP3 POP POP POP JUMP JUMPDEST PUSH0 PUSH1 0x12 SWAP1 POP SWAP1 JUMP JUMPDEST PUSH0 DUP1 PUSH0 DUP4 PUSH20 0xFFFFFFFFFFFFFFFFFFFFFFFFFFFFFFFFFFFFFFFF AND PUSH20 0xFFFFFFFFFFFFFFFFFFFFFFFFFFFFFFFFFFFFFFFF AND DUP2 MSTORE PUSH1 0x20 ADD SWAP1 DUP2 MSTORE PUSH1 0x20 ADD PUSH0 KECCAK256 SLOAD SWAP1 POP SWAP2 SWAP1 POP JUMP JUMPDEST PUSH0 PUSH1 0x5 PUSH0 SWAP1 SLOAD SWAP1 PUSH2 0x100 EXP SWAP1 DIV PUSH20 0xFFFFFFFFFFFFFFFFFFFFFFFFFFFFFFFFFFFFFFFF AND SWAP1 POP SWAP1 JUMP JUMPDEST PUSH1 0x60 PUSH1 0x4 DUP1 SLOAD PUSH2 0x3AC SWAP1 PUSH2 0xEAA JUMP JUMPDEST DUP1 PUSH1 0x1F ADD PUSH1 0x20 DUP1 SWAP2 DIV MUL PUSH1 0x20 ADD PUSH1 0x40 MLOAD SWAP1 DUP2 ADD PUSH1 0x40 MSTORE DUP1 SWAP3 SWAP2 SWAP1 DUP2 DUP2 MSTORE PUSH1 0x20 ADD DUP3 DUP1 SLOAD PUSH2 0x3D8 SWAP1 PUSH2 0xEAA JUMP JUMPDEST DUP1 ISZERO PUSH2 0x423 JUMPI DUP1 PUSH1 0x1F LT PUSH2 0x3FA JUMPI PUSH2 0x100 DUP1 DUP4 SLOAD DIV MUL DUP4 MSTORE SWAP2 PUSH1 0x20 ADD SWAP2 PUSH2 0x423 JUMP JUMPDEST DUP3 ADD SWAP2 SWAP1 PUSH0 MSTORE PUSH1 0x20 PUSH0 KECCAK256 SWAP1 JUMPDEST DUP2 SLOAD DUP2 MSTORE SWAP1 PUSH1 0x1 ADD SWAP1 PUSH1 0x20 ADD DUP1 DUP4 GT PUSH2 0x406 JUMPI DUP3 SWAP1 SUB PUSH1 0x1F AND DUP3 ADD SWAP2 JUMPDEST POP POP POP POP POP SWAP1 POP SWAP1 JUMP JUMPDEST CALLER PUSH20 0xFFFFFFFFFFFFFFFFFFFFFFFFFFFFFFFFFFFFFFFF AND PUSH1 0x5 PUSH0 SWAP1 SLOAD SWAP1 PUSH2 0x100 EXP SWAP1 DIV PUSH20 0xFFFFFFFFFFFFFFFFFFFFFFFFFFFFFFFFFFFFFFFF AND PUSH20 0xFFFFFFFFFFFFFFFFFFFFFFFFFFFFFFFFFFFFFFFF AND EQ PUSH2 0x4BC JUMPI PUSH1 0x40 MLOAD PUSH32 0x8C379A000000000000000000000000000000000000000000000000000000000 DUP2 MSTORE PUSH1 0x4 ADD PUSH2 0x4B3 SWAP1 PUSH2 0xF24 JUMP JUMPDEST PUSH1 0x40 MLOAD DUP1 SWAP2 SUB SWAP1 REVERT JUMPDEST PUSH2 0x4E4 CALLER PUSH2 0x4C8 PUSH2 0x328 JUMP JUMPDEST PUSH1 0xA PUSH2 0x4D4 SWAP2 SWAP1 PUSH2 0x109E JUMP JUMPDEST DUP4 PUSH2 0x4DF SWAP2 SWAP1 PUSH2 0x10E8 JUMP JUMPDEST PUSH2 0x70E JUMP JUMPDEST POP JUMP JUMPDEST PUSH0 DUP1 CALLER SWAP1 POP PUSH2 0x4F7 DUP2 DUP6 DUP6 PUSH2 0x622 JUMP JUMPDEST PUSH1 0x1 SWAP2 POP POP SWAP3 SWAP2 POP POP JUMP JUMPDEST PUSH0 PUSH1 0x1 PUSH0 DUP5 PUSH20 0xFFFFFFFFFFFFFFFFFFFFFFFFFFFFFFFFFFFFFFFF AND PUSH20 0xFFFFFFFFFFFFFFFFFFFFFFFFFFFFFFFFFFFFFFFF AND DUP2 MSTORE PUSH1 0x20 ADD SWAP1 DUP2 MSTORE PUSH1 0x20 ADD PUSH0 KECCAK256 PUSH0 DUP4 PUSH20 0xFFFFFFFFFFFFFFFFFFFFFFFFFFFFFFFFFFFFFFFF AND PUSH20 0xFFFFFFFFFFFFFFFFFFFFFFFFFFFFFFFFFFFFFFFF AND DUP2 MSTORE PUSH1 0x20 ADD SWAP1 DUP2 MSTORE PUSH1 0x20 ADD PUSH0 KECCAK256 SLOAD SWAP1 POP SWAP3 SWAP2 POP POP JUMP JUMPDEST PUSH2 0x591 DUP4 DUP4 DUP4 PUSH1 0x1 PUSH2 0x78B JUMP JUMPDEST POP POP POP JUMP JUMPDEST PUSH0 PUSH2 0x5A1 DUP5 DUP5 PUSH2 0x502 JUMP JUMPDEST SWAP1 POP PUSH32 0xFFFFFFFFFFFFFFFFFFFFFFFFFFFFFFFFFFFFFFFFFFFFFFFFFFFFFFFFFFFFFFFF DUP2 EQ PUSH2 0x61C JUMPI DUP2 DUP2 LT ISZERO PUSH2 0x60D JUMPI PUSH1 0x40 MLOAD PUSH32 0x8C379A000000000000000000000000000000000000000000000000000000000 DUP2 MSTORE PUSH1 0x4 ADD PUSH2 0x604 SWAP1 PUSH2 0x1173 JUMP JUMPDEST PUSH1 0x40 MLOAD DUP1 SWAP2 SUB SWAP1 REVERT JUMPDEST PUSH2 0x61B DUP5 DUP5 DUP5 DUP5 SUB PUSH0 PUSH2 0x78B JUMP JUMPDEST JUMPDEST POP POP POP POP JUMP JUMPDEST PUSH0 PUSH20 0xFFFFFFFFFFFFFFFFFFFFFFFFFFFFFFFFFFFFFFFF AND DUP4 PUSH20 0xFFFFFFFFFFFFFFFFFFFFFFFFFFFFFFFFFFFFFFFF AND SUB PUSH2 0x690 JUMPI PUSH1 0x40 MLOAD PUSH32 0x8C379A000000000000000000000000000000000000000000000000000000000 DUP2 MSTORE PUSH1 0x4 ADD PUSH2 0x687 SWAP1 PUSH2 0x11DB JUMP JUMPDEST PUSH1 0x40 MLOAD DUP1 SWAP2 SUB SWAP1 REVERT JUMPDEST PUSH0 PUSH20 0xFFFFFFFFFFFFFFFFFFFFFFFFFFFFFFFFFFFFFFFF AND DUP3 PUSH20 0xFFFFFFFFFFFFFFFFFFFFFFFFFFFFFFFFFFFFFFFF AND SUB PUSH2 0x6FE JUMPI PUSH1 0x40 MLOAD PUSH32 0x8C379A000000000000000000000000000000000000000000000000000000000 DUP2 MSTORE PUSH1 0x4 ADD PUSH2 0x6F5 SWAP1 PUSH2 0x1243 JUMP JUMPDEST PUSH1 0x40 MLOAD DUP1 SWAP2 SUB SWAP1 REVERT JUMPDEST PUSH2 0x709 DUP4 DUP4 DUP4 PUSH2 0x956 JUMP JUMPDEST POP POP POP JUMP JUMPDEST PUSH0 PUSH20 0xFFFFFFFFFFFFFFFFFFFFFFFFFFFFFFFFFFFFFFFF AND DUP3 PUSH20 0xFFFFFFFFFFFFFFFFFFFFFFFFFFFFFFFFFFFFFFFF AND SUB PUSH2 0x77C JUMPI PUSH1 0x40 MLOAD PUSH32 0x8C379A000000000000000000000000000000000000000000000000000000000 DUP2 MSTORE PUSH1 0x4 ADD PUSH2 0x773 SWAP1 PUSH2 0x12AB JUMP JUMPDEST PUSH1 0x40 MLOAD DUP1 SWAP2 SUB SWAP1 REVERT JUMPDEST PUSH2 0x787 PUSH0 DUP4 DUP4 PUSH2 0x956 JUMP JUMPDEST POP POP JUMP JUMPDEST PUSH0 PUSH20 0xFFFFFFFFFFFFFFFFFFFFFFFFFFFFFFFFFFFFFFFF AND DUP5 PUSH20 0xFFFFFFFFFFFFFFFFFFFFFFFFFFFFFFFFFFFFFFFF AND SUB PUSH2 0x7F9 JUMPI PUSH1 0x40 MLOAD PUSH32 0x8C379A000000000000000000000000000000000000000000000000000000000 DUP2 MSTORE PUSH1 0x4 ADD PUSH2 0x7F0 SWAP1 PUSH2 0x1313 JUMP JUMPDEST PUSH1 0x40 MLOAD DUP1 SWAP2 SUB SWAP1 REVERT JUMPDEST PUSH0 PUSH20 0xFFFFFFFFFFFFFFFFFFFFFFFFFFFFFFFFFFFFFFFF AND DUP4 PUSH20 0xFFFFFFFFFFFFFFFFFFFFFFFFFFFFFFFFFFFFFFFF AND SUB PUSH2 0x867 JUMPI PUSH1 0x40 MLOAD PUSH32 0x8C379A000000000000000000000000000000000000000000000000000000000 DUP2 MSTORE PUSH1 0x4 ADD PUSH2 0x85E SWAP1 PUSH2 0x137B JUMP JUMPDEST PUSH1 0x40 MLOAD DUP1 SWAP2 SUB SWAP1 REVERT JUMPDEST DUP2 PUSH1 0x1 PUSH0 DUP7 PUSH20 0xFFFFFFFFFFFFFFFFFFFFFFFFFFFFFFFFFFFFFFFF AND PUSH20 0xFFFFFFFFFFFFFFFFFFFFFFFFFFFFFFFFFFFFFFFF AND DUP2 MSTORE PUSH1 0x20 ADD SWAP1 DUP2 MSTORE PUSH1 0x20 ADD PUSH0 KECCAK256 PUSH0 DUP6 PUSH20 0xFFFFFFFFFFFFFFFFFFFFFFFFFFFFFFFFFFFFFFFF AND PUSH20 0xFFFFFFFFFFFFFFFFFFFFFFFFFFFFFFFFFFFFFFFF AND DUP2 MSTORE PUSH1 0x20 ADD SWAP1 DUP2 MSTORE PUSH1 0x20 ADD PUSH0 KECCAK256 DUP2 SWAP1 SSTORE POP DUP1 ISZERO PUSH2 0x950 JUMPI DUP3 PUSH20 0xFFFFFFFFFFFFFFFFFFFFFFFFFFFFFFFFFFFFFFFF AND DUP5 PUSH20 0xFFFFFFFFFFFFFFFFFFFFFFFFFFFFFFFFFFFFFFFF AND PUSH32 0x8C5BE1E5EBEC7D5BD14F71427D1E84F3DD0314C0F7B2291E5B200AC8C7C3B925 DUP5 PUSH1 0x40 MLOAD PUSH2 0x947 SWAP2 SWAP1 PUSH2 0xD24 JUMP JUMPDEST PUSH1 0x40 MLOAD DUP1 SWAP2 SUB SWAP1 LOG3 JUMPDEST POP POP POP POP JUMP JUMPDEST PUSH0 PUSH20 0xFFFFFFFFFFFFFFFFFFFFFFFFFFFFFFFFFFFFFFFF AND DUP4 PUSH20 0xFFFFFFFFFFFFFFFFFFFFFFFFFFFFFFFFFFFFFFFF AND SUB PUSH2 0x9A6 JUMPI DUP1 PUSH1 0x2 PUSH0 DUP3 DUP3 SLOAD PUSH2 0x99A SWAP2 SWAP1 PUSH2 0x1399 JUMP JUMPDEST SWAP3 POP POP DUP2 SWAP1 SSTORE POP PUSH2 0xA6E JUMP JUMPDEST PUSH0 DUP1 PUSH0 DUP6 PUSH20 0xFFFFFFFFFFFFFFFFFFFFFFFFFFFFFFFFFFFFFFFF AND PUSH20 0xFFFFFFFFFFFFFFFFFFFFFFFFFFFFFFFFFFFFFFFF AND DUP2 MSTORE PUSH1 0x20 ADD SWAP1 DUP2 MSTORE PUSH1 0x20 ADD PUSH0 KECCAK256 SLOAD SWAP1 POP DUP2 DUP2 LT ISZERO PUSH2 0xA29 JUMPI PUSH1 0x40 MLOAD PUSH32 0x8C379A000000000000000000000000000000000000000000000000000000000 DUP2 MSTORE PUSH1 0x4 ADD PUSH2 0xA20 SWAP1 PUSH2 0x1416 JUMP JUMPDEST PUSH1 0x40 MLOAD DUP1 SWAP2 SUB SWAP1 REVERT JUMPDEST DUP2 DUP2 SUB PUSH0 DUP1 DUP7 PUSH20 0xFFFFFFFFFFFFFFFFFFFFFFFFFFFFFFFFFFFFFFFF AND PUSH20 0xFFFFFFFFFFFFFFFFFFFFFFFFFFFFFFFFFFFFFFFF AND DUP2 MSTORE PUSH1 0x20 ADD SWAP1 DUP2 MSTORE PUSH1 0x20 ADD PUSH0 KECCAK256 DUP2 SWAP1 SSTORE POP POP JUMPDEST PUSH0 PUSH20 0xFFFFFFFFFFFFFFFFFFFFFFFFFFFFFFFFFFFFFFFF AND DUP3 PUSH20 0xFFFFFFFFFFFFFFFFFFFFFFFFFFFFFFFFFFFFFFFF AND SUB PUSH2 0xAB5 JUMPI DUP1 PUSH1 0x2 PUSH0 DUP3 DUP3 SLOAD SUB SWAP3 POP POP DUP2 SWAP1 SSTORE POP PUSH2 0xAFF JUMP JUMPDEST DUP1 PUSH0 DUP1 DUP5 PUSH20 0xFFFFFFFFFFFFFFFFFFFFFFFFFFFFFFFFFFFFFFFF AND PUSH20 0xFFFFFFFFFFFFFFFFFFFFFFFFFFFFFFFFFFFFFFFF AND DUP2 MSTORE PUSH1 0x20 ADD SWAP1 DUP2 MSTORE PUSH1 0x20 ADD PUSH0 KECCAK256 PUSH0 DUP3 DUP3 SLOAD ADD SWAP3 POP POP DUP2 SWAP1 SSTORE POP JUMPDEST DUP2 PUSH20 0xFFFFFFFFFFFFFFFFFFFFFFFFFFFFFFFFFFFFFFFF AND DUP4 PUSH20 0xFFFFFFFFFFFFFFFFFFFFFFFFFFFFFFFFFFFFFFFF AND PUSH32 0xDDF252AD1BE2C89B69C2B068FC378DAA952BA7F163C4A11628F55A4DF523B3EF DUP4 PUSH1 0x40 MLOAD PUSH2 0xB5C SWAP2 SWAP1 PUSH2 0xD24 JUMP JUMPDEST PUSH1 0x40 MLOAD DUP1 SWAP2 SUB SWAP1 LOG3 POP POP POP JUMP JUMPDEST PUSH0 DUP2 MLOAD SWAP1 POP SWAP2 SWAP1 POP JUMP JUMPDEST PUSH0 DUP3 DUP3 MSTORE PUSH1 0x20 DUP3 ADD SWAP1 POP SWAP3 SWAP2 POP POP JUMP JUMPDEST PUSH0 JUMPDEST DUP4 DUP2 LT ISZERO PUSH2 0xBA0 JUMPI DUP1 DUP3 ADD MLOAD DUP2 DUP5 ADD MSTORE PUSH1 0x20 DUP2 ADD SWAP1 POP PUSH2 0xB85 JUMP JUMPDEST PUSH0 DUP5 DUP5 ADD MSTORE POP POP POP POP JUMP JUMPDEST PUSH0 PUSH1 0x1F NOT PUSH1 0x1F DUP4 ADD AND SWAP1 POP SWAP2 SWAP1 POP JUMP JUMPDEST PUSH0 PUSH2 0xBC5 DUP3 PUSH2 0xB69 JUMP JUMPDEST PUSH2 0xBCF DUP2 DUP6 PUSH2 0xB73 JUMP JUMPDEST SWAP4 POP PUSH2 0xBDF DUP2 DUP6 PUSH1 0x20 DUP7 ADD PUSH2 0xB83 JUMP JUMPDEST PUSH2 0xBE8 DUP2 PUSH2 0xBAB JUMP JUMPDEST DUP5 ADD SWAP2 POP POP SWAP3 SWAP2 POP POP JUMP JUMPDEST PUSH0 PUSH1 0x20 DUP3 ADD SWAP1 POP DUP2 DUP2 SUB PUSH0 DUP4 ADD MSTORE PUSH2 0xC0B DUP2 DUP5 PUSH2 0xBBB JUMP JUMPDEST SWAP1 POP SWAP3 SWAP2 POP POP JUMP JUMPDEST PUSH0 DUP1 REVERT JUMPDEST PUSH0 PUSH20 0xFFFFFFFFFFFFFFFFFFFFFFFFFFFFFFFFFFFFFFFF DUP3 AND SWAP1 POP SWAP2 SWAP1 POP JUMP JUMPDEST PUSH0 PUSH2 0xC40 DUP3 PUSH2 0xC17 JUMP JUMPDEST SWAP1 POP SWAP2 SWAP1 POP JUMP JUMPDEST PUSH2 0xC50 DUP2 PUSH2 0xC36 JUMP JUMPDEST DUP2 EQ PUSH2 0xC5A JUMPI PUSH0 DUP1 REVERT JUMPDEST POP JUMP JUMPDEST PUSH0 DUP2 CALLDATALOAD SWAP1 POP PUSH2 0xC6B DUP2 PUSH2 0xC47 JUMP JUMPDEST SWAP3 SWAP2 POP POP JUMP JUMPDEST PUSH0 DUP2 SWAP1 POP SWAP2 SWAP1 POP JUMP JUMPDEST PUSH2 0xC83 DUP2 PUSH2 0xC71 JUMP JUMPDEST DUP2 EQ PUSH2 0xC8D JUMPI PUSH0 DUP1 REVERT JUMPDEST POP JUMP JUMPDEST PUSH0 DUP2 CALLDATALOAD SWAP1 POP PUSH2 0xC9E DUP2 PUSH2 0xC7A JUMP JUMPDEST SWAP3 SWAP2 POP POP JUMP JUMPDEST PUSH0 DUP1 PUSH1 0x40 DUP4 DUP6 SUB SLT ISZERO PUSH2 0xCBA JUMPI PUSH2 0xCB9 PUSH2 0xC13 JUMP JUMPDEST JUMPDEST PUSH0 PUSH2 0xCC7 DUP6 DUP3 DUP7 ADD PUSH2 0xC5D JUMP JUMPDEST SWAP3 POP POP PUSH1 0x20 PUSH2 0xCD8 DUP6 DUP3 DUP7 ADD PUSH2 0xC90 JUMP JUMPDEST SWAP2 POP POP SWAP3 POP SWAP3 SWAP1 POP JUMP JUMPDEST PUSH0 DUP2 ISZERO ISZERO SWAP1 POP SWAP2 SWAP1 POP JUMP JUMPDEST PUSH2 0xCF6 DUP2 PUSH2 0xCE2 JUMP JUMPDEST DUP3 MSTORE POP POP JUMP JUMPDEST PUSH0 PUSH1 0x20 DUP3 ADD SWAP1 POP PUSH2 0xD0F PUSH0 DUP4 ADD DUP5 PUSH2 0xCED JUMP JUMPDEST SWAP3 SWAP2 POP POP JUMP JUMPDEST PUSH2 0xD1E DUP2 PUSH2 0xC71 JUMP JUMPDEST DUP3 MSTORE POP POP JUMP JUMPDEST PUSH0 PUSH1 0x20 DUP3 ADD SWAP1 POP PUSH2 0xD37 PUSH0 DUP4 ADD DUP5 PUSH2 0xD15 JUMP JUMPDEST SWAP3 SWAP2 POP POP JUMP JUMPDEST PUSH0 DUP1 PUSH0 PUSH1 0x60 DUP5 DUP7 SUB SLT ISZERO PUSH2 0xD54 JUMPI PUSH2 0xD53 PUSH2 0xC13 JUMP JUMPDEST JUMPDEST PUSH0 PUSH2 0xD61 DUP7 DUP3 DUP8 ADD PUSH2 0xC5D JUMP JUMPDEST SWAP4 POP POP PUSH1 0x20 PUSH2 0xD72 DUP7 DUP3 DUP8 ADD PUSH2 0xC5D JUMP JUMPDEST SWAP3 POP POP PUSH1 0x40 PUSH2 0xD83 DUP7 DUP3 DUP8 ADD PUSH2 0xC90 JUMP JUMPDEST SWAP2 POP POP SWAP3 POP SWAP3 POP SWAP3 JUMP JUMPDEST PUSH0 PUSH1 0xFF DUP3 AND SWAP1 POP SWAP2 SWAP1 POP JUMP JUMPDEST PUSH2 0xDA2 DUP2 PUSH2 0xD8D JUMP JUMPDEST DUP3 MSTORE POP POP JUMP JUMPDEST PUSH0 PUSH1 0x20 DUP3 ADD SWAP1 POP PUSH2 0xDBB PUSH0 DUP4 ADD DUP5 PUSH2 0xD99 JUMP JUMPDEST SWAP3 SWAP2 POP POP JUMP JUMPDEST PUSH0 PUSH1 0x20 DUP3 DUP5 SUB SLT ISZERO PUSH2 0xDD6 JUMPI PUSH2 0xDD5 PUSH2 0xC13 JUMP JUMPDEST JUMPDEST PUSH0 PUSH2 0xDE3 DUP5 DUP3 DUP6 ADD PUSH2 0xC5D JUMP JUMPDEST SWAP2 POP POP SWAP3 SWAP2 POP POP JUMP JUMPDEST PUSH2 0xDF5 DUP2 PUSH2 0xC36 JUMP JUMPDEST DUP3 MSTORE POP POP JUMP JUMPDEST PUSH0 PUSH1 0x20 DUP3 ADD SWAP1 POP PUSH2 0xE0E PUSH0 DUP4 ADD DUP5 PUSH2 0xDEC JUMP JUMPDEST SWAP3 SWAP2 POP POP JUMP JUMPDEST PUSH0 PUSH1 0x20 DUP3 DUP5 SUB SLT ISZERO PUSH2 0xE29 JUMPI PUSH2 0xE28 PUSH2 0xC13 JUMP JUMPDEST JUMPDEST PUSH0 PUSH2 0xE36 DUP5 DUP3 DUP6 ADD PUSH2 0xC90 JUMP JUMPDEST SWAP2 POP POP SWAP3 SWAP2 POP POP JUMP JUMPDEST PUSH0 DUP1 PUSH1 0x40 DUP4 DUP6 SUB SLT ISZERO PUSH2 0xE55 JUMPI PUSH2 0xE54 PUSH2 0xC13 JUMP JUMPDEST JUMPDEST PUSH0 PUSH2 0xE62 DUP6 DUP3 DUP7 ADD PUSH2 0xC5D JUMP JUMPDEST SWAP3 POP POP PUSH1 0x20 PUSH2 0xE73 DUP6 DUP3 DUP7 ADD PUSH2 0xC5D JUMP JUMPDEST SWAP2 POP POP SWAP3 POP SWAP3 SWAP1 POP JUMP JUMPDEST PUSH32 0x4E487B7100000000000000000000000000000000000000000000000000000000 PUSH0 MSTORE PUSH1 0x22 PUSH1 0x4 MSTORE PUSH1 0x24 PUSH0 REVERT JUMPDEST PUSH0 PUSH1 0x2 DUP3 DIV SWAP1 POP PUSH1 0x1 DUP3 AND DUP1 PUSH2 0xEC1 JUMPI PUSH1 0x7F DUP3 AND SWAP2 POP JUMPDEST PUSH1 0x20 DUP3 LT DUP2 SUB PUSH2 0xED4 JUMPI PUSH2 0xED3 PUSH2 0xE7D JUMP JUMPDEST JUMPDEST POP SWAP2 SWAP1 POP JUMP JUMPDEST PUSH32 0x556E617574686F72697A65644163636F756E7400000000000000000000000000 PUSH0 DUP3 ADD MSTORE POP JUMP JUMPDEST PUSH0 PUSH2 0xF0E PUSH1 0x13 DUP4 PUSH2 0xB73 JUMP JUMPDEST SWAP2 POP PUSH2 0xF19 DUP3 PUSH2 0xEDA JUMP JUMPDEST PUSH1 0x20 DUP3 ADD SWAP1 POP SWAP2 SWAP1 POP JUMP JUMPDEST PUSH0 PUSH1 0x20 DUP3 ADD SWAP1 POP DUP2 DUP2 SUB PUSH0 DUP4 ADD MSTORE PUSH2 0xF3B DUP2 PUSH2 0xF02 JUMP JUMPDEST SWAP1 POP SWAP2 SWAP1 POP JUMP JUMPDEST PUSH32 0x4E487B7100000000000000000000000000000000000000000000000000000000 PUSH0 MSTORE PUSH1 0x11 PUSH1 0x4 MSTORE PUSH1 0x24 PUSH0 REVERT JUMPDEST PUSH0 DUP2 PUSH1 0x1 SHR SWAP1 POP SWAP2 SWAP1 POP JUMP JUMPDEST PUSH0 DUP1 DUP3 SWAP2 POP DUP4 SWAP1 POP JUMPDEST PUSH1 0x1 DUP6 GT ISZERO PUSH2 0xFC4 JUMPI DUP1 DUP7 DIV DUP2 GT ISZERO PUSH2 0xFA0 JUMPI PUSH2 0xF9F PUSH2 0xF42 JUMP JUMPDEST JUMPDEST PUSH1 0x1 DUP6 AND ISZERO PUSH2 0xFAF JUMPI DUP1 DUP3 MUL SWAP2 POP JUMPDEST DUP1 DUP2 MUL SWAP1 POP PUSH2 0xFBD DUP6 PUSH2 0xF6F JUMP JUMPDEST SWAP5 POP PUSH2 0xF84 JUMP JUMPDEST SWAP5 POP SWAP5 SWAP3 POP POP POP JUMP JUMPDEST PUSH0 DUP3 PUSH2 0xFDC JUMPI PUSH1 0x1 SWAP1 POP PUSH2 0x1097 JUMP JUMPDEST DUP2 PUSH2 0xFE9 JUMPI PUSH0 SWAP1 POP PUSH2 0x1097 JUMP JUMPDEST DUP2 PUSH1 0x1 DUP2 EQ PUSH2 0xFFF JUMPI PUSH1 0x2 DUP2 EQ PUSH2 0x1009 JUMPI PUSH2 0x1038 JUMP JUMPDEST PUSH1 0x1 SWAP2 POP POP PUSH2 0x1097 JUMP JUMPDEST PUSH1 0xFF DUP5 GT ISZERO PUSH2 0x101B JUMPI PUSH2 0x101A PUSH2 0xF42 JUMP JUMPDEST JUMPDEST DUP4 PUSH1 0x2 EXP SWAP2 POP DUP5 DUP3 GT ISZERO PUSH2 0x1032 JUMPI PUSH2 0x1031 PUSH2 0xF42 JUMP JUMPDEST JUMPDEST POP PUSH2 0x1097 JUMP JUMPDEST POP PUSH1 0x20 DUP4 LT PUSH2 0x133 DUP4 LT AND PUSH1 0x4E DUP5 LT PUSH1 0xB DUP5 LT AND OR ISZERO PUSH2 0x106D JUMPI DUP3 DUP3 EXP SWAP1 POP DUP4 DUP2 GT ISZERO PUSH2 0x1068 JUMPI PUSH2 0x1067 PUSH2 0xF42 JUMP JUMPDEST JUMPDEST PUSH2 0x1097 JUMP JUMPDEST PUSH2 0x107A DUP5 DUP5 DUP5 PUSH1 0x1 PUSH2 0xF7B JUMP JUMPDEST SWAP3 POP SWAP1 POP DUP2 DUP5 DIV DUP2 GT ISZERO PUSH2 0x1091 JUMPI PUSH2 0x1090 PUSH2 0xF42 JUMP JUMPDEST JUMPDEST DUP2 DUP2 MUL SWAP1 POP JUMPDEST SWAP4 SWAP3 POP POP POP JUMP JUMPDEST PUSH0 PUSH2 0x10A8 DUP3 PUSH2 0xC71 JUMP JUMPDEST SWAP2 POP PUSH2 0x10B3 DUP4 PUSH2 0xD8D JUMP JUMPDEST SWAP3 POP PUSH2 0x10E0 PUSH32 0xFFFFFFFFFFFFFFFFFFFFFFFFFFFFFFFFFFFFFFFFFFFFFFFFFFFFFFFFFFFFFFFF DUP5 DUP5 PUSH2 0xFCD JUMP JUMPDEST SWAP1 POP SWAP3 SWAP2 POP POP JUMP JUMPDEST PUSH0 PUSH2 0x10F2 DUP3 PUSH2 0xC71 JUMP JUMPDEST SWAP2 POP PUSH2 0x10FD DUP4 PUSH2 0xC71 JUMP JUMPDEST SWAP3 POP DUP3 DUP3 MUL PUSH2 0x110B DUP2 PUSH2 0xC71 JUMP JUMPDEST SWAP2 POP DUP3 DUP3 DIV DUP5 EQ DUP4 ISZERO OR PUSH2 0x1122 JUMPI PUSH2 0x1121 PUSH2 0xF42 JUMP JUMPDEST JUMPDEST POP SWAP3 SWAP2 POP POP JUMP JUMPDEST PUSH32 0x496E73756666696369656E74416C6C6F77616E63650000000000000000000000 PUSH0 DUP3 ADD MSTORE POP JUMP JUMPDEST PUSH0 PUSH2 0x115D PUSH1 0x15 DUP4 PUSH2 0xB73 JUMP JUMPDEST SWAP2 POP PUSH2 0x1168 DUP3 PUSH2 0x1129 JUMP JUMPDEST PUSH1 0x20 DUP3 ADD SWAP1 POP SWAP2 SWAP1 POP JUMP JUMPDEST PUSH0 PUSH1 0x20 DUP3 ADD SWAP1 POP DUP2 DUP2 SUB PUSH0 DUP4 ADD MSTORE PUSH2 0x118A DUP2 PUSH2 0x1151 JUMP JUMPDEST SWAP1 POP SWAP2 SWAP1 POP JUMP JUMPDEST PUSH32 0x77726F6E672073656E6465720000000000000000000000000000000000000000 PUSH0 DUP3 ADD MSTORE POP JUMP JUMPDEST PUSH0 PUSH2 0x11C5 PUSH1 0xC DUP4 PUSH2 0xB73 JUMP JUMPDEST SWAP2 POP PUSH2 0x11D0 DUP3 PUSH2 0x1191 JUMP JUMPDEST PUSH1 0x20 DUP3 ADD SWAP1 POP SWAP2 SWAP1 POP JUMP JUMPDEST PUSH0 PUSH1 0x20 DUP3 ADD SWAP1 POP DUP2 DUP2 SUB PUSH0 DUP4 ADD MSTORE PUSH2 0x11F2 DUP2 PUSH2 0x11B9 JUMP JUMPDEST SWAP1 POP SWAP2 SWAP1 POP JUMP JUMPDEST PUSH32 0x77726F6E67207265636569766572000000000000000000000000000000000000 PUSH0 DUP3 ADD MSTORE POP JUMP JUMPDEST PUSH0 PUSH2 0x122D PUSH1 0xE DUP4 PUSH2 0xB73 JUMP JUMPDEST SWAP2 POP PUSH2 0x1238 DUP3 PUSH2 0x11F9 JUMP JUMPDEST PUSH1 0x20 DUP3 ADD SWAP1 POP SWAP2 SWAP1 POP JUMP JUMPDEST PUSH0 PUSH1 0x20 DUP3 ADD SWAP1 POP DUP2 DUP2 SUB PUSH0 DUP4 ADD MSTORE PUSH2 0x125A DUP2 PUSH2 0x1221 JUMP JUMPDEST SWAP1 POP SWAP2 SWAP1 POP JUMP JUMPDEST PUSH32 0x496E76616C696452656365697665720000000000000000000000000000000000 PUSH0 DUP3 ADD MSTORE POP JUMP JUMPDEST PUSH0 PUSH2 0x1295 PUSH1 0xF DUP4 PUSH2 0xB73 JUMP JUMPDEST SWAP2 POP PUSH2 0x12A0 DUP3 PUSH2 0x1261 JUMP JUMPDEST PUSH1 0x20 DUP3 ADD SWAP1 POP SWAP2 SWAP1 POP JUMP JUMPDEST PUSH0 PUSH1 0x20 DUP3 ADD SWAP1 POP DUP2 DUP2 SUB PUSH0 DUP4 ADD MSTORE PUSH2 0x12C2 DUP2 PUSH2 0x1289 JUMP JUMPDEST SWAP1 POP SWAP2 SWAP1 POP JUMP JUMPDEST PUSH32 0x496E76616C6964417070726F7665720000000000000000000000000000000000 PUSH0 DUP3 ADD MSTORE POP JUMP JUMPDEST PUSH0 PUSH2 0x12FD PUSH1 0xF DUP4 PUSH2 0xB73 JUMP JUMPDEST SWAP2 POP PUSH2 0x1308 DUP3 PUSH2 0x12C9 JUMP JUMPDEST PUSH1 0x20 DUP3 ADD SWAP1 POP SWAP2 SWAP1 POP JUMP JUMPDEST PUSH0 PUSH1 0x20 DUP3 ADD SWAP1 POP DUP2 DUP2 SUB PUSH0 DUP4 ADD MSTORE PUSH2 0x132A DUP2 PUSH2 0x12F1 JUMP JUMPDEST SWAP1 POP SWAP2 SWAP1 POP JUMP JUMPDEST PUSH32 0x496E76616C69645370656E646572000000000000000000000000000000000000 PUSH0 DUP3 ADD MSTORE POP JUMP JUMPDEST PUSH0 PUSH2 0x1365 PUSH1 0xE DUP4 PUSH2 0xB73 JUMP JUMPDEST SWAP2 POP PUSH2 0x1370 DUP3 PUSH2 0x1331 JUMP JUMPDEST PUSH1 0x20 DUP3 ADD SWAP1 POP SWAP2 SWAP1 POP JUMP JUMPDEST PUSH0 PUSH1 0x20 DUP3 ADD SWAP1 POP DUP2 DUP2 SUB PUSH0 DUP4 ADD MSTORE PUSH2 0x1392 DUP2 PUSH2 0x1359 JUMP JUMPDEST SWAP1 POP SWAP2 SWAP1 POP JUMP JUMPDEST PUSH0 PUSH2 0x13A3 DUP3 PUSH2 0xC71 JUMP JUMPDEST SWAP2 POP PUSH2 0x13AE DUP4 PUSH2 0xC71 JUMP JUMPDEST SWAP3 POP DUP3 DUP3 ADD SWAP1 POP DUP1 DUP3 GT ISZERO PUSH2 0x13C6 JUMPI PUSH2 0x13C5 PUSH2 0xF42 JUMP JUMPDEST JUMPDEST SWAP3 SWAP2 POP POP JUMP JUMPDEST PUSH32 0x696E737566696369656E742062616C616E636500000000000000000000000000 PUSH0 DUP3 ADD MSTORE POP JUMP JUMPDEST PUSH0 PUSH2 0x1400 PUSH1 0x13 DUP4 PUSH2 0xB73 JUMP JUMPDEST SWAP2 POP PUSH2 0x140B DUP3 PUSH2 0x13CC JUMP JUMPDEST PUSH1 0x20 DUP3 ADD SWAP1 POP SWAP2 SWAP1 POP JUMP JUMPDEST PUSH0 PUSH1 0x20 DUP3 ADD SWAP1 POP DUP2 DUP2 SUB PUSH0 DUP4 ADD MSTORE PUSH2 0x142D DUP2 PUSH2 0x13F4 JUMP JUMPDEST SWAP1 POP SWAP2 SWAP1 POP JUMP INVALID LOG2 PUSH5 0x6970667358 0x22 SLT KECCAK256 PUSH17 0x5361DED6C5229688F1269FA1104876B77E 0x2F 0xE0 DUP1 0x2A DUP1 PUSH28 0x7A19C363D811D7D64736F6C63430008160033000000000000000000 "
				},
				"gasEstimates": {
					"creation": {
						"codeDepositCost": "1045200",
						"executionCost": "infinite",
						"totalCost": "infinite"
					},
					"external": {
						"allowance(address,address)": "infinite",
						"approve(address,uint256)": "infinite",
						"balanceOf(address)": "2829",
						"decimals()": "427",
						"mint(uint256)": "infinite",
						"name()": "infinite",
						"owner()": "2537",
						"symbol()": "infinite",
						"totalSupply()": "2477",
						"transfer(address,uint256)": "infinite",
						"transferFrom(address,address,uint256)": "infinite"
					},
					"internal": {
						"initExchange(address,uint256)": "infinite"
					}
				},
				"methodIdentifiers": {
					"allowance(address,address)": "dd62ed3e",
					"approve(address,uint256)": "095ea7b3",
					"balanceOf(address)": "70a08231",
					"decimals()": "313ce567",
					"mint(uint256)": "a0712d68",
					"name()": "06fdde03",
					"owner()": "8da5cb5b",
					"symbol()": "95d89b41",
					"totalSupply()": "18160ddd",
					"transfer(address,uint256)": "a9059cbb",
					"transferFrom(address,address,uint256)": "23b872dd"
				}
			},
			"storageLayout": {
				"storage": [
					{
						"astId": 10,
						"contract": "solidity_course_materials/TokenExchange/TokenA.sol:TokenA",
						"label": "_balances",
						"offset": 0,
						"slot": "0",
						"type": "t_mapping(t_address,t_uint256)"
					},
					{
						"astId": 16,
						"contract": "solidity_course_materials/TokenExchange/TokenA.sol:TokenA",
						"label": "_allowances",
						"offset": 0,
						"slot": "1",
						"type": "t_mapping(t_address,t_mapping(t_address,t_uint256))"
					},
					{
						"astId": 18,
						"contract": "solidity_course_materials/TokenExchange/TokenA.sol:TokenA",
						"label": "_totalSupply",
						"offset": 0,
						"slot": "2",
						"type": "t_uint256"
					},
					{
						"astId": 20,
						"contract": "solidity_course_materials/TokenExchange/TokenA.sol:TokenA",
						"label": "_name",
						"offset": 0,
						"slot": "3",
						"type": "t_string_storage"
					},
					{
						"astId": 22,
						"contract": "solidity_course_materials/TokenExchange/TokenA.sol:TokenA",
						"label": "_symbol",
						"offset": 0,
						"slot": "4",
						"type": "t_string_storage"
					},
					{
						"astId": 565,
						"contract": "solidity_course_materials/TokenExchange/TokenA.sol:TokenA",
						"label": "_owner",
						"offset": 0,
						"slot": "5",
						"type": "t_address"
					}
				],
				"types": {
					"t_address": {
						"encoding": "inplace",
						"label": "address",
						"numberOfBytes": "20"
					},
					"t_mapping(t_address,t_mapping(t_address,t_uint256))": {
						"encoding": "mapping",
						"key": "t_address",
						"label": "mapping(address => mapping(address => uint256))",
						"numberOfBytes": "32",
						"value": "t_mapping(t_address,t_uint256)"
					},
					"t_mapping(t_address,t_uint256)": {
						"encoding": "mapping",
						"key": "t_address",
						"label": "mapping(address => uint256)",
						"numberOfBytes": "32",
						"value": "t_uint256"
					},
					"t_string_storage": {
						"encoding": "bytes",
						"label": "string",
						"numberOfBytes": "32"
					},
					"t_uint256": {
						"encoding": "inplace",
						"label": "uint256",
						"numberOfBytes": "32"
					}
				}
			},
			"userdoc": {
				"kind": "user",
				"methods": {},
				"version": 1
			}
		}
	}
}