{
	"solidity_course_materials/TokenExchange/TokenExchng.sol": {
		"TokenExchange": {
			"abi": [
				{
					"inputs": [
						{
							"internalType": "contract TokenA",
							"name": "adr1",
							"type": "address"
						},
						{
							"internalType": "contract TokenB",
							"name": "adr2",
							"type": "address"
						}
					],
					"stateMutability": "nonpayable",
					"type": "constructor"
				},
				{
					"inputs": [
						{
							"internalType": "string",
							"name": "",
							"type": "string"
						}
					],
					"name": "TokenBalance",
					"outputs": [
						{
							"internalType": "uint256",
							"name": "",
							"type": "uint256"
						}
					],
					"stateMutability": "view",
					"type": "function"
				},
				{
					"inputs": [
						{
							"internalType": "address",
							"name": "_TA",
							"type": "address"
						},
						{
							"internalType": "address",
							"name": "_TB",
							"type": "address"
						},
						{
							"internalType": "uint256",
							"name": "_amount",
							"type": "uint256"
						}
					],
					"name": "buyToken",
					"outputs": [
						{
							"internalType": "uint256",
							"name": "",
							"type": "uint256"
						}
					],
					"stateMutability": "nonpayable",
					"type": "function"
				},
				{
					"inputs": [
						{
							"internalType": "address",
							"name": "_token",
							"type": "address"
						}
					],
					"name": "buyTokenForEther",
					"outputs": [
						{
							"internalType": "int256",
							"name": "",
							"type": "int256"
						}
					],
					"stateMutability": "payable",
					"type": "function"
				}
			],
			"devdoc": {
				"kind": "dev",
				"methods": {},
				"version": 1
			},
			"evm": {
				"assembly": "    /* \"solidity_course_materials/TokenExchange/TokenExchng.sol\":161:3622  contract TokenExchange{... */\n  mstore(0x40, 0x80)\n    /* \"solidity_course_materials/TokenExchange/TokenExchng.sol\":304:457  constructor (TokenA adr1, TokenB adr2){... */\n  callvalue\n  dup1\n  iszero\n  tag_1\n  jumpi\n  0x00\n  dup1\n  revert\ntag_1:\n  pop\n  mload(0x40)\n  sub(codesize, bytecodeSize)\n  dup1\n  bytecodeSize\n  dup4\n  codecopy\n  dup2\n  dup2\n  add\n  0x40\n  mstore\n  dup2\n  add\n  swap1\n  tag_2\n  swap2\n  swap1\n  tag_3\n  jump\t// in\ntag_2:\n    /* \"solidity_course_materials/TokenExchange/TokenExchng.sol\":420:424  adr1 */\n  dup2\n    /* \"solidity_course_materials/TokenExchange/TokenExchng.sol\":410:417  proxyTA */\n  0x00\n  dup1\n    /* \"solidity_course_materials/TokenExchange/TokenExchng.sol\":410:424  proxyTA = adr1 */\n  0x0100\n  exp\n  dup2\n  sload\n  dup2\n  0xffffffffffffffffffffffffffffffffffffffff\n  mul\n  not\n  and\n  swap1\n  dup4\n  0xffffffffffffffffffffffffffffffffffffffff\n  and\n  mul\n  or\n  swap1\n  sstore\n  pop\n    /* \"solidity_course_materials/TokenExchange/TokenExchng.sol\":445:449  adr2 */\n  dup1\n    /* \"solidity_course_materials/TokenExchange/TokenExchng.sol\":435:442  proxyTB */\n  0x01\n  0x00\n    /* \"solidity_course_materials/TokenExchange/TokenExchng.sol\":435:449  proxyTB = adr2 */\n  0x0100\n  exp\n  dup2\n  sload\n  dup2\n  0xffffffffffffffffffffffffffffffffffffffff\n  mul\n  not\n  and\n  swap1\n  dup4\n  0xffffffffffffffffffffffffffffffffffffffff\n  and\n  mul\n  or\n  swap1\n  sstore\n  pop\n    /* \"solidity_course_materials/TokenExchange/TokenExchng.sol\":304:457  constructor (TokenA adr1, TokenB adr2){... */\n  pop\n  pop\n    /* \"solidity_course_materials/TokenExchange/TokenExchng.sol\":161:3622  contract TokenExchange{... */\n  jump(tag_6)\n    /* \"#utility.yul\":88:205   */\ntag_8:\n    /* \"#utility.yul\":197:198   */\n  0x00\n    /* \"#utility.yul\":194:195   */\n  dup1\n    /* \"#utility.yul\":187:199   */\n  revert\n    /* \"#utility.yul\":334:460   */\ntag_10:\n    /* \"#utility.yul\":371:378   */\n  0x00\n    /* \"#utility.yul\":411:453   */\n  0xffffffffffffffffffffffffffffffffffffffff\n    /* \"#utility.yul\":404:409   */\n  dup3\n    /* \"#utility.yul\":400:454   */\n  and\n    /* \"#utility.yul\":389:454   */\n  swap1\n  pop\n    /* \"#utility.yul\":334:460   */\n  swap2\n  swap1\n  pop\n  jump\t// out\n    /* \"#utility.yul\":466:562   */\ntag_11:\n    /* \"#utility.yul\":503:510   */\n  0x00\n    /* \"#utility.yul\":532:556   */\n  tag_24\n    /* \"#utility.yul\":550:555   */\n  dup3\n    /* \"#utility.yul\":532:556   */\n  tag_10\n  jump\t// in\ntag_24:\n    /* \"#utility.yul\":521:556   */\n  swap1\n  pop\n    /* \"#utility.yul\":466:562   */\n  swap2\n  swap1\n  pop\n  jump\t// out\n    /* \"#utility.yul\":568:678   */\ntag_12:\n    /* \"#utility.yul\":619:626   */\n  0x00\n    /* \"#utility.yul\":648:672   */\n  tag_26\n    /* \"#utility.yul\":666:671   */\n  dup3\n    /* \"#utility.yul\":648:672   */\n  tag_11\n  jump\t// in\ntag_26:\n    /* \"#utility.yul\":637:672   */\n  swap1\n  pop\n    /* \"#utility.yul\":568:678   */\n  swap2\n  swap1\n  pop\n  jump\t// out\n    /* \"#utility.yul\":684:834   */\ntag_13:\n    /* \"#utility.yul\":771:809   */\n  tag_28\n    /* \"#utility.yul\":803:808   */\n  dup2\n    /* \"#utility.yul\":771:809   */\n  tag_12\n  jump\t// in\ntag_28:\n    /* \"#utility.yul\":764:769   */\n  dup2\n    /* \"#utility.yul\":761:810   */\n  eq\n    /* \"#utility.yul\":751:828   */\n  tag_29\n  jumpi\n    /* \"#utility.yul\":824:825   */\n  0x00\n    /* \"#utility.yul\":821:822   */\n  dup1\n    /* \"#utility.yul\":814:826   */\n  revert\n    /* \"#utility.yul\":751:828   */\ntag_29:\n    /* \"#utility.yul\":684:834   */\n  pop\n  jump\t// out\n    /* \"#utility.yul\":840:1011   */\ntag_14:\n    /* \"#utility.yul\":911:916   */\n  0x00\n    /* \"#utility.yul\":942:948   */\n  dup2\n    /* \"#utility.yul\":936:949   */\n  mload\n    /* \"#utility.yul\":927:949   */\n  swap1\n  pop\n    /* \"#utility.yul\":958:1005   */\n  tag_31\n    /* \"#utility.yul\":999:1004   */\n  dup2\n    /* \"#utility.yul\":958:1005   */\n  tag_13\n  jump\t// in\ntag_31:\n    /* \"#utility.yul\":840:1011   */\n  swap3\n  swap2\n  pop\n  pop\n  jump\t// out\n    /* \"#utility.yul\":1017:1127   */\ntag_15:\n    /* \"#utility.yul\":1068:1075   */\n  0x00\n    /* \"#utility.yul\":1097:1121   */\n  tag_33\n    /* \"#utility.yul\":1115:1120   */\n  dup3\n    /* \"#utility.yul\":1097:1121   */\n  tag_11\n  jump\t// in\ntag_33:\n    /* \"#utility.yul\":1086:1121   */\n  swap1\n  pop\n    /* \"#utility.yul\":1017:1127   */\n  swap2\n  swap1\n  pop\n  jump\t// out\n    /* \"#utility.yul\":1133:1283   */\ntag_16:\n    /* \"#utility.yul\":1220:1258   */\n  tag_35\n    /* \"#utility.yul\":1252:1257   */\n  dup2\n    /* \"#utility.yul\":1220:1258   */\n  tag_15\n  jump\t// in\ntag_35:\n    /* \"#utility.yul\":1213:1218   */\n  dup2\n    /* \"#utility.yul\":1210:1259   */\n  eq\n    /* \"#utility.yul\":1200:1277   */\n  tag_36\n  jumpi\n    /* \"#utility.yul\":1273:1274   */\n  0x00\n    /* \"#utility.yul\":1270:1271   */\n  dup1\n    /* \"#utility.yul\":1263:1275   */\n  revert\n    /* \"#utility.yul\":1200:1277   */\ntag_36:\n    /* \"#utility.yul\":1133:1283   */\n  pop\n  jump\t// out\n    /* \"#utility.yul\":1289:1460   */\ntag_17:\n    /* \"#utility.yul\":1360:1365   */\n  0x00\n    /* \"#utility.yul\":1391:1397   */\n  dup2\n    /* \"#utility.yul\":1385:1398   */\n  mload\n    /* \"#utility.yul\":1376:1398   */\n  swap1\n  pop\n    /* \"#utility.yul\":1407:1454   */\n  tag_38\n    /* \"#utility.yul\":1448:1453   */\n  dup2\n    /* \"#utility.yul\":1407:1454   */\n  tag_16\n  jump\t// in\ntag_38:\n    /* \"#utility.yul\":1289:1460   */\n  swap3\n  swap2\n  pop\n  pop\n  jump\t// out\n    /* \"#utility.yul\":1466:2029   */\ntag_3:\n    /* \"#utility.yul\":1573:1579   */\n  0x00\n    /* \"#utility.yul\":1581:1587   */\n  dup1\n    /* \"#utility.yul\":1630:1632   */\n  0x40\n    /* \"#utility.yul\":1618:1627   */\n  dup4\n    /* \"#utility.yul\":1609:1616   */\n  dup6\n    /* \"#utility.yul\":1605:1628   */\n  sub\n    /* \"#utility.yul\":1601:1633   */\n  slt\n    /* \"#utility.yul\":1598:1717   */\n  iszero\n  tag_40\n  jumpi\n    /* \"#utility.yul\":1636:1715   */\n  tag_41\n  tag_8\n  jump\t// in\ntag_41:\n    /* \"#utility.yul\":1598:1717   */\ntag_40:\n    /* \"#utility.yul\":1756:1757   */\n  0x00\n    /* \"#utility.yul\":1781:1859   */\n  tag_42\n    /* \"#utility.yul\":1851:1858   */\n  dup6\n    /* \"#utility.yul\":1842:1848   */\n  dup3\n    /* \"#utility.yul\":1831:1840   */\n  dup7\n    /* \"#utility.yul\":1827:1849   */\n  add\n    /* \"#utility.yul\":1781:1859   */\n  tag_14\n  jump\t// in\ntag_42:\n    /* \"#utility.yul\":1771:1859   */\n  swap3\n  pop\n    /* \"#utility.yul\":1727:1869   */\n  pop\n    /* \"#utility.yul\":1908:1910   */\n  0x20\n    /* \"#utility.yul\":1934:2012   */\n  tag_43\n    /* \"#utility.yul\":2004:2011   */\n  dup6\n    /* \"#utility.yul\":1995:2001   */\n  dup3\n    /* \"#utility.yul\":1984:1993   */\n  dup7\n    /* \"#utility.yul\":1980:2002   */\n  add\n    /* \"#utility.yul\":1934:2012   */\n  tag_17\n  jump\t// in\ntag_43:\n    /* \"#utility.yul\":1924:2012   */\n  swap2\n  pop\n    /* \"#utility.yul\":1879:2022   */\n  pop\n    /* \"#utility.yul\":1466:2029   */\n  swap3\n  pop\n  swap3\n  swap1\n  pop\n  jump\t// out\n    /* \"solidity_course_materials/TokenExchange/TokenExchng.sol\":161:3622  contract TokenExchange{... */\ntag_6:\n  dataSize(sub_0)\n  dup1\n  dataOffset(sub_0)\n  0x00\n  codecopy\n  0x00\n  return\nstop\n\nsub_0: assembly {\n        /* \"solidity_course_materials/TokenExchange/TokenExchng.sol\":161:3622  contract TokenExchange{... */\n      mstore(0x40, 0x80)\n      jumpi(tag_1, lt(calldatasize, 0x04))\n      shr(0xe0, calldataload(0x00))\n      dup1\n      0x7193bfab\n      eq\n      tag_2\n      jumpi\n      dup1\n      0xbf6cb6a1\n      eq\n      tag_3\n      jumpi\n      dup1\n      0xc1d5725f\n      eq\n      tag_4\n      jumpi\n    tag_1:\n      0x00\n      dup1\n      revert\n        /* \"solidity_course_materials/TokenExchange/TokenExchng.sol\":510:2175  function buyTokenForEther(address _token) public payable returns(int){... */\n    tag_2:\n      tag_5\n      0x04\n      dup1\n      calldatasize\n      sub\n      dup2\n      add\n      swap1\n      tag_6\n      swap2\n      swap1\n      tag_7\n      jump\t// in\n    tag_6:\n      tag_8\n      jump\t// in\n    tag_5:\n      mload(0x40)\n      tag_9\n      swap2\n      swap1\n      tag_10\n      jump\t// in\n    tag_9:\n      mload(0x40)\n      dup1\n      swap2\n      sub\n      swap1\n      return\n        /* \"solidity_course_materials/TokenExchange/TokenExchng.sol\":252:295  mapping(string => uint) public TokenBalance */\n    tag_3:\n      callvalue\n      dup1\n      iszero\n      tag_11\n      jumpi\n      0x00\n      dup1\n      revert\n    tag_11:\n      pop\n      tag_12\n      0x04\n      dup1\n      calldatasize\n      sub\n      dup2\n      add\n      swap1\n      tag_13\n      swap2\n      swap1\n      tag_14\n      jump\t// in\n    tag_13:\n      tag_15\n      jump\t// in\n    tag_12:\n      mload(0x40)\n      tag_16\n      swap2\n      swap1\n      tag_17\n      jump\t// in\n    tag_16:\n      mload(0x40)\n      dup1\n      swap2\n      sub\n      swap1\n      return\n        /* \"solidity_course_materials/TokenExchange/TokenExchng.sol\":2195:3607  function buyToken(address _TA, address _TB, uint _amount) public returns(uint){... */\n    tag_4:\n      callvalue\n      dup1\n      iszero\n      tag_18\n      jumpi\n      0x00\n      dup1\n      revert\n    tag_18:\n      pop\n      tag_19\n      0x04\n      dup1\n      calldatasize\n      sub\n      dup2\n      add\n      swap1\n      tag_20\n      swap2\n      swap1\n      tag_21\n      jump\t// in\n    tag_20:\n      tag_22\n      jump\t// in\n    tag_19:\n      mload(0x40)\n      tag_23\n      swap2\n      swap1\n      tag_17\n      jump\t// in\n    tag_23:\n      mload(0x40)\n      dup1\n      swap2\n      sub\n      swap1\n      return\n        /* \"solidity_course_materials/TokenExchange/TokenExchng.sol\":510:2175  function buyTokenForEther(address _token) public payable returns(int){... */\n    tag_8:\n        /* \"solidity_course_materials/TokenExchange/TokenExchng.sol\":575:578  int */\n      0x00\n        /* \"solidity_course_materials/TokenExchange/TokenExchng.sol\":687:699  bool _tokenA */\n      dup1\n        /* \"solidity_course_materials/TokenExchange/TokenExchng.sol\":720:727  proxyTA */\n      0x00\n      dup1\n      sload\n      swap1\n      0x0100\n      exp\n      swap1\n      div\n      0xffffffffffffffffffffffffffffffffffffffff\n      and\n        /* \"solidity_course_materials/TokenExchange/TokenExchng.sol\":702:728  _token == address(proxyTA) */\n      0xffffffffffffffffffffffffffffffffffffffff\n      and\n        /* \"solidity_course_materials/TokenExchange/TokenExchng.sol\":702:708  _token */\n      dup4\n        /* \"solidity_course_materials/TokenExchange/TokenExchng.sol\":702:728  _token == address(proxyTA) */\n      0xffffffffffffffffffffffffffffffffffffffff\n      and\n      eq\n        /* \"solidity_course_materials/TokenExchange/TokenExchng.sol\":687:728  bool _tokenA = _token == address(proxyTA) */\n      swap1\n      pop\n        /* \"solidity_course_materials/TokenExchange/TokenExchng.sol\":739:751  bool _tokenB */\n      0x00\n        /* \"solidity_course_materials/TokenExchange/TokenExchng.sol\":772:779  proxyTB */\n      0x01\n      0x00\n      swap1\n      sload\n      swap1\n      0x0100\n      exp\n      swap1\n      div\n      0xffffffffffffffffffffffffffffffffffffffff\n      and\n        /* \"solidity_course_materials/TokenExchange/TokenExchng.sol\":754:780  _token == address(proxyTB) */\n      0xffffffffffffffffffffffffffffffffffffffff\n      and\n        /* \"solidity_course_materials/TokenExchange/TokenExchng.sol\":754:760  _token */\n      dup5\n        /* \"solidity_course_materials/TokenExchange/TokenExchng.sol\":754:780  _token == address(proxyTB) */\n      0xffffffffffffffffffffffffffffffffffffffff\n      and\n      eq\n        /* \"solidity_course_materials/TokenExchange/TokenExchng.sol\":739:780  bool _tokenB = _token == address(proxyTB) */\n      swap1\n      pop\n        /* \"solidity_course_materials/TokenExchange/TokenExchng.sol\":791:814  int  _tokens_transfered */\n      0x00\n        /* \"solidity_course_materials/TokenExchange/TokenExchng.sol\":817:819  -1 */\n      0xffffffffffffffffffffffffffffffffffffffffffffffffffffffffffffffff\n        /* \"solidity_course_materials/TokenExchange/TokenExchng.sol\":791:819  int  _tokens_transfered = -1 */\n      swap1\n      pop\n        /* \"solidity_course_materials/TokenExchange/TokenExchng.sol\":834:841  _tokenA */\n      dup3\n        /* \"solidity_course_materials/TokenExchange/TokenExchng.sol\":830:1392  if( _tokenA){... */\n      iszero\n      tag_25\n      jumpi\n        /* \"solidity_course_materials/TokenExchange/TokenExchng.sol\":960:969  msg.value */\n      callvalue\n        /* \"solidity_course_materials/TokenExchange/TokenExchng.sol\":924:931  proxyTA */\n      0x00\n      dup1\n      sload\n      swap1\n      0x0100\n      exp\n      swap1\n      div\n      0xffffffffffffffffffffffffffffffffffffffff\n      and\n        /* \"solidity_course_materials/TokenExchange/TokenExchng.sol\":924:941  proxyTA.balanceOf */\n      0xffffffffffffffffffffffffffffffffffffffff\n      and\n      0x70a08231\n        /* \"solidity_course_materials/TokenExchange/TokenExchng.sol\":950:954  this */\n      address\n        /* \"solidity_course_materials/TokenExchange/TokenExchng.sol\":924:956  proxyTA.balanceOf(address(this)) */\n      mload(0x40)\n      dup3\n      0xffffffff\n      and\n      0xe0\n      shl\n      dup2\n      mstore\n      0x04\n      add\n      tag_26\n      swap2\n      swap1\n      tag_27\n      jump\t// in\n    tag_26:\n      0x20\n      mload(0x40)\n      dup1\n      dup4\n      sub\n      dup2\n      dup7\n      gas\n      staticcall\n      iszero\n      dup1\n      iszero\n      tag_29\n      jumpi\n      returndatasize\n      0x00\n      dup1\n      returndatacopy\n      revert(0x00, returndatasize)\n    tag_29:\n      pop\n      pop\n      pop\n      pop\n      mload(0x40)\n      returndatasize\n      not(0x1f)\n      0x1f\n      dup3\n      add\n      and\n      dup3\n      add\n      dup1\n      0x40\n      mstore\n      pop\n      dup2\n      add\n      swap1\n      tag_30\n      swap2\n      swap1\n      tag_31\n      jump\t// in\n    tag_30:\n        /* \"solidity_course_materials/TokenExchange/TokenExchng.sol\":924:969  proxyTA.balanceOf(address(this)) >= msg.value */\n      lt\n      iszero\n        /* \"solidity_course_materials/TokenExchange/TokenExchng.sol\":916:1018  require(proxyTA.balanceOf(address(this)) >= msg.value, \"Not enough TAs to sell for ethers, reverting\") */\n      tag_32\n      jumpi\n      mload(0x40)\n      0x08c379a000000000000000000000000000000000000000000000000000000000\n      dup2\n      mstore\n      0x04\n      add\n      tag_33\n      swap1\n      tag_34\n      jump\t// in\n    tag_33:\n      mload(0x40)\n      dup1\n      swap2\n      sub\n      swap1\n      revert\n    tag_32:\n        /* \"solidity_course_materials/TokenExchange/TokenExchng.sol\":1091:1098  proxyTA */\n      0x00\n      dup1\n      sload\n      swap1\n      0x0100\n      exp\n      swap1\n      div\n      0xffffffffffffffffffffffffffffffffffffffff\n      and\n        /* \"solidity_course_materials/TokenExchange/TokenExchng.sol\":1091:1107  proxyTA.transfer */\n      0xffffffffffffffffffffffffffffffffffffffff\n      and\n      0xa9059cbb\n        /* \"solidity_course_materials/TokenExchange/TokenExchng.sol\":1108:1118  msg.sender */\n      caller\n        /* \"solidity_course_materials/TokenExchange/TokenExchng.sol\":1120:1129  msg.value */\n      callvalue\n        /* \"solidity_course_materials/TokenExchange/TokenExchng.sol\":1091:1130  proxyTA.transfer(msg.sender, msg.value) */\n      mload(0x40)\n      dup4\n      0xffffffff\n      and\n      0xe0\n      shl\n      dup2\n      mstore\n      0x04\n      add\n      tag_35\n      swap3\n      swap2\n      swap1\n      tag_36\n      jump\t// in\n    tag_35:\n      0x20\n      mload(0x40)\n      dup1\n      dup4\n      sub\n      dup2\n      0x00\n      dup8\n      gas\n      call\n      iszero\n      dup1\n      iszero\n      tag_38\n      jumpi\n      returndatasize\n      0x00\n      dup1\n      returndatacopy\n      revert(0x00, returndatasize)\n    tag_38:\n      pop\n      pop\n      pop\n      pop\n      mload(0x40)\n      returndatasize\n      not(0x1f)\n      0x1f\n      dup3\n      add\n      and\n      dup3\n      add\n      dup1\n      0x40\n      mstore\n      pop\n      dup2\n      add\n      swap1\n      tag_39\n      swap2\n      swap1\n      tag_40\n      jump\t// in\n    tag_39:\n        /* \"solidity_course_materials/TokenExchange/TokenExchng.sol\":1083:1168  require(proxyTA.transfer(msg.sender, msg.value), \"Transfer of TAs failed, reverting\") */\n      tag_41\n      jumpi\n      mload(0x40)\n      0x08c379a000000000000000000000000000000000000000000000000000000000\n      dup2\n      mstore\n      0x04\n      add\n      tag_42\n      swap1\n      tag_43\n      jump\t// in\n    tag_42:\n      mload(0x40)\n      dup1\n      swap2\n      sub\n      swap1\n      revert\n    tag_41:\n        /* \"solidity_course_materials/TokenExchange/TokenExchng.sol\":1289:1298  msg.value */\n      callvalue\n        /* \"solidity_course_materials/TokenExchange/TokenExchng.sol\":1267:1279  TokenBalance */\n      0x02\n        /* \"solidity_course_materials/TokenExchange/TokenExchng.sol\":1267:1285  TokenBalance[\"TA\"] */\n      mload(0x40)\n      tag_44\n      swap1\n      tag_45\n      jump\t// in\n    tag_44:\n      swap1\n      dup2\n      mstore\n      0x20\n      add\n      mload(0x40)\n      dup1\n      swap2\n      sub\n      swap1\n      keccak256\n      0x00\n        /* \"solidity_course_materials/TokenExchange/TokenExchng.sol\":1267:1298  TokenBalance[\"TA\"] -= msg.value */\n      dup3\n      dup3\n      sload\n      tag_46\n      swap2\n      swap1\n      tag_47\n      jump\t// in\n    tag_46:\n      swap3\n      pop\n      pop\n      dup2\n      swap1\n      sstore\n      pop\n        /* \"solidity_course_materials/TokenExchange/TokenExchng.sol\":1338:1345  proxyTA */\n      0x00\n      dup1\n      sload\n      swap1\n      0x0100\n      exp\n      swap1\n      div\n      0xffffffffffffffffffffffffffffffffffffffff\n      and\n        /* \"solidity_course_materials/TokenExchange/TokenExchng.sol\":1338:1355  proxyTA.balanceOf */\n      0xffffffffffffffffffffffffffffffffffffffff\n      and\n      0x70a08231\n        /* \"solidity_course_materials/TokenExchange/TokenExchng.sol\":1356:1366  msg.sender */\n      caller\n        /* \"solidity_course_materials/TokenExchange/TokenExchng.sol\":1338:1367  proxyTA.balanceOf(msg.sender) */\n      mload(0x40)\n      dup3\n      0xffffffff\n      and\n      0xe0\n      shl\n      dup2\n      mstore\n      0x04\n      add\n      tag_48\n      swap2\n      swap1\n      tag_27\n      jump\t// in\n    tag_48:\n      0x20\n      mload(0x40)\n      dup1\n      dup4\n      sub\n      dup2\n      dup7\n      gas\n      staticcall\n      iszero\n      dup1\n      iszero\n      tag_50\n      jumpi\n      returndatasize\n      0x00\n      dup1\n      returndatacopy\n      revert(0x00, returndatasize)\n    tag_50:\n      pop\n      pop\n      pop\n      pop\n      mload(0x40)\n      returndatasize\n      not(0x1f)\n      0x1f\n      dup3\n      add\n      and\n      dup3\n      add\n      dup1\n      0x40\n      mstore\n      pop\n      dup2\n      add\n      swap1\n      tag_51\n      swap2\n      swap1\n      tag_31\n      jump\t// in\n    tag_51:\n        /* \"solidity_course_materials/TokenExchange/TokenExchng.sol\":1313:1368  _tokens_transfered = int(proxyTA.balanceOf(msg.sender)) */\n      swap1\n      pop\n        /* \"solidity_course_materials/TokenExchange/TokenExchng.sol\":830:1392  if( _tokenA){... */\n    tag_25:\n        /* \"solidity_course_materials/TokenExchange/TokenExchng.sol\":1406:1413  _tokenB */\n      dup2\n        /* \"solidity_course_materials/TokenExchange/TokenExchng.sol\":1402:1978  if( _tokenB){... */\n      iszero\n      tag_52\n      jumpi\n        /* \"solidity_course_materials/TokenExchange/TokenExchng.sol\":1532:1541  msg.value */\n      callvalue\n        /* \"solidity_course_materials/TokenExchange/TokenExchng.sol\":1496:1503  proxyTB */\n      0x01\n      0x00\n      swap1\n      sload\n      swap1\n      0x0100\n      exp\n      swap1\n      div\n      0xffffffffffffffffffffffffffffffffffffffff\n      and\n        /* \"solidity_course_materials/TokenExchange/TokenExchng.sol\":1496:1513  proxyTB.balanceOf */\n      0xffffffffffffffffffffffffffffffffffffffff\n      and\n      0x70a08231\n        /* \"solidity_course_materials/TokenExchange/TokenExchng.sol\":1522:1526  this */\n      address\n        /* \"solidity_course_materials/TokenExchange/TokenExchng.sol\":1496:1528  proxyTB.balanceOf(address(this)) */\n      mload(0x40)\n      dup3\n      0xffffffff\n      and\n      0xe0\n      shl\n      dup2\n      mstore\n      0x04\n      add\n      tag_53\n      swap2\n      swap1\n      tag_27\n      jump\t// in\n    tag_53:\n      0x20\n      mload(0x40)\n      dup1\n      dup4\n      sub\n      dup2\n      dup7\n      gas\n      staticcall\n      iszero\n      dup1\n      iszero\n      tag_55\n      jumpi\n      returndatasize\n      0x00\n      dup1\n      returndatacopy\n      revert(0x00, returndatasize)\n    tag_55:\n      pop\n      pop\n      pop\n      pop\n      mload(0x40)\n      returndatasize\n      not(0x1f)\n      0x1f\n      dup3\n      add\n      and\n      dup3\n      add\n      dup1\n      0x40\n      mstore\n      pop\n      dup2\n      add\n      swap1\n      tag_56\n      swap2\n      swap1\n      tag_31\n      jump\t// in\n    tag_56:\n        /* \"solidity_course_materials/TokenExchange/TokenExchng.sol\":1496:1541  proxyTB.balanceOf(address(this)) >= msg.value */\n      lt\n      iszero\n        /* \"solidity_course_materials/TokenExchange/TokenExchng.sol\":1488:1590  require(proxyTB.balanceOf(address(this)) >= msg.value, \"Not enough TBs to sell for ethers, reverting\") */\n      tag_57\n      jumpi\n      mload(0x40)\n      0x08c379a000000000000000000000000000000000000000000000000000000000\n      dup2\n      mstore\n      0x04\n      add\n      tag_58\n      swap1\n      tag_59\n      jump\t// in\n    tag_58:\n      mload(0x40)\n      dup1\n      swap2\n      sub\n      swap1\n      revert\n    tag_57:\n        /* \"solidity_course_materials/TokenExchange/TokenExchng.sol\":1663:1670  proxyTB */\n      0x01\n      0x00\n      swap1\n      sload\n      swap1\n      0x0100\n      exp\n      swap1\n      div\n      0xffffffffffffffffffffffffffffffffffffffff\n      and\n        /* \"solidity_course_materials/TokenExchange/TokenExchng.sol\":1663:1679  proxyTB.transfer */\n      0xffffffffffffffffffffffffffffffffffffffff\n      and\n      0xa9059cbb\n        /* \"solidity_course_materials/TokenExchange/TokenExchng.sol\":1680:1690  msg.sender */\n      caller\n        /* \"solidity_course_materials/TokenExchange/TokenExchng.sol\":1692:1701  msg.value */\n      callvalue\n        /* \"solidity_course_materials/TokenExchange/TokenExchng.sol\":1663:1702  proxyTB.transfer(msg.sender, msg.value) */\n      mload(0x40)\n      dup4\n      0xffffffff\n      and\n      0xe0\n      shl\n      dup2\n      mstore\n      0x04\n      add\n      tag_60\n      swap3\n      swap2\n      swap1\n      tag_36\n      jump\t// in\n    tag_60:\n      0x20\n      mload(0x40)\n      dup1\n      dup4\n      sub\n      dup2\n      0x00\n      dup8\n      gas\n      call\n      iszero\n      dup1\n      iszero\n      tag_62\n      jumpi\n      returndatasize\n      0x00\n      dup1\n      returndatacopy\n      revert(0x00, returndatasize)\n    tag_62:\n      pop\n      pop\n      pop\n      pop\n      mload(0x40)\n      returndatasize\n      not(0x1f)\n      0x1f\n      dup3\n      add\n      and\n      dup3\n      add\n      dup1\n      0x40\n      mstore\n      pop\n      dup2\n      add\n      swap1\n      tag_63\n      swap2\n      swap1\n      tag_40\n      jump\t// in\n    tag_63:\n        /* \"solidity_course_materials/TokenExchange/TokenExchng.sol\":1655:1740  require(proxyTB.transfer(msg.sender, msg.value), \"Transfer of TBs failed, reverting\") */\n      tag_64\n      jumpi\n      mload(0x40)\n      0x08c379a000000000000000000000000000000000000000000000000000000000\n      dup2\n      mstore\n      0x04\n      add\n      tag_65\n      swap1\n      tag_66\n      jump\t// in\n    tag_65:\n      mload(0x40)\n      dup1\n      swap2\n      sub\n      swap1\n      revert\n    tag_64:\n        /* \"solidity_course_materials/TokenExchange/TokenExchng.sol\":1850:1859  msg.value */\n      callvalue\n        /* \"solidity_course_materials/TokenExchange/TokenExchng.sol\":1828:1840  TokenBalance */\n      0x02\n        /* \"solidity_course_materials/TokenExchange/TokenExchng.sol\":1828:1846  TokenBalance[\"TB\"] */\n      mload(0x40)\n      tag_67\n      swap1\n      tag_68\n      jump\t// in\n    tag_67:\n      swap1\n      dup2\n      mstore\n      0x20\n      add\n      mload(0x40)\n      dup1\n      swap2\n      sub\n      swap1\n      keccak256\n      0x00\n        /* \"solidity_course_materials/TokenExchange/TokenExchng.sol\":1828:1859  TokenBalance[\"TB\"] -= msg.value */\n      dup3\n      dup3\n      sload\n      tag_69\n      swap2\n      swap1\n      tag_47\n      jump\t// in\n    tag_69:\n      swap3\n      pop\n      pop\n      dup2\n      swap1\n      sstore\n      pop\n        /* \"solidity_course_materials/TokenExchange/TokenExchng.sol\":1899:1906  proxyTB */\n      0x01\n      0x00\n      swap1\n      sload\n      swap1\n      0x0100\n      exp\n      swap1\n      div\n      0xffffffffffffffffffffffffffffffffffffffff\n      and\n        /* \"solidity_course_materials/TokenExchange/TokenExchng.sol\":1899:1916  proxyTB.balanceOf */\n      0xffffffffffffffffffffffffffffffffffffffff\n      and\n      0x70a08231\n        /* \"solidity_course_materials/TokenExchange/TokenExchng.sol\":1917:1927  msg.sender */\n      caller\n        /* \"solidity_course_materials/TokenExchange/TokenExchng.sol\":1899:1928  proxyTB.balanceOf(msg.sender) */\n      mload(0x40)\n      dup3\n      0xffffffff\n      and\n      0xe0\n      shl\n      dup2\n      mstore\n      0x04\n      add\n      tag_70\n      swap2\n      swap1\n      tag_27\n      jump\t// in\n    tag_70:\n      0x20\n      mload(0x40)\n      dup1\n      dup4\n      sub\n      dup2\n      dup7\n      gas\n      staticcall\n      iszero\n      dup1\n      iszero\n      tag_72\n      jumpi\n      returndatasize\n      0x00\n      dup1\n      returndatacopy\n      revert(0x00, returndatasize)\n    tag_72:\n      pop\n      pop\n      pop\n      pop\n      mload(0x40)\n      returndatasize\n      not(0x1f)\n      0x1f\n      dup3\n      add\n      and\n      dup3\n      add\n      dup1\n      0x40\n      mstore\n      pop\n      dup2\n      add\n      swap1\n      tag_73\n      swap2\n      swap1\n      tag_31\n      jump\t// in\n    tag_73:\n        /* \"solidity_course_materials/TokenExchange/TokenExchng.sol\":1874:1929  _tokens_transfered = int(proxyTB.balanceOf(msg.sender)) */\n      swap1\n      pop\n        /* \"solidity_course_materials/TokenExchange/TokenExchng.sol\":1402:1978  if( _tokenB){... */\n    tag_52:\n        /* \"solidity_course_materials/TokenExchange/TokenExchng.sol\":2101:2102  0 */\n      0x00\n        /* \"solidity_course_materials/TokenExchange/TokenExchng.sol\":2079:2097  _tokens_transfered */\n      dup2\n        /* \"solidity_course_materials/TokenExchange/TokenExchng.sol\":2079:2102  _tokens_transfered >= 0 */\n      slt\n      iszero\n        /* \"solidity_course_materials/TokenExchange/TokenExchng.sol\":2071:2129  require(_tokens_transfered >= 0, \"wrong token, reverting\") */\n      tag_74\n      jumpi\n      mload(0x40)\n      0x08c379a000000000000000000000000000000000000000000000000000000000\n      dup2\n      mstore\n      0x04\n      add\n      tag_75\n      swap1\n      tag_76\n      jump\t// in\n    tag_75:\n      mload(0x40)\n      dup1\n      swap2\n      sub\n      swap1\n      revert\n    tag_74:\n        /* \"solidity_course_materials/TokenExchange/TokenExchng.sol\":2149:2167  _tokens_transfered */\n      dup1\n        /* \"solidity_course_materials/TokenExchange/TokenExchng.sol\":2142:2167  return _tokens_transfered */\n      swap4\n      pop\n      pop\n      pop\n      pop\n        /* \"solidity_course_materials/TokenExchange/TokenExchng.sol\":510:2175  function buyTokenForEther(address _token) public payable returns(int){... */\n      swap2\n      swap1\n      pop\n      jump\t// out\n        /* \"solidity_course_materials/TokenExchange/TokenExchng.sol\":252:295  mapping(string => uint) public TokenBalance */\n    tag_15:\n      0x02\n      dup2\n      dup1\n      mload\n      0x20\n      dup2\n      add\n      dup3\n      add\n      dup1\n      mload\n      dup5\n      dup3\n      mstore\n      0x20\n      dup4\n      add\n      0x20\n      dup6\n      add\n      keccak256\n      dup2\n      dup4\n      mstore\n      dup1\n      swap6\n      pop\n      pop\n      pop\n      pop\n      pop\n      pop\n      0x00\n      swap2\n      pop\n      swap1\n      pop\n      sload\n      dup2\n      jump\t// out\n        /* \"solidity_course_materials/TokenExchange/TokenExchng.sol\":2195:3607  function buyToken(address _TA, address _TB, uint _amount) public returns(uint){... */\n    tag_22:\n        /* \"solidity_course_materials/TokenExchange/TokenExchng.sol\":2268:2272  uint */\n      0x00\n        /* \"solidity_course_materials/TokenExchange/TokenExchng.sol\":2325:2337  bool _tokenA */\n      dup1\n        /* \"solidity_course_materials/TokenExchange/TokenExchng.sol\":2355:2362  proxyTA */\n      0x00\n      dup1\n      sload\n      swap1\n      0x0100\n      exp\n      swap1\n      div\n      0xffffffffffffffffffffffffffffffffffffffff\n      and\n        /* \"solidity_course_materials/TokenExchange/TokenExchng.sol\":2340:2363  _TA == address(proxyTA) */\n      0xffffffffffffffffffffffffffffffffffffffff\n      and\n        /* \"solidity_course_materials/TokenExchange/TokenExchng.sol\":2340:2343  _TA */\n      dup6\n        /* \"solidity_course_materials/TokenExchange/TokenExchng.sol\":2340:2363  _TA == address(proxyTA) */\n      0xffffffffffffffffffffffffffffffffffffffff\n      and\n      eq\n        /* \"solidity_course_materials/TokenExchange/TokenExchng.sol\":2325:2363  bool _tokenA = _TA == address(proxyTA) */\n      swap1\n      pop\n        /* \"solidity_course_materials/TokenExchange/TokenExchng.sol\":2390:2402  bool _tokenB */\n      0x00\n        /* \"solidity_course_materials/TokenExchange/TokenExchng.sol\":2420:2427  proxyTB */\n      0x01\n      0x00\n      swap1\n      sload\n      swap1\n      0x0100\n      exp\n      swap1\n      div\n      0xffffffffffffffffffffffffffffffffffffffff\n      and\n        /* \"solidity_course_materials/TokenExchange/TokenExchng.sol\":2405:2428  _TB == address(proxyTB) */\n      0xffffffffffffffffffffffffffffffffffffffff\n      and\n        /* \"solidity_course_materials/TokenExchange/TokenExchng.sol\":2405:2408  _TB */\n      dup6\n        /* \"solidity_course_materials/TokenExchange/TokenExchng.sol\":2405:2428  _TB == address(proxyTB) */\n      0xffffffffffffffffffffffffffffffffffffffff\n      and\n      eq\n        /* \"solidity_course_materials/TokenExchange/TokenExchng.sol\":2390:2428  bool _tokenB = _TB == address(proxyTB) */\n      swap1\n      pop\n        /* \"solidity_course_materials/TokenExchange/TokenExchng.sol\":2455:2478  uint _tokens_transfered */\n      0x00\n        /* \"solidity_course_materials/TokenExchange/TokenExchng.sol\":2497:2504  _tokenA */\n      dup3\n        /* \"solidity_course_materials/TokenExchange/TokenExchng.sol\":2493:3020  if (_tokenA) { //if TA is wanted... */\n      iszero\n      tag_78\n      jumpi\n        /* \"solidity_course_materials/TokenExchange/TokenExchng.sol\":2619:2626  proxyTB */\n      0x01\n      0x00\n      swap1\n      sload\n      swap1\n      0x0100\n      exp\n      swap1\n      div\n      0xffffffffffffffffffffffffffffffffffffffff\n      and\n        /* \"solidity_course_materials/TokenExchange/TokenExchng.sol\":2619:2639  proxyTB.transferFrom */\n      0xffffffffffffffffffffffffffffffffffffffff\n      and\n      0x23b872dd\n        /* \"solidity_course_materials/TokenExchange/TokenExchng.sol\":2640:2650  msg.sender */\n      caller\n        /* \"solidity_course_materials/TokenExchange/TokenExchng.sol\":2660:2664  this */\n      address\n        /* \"solidity_course_materials/TokenExchange/TokenExchng.sol\":2667:2674  _amount */\n      dup9\n        /* \"solidity_course_materials/TokenExchange/TokenExchng.sol\":2619:2675  proxyTB.transferFrom(msg.sender, address(this), _amount) */\n      mload(0x40)\n      dup5\n      0xffffffff\n      and\n      0xe0\n      shl\n      dup2\n      mstore\n      0x04\n      add\n      tag_79\n      swap4\n      swap3\n      swap2\n      swap1\n      tag_80\n      jump\t// in\n    tag_79:\n      0x20\n      mload(0x40)\n      dup1\n      dup4\n      sub\n      dup2\n      0x00\n      dup8\n      gas\n      call\n      iszero\n      dup1\n      iszero\n      tag_82\n      jumpi\n      returndatasize\n      0x00\n      dup1\n      returndatacopy\n      revert(0x00, returndatasize)\n    tag_82:\n      pop\n      pop\n      pop\n      pop\n      mload(0x40)\n      returndatasize\n      not(0x1f)\n      0x1f\n      dup3\n      add\n      and\n      dup3\n      add\n      dup1\n      0x40\n      mstore\n      pop\n      dup2\n      add\n      swap1\n      tag_83\n      swap2\n      swap1\n      tag_40\n      jump\t// in\n    tag_83:\n        /* \"solidity_course_materials/TokenExchange/TokenExchng.sol\":2611:2715  require(proxyTB.transferFrom(msg.sender, address(this), _amount), \"cannot transfer TBs to the exchange\") */\n      tag_84\n      jumpi\n      mload(0x40)\n      0x08c379a000000000000000000000000000000000000000000000000000000000\n      dup2\n      mstore\n      0x04\n      add\n      tag_85\n      swap1\n      tag_86\n      jump\t// in\n    tag_85:\n      mload(0x40)\n      dup1\n      swap2\n      sub\n      swap1\n      revert\n    tag_84:\n        /* \"solidity_course_materials/TokenExchange/TokenExchng.sol\":2752:2759  _amount */\n      dup5\n        /* \"solidity_course_materials/TokenExchange/TokenExchng.sol\":2730:2742  TokenBalance */\n      0x02\n        /* \"solidity_course_materials/TokenExchange/TokenExchng.sol\":2730:2748  TokenBalance[\"TB\"] */\n      mload(0x40)\n      tag_87\n      swap1\n      tag_68\n      jump\t// in\n    tag_87:\n      swap1\n      dup2\n      mstore\n      0x20\n      add\n      mload(0x40)\n      dup1\n      swap2\n      sub\n      swap1\n      keccak256\n      0x00\n        /* \"solidity_course_materials/TokenExchange/TokenExchng.sol\":2730:2759  TokenBalance[\"TB\"] += _amount */\n      dup3\n      dup3\n      sload\n      tag_88\n      swap2\n      swap1\n      tag_89\n      jump\t// in\n    tag_88:\n      swap3\n      pop\n      pop\n      dup2\n      swap1\n      sstore\n      pop\n        /* \"solidity_course_materials/TokenExchange/TokenExchng.sol\":2847:2854  proxyTA */\n      0x00\n      dup1\n      sload\n      swap1\n      0x0100\n      exp\n      swap1\n      div\n      0xffffffffffffffffffffffffffffffffffffffff\n      and\n        /* \"solidity_course_materials/TokenExchange/TokenExchng.sol\":2847:2863  proxyTA.transfer */\n      0xffffffffffffffffffffffffffffffffffffffff\n      and\n      0xa9059cbb\n        /* \"solidity_course_materials/TokenExchange/TokenExchng.sol\":2864:2874  msg.sender */\n      caller\n        /* \"solidity_course_materials/TokenExchange/TokenExchng.sol\":2876:2883  _amount */\n      dup8\n        /* \"solidity_course_materials/TokenExchange/TokenExchng.sol\":2847:2884  proxyTA.transfer(msg.sender, _amount) */\n      mload(0x40)\n      dup4\n      0xffffffff\n      and\n      0xe0\n      shl\n      dup2\n      mstore\n      0x04\n      add\n      tag_90\n      swap3\n      swap2\n      swap1\n      tag_36\n      jump\t// in\n    tag_90:\n      0x20\n      mload(0x40)\n      dup1\n      dup4\n      sub\n      dup2\n      0x00\n      dup8\n      gas\n      call\n      iszero\n      dup1\n      iszero\n      tag_92\n      jumpi\n      returndatasize\n      0x00\n      dup1\n      returndatacopy\n      revert(0x00, returndatasize)\n    tag_92:\n      pop\n      pop\n      pop\n      pop\n      mload(0x40)\n      returndatasize\n      not(0x1f)\n      0x1f\n      dup3\n      add\n      and\n      dup3\n      add\n      dup1\n      0x40\n      mstore\n      pop\n      dup2\n      add\n      swap1\n      tag_93\n      swap2\n      swap1\n      tag_40\n      jump\t// in\n    tag_93:\n        /* \"solidity_course_materials/TokenExchange/TokenExchng.sol\":2839:2921  require(proxyTA.transfer(msg.sender, _amount), \"cannot transfer TAs to the buyer\") */\n      tag_94\n      jumpi\n      mload(0x40)\n      0x08c379a000000000000000000000000000000000000000000000000000000000\n      dup2\n      mstore\n      0x04\n      add\n      tag_95\n      swap1\n      tag_96\n      jump\t// in\n    tag_95:\n      mload(0x40)\n      dup1\n      swap2\n      sub\n      swap1\n      revert\n    tag_94:\n        /* \"solidity_course_materials/TokenExchange/TokenExchng.sol\":2958:2965  _amount */\n      dup5\n        /* \"solidity_course_materials/TokenExchange/TokenExchng.sol\":2936:2948  TokenBalance */\n      0x02\n        /* \"solidity_course_materials/TokenExchange/TokenExchng.sol\":2936:2954  TokenBalance[\"TA\"] */\n      mload(0x40)\n      tag_97\n      swap1\n      tag_45\n      jump\t// in\n    tag_97:\n      swap1\n      dup2\n      mstore\n      0x20\n      add\n      mload(0x40)\n      dup1\n      swap2\n      sub\n      swap1\n      keccak256\n      0x00\n        /* \"solidity_course_materials/TokenExchange/TokenExchng.sol\":2936:2965  TokenBalance[\"TA\"] -= _amount */\n      dup3\n      dup3\n      sload\n      tag_98\n      swap2\n      swap1\n      tag_47\n      jump\t// in\n    tag_98:\n      swap3\n      pop\n      pop\n      dup2\n      swap1\n      sstore\n      pop\n        /* \"solidity_course_materials/TokenExchange/TokenExchng.sol\":3001:3008  _amount */\n      dup5\n        /* \"solidity_course_materials/TokenExchange/TokenExchng.sol\":2980:3008  _tokens_transfered = _amount */\n      swap1\n      pop\n        /* \"solidity_course_materials/TokenExchange/TokenExchng.sol\":2493:3020  if (_tokenA) { //if TA is wanted... */\n    tag_78:\n        /* \"solidity_course_materials/TokenExchange/TokenExchng.sol\":3034:3041  _tokenB */\n      dup2\n        /* \"solidity_course_materials/TokenExchange/TokenExchng.sol\":3030:3557  if (_tokenB) { //if TB is wanted... */\n      iszero\n      tag_99\n      jumpi\n        /* \"solidity_course_materials/TokenExchange/TokenExchng.sol\":3156:3163  proxyTA */\n      0x00\n      dup1\n      sload\n      swap1\n      0x0100\n      exp\n      swap1\n      div\n      0xffffffffffffffffffffffffffffffffffffffff\n      and\n        /* \"solidity_course_materials/TokenExchange/TokenExchng.sol\":3156:3176  proxyTA.transferFrom */\n      0xffffffffffffffffffffffffffffffffffffffff\n      and\n      0x23b872dd\n        /* \"solidity_course_materials/TokenExchange/TokenExchng.sol\":3177:3187  msg.sender */\n      caller\n        /* \"solidity_course_materials/TokenExchange/TokenExchng.sol\":3197:3201  this */\n      address\n        /* \"solidity_course_materials/TokenExchange/TokenExchng.sol\":3204:3211  _amount */\n      dup9\n        /* \"solidity_course_materials/TokenExchange/TokenExchng.sol\":3156:3212  proxyTA.transferFrom(msg.sender, address(this), _amount) */\n      mload(0x40)\n      dup5\n      0xffffffff\n      and\n      0xe0\n      shl\n      dup2\n      mstore\n      0x04\n      add\n      tag_100\n      swap4\n      swap3\n      swap2\n      swap1\n      tag_80\n      jump\t// in\n    tag_100:\n      0x20\n      mload(0x40)\n      dup1\n      dup4\n      sub\n      dup2\n      0x00\n      dup8\n      gas\n      call\n      iszero\n      dup1\n      iszero\n      tag_102\n      jumpi\n      returndatasize\n      0x00\n      dup1\n      returndatacopy\n      revert(0x00, returndatasize)\n    tag_102:\n      pop\n      pop\n      pop\n      pop\n      mload(0x40)\n      returndatasize\n      not(0x1f)\n      0x1f\n      dup3\n      add\n      and\n      dup3\n      add\n      dup1\n      0x40\n      mstore\n      pop\n      dup2\n      add\n      swap1\n      tag_103\n      swap2\n      swap1\n      tag_40\n      jump\t// in\n    tag_103:\n        /* \"solidity_course_materials/TokenExchange/TokenExchng.sol\":3148:3252  require(proxyTA.transferFrom(msg.sender, address(this), _amount), \"cannot transfer TAs to the exchange\") */\n      tag_104\n      jumpi\n      mload(0x40)\n      0x08c379a000000000000000000000000000000000000000000000000000000000\n      dup2\n      mstore\n      0x04\n      add\n      tag_105\n      swap1\n      tag_106\n      jump\t// in\n    tag_105:\n      mload(0x40)\n      dup1\n      swap2\n      sub\n      swap1\n      revert\n    tag_104:\n        /* \"solidity_course_materials/TokenExchange/TokenExchng.sol\":3289:3296  _amount */\n      dup5\n        /* \"solidity_course_materials/TokenExchange/TokenExchng.sol\":3267:3279  TokenBalance */\n      0x02\n        /* \"solidity_course_materials/TokenExchange/TokenExchng.sol\":3267:3285  TokenBalance[\"TA\"] */\n      mload(0x40)\n      tag_107\n      swap1\n      tag_45\n      jump\t// in\n    tag_107:\n      swap1\n      dup2\n      mstore\n      0x20\n      add\n      mload(0x40)\n      dup1\n      swap2\n      sub\n      swap1\n      keccak256\n      0x00\n        /* \"solidity_course_materials/TokenExchange/TokenExchng.sol\":3267:3296  TokenBalance[\"TA\"] += _amount */\n      dup3\n      dup3\n      sload\n      tag_108\n      swap2\n      swap1\n      tag_89\n      jump\t// in\n    tag_108:\n      swap3\n      pop\n      pop\n      dup2\n      swap1\n      sstore\n      pop\n        /* \"solidity_course_materials/TokenExchange/TokenExchng.sol\":3384:3391  proxyTA */\n      0x00\n      dup1\n      sload\n      swap1\n      0x0100\n      exp\n      swap1\n      div\n      0xffffffffffffffffffffffffffffffffffffffff\n      and\n        /* \"solidity_course_materials/TokenExchange/TokenExchng.sol\":3384:3400  proxyTA.transfer */\n      0xffffffffffffffffffffffffffffffffffffffff\n      and\n      0xa9059cbb\n        /* \"solidity_course_materials/TokenExchange/TokenExchng.sol\":3401:3411  msg.sender */\n      caller\n        /* \"solidity_course_materials/TokenExchange/TokenExchng.sol\":3413:3420  _amount */\n      dup8\n        /* \"solidity_course_materials/TokenExchange/TokenExchng.sol\":3384:3421  proxyTA.transfer(msg.sender, _amount) */\n      mload(0x40)\n      dup4\n      0xffffffff\n      and\n      0xe0\n      shl\n      dup2\n      mstore\n      0x04\n      add\n      tag_109\n      swap3\n      swap2\n      swap1\n      tag_36\n      jump\t// in\n    tag_109:\n      0x20\n      mload(0x40)\n      dup1\n      dup4\n      sub\n      dup2\n      0x00\n      dup8\n      gas\n      call\n      iszero\n      dup1\n      iszero\n      tag_111\n      jumpi\n      returndatasize\n      0x00\n      dup1\n      returndatacopy\n      revert(0x00, returndatasize)\n    tag_111:\n      pop\n      pop\n      pop\n      pop\n      mload(0x40)\n      returndatasize\n      not(0x1f)\n      0x1f\n      dup3\n      add\n      and\n      dup3\n      add\n      dup1\n      0x40\n      mstore\n      pop\n      dup2\n      add\n      swap1\n      tag_112\n      swap2\n      swap1\n      tag_40\n      jump\t// in\n    tag_112:\n        /* \"solidity_course_materials/TokenExchange/TokenExchng.sol\":3376:3458  require(proxyTA.transfer(msg.sender, _amount), \"cannot transfer TBs to the buyer\") */\n      tag_113\n      jumpi\n      mload(0x40)\n      0x08c379a000000000000000000000000000000000000000000000000000000000\n      dup2\n      mstore\n      0x04\n      add\n      tag_114\n      swap1\n      tag_115\n      jump\t// in\n    tag_114:\n      mload(0x40)\n      dup1\n      swap2\n      sub\n      swap1\n      revert\n    tag_113:\n        /* \"solidity_course_materials/TokenExchange/TokenExchng.sol\":3495:3502  _amount */\n      dup5\n        /* \"solidity_course_materials/TokenExchange/TokenExchng.sol\":3473:3485  TokenBalance */\n      0x02\n        /* \"solidity_course_materials/TokenExchange/TokenExchng.sol\":3473:3491  TokenBalance[\"TB\"] */\n      mload(0x40)\n      tag_116\n      swap1\n      tag_68\n      jump\t// in\n    tag_116:\n      swap1\n      dup2\n      mstore\n      0x20\n      add\n      mload(0x40)\n      dup1\n      swap2\n      sub\n      swap1\n      keccak256\n      0x00\n        /* \"solidity_course_materials/TokenExchange/TokenExchng.sol\":3473:3502  TokenBalance[\"TB\"] -= _amount */\n      dup3\n      dup3\n      sload\n      tag_117\n      swap2\n      swap1\n      tag_47\n      jump\t// in\n    tag_117:\n      swap3\n      pop\n      pop\n      dup2\n      swap1\n      sstore\n      pop\n        /* \"solidity_course_materials/TokenExchange/TokenExchng.sol\":3538:3545  _amount */\n      dup5\n        /* \"solidity_course_materials/TokenExchange/TokenExchng.sol\":3517:3545  _tokens_transfered = _amount */\n      swap1\n      pop\n        /* \"solidity_course_materials/TokenExchange/TokenExchng.sol\":3030:3557  if (_tokenB) { //if TB is wanted... */\n    tag_99:\n        /* \"solidity_course_materials/TokenExchange/TokenExchng.sol\":3580:3598  _tokens_transfered */\n      dup1\n        /* \"solidity_course_materials/TokenExchange/TokenExchng.sol\":3573:3598  return _tokens_transfered */\n      swap4\n      pop\n      pop\n      pop\n      pop\n        /* \"solidity_course_materials/TokenExchange/TokenExchng.sol\":2195:3607  function buyToken(address _TA, address _TB, uint _amount) public returns(uint){... */\n      swap4\n      swap3\n      pop\n      pop\n      pop\n      jump\t// out\n        /* \"#utility.yul\":7:82   */\n    tag_118:\n        /* \"#utility.yul\":40:46   */\n      0x00\n        /* \"#utility.yul\":73:75   */\n      0x40\n        /* \"#utility.yul\":67:76   */\n      mload\n        /* \"#utility.yul\":57:76   */\n      swap1\n      pop\n        /* \"#utility.yul\":7:82   */\n      swap1\n      jump\t// out\n        /* \"#utility.yul\":88:205   */\n    tag_119:\n        /* \"#utility.yul\":197:198   */\n      0x00\n        /* \"#utility.yul\":194:195   */\n      dup1\n        /* \"#utility.yul\":187:199   */\n      revert\n        /* \"#utility.yul\":211:328   */\n    tag_120:\n        /* \"#utility.yul\":320:321   */\n      0x00\n        /* \"#utility.yul\":317:318   */\n      dup1\n        /* \"#utility.yul\":310:322   */\n      revert\n        /* \"#utility.yul\":334:460   */\n    tag_121:\n        /* \"#utility.yul\":371:378   */\n      0x00\n        /* \"#utility.yul\":411:453   */\n      0xffffffffffffffffffffffffffffffffffffffff\n        /* \"#utility.yul\":404:409   */\n      dup3\n        /* \"#utility.yul\":400:454   */\n      and\n        /* \"#utility.yul\":389:454   */\n      swap1\n      pop\n        /* \"#utility.yul\":334:460   */\n      swap2\n      swap1\n      pop\n      jump\t// out\n        /* \"#utility.yul\":466:562   */\n    tag_122:\n        /* \"#utility.yul\":503:510   */\n      0x00\n        /* \"#utility.yul\":532:556   */\n      tag_177\n        /* \"#utility.yul\":550:555   */\n      dup3\n        /* \"#utility.yul\":532:556   */\n      tag_121\n      jump\t// in\n    tag_177:\n        /* \"#utility.yul\":521:556   */\n      swap1\n      pop\n        /* \"#utility.yul\":466:562   */\n      swap2\n      swap1\n      pop\n      jump\t// out\n        /* \"#utility.yul\":568:690   */\n    tag_123:\n        /* \"#utility.yul\":641:665   */\n      tag_179\n        /* \"#utility.yul\":659:664   */\n      dup2\n        /* \"#utility.yul\":641:665   */\n      tag_122\n      jump\t// in\n    tag_179:\n        /* \"#utility.yul\":634:639   */\n      dup2\n        /* \"#utility.yul\":631:666   */\n      eq\n        /* \"#utility.yul\":621:684   */\n      tag_180\n      jumpi\n        /* \"#utility.yul\":680:681   */\n      0x00\n        /* \"#utility.yul\":677:678   */\n      dup1\n        /* \"#utility.yul\":670:682   */\n      revert\n        /* \"#utility.yul\":621:684   */\n    tag_180:\n        /* \"#utility.yul\":568:690   */\n      pop\n      jump\t// out\n        /* \"#utility.yul\":696:835   */\n    tag_124:\n        /* \"#utility.yul\":742:747   */\n      0x00\n        /* \"#utility.yul\":780:786   */\n      dup2\n        /* \"#utility.yul\":767:787   */\n      calldataload\n        /* \"#utility.yul\":758:787   */\n      swap1\n      pop\n        /* \"#utility.yul\":796:829   */\n      tag_182\n        /* \"#utility.yul\":823:828   */\n      dup2\n        /* \"#utility.yul\":796:829   */\n      tag_123\n      jump\t// in\n    tag_182:\n        /* \"#utility.yul\":696:835   */\n      swap3\n      swap2\n      pop\n      pop\n      jump\t// out\n        /* \"#utility.yul\":841:1170   */\n    tag_7:\n        /* \"#utility.yul\":900:906   */\n      0x00\n        /* \"#utility.yul\":949:951   */\n      0x20\n        /* \"#utility.yul\":937:946   */\n      dup3\n        /* \"#utility.yul\":928:935   */\n      dup5\n        /* \"#utility.yul\":924:947   */\n      sub\n        /* \"#utility.yul\":920:952   */\n      slt\n        /* \"#utility.yul\":917:1036   */\n      iszero\n      tag_184\n      jumpi\n        /* \"#utility.yul\":955:1034   */\n      tag_185\n      tag_119\n      jump\t// in\n    tag_185:\n        /* \"#utility.yul\":917:1036   */\n    tag_184:\n        /* \"#utility.yul\":1075:1076   */\n      0x00\n        /* \"#utility.yul\":1100:1153   */\n      tag_186\n        /* \"#utility.yul\":1145:1152   */\n      dup5\n        /* \"#utility.yul\":1136:1142   */\n      dup3\n        /* \"#utility.yul\":1125:1134   */\n      dup6\n        /* \"#utility.yul\":1121:1143   */\n      add\n        /* \"#utility.yul\":1100:1153   */\n      tag_124\n      jump\t// in\n    tag_186:\n        /* \"#utility.yul\":1090:1153   */\n      swap2\n      pop\n        /* \"#utility.yul\":1046:1163   */\n      pop\n        /* \"#utility.yul\":841:1170   */\n      swap3\n      swap2\n      pop\n      pop\n      jump\t// out\n        /* \"#utility.yul\":1176:1252   */\n    tag_125:\n        /* \"#utility.yul\":1212:1219   */\n      0x00\n        /* \"#utility.yul\":1241:1246   */\n      dup2\n        /* \"#utility.yul\":1230:1246   */\n      swap1\n      pop\n        /* \"#utility.yul\":1176:1252   */\n      swap2\n      swap1\n      pop\n      jump\t// out\n        /* \"#utility.yul\":1258:1373   */\n    tag_126:\n        /* \"#utility.yul\":1343:1366   */\n      tag_189\n        /* \"#utility.yul\":1360:1365   */\n      dup2\n        /* \"#utility.yul\":1343:1366   */\n      tag_125\n      jump\t// in\n    tag_189:\n        /* \"#utility.yul\":1338:1341   */\n      dup3\n        /* \"#utility.yul\":1331:1367   */\n      mstore\n        /* \"#utility.yul\":1258:1373   */\n      pop\n      pop\n      jump\t// out\n        /* \"#utility.yul\":1379:1597   */\n    tag_10:\n        /* \"#utility.yul\":1470:1474   */\n      0x00\n        /* \"#utility.yul\":1508:1510   */\n      0x20\n        /* \"#utility.yul\":1497:1506   */\n      dup3\n        /* \"#utility.yul\":1493:1511   */\n      add\n        /* \"#utility.yul\":1485:1511   */\n      swap1\n      pop\n        /* \"#utility.yul\":1521:1590   */\n      tag_191\n        /* \"#utility.yul\":1587:1588   */\n      0x00\n        /* \"#utility.yul\":1576:1585   */\n      dup4\n        /* \"#utility.yul\":1572:1589   */\n      add\n        /* \"#utility.yul\":1563:1569   */\n      dup5\n        /* \"#utility.yul\":1521:1590   */\n      tag_126\n      jump\t// in\n    tag_191:\n        /* \"#utility.yul\":1379:1597   */\n      swap3\n      swap2\n      pop\n      pop\n      jump\t// out\n        /* \"#utility.yul\":1603:1720   */\n    tag_127:\n        /* \"#utility.yul\":1712:1713   */\n      0x00\n        /* \"#utility.yul\":1709:1710   */\n      dup1\n        /* \"#utility.yul\":1702:1714   */\n      revert\n        /* \"#utility.yul\":1726:1843   */\n    tag_128:\n        /* \"#utility.yul\":1835:1836   */\n      0x00\n        /* \"#utility.yul\":1832:1833   */\n      dup1\n        /* \"#utility.yul\":1825:1837   */\n      revert\n        /* \"#utility.yul\":1849:1951   */\n    tag_129:\n        /* \"#utility.yul\":1890:1896   */\n      0x00\n        /* \"#utility.yul\":1941:1943   */\n      0x1f\n        /* \"#utility.yul\":1937:1944   */\n      not\n        /* \"#utility.yul\":1932:1934   */\n      0x1f\n        /* \"#utility.yul\":1925:1930   */\n      dup4\n        /* \"#utility.yul\":1921:1935   */\n      add\n        /* \"#utility.yul\":1917:1945   */\n      and\n        /* \"#utility.yul\":1907:1945   */\n      swap1\n      pop\n        /* \"#utility.yul\":1849:1951   */\n      swap2\n      swap1\n      pop\n      jump\t// out\n        /* \"#utility.yul\":1957:2137   */\n    tag_130:\n        /* \"#utility.yul\":2005:2082   */\n      0x4e487b7100000000000000000000000000000000000000000000000000000000\n        /* \"#utility.yul\":2002:2003   */\n      0x00\n        /* \"#utility.yul\":1995:2083   */\n      mstore\n        /* \"#utility.yul\":2102:2106   */\n      0x41\n        /* \"#utility.yul\":2099:2100   */\n      0x04\n        /* \"#utility.yul\":2092:2107   */\n      mstore\n        /* \"#utility.yul\":2126:2130   */\n      0x24\n        /* \"#utility.yul\":2123:2124   */\n      0x00\n        /* \"#utility.yul\":2116:2131   */\n      revert\n        /* \"#utility.yul\":2143:2424   */\n    tag_131:\n        /* \"#utility.yul\":2226:2253   */\n      tag_197\n        /* \"#utility.yul\":2248:2252   */\n      dup3\n        /* \"#utility.yul\":2226:2253   */\n      tag_129\n      jump\t// in\n    tag_197:\n        /* \"#utility.yul\":2218:2224   */\n      dup2\n        /* \"#utility.yul\":2214:2254   */\n      add\n        /* \"#utility.yul\":2356:2362   */\n      dup2\n        /* \"#utility.yul\":2344:2354   */\n      dup2\n        /* \"#utility.yul\":2341:2363   */\n      lt\n        /* \"#utility.yul\":2320:2338   */\n      0xffffffffffffffff\n        /* \"#utility.yul\":2308:2318   */\n      dup3\n        /* \"#utility.yul\":2305:2339   */\n      gt\n        /* \"#utility.yul\":2302:2364   */\n      or\n        /* \"#utility.yul\":2299:2387   */\n      iszero\n      tag_198\n      jumpi\n        /* \"#utility.yul\":2367:2385   */\n      tag_199\n      tag_130\n      jump\t// in\n    tag_199:\n        /* \"#utility.yul\":2299:2387   */\n    tag_198:\n        /* \"#utility.yul\":2407:2417   */\n      dup1\n        /* \"#utility.yul\":2403:2405   */\n      0x40\n        /* \"#utility.yul\":2396:2418   */\n      mstore\n        /* \"#utility.yul\":2186:2424   */\n      pop\n        /* \"#utility.yul\":2143:2424   */\n      pop\n      pop\n      jump\t// out\n        /* \"#utility.yul\":2430:2559   */\n    tag_132:\n        /* \"#utility.yul\":2464:2470   */\n      0x00\n        /* \"#utility.yul\":2491:2511   */\n      tag_201\n      tag_118\n      jump\t// in\n    tag_201:\n        /* \"#utility.yul\":2481:2511   */\n      swap1\n      pop\n        /* \"#utility.yul\":2520:2553   */\n      tag_202\n        /* \"#utility.yul\":2548:2552   */\n      dup3\n        /* \"#utility.yul\":2540:2546   */\n      dup3\n        /* \"#utility.yul\":2520:2553   */\n      tag_131\n      jump\t// in\n    tag_202:\n        /* \"#utility.yul\":2430:2559   */\n      swap2\n      swap1\n      pop\n      jump\t// out\n        /* \"#utility.yul\":2565:2873   */\n    tag_133:\n        /* \"#utility.yul\":2627:2631   */\n      0x00\n        /* \"#utility.yul\":2717:2735   */\n      0xffffffffffffffff\n        /* \"#utility.yul\":2709:2715   */\n      dup3\n        /* \"#utility.yul\":2706:2736   */\n      gt\n        /* \"#utility.yul\":2703:2759   */\n      iszero\n      tag_204\n      jumpi\n        /* \"#utility.yul\":2739:2757   */\n      tag_205\n      tag_130\n      jump\t// in\n    tag_205:\n        /* \"#utility.yul\":2703:2759   */\n    tag_204:\n        /* \"#utility.yul\":2777:2806   */\n      tag_206\n        /* \"#utility.yul\":2799:2805   */\n      dup3\n        /* \"#utility.yul\":2777:2806   */\n      tag_129\n      jump\t// in\n    tag_206:\n        /* \"#utility.yul\":2769:2806   */\n      swap1\n      pop\n        /* \"#utility.yul\":2861:2865   */\n      0x20\n        /* \"#utility.yul\":2855:2859   */\n      dup2\n        /* \"#utility.yul\":2851:2866   */\n      add\n        /* \"#utility.yul\":2843:2866   */\n      swap1\n      pop\n        /* \"#utility.yul\":2565:2873   */\n      swap2\n      swap1\n      pop\n      jump\t// out\n        /* \"#utility.yul\":2879:3025   */\n    tag_134:\n        /* \"#utility.yul\":2976:2982   */\n      dup3\n        /* \"#utility.yul\":2971:2974   */\n      dup2\n        /* \"#utility.yul\":2966:2969   */\n      dup4\n        /* \"#utility.yul\":2953:2983   */\n      calldatacopy\n        /* \"#utility.yul\":3017:3018   */\n      0x00\n        /* \"#utility.yul\":3008:3014   */\n      dup4\n        /* \"#utility.yul\":3003:3006   */\n      dup4\n        /* \"#utility.yul\":2999:3015   */\n      add\n        /* \"#utility.yul\":2992:3019   */\n      mstore\n        /* \"#utility.yul\":2879:3025   */\n      pop\n      pop\n      pop\n      jump\t// out\n        /* \"#utility.yul\":3031:3456   */\n    tag_135:\n        /* \"#utility.yul\":3109:3114   */\n      0x00\n        /* \"#utility.yul\":3134:3200   */\n      tag_209\n        /* \"#utility.yul\":3150:3199   */\n      tag_210\n        /* \"#utility.yul\":3192:3198   */\n      dup5\n        /* \"#utility.yul\":3150:3199   */\n      tag_133\n      jump\t// in\n    tag_210:\n        /* \"#utility.yul\":3134:3200   */\n      tag_132\n      jump\t// in\n    tag_209:\n        /* \"#utility.yul\":3125:3200   */\n      swap1\n      pop\n        /* \"#utility.yul\":3223:3229   */\n      dup3\n        /* \"#utility.yul\":3216:3221   */\n      dup2\n        /* \"#utility.yul\":3209:3230   */\n      mstore\n        /* \"#utility.yul\":3261:3265   */\n      0x20\n        /* \"#utility.yul\":3254:3259   */\n      dup2\n        /* \"#utility.yul\":3250:3266   */\n      add\n        /* \"#utility.yul\":3299:3302   */\n      dup5\n        /* \"#utility.yul\":3290:3296   */\n      dup5\n        /* \"#utility.yul\":3285:3288   */\n      dup5\n        /* \"#utility.yul\":3281:3297   */\n      add\n        /* \"#utility.yul\":3278:3303   */\n      gt\n        /* \"#utility.yul\":3275:3387   */\n      iszero\n      tag_211\n      jumpi\n        /* \"#utility.yul\":3306:3385   */\n      tag_212\n      tag_128\n      jump\t// in\n    tag_212:\n        /* \"#utility.yul\":3275:3387   */\n    tag_211:\n        /* \"#utility.yul\":3396:3450   */\n      tag_213\n        /* \"#utility.yul\":3443:3449   */\n      dup5\n        /* \"#utility.yul\":3438:3441   */\n      dup3\n        /* \"#utility.yul\":3433:3436   */\n      dup6\n        /* \"#utility.yul\":3396:3450   */\n      tag_134\n      jump\t// in\n    tag_213:\n        /* \"#utility.yul\":3115:3456   */\n      pop\n        /* \"#utility.yul\":3031:3456   */\n      swap4\n      swap3\n      pop\n      pop\n      pop\n      jump\t// out\n        /* \"#utility.yul\":3476:3816   */\n    tag_136:\n        /* \"#utility.yul\":3532:3537   */\n      0x00\n        /* \"#utility.yul\":3581:3584   */\n      dup3\n        /* \"#utility.yul\":3574:3578   */\n      0x1f\n        /* \"#utility.yul\":3566:3572   */\n      dup4\n        /* \"#utility.yul\":3562:3579   */\n      add\n        /* \"#utility.yul\":3558:3585   */\n      slt\n        /* \"#utility.yul\":3548:3670   */\n      tag_215\n      jumpi\n        /* \"#utility.yul\":3589:3668   */\n      tag_216\n      tag_127\n      jump\t// in\n    tag_216:\n        /* \"#utility.yul\":3548:3670   */\n    tag_215:\n        /* \"#utility.yul\":3706:3712   */\n      dup2\n        /* \"#utility.yul\":3693:3713   */\n      calldataload\n        /* \"#utility.yul\":3731:3810   */\n      tag_217\n        /* \"#utility.yul\":3806:3809   */\n      dup5\n        /* \"#utility.yul\":3798:3804   */\n      dup3\n        /* \"#utility.yul\":3791:3795   */\n      0x20\n        /* \"#utility.yul\":3783:3789   */\n      dup7\n        /* \"#utility.yul\":3779:3796   */\n      add\n        /* \"#utility.yul\":3731:3810   */\n      tag_135\n      jump\t// in\n    tag_217:\n        /* \"#utility.yul\":3722:3810   */\n      swap2\n      pop\n        /* \"#utility.yul\":3538:3816   */\n      pop\n        /* \"#utility.yul\":3476:3816   */\n      swap3\n      swap2\n      pop\n      pop\n      jump\t// out\n        /* \"#utility.yul\":3822:4331   */\n    tag_14:\n        /* \"#utility.yul\":3891:3897   */\n      0x00\n        /* \"#utility.yul\":3940:3942   */\n      0x20\n        /* \"#utility.yul\":3928:3937   */\n      dup3\n        /* \"#utility.yul\":3919:3926   */\n      dup5\n        /* \"#utility.yul\":3915:3938   */\n      sub\n        /* \"#utility.yul\":3911:3943   */\n      slt\n        /* \"#utility.yul\":3908:4027   */\n      iszero\n      tag_219\n      jumpi\n        /* \"#utility.yul\":3946:4025   */\n      tag_220\n      tag_119\n      jump\t// in\n    tag_220:\n        /* \"#utility.yul\":3908:4027   */\n    tag_219:\n        /* \"#utility.yul\":4094:4095   */\n      0x00\n        /* \"#utility.yul\":4083:4092   */\n      dup3\n        /* \"#utility.yul\":4079:4096   */\n      add\n        /* \"#utility.yul\":4066:4097   */\n      calldataload\n        /* \"#utility.yul\":4124:4142   */\n      0xffffffffffffffff\n        /* \"#utility.yul\":4116:4122   */\n      dup2\n        /* \"#utility.yul\":4113:4143   */\n      gt\n        /* \"#utility.yul\":4110:4227   */\n      iszero\n      tag_221\n      jumpi\n        /* \"#utility.yul\":4146:4225   */\n      tag_222\n      tag_120\n      jump\t// in\n    tag_222:\n        /* \"#utility.yul\":4110:4227   */\n    tag_221:\n        /* \"#utility.yul\":4251:4314   */\n      tag_223\n        /* \"#utility.yul\":4306:4313   */\n      dup5\n        /* \"#utility.yul\":4297:4303   */\n      dup3\n        /* \"#utility.yul\":4286:4295   */\n      dup6\n        /* \"#utility.yul\":4282:4304   */\n      add\n        /* \"#utility.yul\":4251:4314   */\n      tag_136\n      jump\t// in\n    tag_223:\n        /* \"#utility.yul\":4241:4314   */\n      swap2\n      pop\n        /* \"#utility.yul\":4037:4324   */\n      pop\n        /* \"#utility.yul\":3822:4331   */\n      swap3\n      swap2\n      pop\n      pop\n      jump\t// out\n        /* \"#utility.yul\":4337:4414   */\n    tag_137:\n        /* \"#utility.yul\":4374:4381   */\n      0x00\n        /* \"#utility.yul\":4403:4408   */\n      dup2\n        /* \"#utility.yul\":4392:4408   */\n      swap1\n      pop\n        /* \"#utility.yul\":4337:4414   */\n      swap2\n      swap1\n      pop\n      jump\t// out\n        /* \"#utility.yul\":4420:4538   */\n    tag_138:\n        /* \"#utility.yul\":4507:4531   */\n      tag_226\n        /* \"#utility.yul\":4525:4530   */\n      dup2\n        /* \"#utility.yul\":4507:4531   */\n      tag_137\n      jump\t// in\n    tag_226:\n        /* \"#utility.yul\":4502:4505   */\n      dup3\n        /* \"#utility.yul\":4495:4532   */\n      mstore\n        /* \"#utility.yul\":4420:4538   */\n      pop\n      pop\n      jump\t// out\n        /* \"#utility.yul\":4544:4766   */\n    tag_17:\n        /* \"#utility.yul\":4637:4641   */\n      0x00\n        /* \"#utility.yul\":4675:4677   */\n      0x20\n        /* \"#utility.yul\":4664:4673   */\n      dup3\n        /* \"#utility.yul\":4660:4678   */\n      add\n        /* \"#utility.yul\":4652:4678   */\n      swap1\n      pop\n        /* \"#utility.yul\":4688:4759   */\n      tag_228\n        /* \"#utility.yul\":4756:4757   */\n      0x00\n        /* \"#utility.yul\":4745:4754   */\n      dup4\n        /* \"#utility.yul\":4741:4758   */\n      add\n        /* \"#utility.yul\":4732:4738   */\n      dup5\n        /* \"#utility.yul\":4688:4759   */\n      tag_138\n      jump\t// in\n    tag_228:\n        /* \"#utility.yul\":4544:4766   */\n      swap3\n      swap2\n      pop\n      pop\n      jump\t// out\n        /* \"#utility.yul\":4772:4894   */\n    tag_139:\n        /* \"#utility.yul\":4845:4869   */\n      tag_230\n        /* \"#utility.yul\":4863:4868   */\n      dup2\n        /* \"#utility.yul\":4845:4869   */\n      tag_137\n      jump\t// in\n    tag_230:\n        /* \"#utility.yul\":4838:4843   */\n      dup2\n        /* \"#utility.yul\":4835:4870   */\n      eq\n        /* \"#utility.yul\":4825:4888   */\n      tag_231\n      jumpi\n        /* \"#utility.yul\":4884:4885   */\n      0x00\n        /* \"#utility.yul\":4881:4882   */\n      dup1\n        /* \"#utility.yul\":4874:4886   */\n      revert\n        /* \"#utility.yul\":4825:4888   */\n    tag_231:\n        /* \"#utility.yul\":4772:4894   */\n      pop\n      jump\t// out\n        /* \"#utility.yul\":4900:5039   */\n    tag_140:\n        /* \"#utility.yul\":4946:4951   */\n      0x00\n        /* \"#utility.yul\":4984:4990   */\n      dup2\n        /* \"#utility.yul\":4971:4991   */\n      calldataload\n        /* \"#utility.yul\":4962:4991   */\n      swap1\n      pop\n        /* \"#utility.yul\":5000:5033   */\n      tag_233\n        /* \"#utility.yul\":5027:5032   */\n      dup2\n        /* \"#utility.yul\":5000:5033   */\n      tag_139\n      jump\t// in\n    tag_233:\n        /* \"#utility.yul\":4900:5039   */\n      swap3\n      swap2\n      pop\n      pop\n      jump\t// out\n        /* \"#utility.yul\":5045:5664   */\n    tag_21:\n        /* \"#utility.yul\":5122:5128   */\n      0x00\n        /* \"#utility.yul\":5130:5136   */\n      dup1\n        /* \"#utility.yul\":5138:5144   */\n      0x00\n        /* \"#utility.yul\":5187:5189   */\n      0x60\n        /* \"#utility.yul\":5175:5184   */\n      dup5\n        /* \"#utility.yul\":5166:5173   */\n      dup7\n        /* \"#utility.yul\":5162:5185   */\n      sub\n        /* \"#utility.yul\":5158:5190   */\n      slt\n        /* \"#utility.yul\":5155:5274   */\n      iszero\n      tag_235\n      jumpi\n        /* \"#utility.yul\":5193:5272   */\n      tag_236\n      tag_119\n      jump\t// in\n    tag_236:\n        /* \"#utility.yul\":5155:5274   */\n    tag_235:\n        /* \"#utility.yul\":5313:5314   */\n      0x00\n        /* \"#utility.yul\":5338:5391   */\n      tag_237\n        /* \"#utility.yul\":5383:5390   */\n      dup7\n        /* \"#utility.yul\":5374:5380   */\n      dup3\n        /* \"#utility.yul\":5363:5372   */\n      dup8\n        /* \"#utility.yul\":5359:5381   */\n      add\n        /* \"#utility.yul\":5338:5391   */\n      tag_124\n      jump\t// in\n    tag_237:\n        /* \"#utility.yul\":5328:5391   */\n      swap4\n      pop\n        /* \"#utility.yul\":5284:5401   */\n      pop\n        /* \"#utility.yul\":5440:5442   */\n      0x20\n        /* \"#utility.yul\":5466:5519   */\n      tag_238\n        /* \"#utility.yul\":5511:5518   */\n      dup7\n        /* \"#utility.yul\":5502:5508   */\n      dup3\n        /* \"#utility.yul\":5491:5500   */\n      dup8\n        /* \"#utility.yul\":5487:5509   */\n      add\n        /* \"#utility.yul\":5466:5519   */\n      tag_124\n      jump\t// in\n    tag_238:\n        /* \"#utility.yul\":5456:5519   */\n      swap3\n      pop\n        /* \"#utility.yul\":5411:5529   */\n      pop\n        /* \"#utility.yul\":5568:5570   */\n      0x40\n        /* \"#utility.yul\":5594:5647   */\n      tag_239\n        /* \"#utility.yul\":5639:5646   */\n      dup7\n        /* \"#utility.yul\":5630:5636   */\n      dup3\n        /* \"#utility.yul\":5619:5628   */\n      dup8\n        /* \"#utility.yul\":5615:5637   */\n      add\n        /* \"#utility.yul\":5594:5647   */\n      tag_140\n      jump\t// in\n    tag_239:\n        /* \"#utility.yul\":5584:5647   */\n      swap2\n      pop\n        /* \"#utility.yul\":5539:5657   */\n      pop\n        /* \"#utility.yul\":5045:5664   */\n      swap3\n      pop\n      swap3\n      pop\n      swap3\n      jump\t// out\n        /* \"#utility.yul\":5670:5788   */\n    tag_141:\n        /* \"#utility.yul\":5757:5781   */\n      tag_241\n        /* \"#utility.yul\":5775:5780   */\n      dup2\n        /* \"#utility.yul\":5757:5781   */\n      tag_122\n      jump\t// in\n    tag_241:\n        /* \"#utility.yul\":5752:5755   */\n      dup3\n        /* \"#utility.yul\":5745:5782   */\n      mstore\n        /* \"#utility.yul\":5670:5788   */\n      pop\n      pop\n      jump\t// out\n        /* \"#utility.yul\":5794:6016   */\n    tag_27:\n        /* \"#utility.yul\":5887:5891   */\n      0x00\n        /* \"#utility.yul\":5925:5927   */\n      0x20\n        /* \"#utility.yul\":5914:5923   */\n      dup3\n        /* \"#utility.yul\":5910:5928   */\n      add\n        /* \"#utility.yul\":5902:5928   */\n      swap1\n      pop\n        /* \"#utility.yul\":5938:6009   */\n      tag_243\n        /* \"#utility.yul\":6006:6007   */\n      0x00\n        /* \"#utility.yul\":5995:6004   */\n      dup4\n        /* \"#utility.yul\":5991:6008   */\n      add\n        /* \"#utility.yul\":5982:5988   */\n      dup5\n        /* \"#utility.yul\":5938:6009   */\n      tag_141\n      jump\t// in\n    tag_243:\n        /* \"#utility.yul\":5794:6016   */\n      swap3\n      swap2\n      pop\n      pop\n      jump\t// out\n        /* \"#utility.yul\":6022:6165   */\n    tag_142:\n        /* \"#utility.yul\":6079:6084   */\n      0x00\n        /* \"#utility.yul\":6110:6116   */\n      dup2\n        /* \"#utility.yul\":6104:6117   */\n      mload\n        /* \"#utility.yul\":6095:6117   */\n      swap1\n      pop\n        /* \"#utility.yul\":6126:6159   */\n      tag_245\n        /* \"#utility.yul\":6153:6158   */\n      dup2\n        /* \"#utility.yul\":6126:6159   */\n      tag_139\n      jump\t// in\n    tag_245:\n        /* \"#utility.yul\":6022:6165   */\n      swap3\n      swap2\n      pop\n      pop\n      jump\t// out\n        /* \"#utility.yul\":6171:6522   */\n    tag_31:\n        /* \"#utility.yul\":6241:6247   */\n      0x00\n        /* \"#utility.yul\":6290:6292   */\n      0x20\n        /* \"#utility.yul\":6278:6287   */\n      dup3\n        /* \"#utility.yul\":6269:6276   */\n      dup5\n        /* \"#utility.yul\":6265:6288   */\n      sub\n        /* \"#utility.yul\":6261:6293   */\n      slt\n        /* \"#utility.yul\":6258:6377   */\n      iszero\n      tag_247\n      jumpi\n        /* \"#utility.yul\":6296:6375   */\n      tag_248\n      tag_119\n      jump\t// in\n    tag_248:\n        /* \"#utility.yul\":6258:6377   */\n    tag_247:\n        /* \"#utility.yul\":6416:6417   */\n      0x00\n        /* \"#utility.yul\":6441:6505   */\n      tag_249\n        /* \"#utility.yul\":6497:6504   */\n      dup5\n        /* \"#utility.yul\":6488:6494   */\n      dup3\n        /* \"#utility.yul\":6477:6486   */\n      dup6\n        /* \"#utility.yul\":6473:6495   */\n      add\n        /* \"#utility.yul\":6441:6505   */\n      tag_142\n      jump\t// in\n    tag_249:\n        /* \"#utility.yul\":6431:6505   */\n      swap2\n      pop\n        /* \"#utility.yul\":6387:6515   */\n      pop\n        /* \"#utility.yul\":6171:6522   */\n      swap3\n      swap2\n      pop\n      pop\n      jump\t// out\n        /* \"#utility.yul\":6528:6697   */\n    tag_143:\n        /* \"#utility.yul\":6612:6623   */\n      0x00\n        /* \"#utility.yul\":6646:6652   */\n      dup3\n        /* \"#utility.yul\":6641:6644   */\n      dup3\n        /* \"#utility.yul\":6634:6653   */\n      mstore\n        /* \"#utility.yul\":6686:6690   */\n      0x20\n        /* \"#utility.yul\":6681:6684   */\n      dup3\n        /* \"#utility.yul\":6677:6691   */\n      add\n        /* \"#utility.yul\":6662:6691   */\n      swap1\n      pop\n        /* \"#utility.yul\":6528:6697   */\n      swap3\n      swap2\n      pop\n      pop\n      jump\t// out\n        /* \"#utility.yul\":6703:6934   */\n    tag_144:\n        /* \"#utility.yul\":6843:6877   */\n      0x4e6f7420656e6f7567682054417320746f2073656c6c20666f72206574686572\n        /* \"#utility.yul\":6839:6840   */\n      0x00\n        /* \"#utility.yul\":6831:6837   */\n      dup3\n        /* \"#utility.yul\":6827:6841   */\n      add\n        /* \"#utility.yul\":6820:6878   */\n      mstore\n        /* \"#utility.yul\":6912:6926   */\n      0x732c20726576657274696e670000000000000000000000000000000000000000\n        /* \"#utility.yul\":6907:6909   */\n      0x20\n        /* \"#utility.yul\":6899:6905   */\n      dup3\n        /* \"#utility.yul\":6895:6910   */\n      add\n        /* \"#utility.yul\":6888:6927   */\n      mstore\n        /* \"#utility.yul\":6703:6934   */\n      pop\n      jump\t// out\n        /* \"#utility.yul\":6940:7306   */\n    tag_145:\n        /* \"#utility.yul\":7082:7085   */\n      0x00\n        /* \"#utility.yul\":7103:7170   */\n      tag_253\n        /* \"#utility.yul\":7167:7169   */\n      0x2c\n        /* \"#utility.yul\":7162:7165   */\n      dup4\n        /* \"#utility.yul\":7103:7170   */\n      tag_143\n      jump\t// in\n    tag_253:\n        /* \"#utility.yul\":7096:7170   */\n      swap2\n      pop\n        /* \"#utility.yul\":7179:7272   */\n      tag_254\n        /* \"#utility.yul\":7268:7271   */\n      dup3\n        /* \"#utility.yul\":7179:7272   */\n      tag_144\n      jump\t// in\n    tag_254:\n        /* \"#utility.yul\":7297:7299   */\n      0x40\n        /* \"#utility.yul\":7292:7295   */\n      dup3\n        /* \"#utility.yul\":7288:7300   */\n      add\n        /* \"#utility.yul\":7281:7300   */\n      swap1\n      pop\n        /* \"#utility.yul\":6940:7306   */\n      swap2\n      swap1\n      pop\n      jump\t// out\n        /* \"#utility.yul\":7312:7731   */\n    tag_34:\n        /* \"#utility.yul\":7478:7482   */\n      0x00\n        /* \"#utility.yul\":7516:7518   */\n      0x20\n        /* \"#utility.yul\":7505:7514   */\n      dup3\n        /* \"#utility.yul\":7501:7519   */\n      add\n        /* \"#utility.yul\":7493:7519   */\n      swap1\n      pop\n        /* \"#utility.yul\":7565:7574   */\n      dup2\n        /* \"#utility.yul\":7559:7563   */\n      dup2\n        /* \"#utility.yul\":7555:7575   */\n      sub\n        /* \"#utility.yul\":7551:7552   */\n      0x00\n        /* \"#utility.yul\":7540:7549   */\n      dup4\n        /* \"#utility.yul\":7536:7553   */\n      add\n        /* \"#utility.yul\":7529:7576   */\n      mstore\n        /* \"#utility.yul\":7593:7724   */\n      tag_256\n        /* \"#utility.yul\":7719:7723   */\n      dup2\n        /* \"#utility.yul\":7593:7724   */\n      tag_145\n      jump\t// in\n    tag_256:\n        /* \"#utility.yul\":7585:7724   */\n      swap1\n      pop\n        /* \"#utility.yul\":7312:7731   */\n      swap2\n      swap1\n      pop\n      jump\t// out\n        /* \"#utility.yul\":7737:8069   */\n    tag_36:\n        /* \"#utility.yul\":7858:7862   */\n      0x00\n        /* \"#utility.yul\":7896:7898   */\n      0x40\n        /* \"#utility.yul\":7885:7894   */\n      dup3\n        /* \"#utility.yul\":7881:7899   */\n      add\n        /* \"#utility.yul\":7873:7899   */\n      swap1\n      pop\n        /* \"#utility.yul\":7909:7980   */\n      tag_258\n        /* \"#utility.yul\":7977:7978   */\n      0x00\n        /* \"#utility.yul\":7966:7975   */\n      dup4\n        /* \"#utility.yul\":7962:7979   */\n      add\n        /* \"#utility.yul\":7953:7959   */\n      dup6\n        /* \"#utility.yul\":7909:7980   */\n      tag_141\n      jump\t// in\n    tag_258:\n        /* \"#utility.yul\":7990:8062   */\n      tag_259\n        /* \"#utility.yul\":8058:8060   */\n      0x20\n        /* \"#utility.yul\":8047:8056   */\n      dup4\n        /* \"#utility.yul\":8043:8061   */\n      add\n        /* \"#utility.yul\":8034:8040   */\n      dup5\n        /* \"#utility.yul\":7990:8062   */\n      tag_138\n      jump\t// in\n    tag_259:\n        /* \"#utility.yul\":7737:8069   */\n      swap4\n      swap3\n      pop\n      pop\n      pop\n      jump\t// out\n        /* \"#utility.yul\":8075:8165   */\n    tag_146:\n        /* \"#utility.yul\":8109:8116   */\n      0x00\n        /* \"#utility.yul\":8152:8157   */\n      dup2\n        /* \"#utility.yul\":8145:8158   */\n      iszero\n        /* \"#utility.yul\":8138:8159   */\n      iszero\n        /* \"#utility.yul\":8127:8159   */\n      swap1\n      pop\n        /* \"#utility.yul\":8075:8165   */\n      swap2\n      swap1\n      pop\n      jump\t// out\n        /* \"#utility.yul\":8171:8287   */\n    tag_147:\n        /* \"#utility.yul\":8241:8262   */\n      tag_262\n        /* \"#utility.yul\":8256:8261   */\n      dup2\n        /* \"#utility.yul\":8241:8262   */\n      tag_146\n      jump\t// in\n    tag_262:\n        /* \"#utility.yul\":8234:8239   */\n      dup2\n        /* \"#utility.yul\":8231:8263   */\n      eq\n        /* \"#utility.yul\":8221:8281   */\n      tag_263\n      jumpi\n        /* \"#utility.yul\":8277:8278   */\n      0x00\n        /* \"#utility.yul\":8274:8275   */\n      dup1\n        /* \"#utility.yul\":8267:8279   */\n      revert\n        /* \"#utility.yul\":8221:8281   */\n    tag_263:\n        /* \"#utility.yul\":8171:8287   */\n      pop\n      jump\t// out\n        /* \"#utility.yul\":8293:8430   */\n    tag_148:\n        /* \"#utility.yul\":8347:8352   */\n      0x00\n        /* \"#utility.yul\":8378:8384   */\n      dup2\n        /* \"#utility.yul\":8372:8385   */\n      mload\n        /* \"#utility.yul\":8363:8385   */\n      swap1\n      pop\n        /* \"#utility.yul\":8394:8424   */\n      tag_265\n        /* \"#utility.yul\":8418:8423   */\n      dup2\n        /* \"#utility.yul\":8394:8424   */\n      tag_147\n      jump\t// in\n    tag_265:\n        /* \"#utility.yul\":8293:8430   */\n      swap3\n      swap2\n      pop\n      pop\n      jump\t// out\n        /* \"#utility.yul\":8436:8781   */\n    tag_40:\n        /* \"#utility.yul\":8503:8509   */\n      0x00\n        /* \"#utility.yul\":8552:8554   */\n      0x20\n        /* \"#utility.yul\":8540:8549   */\n      dup3\n        /* \"#utility.yul\":8531:8538   */\n      dup5\n        /* \"#utility.yul\":8527:8550   */\n      sub\n        /* \"#utility.yul\":8523:8555   */\n      slt\n        /* \"#utility.yul\":8520:8639   */\n      iszero\n      tag_267\n      jumpi\n        /* \"#utility.yul\":8558:8637   */\n      tag_268\n      tag_119\n      jump\t// in\n    tag_268:\n        /* \"#utility.yul\":8520:8639   */\n    tag_267:\n        /* \"#utility.yul\":8678:8679   */\n      0x00\n        /* \"#utility.yul\":8703:8764   */\n      tag_269\n        /* \"#utility.yul\":8756:8763   */\n      dup5\n        /* \"#utility.yul\":8747:8753   */\n      dup3\n        /* \"#utility.yul\":8736:8745   */\n      dup6\n        /* \"#utility.yul\":8732:8754   */\n      add\n        /* \"#utility.yul\":8703:8764   */\n      tag_148\n      jump\t// in\n    tag_269:\n        /* \"#utility.yul\":8693:8764   */\n      swap2\n      pop\n        /* \"#utility.yul\":8649:8774   */\n      pop\n        /* \"#utility.yul\":8436:8781   */\n      swap3\n      swap2\n      pop\n      pop\n      jump\t// out\n        /* \"#utility.yul\":8787:9007   */\n    tag_149:\n        /* \"#utility.yul\":8927:8961   */\n      0x5472616e73666572206f6620544173206661696c65642c20726576657274696e\n        /* \"#utility.yul\":8923:8924   */\n      0x00\n        /* \"#utility.yul\":8915:8921   */\n      dup3\n        /* \"#utility.yul\":8911:8925   */\n      add\n        /* \"#utility.yul\":8904:8962   */\n      mstore\n        /* \"#utility.yul\":8996:8999   */\n      0x6700000000000000000000000000000000000000000000000000000000000000\n        /* \"#utility.yul\":8991:8993   */\n      0x20\n        /* \"#utility.yul\":8983:8989   */\n      dup3\n        /* \"#utility.yul\":8979:8994   */\n      add\n        /* \"#utility.yul\":8972:9000   */\n      mstore\n        /* \"#utility.yul\":8787:9007   */\n      pop\n      jump\t// out\n        /* \"#utility.yul\":9013:9379   */\n    tag_150:\n        /* \"#utility.yul\":9155:9158   */\n      0x00\n        /* \"#utility.yul\":9176:9243   */\n      tag_272\n        /* \"#utility.yul\":9240:9242   */\n      0x21\n        /* \"#utility.yul\":9235:9238   */\n      dup4\n        /* \"#utility.yul\":9176:9243   */\n      tag_143\n      jump\t// in\n    tag_272:\n        /* \"#utility.yul\":9169:9243   */\n      swap2\n      pop\n        /* \"#utility.yul\":9252:9345   */\n      tag_273\n        /* \"#utility.yul\":9341:9344   */\n      dup3\n        /* \"#utility.yul\":9252:9345   */\n      tag_149\n      jump\t// in\n    tag_273:\n        /* \"#utility.yul\":9370:9372   */\n      0x40\n        /* \"#utility.yul\":9365:9368   */\n      dup3\n        /* \"#utility.yul\":9361:9373   */\n      add\n        /* \"#utility.yul\":9354:9373   */\n      swap1\n      pop\n        /* \"#utility.yul\":9013:9379   */\n      swap2\n      swap1\n      pop\n      jump\t// out\n        /* \"#utility.yul\":9385:9804   */\n    tag_43:\n        /* \"#utility.yul\":9551:9555   */\n      0x00\n        /* \"#utility.yul\":9589:9591   */\n      0x20\n        /* \"#utility.yul\":9578:9587   */\n      dup3\n        /* \"#utility.yul\":9574:9592   */\n      add\n        /* \"#utility.yul\":9566:9592   */\n      swap1\n      pop\n        /* \"#utility.yul\":9638:9647   */\n      dup2\n        /* \"#utility.yul\":9632:9636   */\n      dup2\n        /* \"#utility.yul\":9628:9648   */\n      sub\n        /* \"#utility.yul\":9624:9625   */\n      0x00\n        /* \"#utility.yul\":9613:9622   */\n      dup4\n        /* \"#utility.yul\":9609:9626   */\n      add\n        /* \"#utility.yul\":9602:9649   */\n      mstore\n        /* \"#utility.yul\":9666:9797   */\n      tag_275\n        /* \"#utility.yul\":9792:9796   */\n      dup2\n        /* \"#utility.yul\":9666:9797   */\n      tag_150\n      jump\t// in\n    tag_275:\n        /* \"#utility.yul\":9658:9797   */\n      swap1\n      pop\n        /* \"#utility.yul\":9385:9804   */\n      swap2\n      swap1\n      pop\n      jump\t// out\n        /* \"#utility.yul\":9810:9958   */\n    tag_151:\n        /* \"#utility.yul\":9912:9923   */\n      0x00\n        /* \"#utility.yul\":9949:9952   */\n      dup2\n        /* \"#utility.yul\":9934:9952   */\n      swap1\n      pop\n        /* \"#utility.yul\":9810:9958   */\n      swap3\n      swap2\n      pop\n      pop\n      jump\t// out\n        /* \"#utility.yul\":9964:10116   */\n    tag_152:\n        /* \"#utility.yul\":10104:10108   */\n      0x5441000000000000000000000000000000000000000000000000000000000000\n        /* \"#utility.yul\":10100:10101   */\n      0x00\n        /* \"#utility.yul\":10092:10098   */\n      dup3\n        /* \"#utility.yul\":10088:10102   */\n      add\n        /* \"#utility.yul\":10081:10109   */\n      mstore\n        /* \"#utility.yul\":9964:10116   */\n      pop\n      jump\t// out\n        /* \"#utility.yul\":10122:10522   */\n    tag_153:\n        /* \"#utility.yul\":10282:10285   */\n      0x00\n        /* \"#utility.yul\":10303:10387   */\n      tag_279\n        /* \"#utility.yul\":10385:10386   */\n      0x02\n        /* \"#utility.yul\":10380:10383   */\n      dup4\n        /* \"#utility.yul\":10303:10387   */\n      tag_151\n      jump\t// in\n    tag_279:\n        /* \"#utility.yul\":10296:10387   */\n      swap2\n      pop\n        /* \"#utility.yul\":10396:10489   */\n      tag_280\n        /* \"#utility.yul\":10485:10488   */\n      dup3\n        /* \"#utility.yul\":10396:10489   */\n      tag_152\n      jump\t// in\n    tag_280:\n        /* \"#utility.yul\":10514:10515   */\n      0x02\n        /* \"#utility.yul\":10509:10512   */\n      dup3\n        /* \"#utility.yul\":10505:10516   */\n      add\n        /* \"#utility.yul\":10498:10516   */\n      swap1\n      pop\n        /* \"#utility.yul\":10122:10522   */\n      swap2\n      swap1\n      pop\n      jump\t// out\n        /* \"#utility.yul\":10528:10909   */\n    tag_45:\n        /* \"#utility.yul\":10713:10716   */\n      0x00\n        /* \"#utility.yul\":10735:10883   */\n      tag_282\n        /* \"#utility.yul\":10879:10882   */\n      dup3\n        /* \"#utility.yul\":10735:10883   */\n      tag_153\n      jump\t// in\n    tag_282:\n        /* \"#utility.yul\":10728:10883   */\n      swap2\n      pop\n        /* \"#utility.yul\":10900:10903   */\n      dup2\n        /* \"#utility.yul\":10893:10903   */\n      swap1\n      pop\n        /* \"#utility.yul\":10528:10909   */\n      swap2\n      swap1\n      pop\n      jump\t// out\n        /* \"#utility.yul\":10915:11095   */\n    tag_154:\n        /* \"#utility.yul\":10963:11040   */\n      0x4e487b7100000000000000000000000000000000000000000000000000000000\n        /* \"#utility.yul\":10960:10961   */\n      0x00\n        /* \"#utility.yul\":10953:11041   */\n      mstore\n        /* \"#utility.yul\":11060:11064   */\n      0x11\n        /* \"#utility.yul\":11057:11058   */\n      0x04\n        /* \"#utility.yul\":11050:11065   */\n      mstore\n        /* \"#utility.yul\":11084:11088   */\n      0x24\n        /* \"#utility.yul\":11081:11082   */\n      0x00\n        /* \"#utility.yul\":11074:11089   */\n      revert\n        /* \"#utility.yul\":11101:11295   */\n    tag_47:\n        /* \"#utility.yul\":11141:11145   */\n      0x00\n        /* \"#utility.yul\":11161:11181   */\n      tag_285\n        /* \"#utility.yul\":11179:11180   */\n      dup3\n        /* \"#utility.yul\":11161:11181   */\n      tag_137\n      jump\t// in\n    tag_285:\n        /* \"#utility.yul\":11156:11181   */\n      swap2\n      pop\n        /* \"#utility.yul\":11195:11215   */\n      tag_286\n        /* \"#utility.yul\":11213:11214   */\n      dup4\n        /* \"#utility.yul\":11195:11215   */\n      tag_137\n      jump\t// in\n    tag_286:\n        /* \"#utility.yul\":11190:11215   */\n      swap3\n      pop\n        /* \"#utility.yul\":11239:11240   */\n      dup3\n        /* \"#utility.yul\":11236:11237   */\n      dup3\n        /* \"#utility.yul\":11232:11241   */\n      sub\n        /* \"#utility.yul\":11224:11241   */\n      swap1\n      pop\n        /* \"#utility.yul\":11263:11264   */\n      dup2\n        /* \"#utility.yul\":11257:11261   */\n      dup2\n        /* \"#utility.yul\":11254:11265   */\n      gt\n        /* \"#utility.yul\":11251:11288   */\n      iszero\n      tag_287\n      jumpi\n        /* \"#utility.yul\":11268:11286   */\n      tag_288\n      tag_154\n      jump\t// in\n    tag_288:\n        /* \"#utility.yul\":11251:11288   */\n    tag_287:\n        /* \"#utility.yul\":11101:11295   */\n      swap3\n      swap2\n      pop\n      pop\n      jump\t// out\n        /* \"#utility.yul\":11301:11532   */\n    tag_155:\n        /* \"#utility.yul\":11441:11475   */\n      0x4e6f7420656e6f7567682054427320746f2073656c6c20666f72206574686572\n        /* \"#utility.yul\":11437:11438   */\n      0x00\n        /* \"#utility.yul\":11429:11435   */\n      dup3\n        /* \"#utility.yul\":11425:11439   */\n      add\n        /* \"#utility.yul\":11418:11476   */\n      mstore\n        /* \"#utility.yul\":11510:11524   */\n      0x732c20726576657274696e670000000000000000000000000000000000000000\n        /* \"#utility.yul\":11505:11507   */\n      0x20\n        /* \"#utility.yul\":11497:11503   */\n      dup3\n        /* \"#utility.yul\":11493:11508   */\n      add\n        /* \"#utility.yul\":11486:11525   */\n      mstore\n        /* \"#utility.yul\":11301:11532   */\n      pop\n      jump\t// out\n        /* \"#utility.yul\":11538:11904   */\n    tag_156:\n        /* \"#utility.yul\":11680:11683   */\n      0x00\n        /* \"#utility.yul\":11701:11768   */\n      tag_291\n        /* \"#utility.yul\":11765:11767   */\n      0x2c\n        /* \"#utility.yul\":11760:11763   */\n      dup4\n        /* \"#utility.yul\":11701:11768   */\n      tag_143\n      jump\t// in\n    tag_291:\n        /* \"#utility.yul\":11694:11768   */\n      swap2\n      pop\n        /* \"#utility.yul\":11777:11870   */\n      tag_292\n        /* \"#utility.yul\":11866:11869   */\n      dup3\n        /* \"#utility.yul\":11777:11870   */\n      tag_155\n      jump\t// in\n    tag_292:\n        /* \"#utility.yul\":11895:11897   */\n      0x40\n        /* \"#utility.yul\":11890:11893   */\n      dup3\n        /* \"#utility.yul\":11886:11898   */\n      add\n        /* \"#utility.yul\":11879:11898   */\n      swap1\n      pop\n        /* \"#utility.yul\":11538:11904   */\n      swap2\n      swap1\n      pop\n      jump\t// out\n        /* \"#utility.yul\":11910:12329   */\n    tag_59:\n        /* \"#utility.yul\":12076:12080   */\n      0x00\n        /* \"#utility.yul\":12114:12116   */\n      0x20\n        /* \"#utility.yul\":12103:12112   */\n      dup3\n        /* \"#utility.yul\":12099:12117   */\n      add\n        /* \"#utility.yul\":12091:12117   */\n      swap1\n      pop\n        /* \"#utility.yul\":12163:12172   */\n      dup2\n        /* \"#utility.yul\":12157:12161   */\n      dup2\n        /* \"#utility.yul\":12153:12173   */\n      sub\n        /* \"#utility.yul\":12149:12150   */\n      0x00\n        /* \"#utility.yul\":12138:12147   */\n      dup4\n        /* \"#utility.yul\":12134:12151   */\n      add\n        /* \"#utility.yul\":12127:12174   */\n      mstore\n        /* \"#utility.yul\":12191:12322   */\n      tag_294\n        /* \"#utility.yul\":12317:12321   */\n      dup2\n        /* \"#utility.yul\":12191:12322   */\n      tag_156\n      jump\t// in\n    tag_294:\n        /* \"#utility.yul\":12183:12322   */\n      swap1\n      pop\n        /* \"#utility.yul\":11910:12329   */\n      swap2\n      swap1\n      pop\n      jump\t// out\n        /* \"#utility.yul\":12335:12555   */\n    tag_157:\n        /* \"#utility.yul\":12475:12509   */\n      0x5472616e73666572206f6620544273206661696c65642c20726576657274696e\n        /* \"#utility.yul\":12471:12472   */\n      0x00\n        /* \"#utility.yul\":12463:12469   */\n      dup3\n        /* \"#utility.yul\":12459:12473   */\n      add\n        /* \"#utility.yul\":12452:12510   */\n      mstore\n        /* \"#utility.yul\":12544:12547   */\n      0x6700000000000000000000000000000000000000000000000000000000000000\n        /* \"#utility.yul\":12539:12541   */\n      0x20\n        /* \"#utility.yul\":12531:12537   */\n      dup3\n        /* \"#utility.yul\":12527:12542   */\n      add\n        /* \"#utility.yul\":12520:12548   */\n      mstore\n        /* \"#utility.yul\":12335:12555   */\n      pop\n      jump\t// out\n        /* \"#utility.yul\":12561:12927   */\n    tag_158:\n        /* \"#utility.yul\":12703:12706   */\n      0x00\n        /* \"#utility.yul\":12724:12791   */\n      tag_297\n        /* \"#utility.yul\":12788:12790   */\n      0x21\n        /* \"#utility.yul\":12783:12786   */\n      dup4\n        /* \"#utility.yul\":12724:12791   */\n      tag_143\n      jump\t// in\n    tag_297:\n        /* \"#utility.yul\":12717:12791   */\n      swap2\n      pop\n        /* \"#utility.yul\":12800:12893   */\n      tag_298\n        /* \"#utility.yul\":12889:12892   */\n      dup3\n        /* \"#utility.yul\":12800:12893   */\n      tag_157\n      jump\t// in\n    tag_298:\n        /* \"#utility.yul\":12918:12920   */\n      0x40\n        /* \"#utility.yul\":12913:12916   */\n      dup3\n        /* \"#utility.yul\":12909:12921   */\n      add\n        /* \"#utility.yul\":12902:12921   */\n      swap1\n      pop\n        /* \"#utility.yul\":12561:12927   */\n      swap2\n      swap1\n      pop\n      jump\t// out\n        /* \"#utility.yul\":12933:13352   */\n    tag_66:\n        /* \"#utility.yul\":13099:13103   */\n      0x00\n        /* \"#utility.yul\":13137:13139   */\n      0x20\n        /* \"#utility.yul\":13126:13135   */\n      dup3\n        /* \"#utility.yul\":13122:13140   */\n      add\n        /* \"#utility.yul\":13114:13140   */\n      swap1\n      pop\n        /* \"#utility.yul\":13186:13195   */\n      dup2\n        /* \"#utility.yul\":13180:13184   */\n      dup2\n        /* \"#utility.yul\":13176:13196   */\n      sub\n        /* \"#utility.yul\":13172:13173   */\n      0x00\n        /* \"#utility.yul\":13161:13170   */\n      dup4\n        /* \"#utility.yul\":13157:13174   */\n      add\n        /* \"#utility.yul\":13150:13197   */\n      mstore\n        /* \"#utility.yul\":13214:13345   */\n      tag_300\n        /* \"#utility.yul\":13340:13344   */\n      dup2\n        /* \"#utility.yul\":13214:13345   */\n      tag_158\n      jump\t// in\n    tag_300:\n        /* \"#utility.yul\":13206:13345   */\n      swap1\n      pop\n        /* \"#utility.yul\":12933:13352   */\n      swap2\n      swap1\n      pop\n      jump\t// out\n        /* \"#utility.yul\":13358:13510   */\n    tag_159:\n        /* \"#utility.yul\":13498:13502   */\n      0x5442000000000000000000000000000000000000000000000000000000000000\n        /* \"#utility.yul\":13494:13495   */\n      0x00\n        /* \"#utility.yul\":13486:13492   */\n      dup3\n        /* \"#utility.yul\":13482:13496   */\n      add\n        /* \"#utility.yul\":13475:13503   */\n      mstore\n        /* \"#utility.yul\":13358:13510   */\n      pop\n      jump\t// out\n        /* \"#utility.yul\":13516:13916   */\n    tag_160:\n        /* \"#utility.yul\":13676:13679   */\n      0x00\n        /* \"#utility.yul\":13697:13781   */\n      tag_303\n        /* \"#utility.yul\":13779:13780   */\n      0x02\n        /* \"#utility.yul\":13774:13777   */\n      dup4\n        /* \"#utility.yul\":13697:13781   */\n      tag_151\n      jump\t// in\n    tag_303:\n        /* \"#utility.yul\":13690:13781   */\n      swap2\n      pop\n        /* \"#utility.yul\":13790:13883   */\n      tag_304\n        /* \"#utility.yul\":13879:13882   */\n      dup3\n        /* \"#utility.yul\":13790:13883   */\n      tag_159\n      jump\t// in\n    tag_304:\n        /* \"#utility.yul\":13908:13909   */\n      0x02\n        /* \"#utility.yul\":13903:13906   */\n      dup3\n        /* \"#utility.yul\":13899:13910   */\n      add\n        /* \"#utility.yul\":13892:13910   */\n      swap1\n      pop\n        /* \"#utility.yul\":13516:13916   */\n      swap2\n      swap1\n      pop\n      jump\t// out\n        /* \"#utility.yul\":13922:14303   */\n    tag_68:\n        /* \"#utility.yul\":14107:14110   */\n      0x00\n        /* \"#utility.yul\":14129:14277   */\n      tag_306\n        /* \"#utility.yul\":14273:14276   */\n      dup3\n        /* \"#utility.yul\":14129:14277   */\n      tag_160\n      jump\t// in\n    tag_306:\n        /* \"#utility.yul\":14122:14277   */\n      swap2\n      pop\n        /* \"#utility.yul\":14294:14297   */\n      dup2\n        /* \"#utility.yul\":14287:14297   */\n      swap1\n      pop\n        /* \"#utility.yul\":13922:14303   */\n      swap2\n      swap1\n      pop\n      jump\t// out\n        /* \"#utility.yul\":14309:14481   */\n    tag_161:\n        /* \"#utility.yul\":14449:14473   */\n      0x77726f6e6720746f6b656e2c20726576657274696e6700000000000000000000\n        /* \"#utility.yul\":14445:14446   */\n      0x00\n        /* \"#utility.yul\":14437:14443   */\n      dup3\n        /* \"#utility.yul\":14433:14447   */\n      add\n        /* \"#utility.yul\":14426:14474   */\n      mstore\n        /* \"#utility.yul\":14309:14481   */\n      pop\n      jump\t// out\n        /* \"#utility.yul\":14487:14853   */\n    tag_162:\n        /* \"#utility.yul\":14629:14632   */\n      0x00\n        /* \"#utility.yul\":14650:14717   */\n      tag_309\n        /* \"#utility.yul\":14714:14716   */\n      0x16\n        /* \"#utility.yul\":14709:14712   */\n      dup4\n        /* \"#utility.yul\":14650:14717   */\n      tag_143\n      jump\t// in\n    tag_309:\n        /* \"#utility.yul\":14643:14717   */\n      swap2\n      pop\n        /* \"#utility.yul\":14726:14819   */\n      tag_310\n        /* \"#utility.yul\":14815:14818   */\n      dup3\n        /* \"#utility.yul\":14726:14819   */\n      tag_161\n      jump\t// in\n    tag_310:\n        /* \"#utility.yul\":14844:14846   */\n      0x20\n        /* \"#utility.yul\":14839:14842   */\n      dup3\n        /* \"#utility.yul\":14835:14847   */\n      add\n        /* \"#utility.yul\":14828:14847   */\n      swap1\n      pop\n        /* \"#utility.yul\":14487:14853   */\n      swap2\n      swap1\n      pop\n      jump\t// out\n        /* \"#utility.yul\":14859:15278   */\n    tag_76:\n        /* \"#utility.yul\":15025:15029   */\n      0x00\n        /* \"#utility.yul\":15063:15065   */\n      0x20\n        /* \"#utility.yul\":15052:15061   */\n      dup3\n        /* \"#utility.yul\":15048:15066   */\n      add\n        /* \"#utility.yul\":15040:15066   */\n      swap1\n      pop\n        /* \"#utility.yul\":15112:15121   */\n      dup2\n        /* \"#utility.yul\":15106:15110   */\n      dup2\n        /* \"#utility.yul\":15102:15122   */\n      sub\n        /* \"#utility.yul\":15098:15099   */\n      0x00\n        /* \"#utility.yul\":15087:15096   */\n      dup4\n        /* \"#utility.yul\":15083:15100   */\n      add\n        /* \"#utility.yul\":15076:15123   */\n      mstore\n        /* \"#utility.yul\":15140:15271   */\n      tag_312\n        /* \"#utility.yul\":15266:15270   */\n      dup2\n        /* \"#utility.yul\":15140:15271   */\n      tag_162\n      jump\t// in\n    tag_312:\n        /* \"#utility.yul\":15132:15271   */\n      swap1\n      pop\n        /* \"#utility.yul\":14859:15278   */\n      swap2\n      swap1\n      pop\n      jump\t// out\n        /* \"#utility.yul\":15284:15726   */\n    tag_80:\n        /* \"#utility.yul\":15433:15437   */\n      0x00\n        /* \"#utility.yul\":15471:15473   */\n      0x60\n        /* \"#utility.yul\":15460:15469   */\n      dup3\n        /* \"#utility.yul\":15456:15474   */\n      add\n        /* \"#utility.yul\":15448:15474   */\n      swap1\n      pop\n        /* \"#utility.yul\":15484:15555   */\n      tag_314\n        /* \"#utility.yul\":15552:15553   */\n      0x00\n        /* \"#utility.yul\":15541:15550   */\n      dup4\n        /* \"#utility.yul\":15537:15554   */\n      add\n        /* \"#utility.yul\":15528:15534   */\n      dup7\n        /* \"#utility.yul\":15484:15555   */\n      tag_141\n      jump\t// in\n    tag_314:\n        /* \"#utility.yul\":15565:15637   */\n      tag_315\n        /* \"#utility.yul\":15633:15635   */\n      0x20\n        /* \"#utility.yul\":15622:15631   */\n      dup4\n        /* \"#utility.yul\":15618:15636   */\n      add\n        /* \"#utility.yul\":15609:15615   */\n      dup6\n        /* \"#utility.yul\":15565:15637   */\n      tag_141\n      jump\t// in\n    tag_315:\n        /* \"#utility.yul\":15647:15719   */\n      tag_316\n        /* \"#utility.yul\":15715:15717   */\n      0x40\n        /* \"#utility.yul\":15704:15713   */\n      dup4\n        /* \"#utility.yul\":15700:15718   */\n      add\n        /* \"#utility.yul\":15691:15697   */\n      dup5\n        /* \"#utility.yul\":15647:15719   */\n      tag_138\n      jump\t// in\n    tag_316:\n        /* \"#utility.yul\":15284:15726   */\n      swap5\n      swap4\n      pop\n      pop\n      pop\n      pop\n      jump\t// out\n        /* \"#utility.yul\":15732:15954   */\n    tag_163:\n        /* \"#utility.yul\":15872:15906   */\n      0x63616e6e6f74207472616e736665722054427320746f20746865206578636861\n        /* \"#utility.yul\":15868:15869   */\n      0x00\n        /* \"#utility.yul\":15860:15866   */\n      dup3\n        /* \"#utility.yul\":15856:15870   */\n      add\n        /* \"#utility.yul\":15849:15907   */\n      mstore\n        /* \"#utility.yul\":15941:15946   */\n      0x6e67650000000000000000000000000000000000000000000000000000000000\n        /* \"#utility.yul\":15936:15938   */\n      0x20\n        /* \"#utility.yul\":15928:15934   */\n      dup3\n        /* \"#utility.yul\":15924:15939   */\n      add\n        /* \"#utility.yul\":15917:15947   */\n      mstore\n        /* \"#utility.yul\":15732:15954   */\n      pop\n      jump\t// out\n        /* \"#utility.yul\":15960:16326   */\n    tag_164:\n        /* \"#utility.yul\":16102:16105   */\n      0x00\n        /* \"#utility.yul\":16123:16190   */\n      tag_319\n        /* \"#utility.yul\":16187:16189   */\n      0x23\n        /* \"#utility.yul\":16182:16185   */\n      dup4\n        /* \"#utility.yul\":16123:16190   */\n      tag_143\n      jump\t// in\n    tag_319:\n        /* \"#utility.yul\":16116:16190   */\n      swap2\n      pop\n        /* \"#utility.yul\":16199:16292   */\n      tag_320\n        /* \"#utility.yul\":16288:16291   */\n      dup3\n        /* \"#utility.yul\":16199:16292   */\n      tag_163\n      jump\t// in\n    tag_320:\n        /* \"#utility.yul\":16317:16319   */\n      0x40\n        /* \"#utility.yul\":16312:16315   */\n      dup3\n        /* \"#utility.yul\":16308:16320   */\n      add\n        /* \"#utility.yul\":16301:16320   */\n      swap1\n      pop\n        /* \"#utility.yul\":15960:16326   */\n      swap2\n      swap1\n      pop\n      jump\t// out\n        /* \"#utility.yul\":16332:16751   */\n    tag_86:\n        /* \"#utility.yul\":16498:16502   */\n      0x00\n        /* \"#utility.yul\":16536:16538   */\n      0x20\n        /* \"#utility.yul\":16525:16534   */\n      dup3\n        /* \"#utility.yul\":16521:16539   */\n      add\n        /* \"#utility.yul\":16513:16539   */\n      swap1\n      pop\n        /* \"#utility.yul\":16585:16594   */\n      dup2\n        /* \"#utility.yul\":16579:16583   */\n      dup2\n        /* \"#utility.yul\":16575:16595   */\n      sub\n        /* \"#utility.yul\":16571:16572   */\n      0x00\n        /* \"#utility.yul\":16560:16569   */\n      dup4\n        /* \"#utility.yul\":16556:16573   */\n      add\n        /* \"#utility.yul\":16549:16596   */\n      mstore\n        /* \"#utility.yul\":16613:16744   */\n      tag_322\n        /* \"#utility.yul\":16739:16743   */\n      dup2\n        /* \"#utility.yul\":16613:16744   */\n      tag_164\n      jump\t// in\n    tag_322:\n        /* \"#utility.yul\":16605:16744   */\n      swap1\n      pop\n        /* \"#utility.yul\":16332:16751   */\n      swap2\n      swap1\n      pop\n      jump\t// out\n        /* \"#utility.yul\":16757:16948   */\n    tag_89:\n        /* \"#utility.yul\":16797:16800   */\n      0x00\n        /* \"#utility.yul\":16816:16836   */\n      tag_324\n        /* \"#utility.yul\":16834:16835   */\n      dup3\n        /* \"#utility.yul\":16816:16836   */\n      tag_137\n      jump\t// in\n    tag_324:\n        /* \"#utility.yul\":16811:16836   */\n      swap2\n      pop\n        /* \"#utility.yul\":16850:16870   */\n      tag_325\n        /* \"#utility.yul\":16868:16869   */\n      dup4\n        /* \"#utility.yul\":16850:16870   */\n      tag_137\n      jump\t// in\n    tag_325:\n        /* \"#utility.yul\":16845:16870   */\n      swap3\n      pop\n        /* \"#utility.yul\":16893:16894   */\n      dup3\n        /* \"#utility.yul\":16890:16891   */\n      dup3\n        /* \"#utility.yul\":16886:16895   */\n      add\n        /* \"#utility.yul\":16879:16895   */\n      swap1\n      pop\n        /* \"#utility.yul\":16914:16917   */\n      dup1\n        /* \"#utility.yul\":16911:16912   */\n      dup3\n        /* \"#utility.yul\":16908:16918   */\n      gt\n        /* \"#utility.yul\":16905:16941   */\n      iszero\n      tag_326\n      jumpi\n        /* \"#utility.yul\":16921:16939   */\n      tag_327\n      tag_154\n      jump\t// in\n    tag_327:\n        /* \"#utility.yul\":16905:16941   */\n    tag_326:\n        /* \"#utility.yul\":16757:16948   */\n      swap3\n      swap2\n      pop\n      pop\n      jump\t// out\n        /* \"#utility.yul\":16954:17136   */\n    tag_165:\n        /* \"#utility.yul\":17094:17128   */\n      0x63616e6e6f74207472616e736665722054417320746f20746865206275796572\n        /* \"#utility.yul\":17090:17091   */\n      0x00\n        /* \"#utility.yul\":17082:17088   */\n      dup3\n        /* \"#utility.yul\":17078:17092   */\n      add\n        /* \"#utility.yul\":17071:17129   */\n      mstore\n        /* \"#utility.yul\":16954:17136   */\n      pop\n      jump\t// out\n        /* \"#utility.yul\":17142:17508   */\n    tag_166:\n        /* \"#utility.yul\":17284:17287   */\n      0x00\n        /* \"#utility.yul\":17305:17372   */\n      tag_330\n        /* \"#utility.yul\":17369:17371   */\n      0x20\n        /* \"#utility.yul\":17364:17367   */\n      dup4\n        /* \"#utility.yul\":17305:17372   */\n      tag_143\n      jump\t// in\n    tag_330:\n        /* \"#utility.yul\":17298:17372   */\n      swap2\n      pop\n        /* \"#utility.yul\":17381:17474   */\n      tag_331\n        /* \"#utility.yul\":17470:17473   */\n      dup3\n        /* \"#utility.yul\":17381:17474   */\n      tag_165\n      jump\t// in\n    tag_331:\n        /* \"#utility.yul\":17499:17501   */\n      0x20\n        /* \"#utility.yul\":17494:17497   */\n      dup3\n        /* \"#utility.yul\":17490:17502   */\n      add\n        /* \"#utility.yul\":17483:17502   */\n      swap1\n      pop\n        /* \"#utility.yul\":17142:17508   */\n      swap2\n      swap1\n      pop\n      jump\t// out\n        /* \"#utility.yul\":17514:17933   */\n    tag_96:\n        /* \"#utility.yul\":17680:17684   */\n      0x00\n        /* \"#utility.yul\":17718:17720   */\n      0x20\n        /* \"#utility.yul\":17707:17716   */\n      dup3\n        /* \"#utility.yul\":17703:17721   */\n      add\n        /* \"#utility.yul\":17695:17721   */\n      swap1\n      pop\n        /* \"#utility.yul\":17767:17776   */\n      dup2\n        /* \"#utility.yul\":17761:17765   */\n      dup2\n        /* \"#utility.yul\":17757:17777   */\n      sub\n        /* \"#utility.yul\":17753:17754   */\n      0x00\n        /* \"#utility.yul\":17742:17751   */\n      dup4\n        /* \"#utility.yul\":17738:17755   */\n      add\n        /* \"#utility.yul\":17731:17778   */\n      mstore\n        /* \"#utility.yul\":17795:17926   */\n      tag_333\n        /* \"#utility.yul\":17921:17925   */\n      dup2\n        /* \"#utility.yul\":17795:17926   */\n      tag_166\n      jump\t// in\n    tag_333:\n        /* \"#utility.yul\":17787:17926   */\n      swap1\n      pop\n        /* \"#utility.yul\":17514:17933   */\n      swap2\n      swap1\n      pop\n      jump\t// out\n        /* \"#utility.yul\":17939:18161   */\n    tag_167:\n        /* \"#utility.yul\":18079:18113   */\n      0x63616e6e6f74207472616e736665722054417320746f20746865206578636861\n        /* \"#utility.yul\":18075:18076   */\n      0x00\n        /* \"#utility.yul\":18067:18073   */\n      dup3\n        /* \"#utility.yul\":18063:18077   */\n      add\n        /* \"#utility.yul\":18056:18114   */\n      mstore\n        /* \"#utility.yul\":18148:18153   */\n      0x6e67650000000000000000000000000000000000000000000000000000000000\n        /* \"#utility.yul\":18143:18145   */\n      0x20\n        /* \"#utility.yul\":18135:18141   */\n      dup3\n        /* \"#utility.yul\":18131:18146   */\n      add\n        /* \"#utility.yul\":18124:18154   */\n      mstore\n        /* \"#utility.yul\":17939:18161   */\n      pop\n      jump\t// out\n        /* \"#utility.yul\":18167:18533   */\n    tag_168:\n        /* \"#utility.yul\":18309:18312   */\n      0x00\n        /* \"#utility.yul\":18330:18397   */\n      tag_336\n        /* \"#utility.yul\":18394:18396   */\n      0x23\n        /* \"#utility.yul\":18389:18392   */\n      dup4\n        /* \"#utility.yul\":18330:18397   */\n      tag_143\n      jump\t// in\n    tag_336:\n        /* \"#utility.yul\":18323:18397   */\n      swap2\n      pop\n        /* \"#utility.yul\":18406:18499   */\n      tag_337\n        /* \"#utility.yul\":18495:18498   */\n      dup3\n        /* \"#utility.yul\":18406:18499   */\n      tag_167\n      jump\t// in\n    tag_337:\n        /* \"#utility.yul\":18524:18526   */\n      0x40\n        /* \"#utility.yul\":18519:18522   */\n      dup3\n        /* \"#utility.yul\":18515:18527   */\n      add\n        /* \"#utility.yul\":18508:18527   */\n      swap1\n      pop\n        /* \"#utility.yul\":18167:18533   */\n      swap2\n      swap1\n      pop\n      jump\t// out\n        /* \"#utility.yul\":18539:18958   */\n    tag_106:\n        /* \"#utility.yul\":18705:18709   */\n      0x00\n        /* \"#utility.yul\":18743:18745   */\n      0x20\n        /* \"#utility.yul\":18732:18741   */\n      dup3\n        /* \"#utility.yul\":18728:18746   */\n      add\n        /* \"#utility.yul\":18720:18746   */\n      swap1\n      pop\n        /* \"#utility.yul\":18792:18801   */\n      dup2\n        /* \"#utility.yul\":18786:18790   */\n      dup2\n        /* \"#utility.yul\":18782:18802   */\n      sub\n        /* \"#utility.yul\":18778:18779   */\n      0x00\n        /* \"#utility.yul\":18767:18776   */\n      dup4\n        /* \"#utility.yul\":18763:18780   */\n      add\n        /* \"#utility.yul\":18756:18803   */\n      mstore\n        /* \"#utility.yul\":18820:18951   */\n      tag_339\n        /* \"#utility.yul\":18946:18950   */\n      dup2\n        /* \"#utility.yul\":18820:18951   */\n      tag_168\n      jump\t// in\n    tag_339:\n        /* \"#utility.yul\":18812:18951   */\n      swap1\n      pop\n        /* \"#utility.yul\":18539:18958   */\n      swap2\n      swap1\n      pop\n      jump\t// out\n        /* \"#utility.yul\":18964:19146   */\n    tag_169:\n        /* \"#utility.yul\":19104:19138   */\n      0x63616e6e6f74207472616e736665722054427320746f20746865206275796572\n        /* \"#utility.yul\":19100:19101   */\n      0x00\n        /* \"#utility.yul\":19092:19098   */\n      dup3\n        /* \"#utility.yul\":19088:19102   */\n      add\n        /* \"#utility.yul\":19081:19139   */\n      mstore\n        /* \"#utility.yul\":18964:19146   */\n      pop\n      jump\t// out\n        /* \"#utility.yul\":19152:19518   */\n    tag_170:\n        /* \"#utility.yul\":19294:19297   */\n      0x00\n        /* \"#utility.yul\":19315:19382   */\n      tag_342\n        /* \"#utility.yul\":19379:19381   */\n      0x20\n        /* \"#utility.yul\":19374:19377   */\n      dup4\n        /* \"#utility.yul\":19315:19382   */\n      tag_143\n      jump\t// in\n    tag_342:\n        /* \"#utility.yul\":19308:19382   */\n      swap2\n      pop\n        /* \"#utility.yul\":19391:19484   */\n      tag_343\n        /* \"#utility.yul\":19480:19483   */\n      dup3\n        /* \"#utility.yul\":19391:19484   */\n      tag_169\n      jump\t// in\n    tag_343:\n        /* \"#utility.yul\":19509:19511   */\n      0x20\n        /* \"#utility.yul\":19504:19507   */\n      dup3\n        /* \"#utility.yul\":19500:19512   */\n      add\n        /* \"#utility.yul\":19493:19512   */\n      swap1\n      pop\n        /* \"#utility.yul\":19152:19518   */\n      swap2\n      swap1\n      pop\n      jump\t// out\n        /* \"#utility.yul\":19524:19943   */\n    tag_115:\n        /* \"#utility.yul\":19690:19694   */\n      0x00\n        /* \"#utility.yul\":19728:19730   */\n      0x20\n        /* \"#utility.yul\":19717:19726   */\n      dup3\n        /* \"#utility.yul\":19713:19731   */\n      add\n        /* \"#utility.yul\":19705:19731   */\n      swap1\n      pop\n        /* \"#utility.yul\":19777:19786   */\n      dup2\n        /* \"#utility.yul\":19771:19775   */\n      dup2\n        /* \"#utility.yul\":19767:19787   */\n      sub\n        /* \"#utility.yul\":19763:19764   */\n      0x00\n        /* \"#utility.yul\":19752:19761   */\n      dup4\n        /* \"#utility.yul\":19748:19765   */\n      add\n        /* \"#utility.yul\":19741:19788   */\n      mstore\n        /* \"#utility.yul\":19805:19936   */\n      tag_345\n        /* \"#utility.yul\":19931:19935   */\n      dup2\n        /* \"#utility.yul\":19805:19936   */\n      tag_170\n      jump\t// in\n    tag_345:\n        /* \"#utility.yul\":19797:19936   */\n      swap1\n      pop\n        /* \"#utility.yul\":19524:19943   */\n      swap2\n      swap1\n      pop\n      jump\t// out\n\n    auxdata: 0xa26469706673582212200f6f6a65a81f0a3ddb8eac5660a681a2c335ee2cd54b50bec35aac9cbd838b4a64736f6c63430008160033\n}\n",
				"bytecode": {
					"linkReferences": {},
					"object": "608060405234801562000010575f80fd5b506040516200183738038062001837833981810160405281019062000036919062000177565b815f806101000a81548173ffffffffffffffffffffffffffffffffffffffff021916908373ffffffffffffffffffffffffffffffffffffffff1602179055508060015f6101000a81548173ffffffffffffffffffffffffffffffffffffffff021916908373ffffffffffffffffffffffffffffffffffffffff1602179055505050620001bc565b5f80fd5b5f73ffffffffffffffffffffffffffffffffffffffff82169050919050565b5f620000ec82620000c1565b9050919050565b5f620000ff82620000e0565b9050919050565b6200011181620000f3565b81146200011c575f80fd5b50565b5f815190506200012f8162000106565b92915050565b5f6200014182620000e0565b9050919050565b620001538162000135565b81146200015e575f80fd5b50565b5f81519050620001718162000148565b92915050565b5f806040838503121562000190576200018f620000bd565b5b5f6200019f858286016200011f565b9250506020620001b28582860162000161565b9150509250929050565b61166d80620001ca5f395ff3fe608060405260043610610033575f3560e01c80637193bfab14610037578063bf6cb6a114610067578063c1d5725f146100a3575b5f80fd5b610051600480360381019061004c9190610c95565b6100df565b60405161005e9190610cd8565b60405180910390f35b348015610072575f80fd5b5061008d60048036038101906100889190610e2d565b610704565b60405161009a9190610e8c565b60405180910390f35b3480156100ae575f80fd5b506100c960048036038101906100c49190610ecf565b610731565b6040516100d69190610e8c565b60405180910390f35b5f805f8054906101000a900473ffffffffffffffffffffffffffffffffffffffff1673ffffffffffffffffffffffffffffffffffffffff168373ffffffffffffffffffffffffffffffffffffffff161490505f60015f9054906101000a900473ffffffffffffffffffffffffffffffffffffffff1673ffffffffffffffffffffffffffffffffffffffff168473ffffffffffffffffffffffffffffffffffffffff161490505f7fffffffffffffffffffffffffffffffffffffffffffffffffffffffffffffffff9050821561042c57345f8054906101000a900473ffffffffffffffffffffffffffffffffffffffff1673ffffffffffffffffffffffffffffffffffffffff166370a08231306040518263ffffffff1660e01b81526004016102079190610f2e565b602060405180830381865afa158015610222573d5f803e3d5ffd5b505050506040513d601f19601f820116820180604052508101906102469190610f5b565b1015610287576040517f08c379a000000000000000000000000000000000000000000000000000000000815260040161027e90611006565b60405180910390fd5b5f8054906101000a900473ffffffffffffffffffffffffffffffffffffffff1673ffffffffffffffffffffffffffffffffffffffff1663a9059cbb33346040518363ffffffff1660e01b81526004016102e1929190611024565b6020604051808303815f875af11580156102fd573d5f803e3d5ffd5b505050506040513d601f19601f820116820180604052508101906103219190611080565b610360576040517f08c379a00000000000000000000000000000000000000000000000000000000081526004016103579061111b565b60405180910390fd5b34600260405161036f9061118d565b90815260200160405180910390205f82825461038b91906111ce565b925050819055505f8054906101000a900473ffffffffffffffffffffffffffffffffffffffff1673ffffffffffffffffffffffffffffffffffffffff166370a08231336040518263ffffffff1660e01b81526004016103ea9190610f2e565b602060405180830381865afa158015610405573d5f803e3d5ffd5b505050506040513d601f19601f820116820180604052508101906104299190610f5b565b90505b81156106b6573460015f9054906101000a900473ffffffffffffffffffffffffffffffffffffffff1673ffffffffffffffffffffffffffffffffffffffff166370a08231306040518263ffffffff1660e01b815260040161048d9190610f2e565b602060405180830381865afa1580156104a8573d5f803e3d5ffd5b505050506040513d601f19601f820116820180604052508101906104cc9190610f5b565b101561050d576040517f08c379a000000000000000000000000000000000000000000000000000000000815260040161050490611271565b60405180910390fd5b60015f9054906101000a900473ffffffffffffffffffffffffffffffffffffffff1673ffffffffffffffffffffffffffffffffffffffff1663a9059cbb33346040518363ffffffff1660e01b8152600401610569929190611024565b6020604051808303815f875af1158015610585573d5f803e3d5ffd5b505050506040513d601f19601f820116820180604052508101906105a99190611080565b6105e8576040517f08c379a00000000000000000000000000000000000000000000000000000000081526004016105df906112ff565b60405180910390fd5b3460026040516105f790611367565b90815260200160405180910390205f82825461061391906111ce565b9250508190555060015f9054906101000a900473ffffffffffffffffffffffffffffffffffffffff1673ffffffffffffffffffffffffffffffffffffffff166370a08231336040518263ffffffff1660e01b81526004016106749190610f2e565b602060405180830381865afa15801561068f573d5f803e3d5ffd5b505050506040513d601f19601f820116820180604052508101906106b39190610f5b565b90505b5f8112156106f9576040517f08c379a00000000000000000000000000000000000000000000000000000000081526004016106f0906113c5565b60405180910390fd5b809350505050919050565b6002818051602081018201805184825260208301602085012081835280955050505050505f915090505481565b5f805f8054906101000a900473ffffffffffffffffffffffffffffffffffffffff1673ffffffffffffffffffffffffffffffffffffffff168573ffffffffffffffffffffffffffffffffffffffff161490505f60015f9054906101000a900473ffffffffffffffffffffffffffffffffffffffff1673ffffffffffffffffffffffffffffffffffffffff168573ffffffffffffffffffffffffffffffffffffffff161490505f82156109fb5760015f9054906101000a900473ffffffffffffffffffffffffffffffffffffffff1673ffffffffffffffffffffffffffffffffffffffff166323b872dd3330886040518463ffffffff1660e01b815260040161083b939291906113e3565b6020604051808303815f875af1158015610857573d5f803e3d5ffd5b505050506040513d601f19601f8201168201806040525081019061087b9190611080565b6108ba576040517f08c379a00000000000000000000000000000000000000000000000000000000081526004016108b190611488565b60405180910390fd5b8460026040516108c990611367565b90815260200160405180910390205f8282546108e591906114a6565b925050819055505f8054906101000a900473ffffffffffffffffffffffffffffffffffffffff1673ffffffffffffffffffffffffffffffffffffffff1663a9059cbb33876040518363ffffffff1660e01b8152600401610946929190611024565b6020604051808303815f875af1158015610962573d5f803e3d5ffd5b505050506040513d601f19601f820116820180604052508101906109869190611080565b6109c5576040517f08c379a00000000000000000000000000000000000000000000000000000000081526004016109bc90611523565b60405180910390fd5b8460026040516109d49061118d565b90815260200160405180910390205f8282546109f091906111ce565b925050819055508490505b8115610c1d575f8054906101000a900473ffffffffffffffffffffffffffffffffffffffff1673ffffffffffffffffffffffffffffffffffffffff166323b872dd3330886040518463ffffffff1660e01b8152600401610a5d939291906113e3565b6020604051808303815f875af1158015610a79573d5f803e3d5ffd5b505050506040513d601f19601f82011682018060405250810190610a9d9190611080565b610adc576040517f08c379a0000000000000000000000000000000000000000000000000000000008152600401610ad3906115b1565b60405180910390fd5b846002604051610aeb9061118d565b90815260200160405180910390205f828254610b0791906114a6565b925050819055505f8054906101000a900473ffffffffffffffffffffffffffffffffffffffff1673ffffffffffffffffffffffffffffffffffffffff1663a9059cbb33876040518363ffffffff1660e01b8152600401610b68929190611024565b6020604051808303815f875af1158015610b84573d5f803e3d5ffd5b505050506040513d601f19601f82011682018060405250810190610ba89190611080565b610be7576040517f08c379a0000000000000000000000000000000000000000000000000000000008152600401610bde90611619565b60405180910390fd5b846002604051610bf690611367565b90815260200160405180910390205f828254610c1291906111ce565b925050819055508490505b8093505050509392505050565b5f604051905090565b5f80fd5b5f80fd5b5f73ffffffffffffffffffffffffffffffffffffffff82169050919050565b5f610c6482610c3b565b9050919050565b610c7481610c5a565b8114610c7e575f80fd5b50565b5f81359050610c8f81610c6b565b92915050565b5f60208284031215610caa57610ca9610c33565b5b5f610cb784828501610c81565b91505092915050565b5f819050919050565b610cd281610cc0565b82525050565b5f602082019050610ceb5f830184610cc9565b92915050565b5f80fd5b5f80fd5b5f601f19601f8301169050919050565b7f4e487b71000000000000000000000000000000000000000000000000000000005f52604160045260245ffd5b610d3f82610cf9565b810181811067ffffffffffffffff82111715610d5e57610d5d610d09565b5b80604052505050565b5f610d70610c2a565b9050610d7c8282610d36565b919050565b5f67ffffffffffffffff821115610d9b57610d9a610d09565b5b610da482610cf9565b9050602081019050919050565b828183375f83830152505050565b5f610dd1610dcc84610d81565b610d67565b905082815260208101848484011115610ded57610dec610cf5565b5b610df8848285610db1565b509392505050565b5f82601f830112610e1457610e13610cf1565b5b8135610e24848260208601610dbf565b91505092915050565b5f60208284031215610e4257610e41610c33565b5b5f82013567ffffffffffffffff811115610e5f57610e5e610c37565b5b610e6b84828501610e00565b91505092915050565b5f819050919050565b610e8681610e74565b82525050565b5f602082019050610e9f5f830184610e7d565b92915050565b610eae81610e74565b8114610eb8575f80fd5b50565b5f81359050610ec981610ea5565b92915050565b5f805f60608486031215610ee657610ee5610c33565b5b5f610ef386828701610c81565b9350506020610f0486828701610c81565b9250506040610f1586828701610ebb565b9150509250925092565b610f2881610c5a565b82525050565b5f602082019050610f415f830184610f1f565b92915050565b5f81519050610f5581610ea5565b92915050565b5f60208284031215610f7057610f6f610c33565b5b5f610f7d84828501610f47565b91505092915050565b5f82825260208201905092915050565b7f4e6f7420656e6f7567682054417320746f2073656c6c20666f722065746865725f8201527f732c20726576657274696e670000000000000000000000000000000000000000602082015250565b5f610ff0602c83610f86565b9150610ffb82610f96565b604082019050919050565b5f6020820190508181035f83015261101d81610fe4565b9050919050565b5f6040820190506110375f830185610f1f565b6110446020830184610e7d565b9392505050565b5f8115159050919050565b61105f8161104b565b8114611069575f80fd5b50565b5f8151905061107a81611056565b92915050565b5f6020828403121561109557611094610c33565b5b5f6110a28482850161106c565b91505092915050565b7f5472616e73666572206f6620544173206661696c65642c20726576657274696e5f8201527f6700000000000000000000000000000000000000000000000000000000000000602082015250565b5f611105602183610f86565b9150611110826110ab565b604082019050919050565b5f6020820190508181035f830152611132816110f9565b9050919050565b5f81905092915050565b7f54410000000000000000000000000000000000000000000000000000000000005f82015250565b5f611177600283611139565b915061118282611143565b600282019050919050565b5f6111978261116b565b9150819050919050565b7f4e487b71000000000000000000000000000000000000000000000000000000005f52601160045260245ffd5b5f6111d882610e74565b91506111e383610e74565b92508282039050818111156111fb576111fa6111a1565b5b92915050565b7f4e6f7420656e6f7567682054427320746f2073656c6c20666f722065746865725f8201527f732c20726576657274696e670000000000000000000000000000000000000000602082015250565b5f61125b602c83610f86565b915061126682611201565b604082019050919050565b5f6020820190508181035f8301526112888161124f565b9050919050565b7f5472616e73666572206f6620544273206661696c65642c20726576657274696e5f8201527f6700000000000000000000000000000000000000000000000000000000000000602082015250565b5f6112e9602183610f86565b91506112f48261128f565b604082019050919050565b5f6020820190508181035f830152611316816112dd565b9050919050565b7f54420000000000000000000000000000000000000000000000000000000000005f82015250565b5f611351600283611139565b915061135c8261131d565b600282019050919050565b5f61137182611345565b9150819050919050565b7f77726f6e6720746f6b656e2c20726576657274696e67000000000000000000005f82015250565b5f6113af601683610f86565b91506113ba8261137b565b602082019050919050565b5f6020820190508181035f8301526113dc816113a3565b9050919050565b5f6060820190506113f65f830186610f1f565b6114036020830185610f1f565b6114106040830184610e7d565b949350505050565b7f63616e6e6f74207472616e736665722054427320746f207468652065786368615f8201527f6e67650000000000000000000000000000000000000000000000000000000000602082015250565b5f611472602383610f86565b915061147d82611418565b604082019050919050565b5f6020820190508181035f83015261149f81611466565b9050919050565b5f6114b082610e74565b91506114bb83610e74565b92508282019050808211156114d3576114d26111a1565b5b92915050565b7f63616e6e6f74207472616e736665722054417320746f207468652062757965725f82015250565b5f61150d602083610f86565b9150611518826114d9565b602082019050919050565b5f6020820190508181035f83015261153a81611501565b9050919050565b7f63616e6e6f74207472616e736665722054417320746f207468652065786368615f8201527f6e67650000000000000000000000000000000000000000000000000000000000602082015250565b5f61159b602383610f86565b91506115a682611541565b604082019050919050565b5f6020820190508181035f8301526115c88161158f565b9050919050565b7f63616e6e6f74207472616e736665722054427320746f207468652062757965725f82015250565b5f611603602083610f86565b915061160e826115cf565b602082019050919050565b5f6020820190508181035f830152611630816115f7565b905091905056fea26469706673582212200f6f6a65a81f0a3ddb8eac5660a681a2c335ee2cd54b50bec35aac9cbd838b4a64736f6c63430008160033",
					"opcodes": "PUSH1 0x80 PUSH1 0x40 MSTORE CALLVALUE DUP1 ISZERO PUSH3 0x10 JUMPI PUSH0 DUP1 REVERT JUMPDEST POP PUSH1 0x40 MLOAD PUSH3 0x1837 CODESIZE SUB DUP1 PUSH3 0x1837 DUP4 CODECOPY DUP2 DUP2 ADD PUSH1 0x40 MSTORE DUP2 ADD SWAP1 PUSH3 0x36 SWAP2 SWAP1 PUSH3 0x177 JUMP JUMPDEST DUP2 PUSH0 DUP1 PUSH2 0x100 EXP DUP2 SLOAD DUP2 PUSH20 0xFFFFFFFFFFFFFFFFFFFFFFFFFFFFFFFFFFFFFFFF MUL NOT AND SWAP1 DUP4 PUSH20 0xFFFFFFFFFFFFFFFFFFFFFFFFFFFFFFFFFFFFFFFF AND MUL OR SWAP1 SSTORE POP DUP1 PUSH1 0x1 PUSH0 PUSH2 0x100 EXP DUP2 SLOAD DUP2 PUSH20 0xFFFFFFFFFFFFFFFFFFFFFFFFFFFFFFFFFFFFFFFF MUL NOT AND SWAP1 DUP4 PUSH20 0xFFFFFFFFFFFFFFFFFFFFFFFFFFFFFFFFFFFFFFFF AND MUL OR SWAP1 SSTORE POP POP POP PUSH3 0x1BC JUMP JUMPDEST PUSH0 DUP1 REVERT JUMPDEST PUSH0 PUSH20 0xFFFFFFFFFFFFFFFFFFFFFFFFFFFFFFFFFFFFFFFF DUP3 AND SWAP1 POP SWAP2 SWAP1 POP JUMP JUMPDEST PUSH0 PUSH3 0xEC DUP3 PUSH3 0xC1 JUMP JUMPDEST SWAP1 POP SWAP2 SWAP1 POP JUMP JUMPDEST PUSH0 PUSH3 0xFF DUP3 PUSH3 0xE0 JUMP JUMPDEST SWAP1 POP SWAP2 SWAP1 POP JUMP JUMPDEST PUSH3 0x111 DUP2 PUSH3 0xF3 JUMP JUMPDEST DUP2 EQ PUSH3 0x11C JUMPI PUSH0 DUP1 REVERT JUMPDEST POP JUMP JUMPDEST PUSH0 DUP2 MLOAD SWAP1 POP PUSH3 0x12F DUP2 PUSH3 0x106 JUMP JUMPDEST SWAP3 SWAP2 POP POP JUMP JUMPDEST PUSH0 PUSH3 0x141 DUP3 PUSH3 0xE0 JUMP JUMPDEST SWAP1 POP SWAP2 SWAP1 POP JUMP JUMPDEST PUSH3 0x153 DUP2 PUSH3 0x135 JUMP JUMPDEST DUP2 EQ PUSH3 0x15E JUMPI PUSH0 DUP1 REVERT JUMPDEST POP JUMP JUMPDEST PUSH0 DUP2 MLOAD SWAP1 POP PUSH3 0x171 DUP2 PUSH3 0x148 JUMP JUMPDEST SWAP3 SWAP2 POP POP JUMP JUMPDEST PUSH0 DUP1 PUSH1 0x40 DUP4 DUP6 SUB SLT ISZERO PUSH3 0x190 JUMPI PUSH3 0x18F PUSH3 0xBD JUMP JUMPDEST JUMPDEST PUSH0 PUSH3 0x19F DUP6 DUP3 DUP7 ADD PUSH3 0x11F JUMP JUMPDEST SWAP3 POP POP PUSH1 0x20 PUSH3 0x1B2 DUP6 DUP3 DUP7 ADD PUSH3 0x161 JUMP JUMPDEST SWAP2 POP POP SWAP3 POP SWAP3 SWAP1 POP JUMP JUMPDEST PUSH2 0x166D DUP1 PUSH3 0x1CA PUSH0 CODECOPY PUSH0 RETURN INVALID PUSH1 0x80 PUSH1 0x40 MSTORE PUSH1 0x4 CALLDATASIZE LT PUSH2 0x33 JUMPI PUSH0 CALLDATALOAD PUSH1 0xE0 SHR DUP1 PUSH4 0x7193BFAB EQ PUSH2 0x37 JUMPI DUP1 PUSH4 0xBF6CB6A1 EQ PUSH2 0x67 JUMPI DUP1 PUSH4 0xC1D5725F EQ PUSH2 0xA3 JUMPI JUMPDEST PUSH0 DUP1 REVERT JUMPDEST PUSH2 0x51 PUSH1 0x4 DUP1 CALLDATASIZE SUB DUP2 ADD SWAP1 PUSH2 0x4C SWAP2 SWAP1 PUSH2 0xC95 JUMP JUMPDEST PUSH2 0xDF JUMP JUMPDEST PUSH1 0x40 MLOAD PUSH2 0x5E SWAP2 SWAP1 PUSH2 0xCD8 JUMP JUMPDEST PUSH1 0x40 MLOAD DUP1 SWAP2 SUB SWAP1 RETURN JUMPDEST CALLVALUE DUP1 ISZERO PUSH2 0x72 JUMPI PUSH0 DUP1 REVERT JUMPDEST POP PUSH2 0x8D PUSH1 0x4 DUP1 CALLDATASIZE SUB DUP2 ADD SWAP1 PUSH2 0x88 SWAP2 SWAP1 PUSH2 0xE2D JUMP JUMPDEST PUSH2 0x704 JUMP JUMPDEST PUSH1 0x40 MLOAD PUSH2 0x9A SWAP2 SWAP1 PUSH2 0xE8C JUMP JUMPDEST PUSH1 0x40 MLOAD DUP1 SWAP2 SUB SWAP1 RETURN JUMPDEST CALLVALUE DUP1 ISZERO PUSH2 0xAE JUMPI PUSH0 DUP1 REVERT JUMPDEST POP PUSH2 0xC9 PUSH1 0x4 DUP1 CALLDATASIZE SUB DUP2 ADD SWAP1 PUSH2 0xC4 SWAP2 SWAP1 PUSH2 0xECF JUMP JUMPDEST PUSH2 0x731 JUMP JUMPDEST PUSH1 0x40 MLOAD PUSH2 0xD6 SWAP2 SWAP1 PUSH2 0xE8C JUMP JUMPDEST PUSH1 0x40 MLOAD DUP1 SWAP2 SUB SWAP1 RETURN JUMPDEST PUSH0 DUP1 PUSH0 DUP1 SLOAD SWAP1 PUSH2 0x100 EXP SWAP1 DIV PUSH20 0xFFFFFFFFFFFFFFFFFFFFFFFFFFFFFFFFFFFFFFFF AND PUSH20 0xFFFFFFFFFFFFFFFFFFFFFFFFFFFFFFFFFFFFFFFF AND DUP4 PUSH20 0xFFFFFFFFFFFFFFFFFFFFFFFFFFFFFFFFFFFFFFFF AND EQ SWAP1 POP PUSH0 PUSH1 0x1 PUSH0 SWAP1 SLOAD SWAP1 PUSH2 0x100 EXP SWAP1 DIV PUSH20 0xFFFFFFFFFFFFFFFFFFFFFFFFFFFFFFFFFFFFFFFF AND PUSH20 0xFFFFFFFFFFFFFFFFFFFFFFFFFFFFFFFFFFFFFFFF AND DUP5 PUSH20 0xFFFFFFFFFFFFFFFFFFFFFFFFFFFFFFFFFFFFFFFF AND EQ SWAP1 POP PUSH0 PUSH32 0xFFFFFFFFFFFFFFFFFFFFFFFFFFFFFFFFFFFFFFFFFFFFFFFFFFFFFFFFFFFFFFFF SWAP1 POP DUP3 ISZERO PUSH2 0x42C JUMPI CALLVALUE PUSH0 DUP1 SLOAD SWAP1 PUSH2 0x100 EXP SWAP1 DIV PUSH20 0xFFFFFFFFFFFFFFFFFFFFFFFFFFFFFFFFFFFFFFFF AND PUSH20 0xFFFFFFFFFFFFFFFFFFFFFFFFFFFFFFFFFFFFFFFF AND PUSH4 0x70A08231 ADDRESS PUSH1 0x40 MLOAD DUP3 PUSH4 0xFFFFFFFF AND PUSH1 0xE0 SHL DUP2 MSTORE PUSH1 0x4 ADD PUSH2 0x207 SWAP2 SWAP1 PUSH2 0xF2E JUMP JUMPDEST PUSH1 0x20 PUSH1 0x40 MLOAD DUP1 DUP4 SUB DUP2 DUP7 GAS STATICCALL ISZERO DUP1 ISZERO PUSH2 0x222 JUMPI RETURNDATASIZE PUSH0 DUP1 RETURNDATACOPY RETURNDATASIZE PUSH0 REVERT JUMPDEST POP POP POP POP PUSH1 0x40 MLOAD RETURNDATASIZE PUSH1 0x1F NOT PUSH1 0x1F DUP3 ADD AND DUP3 ADD DUP1 PUSH1 0x40 MSTORE POP DUP2 ADD SWAP1 PUSH2 0x246 SWAP2 SWAP1 PUSH2 0xF5B JUMP JUMPDEST LT ISZERO PUSH2 0x287 JUMPI PUSH1 0x40 MLOAD PUSH32 0x8C379A000000000000000000000000000000000000000000000000000000000 DUP2 MSTORE PUSH1 0x4 ADD PUSH2 0x27E SWAP1 PUSH2 0x1006 JUMP JUMPDEST PUSH1 0x40 MLOAD DUP1 SWAP2 SUB SWAP1 REVERT JUMPDEST PUSH0 DUP1 SLOAD SWAP1 PUSH2 0x100 EXP SWAP1 DIV PUSH20 0xFFFFFFFFFFFFFFFFFFFFFFFFFFFFFFFFFFFFFFFF AND PUSH20 0xFFFFFFFFFFFFFFFFFFFFFFFFFFFFFFFFFFFFFFFF AND PUSH4 0xA9059CBB CALLER CALLVALUE PUSH1 0x40 MLOAD DUP4 PUSH4 0xFFFFFFFF AND PUSH1 0xE0 SHL DUP2 MSTORE PUSH1 0x4 ADD PUSH2 0x2E1 SWAP3 SWAP2 SWAP1 PUSH2 0x1024 JUMP JUMPDEST PUSH1 0x20 PUSH1 0x40 MLOAD DUP1 DUP4 SUB DUP2 PUSH0 DUP8 GAS CALL ISZERO DUP1 ISZERO PUSH2 0x2FD JUMPI RETURNDATASIZE PUSH0 DUP1 RETURNDATACOPY RETURNDATASIZE PUSH0 REVERT JUMPDEST POP POP POP POP PUSH1 0x40 MLOAD RETURNDATASIZE PUSH1 0x1F NOT PUSH1 0x1F DUP3 ADD AND DUP3 ADD DUP1 PUSH1 0x40 MSTORE POP DUP2 ADD SWAP1 PUSH2 0x321 SWAP2 SWAP1 PUSH2 0x1080 JUMP JUMPDEST PUSH2 0x360 JUMPI PUSH1 0x40 MLOAD PUSH32 0x8C379A000000000000000000000000000000000000000000000000000000000 DUP2 MSTORE PUSH1 0x4 ADD PUSH2 0x357 SWAP1 PUSH2 0x111B JUMP JUMPDEST PUSH1 0x40 MLOAD DUP1 SWAP2 SUB SWAP1 REVERT JUMPDEST CALLVALUE PUSH1 0x2 PUSH1 0x40 MLOAD PUSH2 0x36F SWAP1 PUSH2 0x118D JUMP JUMPDEST SWAP1 DUP2 MSTORE PUSH1 0x20 ADD PUSH1 0x40 MLOAD DUP1 SWAP2 SUB SWAP1 KECCAK256 PUSH0 DUP3 DUP3 SLOAD PUSH2 0x38B SWAP2 SWAP1 PUSH2 0x11CE JUMP JUMPDEST SWAP3 POP POP DUP2 SWAP1 SSTORE POP PUSH0 DUP1 SLOAD SWAP1 PUSH2 0x100 EXP SWAP1 DIV PUSH20 0xFFFFFFFFFFFFFFFFFFFFFFFFFFFFFFFFFFFFFFFF AND PUSH20 0xFFFFFFFFFFFFFFFFFFFFFFFFFFFFFFFFFFFFFFFF AND PUSH4 0x70A08231 CALLER PUSH1 0x40 MLOAD DUP3 PUSH4 0xFFFFFFFF AND PUSH1 0xE0 SHL DUP2 MSTORE PUSH1 0x4 ADD PUSH2 0x3EA SWAP2 SWAP1 PUSH2 0xF2E JUMP JUMPDEST PUSH1 0x20 PUSH1 0x40 MLOAD DUP1 DUP4 SUB DUP2 DUP7 GAS STATICCALL ISZERO DUP1 ISZERO PUSH2 0x405 JUMPI RETURNDATASIZE PUSH0 DUP1 RETURNDATACOPY RETURNDATASIZE PUSH0 REVERT JUMPDEST POP POP POP POP PUSH1 0x40 MLOAD RETURNDATASIZE PUSH1 0x1F NOT PUSH1 0x1F DUP3 ADD AND DUP3 ADD DUP1 PUSH1 0x40 MSTORE POP DUP2 ADD SWAP1 PUSH2 0x429 SWAP2 SWAP1 PUSH2 0xF5B JUMP JUMPDEST SWAP1 POP JUMPDEST DUP2 ISZERO PUSH2 0x6B6 JUMPI CALLVALUE PUSH1 0x1 PUSH0 SWAP1 SLOAD SWAP1 PUSH2 0x100 EXP SWAP1 DIV PUSH20 0xFFFFFFFFFFFFFFFFFFFFFFFFFFFFFFFFFFFFFFFF AND PUSH20 0xFFFFFFFFFFFFFFFFFFFFFFFFFFFFFFFFFFFFFFFF AND PUSH4 0x70A08231 ADDRESS PUSH1 0x40 MLOAD DUP3 PUSH4 0xFFFFFFFF AND PUSH1 0xE0 SHL DUP2 MSTORE PUSH1 0x4 ADD PUSH2 0x48D SWAP2 SWAP1 PUSH2 0xF2E JUMP JUMPDEST PUSH1 0x20 PUSH1 0x40 MLOAD DUP1 DUP4 SUB DUP2 DUP7 GAS STATICCALL ISZERO DUP1 ISZERO PUSH2 0x4A8 JUMPI RETURNDATASIZE PUSH0 DUP1 RETURNDATACOPY RETURNDATASIZE PUSH0 REVERT JUMPDEST POP POP POP POP PUSH1 0x40 MLOAD RETURNDATASIZE PUSH1 0x1F NOT PUSH1 0x1F DUP3 ADD AND DUP3 ADD DUP1 PUSH1 0x40 MSTORE POP DUP2 ADD SWAP1 PUSH2 0x4CC SWAP2 SWAP1 PUSH2 0xF5B JUMP JUMPDEST LT ISZERO PUSH2 0x50D JUMPI PUSH1 0x40 MLOAD PUSH32 0x8C379A000000000000000000000000000000000000000000000000000000000 DUP2 MSTORE PUSH1 0x4 ADD PUSH2 0x504 SWAP1 PUSH2 0x1271 JUMP JUMPDEST PUSH1 0x40 MLOAD DUP1 SWAP2 SUB SWAP1 REVERT JUMPDEST PUSH1 0x1 PUSH0 SWAP1 SLOAD SWAP1 PUSH2 0x100 EXP SWAP1 DIV PUSH20 0xFFFFFFFFFFFFFFFFFFFFFFFFFFFFFFFFFFFFFFFF AND PUSH20 0xFFFFFFFFFFFFFFFFFFFFFFFFFFFFFFFFFFFFFFFF AND PUSH4 0xA9059CBB CALLER CALLVALUE PUSH1 0x40 MLOAD DUP4 PUSH4 0xFFFFFFFF AND PUSH1 0xE0 SHL DUP2 MSTORE PUSH1 0x4 ADD PUSH2 0x569 SWAP3 SWAP2 SWAP1 PUSH2 0x1024 JUMP JUMPDEST PUSH1 0x20 PUSH1 0x40 MLOAD DUP1 DUP4 SUB DUP2 PUSH0 DUP8 GAS CALL ISZERO DUP1 ISZERO PUSH2 0x585 JUMPI RETURNDATASIZE PUSH0 DUP1 RETURNDATACOPY RETURNDATASIZE PUSH0 REVERT JUMPDEST POP POP POP POP PUSH1 0x40 MLOAD RETURNDATASIZE PUSH1 0x1F NOT PUSH1 0x1F DUP3 ADD AND DUP3 ADD DUP1 PUSH1 0x40 MSTORE POP DUP2 ADD SWAP1 PUSH2 0x5A9 SWAP2 SWAP1 PUSH2 0x1080 JUMP JUMPDEST PUSH2 0x5E8 JUMPI PUSH1 0x40 MLOAD PUSH32 0x8C379A000000000000000000000000000000000000000000000000000000000 DUP2 MSTORE PUSH1 0x4 ADD PUSH2 0x5DF SWAP1 PUSH2 0x12FF JUMP JUMPDEST PUSH1 0x40 MLOAD DUP1 SWAP2 SUB SWAP1 REVERT JUMPDEST CALLVALUE PUSH1 0x2 PUSH1 0x40 MLOAD PUSH2 0x5F7 SWAP1 PUSH2 0x1367 JUMP JUMPDEST SWAP1 DUP2 MSTORE PUSH1 0x20 ADD PUSH1 0x40 MLOAD DUP1 SWAP2 SUB SWAP1 KECCAK256 PUSH0 DUP3 DUP3 SLOAD PUSH2 0x613 SWAP2 SWAP1 PUSH2 0x11CE JUMP JUMPDEST SWAP3 POP POP DUP2 SWAP1 SSTORE POP PUSH1 0x1 PUSH0 SWAP1 SLOAD SWAP1 PUSH2 0x100 EXP SWAP1 DIV PUSH20 0xFFFFFFFFFFFFFFFFFFFFFFFFFFFFFFFFFFFFFFFF AND PUSH20 0xFFFFFFFFFFFFFFFFFFFFFFFFFFFFFFFFFFFFFFFF AND PUSH4 0x70A08231 CALLER PUSH1 0x40 MLOAD DUP3 PUSH4 0xFFFFFFFF AND PUSH1 0xE0 SHL DUP2 MSTORE PUSH1 0x4 ADD PUSH2 0x674 SWAP2 SWAP1 PUSH2 0xF2E JUMP JUMPDEST PUSH1 0x20 PUSH1 0x40 MLOAD DUP1 DUP4 SUB DUP2 DUP7 GAS STATICCALL ISZERO DUP1 ISZERO PUSH2 0x68F JUMPI RETURNDATASIZE PUSH0 DUP1 RETURNDATACOPY RETURNDATASIZE PUSH0 REVERT JUMPDEST POP POP POP POP PUSH1 0x40 MLOAD RETURNDATASIZE PUSH1 0x1F NOT PUSH1 0x1F DUP3 ADD AND DUP3 ADD DUP1 PUSH1 0x40 MSTORE POP DUP2 ADD SWAP1 PUSH2 0x6B3 SWAP2 SWAP1 PUSH2 0xF5B JUMP JUMPDEST SWAP1 POP JUMPDEST PUSH0 DUP2 SLT ISZERO PUSH2 0x6F9 JUMPI PUSH1 0x40 MLOAD PUSH32 0x8C379A000000000000000000000000000000000000000000000000000000000 DUP2 MSTORE PUSH1 0x4 ADD PUSH2 0x6F0 SWAP1 PUSH2 0x13C5 JUMP JUMPDEST PUSH1 0x40 MLOAD DUP1 SWAP2 SUB SWAP1 REVERT JUMPDEST DUP1 SWAP4 POP POP POP POP SWAP2 SWAP1 POP JUMP JUMPDEST PUSH1 0x2 DUP2 DUP1 MLOAD PUSH1 0x20 DUP2 ADD DUP3 ADD DUP1 MLOAD DUP5 DUP3 MSTORE PUSH1 0x20 DUP4 ADD PUSH1 0x20 DUP6 ADD KECCAK256 DUP2 DUP4 MSTORE DUP1 SWAP6 POP POP POP POP POP POP PUSH0 SWAP2 POP SWAP1 POP SLOAD DUP2 JUMP JUMPDEST PUSH0 DUP1 PUSH0 DUP1 SLOAD SWAP1 PUSH2 0x100 EXP SWAP1 DIV PUSH20 0xFFFFFFFFFFFFFFFFFFFFFFFFFFFFFFFFFFFFFFFF AND PUSH20 0xFFFFFFFFFFFFFFFFFFFFFFFFFFFFFFFFFFFFFFFF AND DUP6 PUSH20 0xFFFFFFFFFFFFFFFFFFFFFFFFFFFFFFFFFFFFFFFF AND EQ SWAP1 POP PUSH0 PUSH1 0x1 PUSH0 SWAP1 SLOAD SWAP1 PUSH2 0x100 EXP SWAP1 DIV PUSH20 0xFFFFFFFFFFFFFFFFFFFFFFFFFFFFFFFFFFFFFFFF AND PUSH20 0xFFFFFFFFFFFFFFFFFFFFFFFFFFFFFFFFFFFFFFFF AND DUP6 PUSH20 0xFFFFFFFFFFFFFFFFFFFFFFFFFFFFFFFFFFFFFFFF AND EQ SWAP1 POP PUSH0 DUP3 ISZERO PUSH2 0x9FB JUMPI PUSH1 0x1 PUSH0 SWAP1 SLOAD SWAP1 PUSH2 0x100 EXP SWAP1 DIV PUSH20 0xFFFFFFFFFFFFFFFFFFFFFFFFFFFFFFFFFFFFFFFF AND PUSH20 0xFFFFFFFFFFFFFFFFFFFFFFFFFFFFFFFFFFFFFFFF AND PUSH4 0x23B872DD CALLER ADDRESS DUP9 PUSH1 0x40 MLOAD DUP5 PUSH4 0xFFFFFFFF AND PUSH1 0xE0 SHL DUP2 MSTORE PUSH1 0x4 ADD PUSH2 0x83B SWAP4 SWAP3 SWAP2 SWAP1 PUSH2 0x13E3 JUMP JUMPDEST PUSH1 0x20 PUSH1 0x40 MLOAD DUP1 DUP4 SUB DUP2 PUSH0 DUP8 GAS CALL ISZERO DUP1 ISZERO PUSH2 0x857 JUMPI RETURNDATASIZE PUSH0 DUP1 RETURNDATACOPY RETURNDATASIZE PUSH0 REVERT JUMPDEST POP POP POP POP PUSH1 0x40 MLOAD RETURNDATASIZE PUSH1 0x1F NOT PUSH1 0x1F DUP3 ADD AND DUP3 ADD DUP1 PUSH1 0x40 MSTORE POP DUP2 ADD SWAP1 PUSH2 0x87B SWAP2 SWAP1 PUSH2 0x1080 JUMP JUMPDEST PUSH2 0x8BA JUMPI PUSH1 0x40 MLOAD PUSH32 0x8C379A000000000000000000000000000000000000000000000000000000000 DUP2 MSTORE PUSH1 0x4 ADD PUSH2 0x8B1 SWAP1 PUSH2 0x1488 JUMP JUMPDEST PUSH1 0x40 MLOAD DUP1 SWAP2 SUB SWAP1 REVERT JUMPDEST DUP5 PUSH1 0x2 PUSH1 0x40 MLOAD PUSH2 0x8C9 SWAP1 PUSH2 0x1367 JUMP JUMPDEST SWAP1 DUP2 MSTORE PUSH1 0x20 ADD PUSH1 0x40 MLOAD DUP1 SWAP2 SUB SWAP1 KECCAK256 PUSH0 DUP3 DUP3 SLOAD PUSH2 0x8E5 SWAP2 SWAP1 PUSH2 0x14A6 JUMP JUMPDEST SWAP3 POP POP DUP2 SWAP1 SSTORE POP PUSH0 DUP1 SLOAD SWAP1 PUSH2 0x100 EXP SWAP1 DIV PUSH20 0xFFFFFFFFFFFFFFFFFFFFFFFFFFFFFFFFFFFFFFFF AND PUSH20 0xFFFFFFFFFFFFFFFFFFFFFFFFFFFFFFFFFFFFFFFF AND PUSH4 0xA9059CBB CALLER DUP8 PUSH1 0x40 MLOAD DUP4 PUSH4 0xFFFFFFFF AND PUSH1 0xE0 SHL DUP2 MSTORE PUSH1 0x4 ADD PUSH2 0x946 SWAP3 SWAP2 SWAP1 PUSH2 0x1024 JUMP JUMPDEST PUSH1 0x20 PUSH1 0x40 MLOAD DUP1 DUP4 SUB DUP2 PUSH0 DUP8 GAS CALL ISZERO DUP1 ISZERO PUSH2 0x962 JUMPI RETURNDATASIZE PUSH0 DUP1 RETURNDATACOPY RETURNDATASIZE PUSH0 REVERT JUMPDEST POP POP POP POP PUSH1 0x40 MLOAD RETURNDATASIZE PUSH1 0x1F NOT PUSH1 0x1F DUP3 ADD AND DUP3 ADD DUP1 PUSH1 0x40 MSTORE POP DUP2 ADD SWAP1 PUSH2 0x986 SWAP2 SWAP1 PUSH2 0x1080 JUMP JUMPDEST PUSH2 0x9C5 JUMPI PUSH1 0x40 MLOAD PUSH32 0x8C379A000000000000000000000000000000000000000000000000000000000 DUP2 MSTORE PUSH1 0x4 ADD PUSH2 0x9BC SWAP1 PUSH2 0x1523 JUMP JUMPDEST PUSH1 0x40 MLOAD DUP1 SWAP2 SUB SWAP1 REVERT JUMPDEST DUP5 PUSH1 0x2 PUSH1 0x40 MLOAD PUSH2 0x9D4 SWAP1 PUSH2 0x118D JUMP JUMPDEST SWAP1 DUP2 MSTORE PUSH1 0x20 ADD PUSH1 0x40 MLOAD DUP1 SWAP2 SUB SWAP1 KECCAK256 PUSH0 DUP3 DUP3 SLOAD PUSH2 0x9F0 SWAP2 SWAP1 PUSH2 0x11CE JUMP JUMPDEST SWAP3 POP POP DUP2 SWAP1 SSTORE POP DUP5 SWAP1 POP JUMPDEST DUP2 ISZERO PUSH2 0xC1D JUMPI PUSH0 DUP1 SLOAD SWAP1 PUSH2 0x100 EXP SWAP1 DIV PUSH20 0xFFFFFFFFFFFFFFFFFFFFFFFFFFFFFFFFFFFFFFFF AND PUSH20 0xFFFFFFFFFFFFFFFFFFFFFFFFFFFFFFFFFFFFFFFF AND PUSH4 0x23B872DD CALLER ADDRESS DUP9 PUSH1 0x40 MLOAD DUP5 PUSH4 0xFFFFFFFF AND PUSH1 0xE0 SHL DUP2 MSTORE PUSH1 0x4 ADD PUSH2 0xA5D SWAP4 SWAP3 SWAP2 SWAP1 PUSH2 0x13E3 JUMP JUMPDEST PUSH1 0x20 PUSH1 0x40 MLOAD DUP1 DUP4 SUB DUP2 PUSH0 DUP8 GAS CALL ISZERO DUP1 ISZERO PUSH2 0xA79 JUMPI RETURNDATASIZE PUSH0 DUP1 RETURNDATACOPY RETURNDATASIZE PUSH0 REVERT JUMPDEST POP POP POP POP PUSH1 0x40 MLOAD RETURNDATASIZE PUSH1 0x1F NOT PUSH1 0x1F DUP3 ADD AND DUP3 ADD DUP1 PUSH1 0x40 MSTORE POP DUP2 ADD SWAP1 PUSH2 0xA9D SWAP2 SWAP1 PUSH2 0x1080 JUMP JUMPDEST PUSH2 0xADC JUMPI PUSH1 0x40 MLOAD PUSH32 0x8C379A000000000000000000000000000000000000000000000000000000000 DUP2 MSTORE PUSH1 0x4 ADD PUSH2 0xAD3 SWAP1 PUSH2 0x15B1 JUMP JUMPDEST PUSH1 0x40 MLOAD DUP1 SWAP2 SUB SWAP1 REVERT JUMPDEST DUP5 PUSH1 0x2 PUSH1 0x40 MLOAD PUSH2 0xAEB SWAP1 PUSH2 0x118D JUMP JUMPDEST SWAP1 DUP2 MSTORE PUSH1 0x20 ADD PUSH1 0x40 MLOAD DUP1 SWAP2 SUB SWAP1 KECCAK256 PUSH0 DUP3 DUP3 SLOAD PUSH2 0xB07 SWAP2 SWAP1 PUSH2 0x14A6 JUMP JUMPDEST SWAP3 POP POP DUP2 SWAP1 SSTORE POP PUSH0 DUP1 SLOAD SWAP1 PUSH2 0x100 EXP SWAP1 DIV PUSH20 0xFFFFFFFFFFFFFFFFFFFFFFFFFFFFFFFFFFFFFFFF AND PUSH20 0xFFFFFFFFFFFFFFFFFFFFFFFFFFFFFFFFFFFFFFFF AND PUSH4 0xA9059CBB CALLER DUP8 PUSH1 0x40 MLOAD DUP4 PUSH4 0xFFFFFFFF AND PUSH1 0xE0 SHL DUP2 MSTORE PUSH1 0x4 ADD PUSH2 0xB68 SWAP3 SWAP2 SWAP1 PUSH2 0x1024 JUMP JUMPDEST PUSH1 0x20 PUSH1 0x40 MLOAD DUP1 DUP4 SUB DUP2 PUSH0 DUP8 GAS CALL ISZERO DUP1 ISZERO PUSH2 0xB84 JUMPI RETURNDATASIZE PUSH0 DUP1 RETURNDATACOPY RETURNDATASIZE PUSH0 REVERT JUMPDEST POP POP POP POP PUSH1 0x40 MLOAD RETURNDATASIZE PUSH1 0x1F NOT PUSH1 0x1F DUP3 ADD AND DUP3 ADD DUP1 PUSH1 0x40 MSTORE POP DUP2 ADD SWAP1 PUSH2 0xBA8 SWAP2 SWAP1 PUSH2 0x1080 JUMP JUMPDEST PUSH2 0xBE7 JUMPI PUSH1 0x40 MLOAD PUSH32 0x8C379A000000000000000000000000000000000000000000000000000000000 DUP2 MSTORE PUSH1 0x4 ADD PUSH2 0xBDE SWAP1 PUSH2 0x1619 JUMP JUMPDEST PUSH1 0x40 MLOAD DUP1 SWAP2 SUB SWAP1 REVERT JUMPDEST DUP5 PUSH1 0x2 PUSH1 0x40 MLOAD PUSH2 0xBF6 SWAP1 PUSH2 0x1367 JUMP JUMPDEST SWAP1 DUP2 MSTORE PUSH1 0x20 ADD PUSH1 0x40 MLOAD DUP1 SWAP2 SUB SWAP1 KECCAK256 PUSH0 DUP3 DUP3 SLOAD PUSH2 0xC12 SWAP2 SWAP1 PUSH2 0x11CE JUMP JUMPDEST SWAP3 POP POP DUP2 SWAP1 SSTORE POP DUP5 SWAP1 POP JUMPDEST DUP1 SWAP4 POP POP POP POP SWAP4 SWAP3 POP POP POP JUMP JUMPDEST PUSH0 PUSH1 0x40 MLOAD SWAP1 POP SWAP1 JUMP JUMPDEST PUSH0 DUP1 REVERT JUMPDEST PUSH0 DUP1 REVERT JUMPDEST PUSH0 PUSH20 0xFFFFFFFFFFFFFFFFFFFFFFFFFFFFFFFFFFFFFFFF DUP3 AND SWAP1 POP SWAP2 SWAP1 POP JUMP JUMPDEST PUSH0 PUSH2 0xC64 DUP3 PUSH2 0xC3B JUMP JUMPDEST SWAP1 POP SWAP2 SWAP1 POP JUMP JUMPDEST PUSH2 0xC74 DUP2 PUSH2 0xC5A JUMP JUMPDEST DUP2 EQ PUSH2 0xC7E JUMPI PUSH0 DUP1 REVERT JUMPDEST POP JUMP JUMPDEST PUSH0 DUP2 CALLDATALOAD SWAP1 POP PUSH2 0xC8F DUP2 PUSH2 0xC6B JUMP JUMPDEST SWAP3 SWAP2 POP POP JUMP JUMPDEST PUSH0 PUSH1 0x20 DUP3 DUP5 SUB SLT ISZERO PUSH2 0xCAA JUMPI PUSH2 0xCA9 PUSH2 0xC33 JUMP JUMPDEST JUMPDEST PUSH0 PUSH2 0xCB7 DUP5 DUP3 DUP6 ADD PUSH2 0xC81 JUMP JUMPDEST SWAP2 POP POP SWAP3 SWAP2 POP POP JUMP JUMPDEST PUSH0 DUP2 SWAP1 POP SWAP2 SWAP1 POP JUMP JUMPDEST PUSH2 0xCD2 DUP2 PUSH2 0xCC0 JUMP JUMPDEST DUP3 MSTORE POP POP JUMP JUMPDEST PUSH0 PUSH1 0x20 DUP3 ADD SWAP1 POP PUSH2 0xCEB PUSH0 DUP4 ADD DUP5 PUSH2 0xCC9 JUMP JUMPDEST SWAP3 SWAP2 POP POP JUMP JUMPDEST PUSH0 DUP1 REVERT JUMPDEST PUSH0 DUP1 REVERT JUMPDEST PUSH0 PUSH1 0x1F NOT PUSH1 0x1F DUP4 ADD AND SWAP1 POP SWAP2 SWAP1 POP JUMP JUMPDEST PUSH32 0x4E487B7100000000000000000000000000000000000000000000000000000000 PUSH0 MSTORE PUSH1 0x41 PUSH1 0x4 MSTORE PUSH1 0x24 PUSH0 REVERT JUMPDEST PUSH2 0xD3F DUP3 PUSH2 0xCF9 JUMP JUMPDEST DUP2 ADD DUP2 DUP2 LT PUSH8 0xFFFFFFFFFFFFFFFF DUP3 GT OR ISZERO PUSH2 0xD5E JUMPI PUSH2 0xD5D PUSH2 0xD09 JUMP JUMPDEST JUMPDEST DUP1 PUSH1 0x40 MSTORE POP POP POP JUMP JUMPDEST PUSH0 PUSH2 0xD70 PUSH2 0xC2A JUMP JUMPDEST SWAP1 POP PUSH2 0xD7C DUP3 DUP3 PUSH2 0xD36 JUMP JUMPDEST SWAP2 SWAP1 POP JUMP JUMPDEST PUSH0 PUSH8 0xFFFFFFFFFFFFFFFF DUP3 GT ISZERO PUSH2 0xD9B JUMPI PUSH2 0xD9A PUSH2 0xD09 JUMP JUMPDEST JUMPDEST PUSH2 0xDA4 DUP3 PUSH2 0xCF9 JUMP JUMPDEST SWAP1 POP PUSH1 0x20 DUP2 ADD SWAP1 POP SWAP2 SWAP1 POP JUMP JUMPDEST DUP3 DUP2 DUP4 CALLDATACOPY PUSH0 DUP4 DUP4 ADD MSTORE POP POP POP JUMP JUMPDEST PUSH0 PUSH2 0xDD1 PUSH2 0xDCC DUP5 PUSH2 0xD81 JUMP JUMPDEST PUSH2 0xD67 JUMP JUMPDEST SWAP1 POP DUP3 DUP2 MSTORE PUSH1 0x20 DUP2 ADD DUP5 DUP5 DUP5 ADD GT ISZERO PUSH2 0xDED JUMPI PUSH2 0xDEC PUSH2 0xCF5 JUMP JUMPDEST JUMPDEST PUSH2 0xDF8 DUP5 DUP3 DUP6 PUSH2 0xDB1 JUMP JUMPDEST POP SWAP4 SWAP3 POP POP POP JUMP JUMPDEST PUSH0 DUP3 PUSH1 0x1F DUP4 ADD SLT PUSH2 0xE14 JUMPI PUSH2 0xE13 PUSH2 0xCF1 JUMP JUMPDEST JUMPDEST DUP2 CALLDATALOAD PUSH2 0xE24 DUP5 DUP3 PUSH1 0x20 DUP7 ADD PUSH2 0xDBF JUMP JUMPDEST SWAP2 POP POP SWAP3 SWAP2 POP POP JUMP JUMPDEST PUSH0 PUSH1 0x20 DUP3 DUP5 SUB SLT ISZERO PUSH2 0xE42 JUMPI PUSH2 0xE41 PUSH2 0xC33 JUMP JUMPDEST JUMPDEST PUSH0 DUP3 ADD CALLDATALOAD PUSH8 0xFFFFFFFFFFFFFFFF DUP2 GT ISZERO PUSH2 0xE5F JUMPI PUSH2 0xE5E PUSH2 0xC37 JUMP JUMPDEST JUMPDEST PUSH2 0xE6B DUP5 DUP3 DUP6 ADD PUSH2 0xE00 JUMP JUMPDEST SWAP2 POP POP SWAP3 SWAP2 POP POP JUMP JUMPDEST PUSH0 DUP2 SWAP1 POP SWAP2 SWAP1 POP JUMP JUMPDEST PUSH2 0xE86 DUP2 PUSH2 0xE74 JUMP JUMPDEST DUP3 MSTORE POP POP JUMP JUMPDEST PUSH0 PUSH1 0x20 DUP3 ADD SWAP1 POP PUSH2 0xE9F PUSH0 DUP4 ADD DUP5 PUSH2 0xE7D JUMP JUMPDEST SWAP3 SWAP2 POP POP JUMP JUMPDEST PUSH2 0xEAE DUP2 PUSH2 0xE74 JUMP JUMPDEST DUP2 EQ PUSH2 0xEB8 JUMPI PUSH0 DUP1 REVERT JUMPDEST POP JUMP JUMPDEST PUSH0 DUP2 CALLDATALOAD SWAP1 POP PUSH2 0xEC9 DUP2 PUSH2 0xEA5 JUMP JUMPDEST SWAP3 SWAP2 POP POP JUMP JUMPDEST PUSH0 DUP1 PUSH0 PUSH1 0x60 DUP5 DUP7 SUB SLT ISZERO PUSH2 0xEE6 JUMPI PUSH2 0xEE5 PUSH2 0xC33 JUMP JUMPDEST JUMPDEST PUSH0 PUSH2 0xEF3 DUP7 DUP3 DUP8 ADD PUSH2 0xC81 JUMP JUMPDEST SWAP4 POP POP PUSH1 0x20 PUSH2 0xF04 DUP7 DUP3 DUP8 ADD PUSH2 0xC81 JUMP JUMPDEST SWAP3 POP POP PUSH1 0x40 PUSH2 0xF15 DUP7 DUP3 DUP8 ADD PUSH2 0xEBB JUMP JUMPDEST SWAP2 POP POP SWAP3 POP SWAP3 POP SWAP3 JUMP JUMPDEST PUSH2 0xF28 DUP2 PUSH2 0xC5A JUMP JUMPDEST DUP3 MSTORE POP POP JUMP JUMPDEST PUSH0 PUSH1 0x20 DUP3 ADD SWAP1 POP PUSH2 0xF41 PUSH0 DUP4 ADD DUP5 PUSH2 0xF1F JUMP JUMPDEST SWAP3 SWAP2 POP POP JUMP JUMPDEST PUSH0 DUP2 MLOAD SWAP1 POP PUSH2 0xF55 DUP2 PUSH2 0xEA5 JUMP JUMPDEST SWAP3 SWAP2 POP POP JUMP JUMPDEST PUSH0 PUSH1 0x20 DUP3 DUP5 SUB SLT ISZERO PUSH2 0xF70 JUMPI PUSH2 0xF6F PUSH2 0xC33 JUMP JUMPDEST JUMPDEST PUSH0 PUSH2 0xF7D DUP5 DUP3 DUP6 ADD PUSH2 0xF47 JUMP JUMPDEST SWAP2 POP POP SWAP3 SWAP2 POP POP JUMP JUMPDEST PUSH0 DUP3 DUP3 MSTORE PUSH1 0x20 DUP3 ADD SWAP1 POP SWAP3 SWAP2 POP POP JUMP JUMPDEST PUSH32 0x4E6F7420656E6F7567682054417320746F2073656C6C20666F72206574686572 PUSH0 DUP3 ADD MSTORE PUSH32 0x732C20726576657274696E670000000000000000000000000000000000000000 PUSH1 0x20 DUP3 ADD MSTORE POP JUMP JUMPDEST PUSH0 PUSH2 0xFF0 PUSH1 0x2C DUP4 PUSH2 0xF86 JUMP JUMPDEST SWAP2 POP PUSH2 0xFFB DUP3 PUSH2 0xF96 JUMP JUMPDEST PUSH1 0x40 DUP3 ADD SWAP1 POP SWAP2 SWAP1 POP JUMP JUMPDEST PUSH0 PUSH1 0x20 DUP3 ADD SWAP1 POP DUP2 DUP2 SUB PUSH0 DUP4 ADD MSTORE PUSH2 0x101D DUP2 PUSH2 0xFE4 JUMP JUMPDEST SWAP1 POP SWAP2 SWAP1 POP JUMP JUMPDEST PUSH0 PUSH1 0x40 DUP3 ADD SWAP1 POP PUSH2 0x1037 PUSH0 DUP4 ADD DUP6 PUSH2 0xF1F JUMP JUMPDEST PUSH2 0x1044 PUSH1 0x20 DUP4 ADD DUP5 PUSH2 0xE7D JUMP JUMPDEST SWAP4 SWAP3 POP POP POP JUMP JUMPDEST PUSH0 DUP2 ISZERO ISZERO SWAP1 POP SWAP2 SWAP1 POP JUMP JUMPDEST PUSH2 0x105F DUP2 PUSH2 0x104B JUMP JUMPDEST DUP2 EQ PUSH2 0x1069 JUMPI PUSH0 DUP1 REVERT JUMPDEST POP JUMP JUMPDEST PUSH0 DUP2 MLOAD SWAP1 POP PUSH2 0x107A DUP2 PUSH2 0x1056 JUMP JUMPDEST SWAP3 SWAP2 POP POP JUMP JUMPDEST PUSH0 PUSH1 0x20 DUP3 DUP5 SUB SLT ISZERO PUSH2 0x1095 JUMPI PUSH2 0x1094 PUSH2 0xC33 JUMP JUMPDEST JUMPDEST PUSH0 PUSH2 0x10A2 DUP5 DUP3 DUP6 ADD PUSH2 0x106C JUMP JUMPDEST SWAP2 POP POP SWAP3 SWAP2 POP POP JUMP JUMPDEST PUSH32 0x5472616E73666572206F6620544173206661696C65642C20726576657274696E PUSH0 DUP3 ADD MSTORE PUSH32 0x6700000000000000000000000000000000000000000000000000000000000000 PUSH1 0x20 DUP3 ADD MSTORE POP JUMP JUMPDEST PUSH0 PUSH2 0x1105 PUSH1 0x21 DUP4 PUSH2 0xF86 JUMP JUMPDEST SWAP2 POP PUSH2 0x1110 DUP3 PUSH2 0x10AB JUMP JUMPDEST PUSH1 0x40 DUP3 ADD SWAP1 POP SWAP2 SWAP1 POP JUMP JUMPDEST PUSH0 PUSH1 0x20 DUP3 ADD SWAP1 POP DUP2 DUP2 SUB PUSH0 DUP4 ADD MSTORE PUSH2 0x1132 DUP2 PUSH2 0x10F9 JUMP JUMPDEST SWAP1 POP SWAP2 SWAP1 POP JUMP JUMPDEST PUSH0 DUP2 SWAP1 POP SWAP3 SWAP2 POP POP JUMP JUMPDEST PUSH32 0x5441000000000000000000000000000000000000000000000000000000000000 PUSH0 DUP3 ADD MSTORE POP JUMP JUMPDEST PUSH0 PUSH2 0x1177 PUSH1 0x2 DUP4 PUSH2 0x1139 JUMP JUMPDEST SWAP2 POP PUSH2 0x1182 DUP3 PUSH2 0x1143 JUMP JUMPDEST PUSH1 0x2 DUP3 ADD SWAP1 POP SWAP2 SWAP1 POP JUMP JUMPDEST PUSH0 PUSH2 0x1197 DUP3 PUSH2 0x116B JUMP JUMPDEST SWAP2 POP DUP2 SWAP1 POP SWAP2 SWAP1 POP JUMP JUMPDEST PUSH32 0x4E487B7100000000000000000000000000000000000000000000000000000000 PUSH0 MSTORE PUSH1 0x11 PUSH1 0x4 MSTORE PUSH1 0x24 PUSH0 REVERT JUMPDEST PUSH0 PUSH2 0x11D8 DUP3 PUSH2 0xE74 JUMP JUMPDEST SWAP2 POP PUSH2 0x11E3 DUP4 PUSH2 0xE74 JUMP JUMPDEST SWAP3 POP DUP3 DUP3 SUB SWAP1 POP DUP2 DUP2 GT ISZERO PUSH2 0x11FB JUMPI PUSH2 0x11FA PUSH2 0x11A1 JUMP JUMPDEST JUMPDEST SWAP3 SWAP2 POP POP JUMP JUMPDEST PUSH32 0x4E6F7420656E6F7567682054427320746F2073656C6C20666F72206574686572 PUSH0 DUP3 ADD MSTORE PUSH32 0x732C20726576657274696E670000000000000000000000000000000000000000 PUSH1 0x20 DUP3 ADD MSTORE POP JUMP JUMPDEST PUSH0 PUSH2 0x125B PUSH1 0x2C DUP4 PUSH2 0xF86 JUMP JUMPDEST SWAP2 POP PUSH2 0x1266 DUP3 PUSH2 0x1201 JUMP JUMPDEST PUSH1 0x40 DUP3 ADD SWAP1 POP SWAP2 SWAP1 POP JUMP JUMPDEST PUSH0 PUSH1 0x20 DUP3 ADD SWAP1 POP DUP2 DUP2 SUB PUSH0 DUP4 ADD MSTORE PUSH2 0x1288 DUP2 PUSH2 0x124F JUMP JUMPDEST SWAP1 POP SWAP2 SWAP1 POP JUMP JUMPDEST PUSH32 0x5472616E73666572206F6620544273206661696C65642C20726576657274696E PUSH0 DUP3 ADD MSTORE PUSH32 0x6700000000000000000000000000000000000000000000000000000000000000 PUSH1 0x20 DUP3 ADD MSTORE POP JUMP JUMPDEST PUSH0 PUSH2 0x12E9 PUSH1 0x21 DUP4 PUSH2 0xF86 JUMP JUMPDEST SWAP2 POP PUSH2 0x12F4 DUP3 PUSH2 0x128F JUMP JUMPDEST PUSH1 0x40 DUP3 ADD SWAP1 POP SWAP2 SWAP1 POP JUMP JUMPDEST PUSH0 PUSH1 0x20 DUP3 ADD SWAP1 POP DUP2 DUP2 SUB PUSH0 DUP4 ADD MSTORE PUSH2 0x1316 DUP2 PUSH2 0x12DD JUMP JUMPDEST SWAP1 POP SWAP2 SWAP1 POP JUMP JUMPDEST PUSH32 0x5442000000000000000000000000000000000000000000000000000000000000 PUSH0 DUP3 ADD MSTORE POP JUMP JUMPDEST PUSH0 PUSH2 0x1351 PUSH1 0x2 DUP4 PUSH2 0x1139 JUMP JUMPDEST SWAP2 POP PUSH2 0x135C DUP3 PUSH2 0x131D JUMP JUMPDEST PUSH1 0x2 DUP3 ADD SWAP1 POP SWAP2 SWAP1 POP JUMP JUMPDEST PUSH0 PUSH2 0x1371 DUP3 PUSH2 0x1345 JUMP JUMPDEST SWAP2 POP DUP2 SWAP1 POP SWAP2 SWAP1 POP JUMP JUMPDEST PUSH32 0x77726F6E6720746F6B656E2C20726576657274696E6700000000000000000000 PUSH0 DUP3 ADD MSTORE POP JUMP JUMPDEST PUSH0 PUSH2 0x13AF PUSH1 0x16 DUP4 PUSH2 0xF86 JUMP JUMPDEST SWAP2 POP PUSH2 0x13BA DUP3 PUSH2 0x137B JUMP JUMPDEST PUSH1 0x20 DUP3 ADD SWAP1 POP SWAP2 SWAP1 POP JUMP JUMPDEST PUSH0 PUSH1 0x20 DUP3 ADD SWAP1 POP DUP2 DUP2 SUB PUSH0 DUP4 ADD MSTORE PUSH2 0x13DC DUP2 PUSH2 0x13A3 JUMP JUMPDEST SWAP1 POP SWAP2 SWAP1 POP JUMP JUMPDEST PUSH0 PUSH1 0x60 DUP3 ADD SWAP1 POP PUSH2 0x13F6 PUSH0 DUP4 ADD DUP7 PUSH2 0xF1F JUMP JUMPDEST PUSH2 0x1403 PUSH1 0x20 DUP4 ADD DUP6 PUSH2 0xF1F JUMP JUMPDEST PUSH2 0x1410 PUSH1 0x40 DUP4 ADD DUP5 PUSH2 0xE7D JUMP JUMPDEST SWAP5 SWAP4 POP POP POP POP JUMP JUMPDEST PUSH32 0x63616E6E6F74207472616E736665722054427320746F20746865206578636861 PUSH0 DUP3 ADD MSTORE PUSH32 0x6E67650000000000000000000000000000000000000000000000000000000000 PUSH1 0x20 DUP3 ADD MSTORE POP JUMP JUMPDEST PUSH0 PUSH2 0x1472 PUSH1 0x23 DUP4 PUSH2 0xF86 JUMP JUMPDEST SWAP2 POP PUSH2 0x147D DUP3 PUSH2 0x1418 JUMP JUMPDEST PUSH1 0x40 DUP3 ADD SWAP1 POP SWAP2 SWAP1 POP JUMP JUMPDEST PUSH0 PUSH1 0x20 DUP3 ADD SWAP1 POP DUP2 DUP2 SUB PUSH0 DUP4 ADD MSTORE PUSH2 0x149F DUP2 PUSH2 0x1466 JUMP JUMPDEST SWAP1 POP SWAP2 SWAP1 POP JUMP JUMPDEST PUSH0 PUSH2 0x14B0 DUP3 PUSH2 0xE74 JUMP JUMPDEST SWAP2 POP PUSH2 0x14BB DUP4 PUSH2 0xE74 JUMP JUMPDEST SWAP3 POP DUP3 DUP3 ADD SWAP1 POP DUP1 DUP3 GT ISZERO PUSH2 0x14D3 JUMPI PUSH2 0x14D2 PUSH2 0x11A1 JUMP JUMPDEST JUMPDEST SWAP3 SWAP2 POP POP JUMP JUMPDEST PUSH32 0x63616E6E6F74207472616E736665722054417320746F20746865206275796572 PUSH0 DUP3 ADD MSTORE POP JUMP JUMPDEST PUSH0 PUSH2 0x150D PUSH1 0x20 DUP4 PUSH2 0xF86 JUMP JUMPDEST SWAP2 POP PUSH2 0x1518 DUP3 PUSH2 0x14D9 JUMP JUMPDEST PUSH1 0x20 DUP3 ADD SWAP1 POP SWAP2 SWAP1 POP JUMP JUMPDEST PUSH0 PUSH1 0x20 DUP3 ADD SWAP1 POP DUP2 DUP2 SUB PUSH0 DUP4 ADD MSTORE PUSH2 0x153A DUP2 PUSH2 0x1501 JUMP JUMPDEST SWAP1 POP SWAP2 SWAP1 POP JUMP JUMPDEST PUSH32 0x63616E6E6F74207472616E736665722054417320746F20746865206578636861 PUSH0 DUP3 ADD MSTORE PUSH32 0x6E67650000000000000000000000000000000000000000000000000000000000 PUSH1 0x20 DUP3 ADD MSTORE POP JUMP JUMPDEST PUSH0 PUSH2 0x159B PUSH1 0x23 DUP4 PUSH2 0xF86 JUMP JUMPDEST SWAP2 POP PUSH2 0x15A6 DUP3 PUSH2 0x1541 JUMP JUMPDEST PUSH1 0x40 DUP3 ADD SWAP1 POP SWAP2 SWAP1 POP JUMP JUMPDEST PUSH0 PUSH1 0x20 DUP3 ADD SWAP1 POP DUP2 DUP2 SUB PUSH0 DUP4 ADD MSTORE PUSH2 0x15C8 DUP2 PUSH2 0x158F JUMP JUMPDEST SWAP1 POP SWAP2 SWAP1 POP JUMP JUMPDEST PUSH32 0x63616E6E6F74207472616E736665722054427320746F20746865206275796572 PUSH0 DUP3 ADD MSTORE POP JUMP JUMPDEST PUSH0 PUSH2 0x1603 PUSH1 0x20 DUP4 PUSH2 0xF86 JUMP JUMPDEST SWAP2 POP PUSH2 0x160E DUP3 PUSH2 0x15CF JUMP JUMPDEST PUSH1 0x20 DUP3 ADD SWAP1 POP SWAP2 SWAP1 POP JUMP JUMPDEST PUSH0 PUSH1 0x20 DUP3 ADD SWAP1 POP DUP2 DUP2 SUB PUSH0 DUP4 ADD MSTORE PUSH2 0x1630 DUP2 PUSH2 0x15F7 JUMP JUMPDEST SWAP1 POP SWAP2 SWAP1 POP JUMP INVALID LOG2 PUSH5 0x6970667358 0x22 SLT KECCAK256 0xF PUSH16 0x6A65A81F0A3DDB8EAC5660A681A2C335 0xEE 0x2C 0xD5 0x4B POP 0xBE 0xC3 GAS 0xAC SWAP13 0xBD DUP4 DUP12 0x4A PUSH5 0x736F6C6343 STOP ADDMOD AND STOP CALLER "
				},
				"gasEstimates": {
					"creation": {
						"codeDepositCost": "1148200",
						"executionCost": "infinite",
						"totalCost": "infinite"
					},
					"external": {
						"TokenBalance(string)": "infinite",
						"buyToken(address,address,uint256)": "infinite",
						"buyTokenForEther(address)": "infinite"
					}
				},
				"methodIdentifiers": {
					"TokenBalance(string)": "bf6cb6a1",
					"buyToken(address,address,uint256)": "c1d5725f",
					"buyTokenForEther(address)": "7193bfab"
				}
			},
			"storageLayout": {
				"storage": [
					{
						"astId": 856,
						"contract": "solidity_course_materials/TokenExchange/TokenExchng.sol:TokenExchange",
						"label": "proxyTA",
						"offset": 0,
						"slot": "0",
						"type": "t_contract(TokenA)817"
					},
					{
						"astId": 859,
						"contract": "solidity_course_materials/TokenExchange/TokenExchng.sol:TokenExchange",
						"label": "proxyTB",
						"offset": 0,
						"slot": "1",
						"type": "t_contract(TokenB)849"
					},
					{
						"astId": 863,
						"contract": "solidity_course_materials/TokenExchange/TokenExchng.sol:TokenExchange",
						"label": "TokenBalance",
						"offset": 0,
						"slot": "2",
						"type": "t_mapping(t_string_memory_ptr,t_uint256)"
					}
				],
				"types": {
					"t_contract(TokenA)817": {
						"encoding": "inplace",
						"label": "contract TokenA",
						"numberOfBytes": "20"
					},
					"t_contract(TokenB)849": {
						"encoding": "inplace",
						"label": "contract TokenB",
						"numberOfBytes": "20"
					},
					"t_mapping(t_string_memory_ptr,t_uint256)": {
						"encoding": "mapping",
						"key": "t_string_memory_ptr",
						"label": "mapping(string => uint256)",
						"numberOfBytes": "32",
						"value": "t_uint256"
					},
					"t_string_memory_ptr": {
						"encoding": "bytes",
						"label": "string",
						"numberOfBytes": "32"
					},
					"t_uint256": {
						"encoding": "inplace",
						"label": "uint256",
						"numberOfBytes": "32"
					}
				}
			},
			"userdoc": {
				"kind": "user",
				"methods": {},
				"version": 1
			}
		}
	}
}