{
	"data": {
		"bytecode": {
			"linkReferences": {},
			"object": "608060405234801561000f575f80fd5b506104108061001d5f395ff3fe60806040526004361061003e575f3560e01c80631b9265b814610042578063412664ae1461004c57806381b2d07b14610068578063d12eb6e914610092575b5f80fd5b61004a6100ae565b005b61006660048036038101906100619190610242565b6100b0565b005b348015610073575f80fd5b5061007c6100fd565b604051610089919061028f565b60405180910390f35b6100ac60048036038101906100a791906102e3565b610104565b005b565b5f8290508073ffffffffffffffffffffffffffffffffffffffff166108fc8390811502906040515f60405180830381858888f193505050501580156100f7573d5f803e3d5ffd5b50505050565b5f47905090565b5f8273ffffffffffffffffffffffffffffffffffffffff16826040516101299061034e565b5f6040518083038185875af1925050503d805f8114610163576040519150601f19603f3d011682016040523d82523d5f602084013e610168565b606091505b50509050806101ac576040517f08c379a00000000000000000000000000000000000000000000000000000000081526004016101a3906103bc565b60405180910390fd5b505050565b5f80fd5b5f73ffffffffffffffffffffffffffffffffffffffff82169050919050565b5f6101de826101b5565b9050919050565b6101ee816101d4565b81146101f8575f80fd5b50565b5f81359050610209816101e5565b92915050565b5f819050919050565b6102218161020f565b811461022b575f80fd5b50565b5f8135905061023c81610218565b92915050565b5f8060408385031215610258576102576101b1565b5b5f610265858286016101fb565b92505060206102768582860161022e565b9150509250929050565b6102898161020f565b82525050565b5f6020820190506102a25f830184610280565b92915050565b5f6102b2826101b5565b9050919050565b6102c2816102a8565b81146102cc575f80fd5b50565b5f813590506102dd816102b9565b92915050565b5f80604083850312156102f9576102f86101b1565b5b5f610306858286016102cf565b92505060206103178582860161022e565b9150509250929050565b5f81905092915050565b50565b5f6103395f83610321565b91506103448261032b565b5f82019050919050565b5f6103588261032e565b9150819050919050565b5f82825260208201905092915050565b7f7472616e73616374696f6e206661696c656400000000000000000000000000005f82015250565b5f6103a6601283610362565b91506103b182610372565b602082019050919050565b5f6020820190508181035f8301526103d38161039a565b905091905056fea2646970667358221220ce7acb6c785271102b09feaa1e971c1d691e7902e2b480d06aa01ee5d6bd8add64736f6c63430008160033",
			"opcodes": "PUSH1 0x80 PUSH1 0x40 MSTORE CALLVALUE DUP1 ISZERO PUSH2 0xF JUMPI PUSH0 DUP1 REVERT JUMPDEST POP PUSH2 0x410 DUP1 PUSH2 0x1D PUSH0 CODECOPY PUSH0 RETURN INVALID PUSH1 0x80 PUSH1 0x40 MSTORE PUSH1 0x4 CALLDATASIZE LT PUSH2 0x3E JUMPI PUSH0 CALLDATALOAD PUSH1 0xE0 SHR DUP1 PUSH4 0x1B9265B8 EQ PUSH2 0x42 JUMPI DUP1 PUSH4 0x412664AE EQ PUSH2 0x4C JUMPI DUP1 PUSH4 0x81B2D07B EQ PUSH2 0x68 JUMPI DUP1 PUSH4 0xD12EB6E9 EQ PUSH2 0x92 JUMPI JUMPDEST PUSH0 DUP1 REVERT JUMPDEST PUSH2 0x4A PUSH2 0xAE JUMP JUMPDEST STOP JUMPDEST PUSH2 0x66 PUSH1 0x4 DUP1 CALLDATASIZE SUB DUP2 ADD SWAP1 PUSH2 0x61 SWAP2 SWAP1 PUSH2 0x242 JUMP JUMPDEST PUSH2 0xB0 JUMP JUMPDEST STOP JUMPDEST CALLVALUE DUP1 ISZERO PUSH2 0x73 JUMPI PUSH0 DUP1 REVERT JUMPDEST POP PUSH2 0x7C PUSH2 0xFD JUMP JUMPDEST PUSH1 0x40 MLOAD PUSH2 0x89 SWAP2 SWAP1 PUSH2 0x28F JUMP JUMPDEST PUSH1 0x40 MLOAD DUP1 SWAP2 SUB SWAP1 RETURN JUMPDEST PUSH2 0xAC PUSH1 0x4 DUP1 CALLDATASIZE SUB DUP2 ADD SWAP1 PUSH2 0xA7 SWAP2 SWAP1 PUSH2 0x2E3 JUMP JUMPDEST PUSH2 0x104 JUMP JUMPDEST STOP JUMPDEST JUMP JUMPDEST PUSH0 DUP3 SWAP1 POP DUP1 PUSH20 0xFFFFFFFFFFFFFFFFFFFFFFFFFFFFFFFFFFFFFFFF AND PUSH2 0x8FC DUP4 SWAP1 DUP2 ISZERO MUL SWAP1 PUSH1 0x40 MLOAD PUSH0 PUSH1 0x40 MLOAD DUP1 DUP4 SUB DUP2 DUP6 DUP9 DUP9 CALL SWAP4 POP POP POP POP ISZERO DUP1 ISZERO PUSH2 0xF7 JUMPI RETURNDATASIZE PUSH0 DUP1 RETURNDATACOPY RETURNDATASIZE PUSH0 REVERT JUMPDEST POP POP POP POP JUMP JUMPDEST PUSH0 SELFBALANCE SWAP1 POP SWAP1 JUMP JUMPDEST PUSH0 DUP3 PUSH20 0xFFFFFFFFFFFFFFFFFFFFFFFFFFFFFFFFFFFFFFFF AND DUP3 PUSH1 0x40 MLOAD PUSH2 0x129 SWAP1 PUSH2 0x34E JUMP JUMPDEST PUSH0 PUSH1 0x40 MLOAD DUP1 DUP4 SUB DUP2 DUP6 DUP8 GAS CALL SWAP3 POP POP POP RETURNDATASIZE DUP1 PUSH0 DUP2 EQ PUSH2 0x163 JUMPI PUSH1 0x40 MLOAD SWAP2 POP PUSH1 0x1F NOT PUSH1 0x3F RETURNDATASIZE ADD AND DUP3 ADD PUSH1 0x40 MSTORE RETURNDATASIZE DUP3 MSTORE RETURNDATASIZE PUSH0 PUSH1 0x20 DUP5 ADD RETURNDATACOPY PUSH2 0x168 JUMP JUMPDEST PUSH1 0x60 SWAP2 POP JUMPDEST POP POP SWAP1 POP DUP1 PUSH2 0x1AC JUMPI PUSH1 0x40 MLOAD PUSH32 0x8C379A000000000000000000000000000000000000000000000000000000000 DUP2 MSTORE PUSH1 0x4 ADD PUSH2 0x1A3 SWAP1 PUSH2 0x3BC JUMP JUMPDEST PUSH1 0x40 MLOAD DUP1 SWAP2 SUB SWAP1 REVERT JUMPDEST POP POP POP JUMP JUMPDEST PUSH0 DUP1 REVERT JUMPDEST PUSH0 PUSH20 0xFFFFFFFFFFFFFFFFFFFFFFFFFFFFFFFFFFFFFFFF DUP3 AND SWAP1 POP SWAP2 SWAP1 POP JUMP JUMPDEST PUSH0 PUSH2 0x1DE DUP3 PUSH2 0x1B5 JUMP JUMPDEST SWAP1 POP SWAP2 SWAP1 POP JUMP JUMPDEST PUSH2 0x1EE DUP2 PUSH2 0x1D4 JUMP JUMPDEST DUP2 EQ PUSH2 0x1F8 JUMPI PUSH0 DUP1 REVERT JUMPDEST POP JUMP JUMPDEST PUSH0 DUP2 CALLDATALOAD SWAP1 POP PUSH2 0x209 DUP2 PUSH2 0x1E5 JUMP JUMPDEST SWAP3 SWAP2 POP POP JUMP JUMPDEST PUSH0 DUP2 SWAP1 POP SWAP2 SWAP1 POP JUMP JUMPDEST PUSH2 0x221 DUP2 PUSH2 0x20F JUMP JUMPDEST DUP2 EQ PUSH2 0x22B JUMPI PUSH0 DUP1 REVERT JUMPDEST POP JUMP JUMPDEST PUSH0 DUP2 CALLDATALOAD SWAP1 POP PUSH2 0x23C DUP2 PUSH2 0x218 JUMP JUMPDEST SWAP3 SWAP2 POP POP JUMP JUMPDEST PUSH0 DUP1 PUSH1 0x40 DUP4 DUP6 SUB SLT ISZERO PUSH2 0x258 JUMPI PUSH2 0x257 PUSH2 0x1B1 JUMP JUMPDEST JUMPDEST PUSH0 PUSH2 0x265 DUP6 DUP3 DUP7 ADD PUSH2 0x1FB JUMP JUMPDEST SWAP3 POP POP PUSH1 0x20 PUSH2 0x276 DUP6 DUP3 DUP7 ADD PUSH2 0x22E JUMP JUMPDEST SWAP2 POP POP SWAP3 POP SWAP3 SWAP1 POP JUMP JUMPDEST PUSH2 0x289 DUP2 PUSH2 0x20F JUMP JUMPDEST DUP3 MSTORE POP POP JUMP JUMPDEST PUSH0 PUSH1 0x20 DUP3 ADD SWAP1 POP PUSH2 0x2A2 PUSH0 DUP4 ADD DUP5 PUSH2 0x280 JUMP JUMPDEST SWAP3 SWAP2 POP POP JUMP JUMPDEST PUSH0 PUSH2 0x2B2 DUP3 PUSH2 0x1B5 JUMP JUMPDEST SWAP1 POP SWAP2 SWAP1 POP JUMP JUMPDEST PUSH2 0x2C2 DUP2 PUSH2 0x2A8 JUMP JUMPDEST DUP2 EQ PUSH2 0x2CC JUMPI PUSH0 DUP1 REVERT JUMPDEST POP JUMP JUMPDEST PUSH0 DUP2 CALLDATALOAD SWAP1 POP PUSH2 0x2DD DUP2 PUSH2 0x2B9 JUMP JUMPDEST SWAP3 SWAP2 POP POP JUMP JUMPDEST PUSH0 DUP1 PUSH1 0x40 DUP4 DUP6 SUB SLT ISZERO PUSH2 0x2F9 JUMPI PUSH2 0x2F8 PUSH2 0x1B1 JUMP JUMPDEST JUMPDEST PUSH0 PUSH2 0x306 DUP6 DUP3 DUP7 ADD PUSH2 0x2CF JUMP JUMPDEST SWAP3 POP POP PUSH1 0x20 PUSH2 0x317 DUP6 DUP3 DUP7 ADD PUSH2 0x22E JUMP JUMPDEST SWAP2 POP POP SWAP3 POP SWAP3 SWAP1 POP JUMP JUMPDEST PUSH0 DUP2 SWAP1 POP SWAP3 SWAP2 POP POP JUMP JUMPDEST POP JUMP JUMPDEST PUSH0 PUSH2 0x339 PUSH0 DUP4 PUSH2 0x321 JUMP JUMPDEST SWAP2 POP PUSH2 0x344 DUP3 PUSH2 0x32B JUMP JUMPDEST PUSH0 DUP3 ADD SWAP1 POP SWAP2 SWAP1 POP JUMP JUMPDEST PUSH0 PUSH2 0x358 DUP3 PUSH2 0x32E JUMP JUMPDEST SWAP2 POP DUP2 SWAP1 POP SWAP2 SWAP1 POP JUMP JUMPDEST PUSH0 DUP3 DUP3 MSTORE PUSH1 0x20 DUP3 ADD SWAP1 POP SWAP3 SWAP2 POP POP JUMP JUMPDEST PUSH32 0x7472616E73616374696F6E206661696C65640000000000000000000000000000 PUSH0 DUP3 ADD MSTORE POP JUMP JUMPDEST PUSH0 PUSH2 0x3A6 PUSH1 0x12 DUP4 PUSH2 0x362 JUMP JUMPDEST SWAP2 POP PUSH2 0x3B1 DUP3 PUSH2 0x372 JUMP JUMPDEST PUSH1 0x20 DUP3 ADD SWAP1 POP SWAP2 SWAP1 POP JUMP JUMPDEST PUSH0 PUSH1 0x20 DUP3 ADD SWAP1 POP DUP2 DUP2 SUB PUSH0 DUP4 ADD MSTORE PUSH2 0x3D3 DUP2 PUSH2 0x39A JUMP JUMPDEST SWAP1 POP SWAP2 SWAP1 POP JUMP INVALID LOG2 PUSH5 0x6970667358 0x22 SLT KECCAK256 0xCE PUSH27 0xCB6C785271102B09FEAA1E971C1D691E7902E2B480D06AA01EE5D6 0xBD DUP11 0xDD PUSH5 0x736F6C6343 STOP ADDMOD AND STOP CALLER "
		},
		"gasEstimates": {
			"creation": {
				"codeDepositCost": "208000",
				"executionCost": "249",
				"totalCost": "208249"
			},
			"external": {
				"pay()": "97",
				"sendTknViaCall(address,uint256)": "infinite",
				"sendToken(address,uint256)": "infinite",
				"showBalance()": "356"
			}
		},
		"methodIdentifiers": {
			"pay()": "1b9265b8",
			"sendTknViaCall(address,uint256)": "d12eb6e9",
			"sendToken(address,uint256)": "412664ae",
			"showBalance()": "81b2d07b"
		}
	},
	"abi": [
		{
			"inputs": [],
			"name": "pay",
			"outputs": [],
			"stateMutability": "payable",
			"type": "function"
		},
		{
			"inputs": [
				{
					"internalType": "address payable",
					"name": "_to",
					"type": "address"
				},
				{
					"internalType": "uint256",
					"name": "_val",
					"type": "uint256"
				}
			],
			"name": "sendTknViaCall",
			"outputs": [],
			"stateMutability": "payable",
			"type": "function"
		},
		{
			"inputs": [
				{
					"internalType": "address",
					"name": "_tp",
					"type": "address"
				},
				{
					"internalType": "uint256",
					"name": "_val",
					"type": "uint256"
				}
			],
			"name": "sendToken",
			"outputs": [],
			"stateMutability": "payable",
			"type": "function"
		},
		{
			"inputs": [],
			"name": "showBalance",
			"outputs": [
				{
					"internalType": "uint256",
					"name": "_balance",
					"type": "uint256"
				}
			],
			"stateMutability": "view",
			"type": "function"
		}
	]
}